{
	"contracts/WNTF.sol": {
		"WNFT": {
			"abi": [
				{
					"inputs": [],
					"stateMutability": "nonpayable",
					"type": "constructor"
				},
				{
					"anonymous": false,
					"inputs": [
						{
							"indexed": true,
							"internalType": "address",
							"name": "owner",
							"type": "address"
						},
						{
							"indexed": true,
							"internalType": "address",
							"name": "spender",
							"type": "address"
						},
						{
							"indexed": false,
							"internalType": "uint256",
							"name": "value",
							"type": "uint256"
						}
					],
					"name": "Approval",
					"type": "event"
				},
				{
					"anonymous": false,
					"inputs": [
						{
							"indexed": true,
							"internalType": "address",
							"name": "burner",
							"type": "address"
						},
						{
							"indexed": false,
							"internalType": "uint256",
							"name": "value",
							"type": "uint256"
						}
					],
					"name": "Burn",
					"type": "event"
				},
				{
					"anonymous": false,
					"inputs": [
						{
							"indexed": true,
							"internalType": "address",
							"name": "sender",
							"type": "address"
						},
						{
							"indexed": false,
							"internalType": "uint256",
							"name": "value",
							"type": "uint256"
						}
					],
					"name": "Deposit",
					"type": "event"
				},
				{
					"anonymous": false,
					"inputs": [
						{
							"indexed": true,
							"internalType": "address",
							"name": "minter",
							"type": "address"
						},
						{
							"indexed": false,
							"internalType": "uint256",
							"name": "value",
							"type": "uint256"
						}
					],
					"name": "Mint",
					"type": "event"
				},
				{
					"anonymous": false,
					"inputs": [
						{
							"indexed": true,
							"internalType": "address",
							"name": "from",
							"type": "address"
						},
						{
							"indexed": true,
							"internalType": "address",
							"name": "to",
							"type": "address"
						},
						{
							"indexed": false,
							"internalType": "uint256",
							"name": "value",
							"type": "uint256"
						}
					],
					"name": "Transfer",
					"type": "event"
				},
				{
					"anonymous": false,
					"inputs": [
						{
							"indexed": true,
							"internalType": "address",
							"name": "receiver",
							"type": "address"
						},
						{
							"indexed": false,
							"internalType": "uint256",
							"name": "value",
							"type": "uint256"
						}
					],
					"name": "Withdrawal",
					"type": "event"
				},
				{
					"inputs": [
						{
							"internalType": "address",
							"name": "owner",
							"type": "address"
						},
						{
							"internalType": "address",
							"name": "delegate",
							"type": "address"
						}
					],
					"name": "allowance",
					"outputs": [
						{
							"internalType": "uint256",
							"name": "remaining",
							"type": "uint256"
						}
					],
					"stateMutability": "view",
					"type": "function"
				},
				{
					"inputs": [
						{
							"internalType": "address",
							"name": "delegate",
							"type": "address"
						},
						{
							"internalType": "uint256",
							"name": "numTokens",
							"type": "uint256"
						}
					],
					"name": "approve",
					"outputs": [
						{
							"internalType": "bool",
							"name": "success",
							"type": "bool"
						}
					],
					"stateMutability": "nonpayable",
					"type": "function"
				},
				{
					"inputs": [
						{
							"internalType": "address",
							"name": "tokenOwner",
							"type": "address"
						}
					],
					"name": "balanceOf",
					"outputs": [
						{
							"internalType": "uint256",
							"name": "balance",
							"type": "uint256"
						}
					],
					"stateMutability": "view",
					"type": "function"
				},
				{
					"inputs": [
						{
							"internalType": "uint256",
							"name": "amount",
							"type": "uint256"
						}
					],
					"name": "burn",
					"outputs": [],
					"stateMutability": "nonpayable",
					"type": "function"
				},
				{
					"inputs": [],
					"name": "decimals",
					"outputs": [
						{
							"internalType": "uint8",
							"name": "",
							"type": "uint8"
						}
					],
					"stateMutability": "view",
					"type": "function"
				},
				{
					"inputs": [],
					"name": "deposit",
					"outputs": [],
					"stateMutability": "payable",
					"type": "function"
				},
				{
					"inputs": [
						{
							"internalType": "uint256",
							"name": "amount",
							"type": "uint256"
						},
						{
							"internalType": "address",
							"name": "recipient",
							"type": "address"
						}
					],
					"name": "mint",
					"outputs": [],
					"stateMutability": "nonpayable",
					"type": "function"
				},
				{
					"inputs": [],
					"name": "name",
					"outputs": [
						{
							"internalType": "string",
							"name": "",
							"type": "string"
						}
					],
					"stateMutability": "view",
					"type": "function"
				},
				{
					"inputs": [],
					"name": "symbol",
					"outputs": [
						{
							"internalType": "string",
							"name": "",
							"type": "string"
						}
					],
					"stateMutability": "view",
					"type": "function"
				},
				{
					"inputs": [],
					"name": "totalSupply",
					"outputs": [
						{
							"internalType": "uint256",
							"name": "",
							"type": "uint256"
						}
					],
					"stateMutability": "view",
					"type": "function"
				},
				{
					"inputs": [
						{
							"internalType": "address",
							"name": "receiver",
							"type": "address"
						},
						{
							"internalType": "uint256",
							"name": "numTokens",
							"type": "uint256"
						}
					],
					"name": "transfer",
					"outputs": [
						{
							"internalType": "bool",
							"name": "success",
							"type": "bool"
						}
					],
					"stateMutability": "nonpayable",
					"type": "function"
				},
				{
					"inputs": [
						{
							"internalType": "address",
							"name": "owner",
							"type": "address"
						},
						{
							"internalType": "address",
							"name": "buyer",
							"type": "address"
						},
						{
							"internalType": "uint256",
							"name": "numTokens",
							"type": "uint256"
						}
					],
					"name": "transferFrom",
					"outputs": [
						{
							"internalType": "bool",
							"name": "success",
							"type": "bool"
						}
					],
					"stateMutability": "nonpayable",
					"type": "function"
				},
				{
					"inputs": [
						{
							"internalType": "uint256",
							"name": "amount",
							"type": "uint256"
						}
					],
					"name": "withdraw",
					"outputs": [],
					"stateMutability": "nonpayable",
					"type": "function"
				}
			],
			"devdoc": {
				"kind": "dev",
				"methods": {
					"totalSupply()": {
						"details": "Returns the amount of tokens in existence."
					}
				},
				"version": 1
			},
			"evm": {
				"assembly": "    /* \"contracts/WNTF.sol\":173:4185  contract WNFT is IERC20 {... */\n  mstore(0x40, 0x80)\n    /* \"contracts/WNTF.sol\":763:810  constructor() {... */\n  callvalue\n  dup1\n  iszero\n  tag_1\n  jumpi\n  0x00\n  dup1\n  revert\ntag_1:\n  pop\n    /* \"contracts/WNTF.sol\":802:803  0 */\n  0x00\n    /* \"contracts/WNTF.sol\":787:799  totalSupply_ */\n  0x02\n    /* \"contracts/WNTF.sol\":787:803  totalSupply_ = 0 */\n  dup2\n  swap1\n  sstore\n  pop\n    /* \"contracts/WNTF.sol\":173:4185  contract WNFT is IERC20 {... */\n  dataSize(sub_0)\n  dup1\n  dataOffset(sub_0)\n  0x00\n  codecopy\n  0x00\n  return\nstop\n\nsub_0: assembly {\n        /* \"contracts/WNTF.sol\":173:4185  contract WNFT is IERC20 {... */\n      mstore(0x40, 0x80)\n      jumpi(tag_1, lt(calldatasize, 0x04))\n      shr(0xe0, calldataload(0x00))\n      dup1\n      0x42966c68\n      gt\n      tag_15\n      jumpi\n      dup1\n      0x95d89b41\n      gt\n      tag_16\n      jumpi\n      dup1\n      0x95d89b41\n      eq\n      tag_11\n      jumpi\n      dup1\n      0xa9059cbb\n      eq\n      tag_12\n      jumpi\n      dup1\n      0xd0e30db0\n      eq\n      tag_13\n      jumpi\n      dup1\n      0xdd62ed3e\n      eq\n      tag_14\n      jumpi\n      jump(tag_1)\n    tag_16:\n      dup1\n      0x42966c68\n      eq\n      tag_8\n      jumpi\n      dup1\n      0x70a08231\n      eq\n      tag_9\n      jumpi\n      dup1\n      0x94bf804d\n      eq\n      tag_10\n      jumpi\n      jump(tag_1)\n    tag_15:\n      dup1\n      0x06fdde03\n      eq\n      tag_2\n      jumpi\n      dup1\n      0x095ea7b3\n      eq\n      tag_3\n      jumpi\n      dup1\n      0x18160ddd\n      eq\n      tag_4\n      jumpi\n      dup1\n      0x23b872dd\n      eq\n      tag_5\n      jumpi\n      dup1\n      0x2e1a7d4d\n      eq\n      tag_6\n      jumpi\n      dup1\n      0x313ce567\n      eq\n      tag_7\n      jumpi\n    tag_1:\n      0x00\n      dup1\n      revert\n        /* \"contracts/WNTF.sol\":236:279  string constant public name = \"Wrapped NFT\" */\n    tag_2:\n      callvalue\n      dup1\n      iszero\n      tag_17\n      jumpi\n      0x00\n      dup1\n      revert\n    tag_17:\n      pop\n      tag_18\n      tag_19\n      jump\t// in\n    tag_18:\n      mload(0x40)\n      tag_20\n      swap2\n      swap1\n      tag_21\n      jump\t// in\n    tag_20:\n      mload(0x40)\n      dup1\n      swap2\n      sub\n      swap1\n      return\n        /* \"contracts/WNTF.sol\":1506:1807  function approve(address delegate, uint256 numTokens) public override returns (bool success) {... */\n    tag_3:\n      callvalue\n      dup1\n      iszero\n      tag_22\n      jumpi\n      0x00\n      dup1\n      revert\n    tag_22:\n      pop\n      tag_23\n      0x04\n      dup1\n      calldatasize\n      sub\n      dup2\n      add\n      swap1\n      tag_24\n      swap2\n      swap1\n      tag_25\n      jump\t// in\n    tag_24:\n      tag_26\n      jump\t// in\n    tag_23:\n      mload(0x40)\n      tag_27\n      swap2\n      swap1\n      tag_28\n      jump\t// in\n    tag_27:\n      mload(0x40)\n      dup1\n      swap2\n      sub\n      swap1\n      return\n        /* \"contracts/WNTF.sol\":816:914  function totalSupply() public view override returns (uint256) {... */\n    tag_4:\n      callvalue\n      dup1\n      iszero\n      tag_29\n      jumpi\n      0x00\n      dup1\n      revert\n    tag_29:\n      pop\n      tag_30\n      tag_31\n      jump\t// in\n    tag_30:\n      mload(0x40)\n      tag_32\n      swap2\n      swap1\n      tag_33\n      jump\t// in\n    tag_32:\n      mload(0x40)\n      dup1\n      swap2\n      sub\n      swap1\n      return\n        /* \"contracts/WNTF.sol\":2105:2710  function transferFrom(address owner, address buyer, uint256 numTokens) public override returns (bool success) {... */\n    tag_5:\n      callvalue\n      dup1\n      iszero\n      tag_34\n      jumpi\n      0x00\n      dup1\n      revert\n    tag_34:\n      pop\n      tag_35\n      0x04\n      dup1\n      calldatasize\n      sub\n      dup2\n      add\n      swap1\n      tag_36\n      swap2\n      swap1\n      tag_37\n      jump\t// in\n    tag_36:\n      tag_38\n      jump\t// in\n    tag_35:\n      mload(0x40)\n      tag_39\n      swap2\n      swap1\n      tag_28\n      jump\t// in\n    tag_39:\n      mload(0x40)\n      dup1\n      swap2\n      sub\n      swap1\n      return\n        /* \"contracts/WNTF.sol\":2987:3506  function withdraw(uint256 amount) public {... */\n    tag_6:\n      callvalue\n      dup1\n      iszero\n      tag_40\n      jumpi\n      0x00\n      dup1\n      revert\n    tag_40:\n      pop\n      tag_41\n      0x04\n      dup1\n      calldatasize\n      sub\n      dup2\n      add\n      swap1\n      tag_42\n      swap2\n      swap1\n      tag_43\n      jump\t// in\n    tag_42:\n      tag_44\n      jump\t// in\n    tag_41:\n      stop\n        /* \"contracts/WNTF.sol\":329:364  uint8 constant public decimals = 18 */\n    tag_7:\n      callvalue\n      dup1\n      iszero\n      tag_45\n      jumpi\n      0x00\n      dup1\n      revert\n    tag_45:\n      pop\n      tag_46\n      tag_47\n      jump\t// in\n    tag_46:\n      mload(0x40)\n      tag_48\n      swap2\n      swap1\n      tag_49\n      jump\t// in\n    tag_48:\n      mload(0x40)\n      dup1\n      swap2\n      sub\n      swap1\n      return\n        /* \"contracts/WNTF.sol\":3512:3837  function burn(uint256 amount) public {... */\n    tag_8:\n      callvalue\n      dup1\n      iszero\n      tag_50\n      jumpi\n      0x00\n      dup1\n      revert\n    tag_50:\n      pop\n      tag_51\n      0x04\n      dup1\n      calldatasize\n      sub\n      dup2\n      add\n      swap1\n      tag_52\n      swap2\n      swap1\n      tag_43\n      jump\t// in\n    tag_52:\n      tag_53\n      jump\t// in\n    tag_51:\n      stop\n        /* \"contracts/WNTF.sol\":920:1050  function balanceOf(address tokenOwner) public view override returns (uint256 balance) {... */\n    tag_9:\n      callvalue\n      dup1\n      iszero\n      tag_54\n      jumpi\n      0x00\n      dup1\n      revert\n    tag_54:\n      pop\n      tag_55\n      0x04\n      dup1\n      calldatasize\n      sub\n      dup2\n      add\n      swap1\n      tag_56\n      swap2\n      swap1\n      tag_57\n      jump\t// in\n    tag_56:\n      tag_58\n      jump\t// in\n    tag_55:\n      mload(0x40)\n      tag_59\n      swap2\n      swap1\n      tag_33\n      jump\t// in\n    tag_59:\n      mload(0x40)\n      dup1\n      swap2\n      sub\n      swap1\n      return\n        /* \"contracts/WNTF.sol\":3843:4183  function mint(uint256 amount, address recipient) public {... */\n    tag_10:\n      callvalue\n      dup1\n      iszero\n      tag_60\n      jumpi\n      0x00\n      dup1\n      revert\n    tag_60:\n      pop\n      tag_61\n      0x04\n      dup1\n      calldatasize\n      sub\n      dup2\n      add\n      swap1\n      tag_62\n      swap2\n      swap1\n      tag_63\n      jump\t// in\n    tag_62:\n      tag_64\n      jump\t// in\n    tag_61:\n      stop\n        /* \"contracts/WNTF.sol\":285:323  string constant public symbol = \"WNFT\" */\n    tag_11:\n      callvalue\n      dup1\n      iszero\n      tag_65\n      jumpi\n      0x00\n      dup1\n      revert\n    tag_65:\n      pop\n      tag_66\n      tag_67\n      jump\t// in\n    tag_66:\n      mload(0x40)\n      tag_68\n      swap2\n      swap1\n      tag_21\n      jump\t// in\n    tag_68:\n      mload(0x40)\n      dup1\n      swap2\n      sub\n      swap1\n      return\n        /* \"contracts/WNTF.sol\":1056:1500  function transfer(address receiver, uint256 numTokens) public override returns (bool success) {... */\n    tag_12:\n      callvalue\n      dup1\n      iszero\n      tag_69\n      jumpi\n      0x00\n      dup1\n      revert\n    tag_69:\n      pop\n      tag_70\n      0x04\n      dup1\n      calldatasize\n      sub\n      dup2\n      add\n      swap1\n      tag_71\n      swap2\n      swap1\n      tag_25\n      jump\t// in\n    tag_71:\n      tag_72\n      jump\t// in\n    tag_70:\n      mload(0x40)\n      tag_73\n      swap2\n      swap1\n      tag_28\n      jump\t// in\n    tag_73:\n      mload(0x40)\n      dup1\n      swap2\n      sub\n      swap1\n      return\n        /* \"contracts/WNTF.sol\":2716:2981  function deposit() public payable {... */\n    tag_13:\n      tag_74\n      tag_75\n      jump\t// in\n    tag_74:\n      stop\n        /* \"contracts/WNTF.sol\":1813:2099  function allowance(address owner, address delegate) public view override returns (uint256 remaining) {... */\n    tag_14:\n      callvalue\n      dup1\n      iszero\n      tag_76\n      jumpi\n      0x00\n      dup1\n      revert\n    tag_76:\n      pop\n      tag_77\n      0x04\n      dup1\n      calldatasize\n      sub\n      dup2\n      add\n      swap1\n      tag_78\n      swap2\n      swap1\n      tag_79\n      jump\t// in\n    tag_78:\n      tag_80\n      jump\t// in\n    tag_77:\n      mload(0x40)\n      tag_81\n      swap2\n      swap1\n      tag_33\n      jump\t// in\n    tag_81:\n      mload(0x40)\n      dup1\n      swap2\n      sub\n      swap1\n      return\n        /* \"contracts/WNTF.sol\":236:279  string constant public name = \"Wrapped NFT\" */\n    tag_19:\n      mload(0x40)\n      dup1\n      0x40\n      add\n      0x40\n      mstore\n      dup1\n      0x0b\n      dup2\n      mstore\n      0x20\n      add\n      0x57726170706564204e4654000000000000000000000000000000000000000000\n      dup2\n      mstore\n      pop\n      dup2\n      jump\t// out\n        /* \"contracts/WNTF.sol\":1506:1807  function approve(address delegate, uint256 numTokens) public override returns (bool success) {... */\n    tag_26:\n        /* \"contracts/WNTF.sol\":1585:1597  bool success */\n      0x00\n        /* \"contracts/WNTF.sol\":1637:1638  0 */\n      dup1\n        /* \"contracts/WNTF.sol\":1617:1639  delegate != address(0) */\n      0xffffffffffffffffffffffffffffffffffffffff\n      and\n        /* \"contracts/WNTF.sol\":1617:1625  delegate */\n      dup4\n        /* \"contracts/WNTF.sol\":1617:1639  delegate != address(0) */\n      0xffffffffffffffffffffffffffffffffffffffff\n      and\n      eq\n      iszero\n        /* \"contracts/WNTF.sol\":1609:1669  require(delegate != address(0), \"Invalid delegate address.\") */\n      tag_83\n      jumpi\n      mload(0x40)\n      0x08c379a000000000000000000000000000000000000000000000000000000000\n      dup2\n      mstore\n      0x04\n      add\n      tag_84\n      swap1\n      tag_85\n      jump\t// in\n    tag_84:\n      mload(0x40)\n      dup1\n      swap2\n      sub\n      swap1\n      revert\n    tag_83:\n        /* \"contracts/WNTF.sol\":1714:1723  numTokens */\n      dup2\n        /* \"contracts/WNTF.sol\":1679:1689  allowances */\n      0x01\n        /* \"contracts/WNTF.sol\":1679:1701  allowances[msg.sender] */\n      0x00\n        /* \"contracts/WNTF.sol\":1690:1700  msg.sender */\n      caller\n        /* \"contracts/WNTF.sol\":1679:1701  allowances[msg.sender] */\n      0xffffffffffffffffffffffffffffffffffffffff\n      and\n      0xffffffffffffffffffffffffffffffffffffffff\n      and\n      dup2\n      mstore\n      0x20\n      add\n      swap1\n      dup2\n      mstore\n      0x20\n      add\n      0x00\n      keccak256\n        /* \"contracts/WNTF.sol\":1679:1711  allowances[msg.sender][delegate] */\n      0x00\n        /* \"contracts/WNTF.sol\":1702:1710  delegate */\n      dup6\n        /* \"contracts/WNTF.sol\":1679:1711  allowances[msg.sender][delegate] */\n      0xffffffffffffffffffffffffffffffffffffffff\n      and\n      0xffffffffffffffffffffffffffffffffffffffff\n      and\n      dup2\n      mstore\n      0x20\n      add\n      swap1\n      dup2\n      mstore\n      0x20\n      add\n      0x00\n      keccak256\n        /* \"contracts/WNTF.sol\":1679:1723  allowances[msg.sender][delegate] = numTokens */\n      dup2\n      swap1\n      sstore\n      pop\n        /* \"contracts/WNTF.sol\":1759:1767  delegate */\n      dup3\n        /* \"contracts/WNTF.sol\":1738:1779  Approval(msg.sender, delegate, numTokens) */\n      0xffffffffffffffffffffffffffffffffffffffff\n      and\n        /* \"contracts/WNTF.sol\":1747:1757  msg.sender */\n      caller\n        /* \"contracts/WNTF.sol\":1738:1779  Approval(msg.sender, delegate, numTokens) */\n      0xffffffffffffffffffffffffffffffffffffffff\n      and\n      0x8c5be1e5ebec7d5bd14f71427d1e84f3dd0314c0f7b2291e5b200ac8c7c3b925\n        /* \"contracts/WNTF.sol\":1769:1778  numTokens */\n      dup5\n        /* \"contracts/WNTF.sol\":1738:1779  Approval(msg.sender, delegate, numTokens) */\n      mload(0x40)\n      tag_86\n      swap2\n      swap1\n      tag_33\n      jump\t// in\n    tag_86:\n      mload(0x40)\n      dup1\n      swap2\n      sub\n      swap1\n      log3\n        /* \"contracts/WNTF.sol\":1796:1800  true */\n      0x01\n        /* \"contracts/WNTF.sol\":1789:1800  return true */\n      swap1\n      pop\n        /* \"contracts/WNTF.sol\":1506:1807  function approve(address delegate, uint256 numTokens) public override returns (bool success) {... */\n      swap3\n      swap2\n      pop\n      pop\n      jump\t// out\n        /* \"contracts/WNTF.sol\":816:914  function totalSupply() public view override returns (uint256) {... */\n    tag_31:\n        /* \"contracts/WNTF.sol\":869:876  uint256 */\n      0x00\n        /* \"contracts/WNTF.sol\":895:907  totalSupply_ */\n      sload(0x02)\n        /* \"contracts/WNTF.sol\":888:907  return totalSupply_ */\n      swap1\n      pop\n        /* \"contracts/WNTF.sol\":816:914  function totalSupply() public view override returns (uint256) {... */\n      swap1\n      jump\t// out\n        /* \"contracts/WNTF.sol\":2105:2710  function transferFrom(address owner, address buyer, uint256 numTokens) public override returns (bool success) {... */\n    tag_38:\n        /* \"contracts/WNTF.sol\":2201:2213  bool success */\n      0x00\n        /* \"contracts/WNTF.sol\":2245:2246  0 */\n      dup1\n        /* \"contracts/WNTF.sol\":2233:2242  numTokens */\n      dup3\n        /* \"contracts/WNTF.sol\":2233:2246  numTokens > 0 */\n      gt\n        /* \"contracts/WNTF.sol\":2225:2272  require(numTokens > 0, \"Invalid token amount.\") */\n      tag_89\n      jumpi\n      mload(0x40)\n      0x08c379a000000000000000000000000000000000000000000000000000000000\n      dup2\n      mstore\n      0x04\n      add\n      tag_90\n      swap1\n      tag_91\n      jump\t// in\n    tag_90:\n      mload(0x40)\n      dup1\n      swap2\n      sub\n      swap1\n      revert\n    tag_89:\n        /* \"contracts/WNTF.sol\":2303:2311  balances */\n      0x00\n        /* \"contracts/WNTF.sol\":2303:2318  balances[owner] */\n      dup1\n        /* \"contracts/WNTF.sol\":2312:2317  owner */\n      dup6\n        /* \"contracts/WNTF.sol\":2303:2318  balances[owner] */\n      0xffffffffffffffffffffffffffffffffffffffff\n      and\n      0xffffffffffffffffffffffffffffffffffffffff\n      and\n      dup2\n      mstore\n      0x20\n      add\n      swap1\n      dup2\n      mstore\n      0x20\n      add\n      0x00\n      keccak256\n      sload\n        /* \"contracts/WNTF.sol\":2290:2299  numTokens */\n      dup3\n        /* \"contracts/WNTF.sol\":2290:2318  numTokens <= balances[owner] */\n      gt\n      iszero\n        /* \"contracts/WNTF.sol\":2282:2344  require(numTokens <= balances[owner], \"Insufficient balance.\") */\n      tag_92\n      jumpi\n      mload(0x40)\n      0x08c379a000000000000000000000000000000000000000000000000000000000\n      dup2\n      mstore\n      0x04\n      add\n      tag_93\n      swap1\n      tag_94\n      jump\t// in\n    tag_93:\n      mload(0x40)\n      dup1\n      swap2\n      sub\n      swap1\n      revert\n    tag_92:\n        /* \"contracts/WNTF.sol\":2375:2385  allowances */\n      0x01\n        /* \"contracts/WNTF.sol\":2375:2392  allowances[owner] */\n      0x00\n        /* \"contracts/WNTF.sol\":2386:2391  owner */\n      dup6\n        /* \"contracts/WNTF.sol\":2375:2392  allowances[owner] */\n      0xffffffffffffffffffffffffffffffffffffffff\n      and\n      0xffffffffffffffffffffffffffffffffffffffff\n      and\n      dup2\n      mstore\n      0x20\n      add\n      swap1\n      dup2\n      mstore\n      0x20\n      add\n      0x00\n      keccak256\n        /* \"contracts/WNTF.sol\":2375:2404  allowances[owner][msg.sender] */\n      0x00\n        /* \"contracts/WNTF.sol\":2393:2403  msg.sender */\n      caller\n        /* \"contracts/WNTF.sol\":2375:2404  allowances[owner][msg.sender] */\n      0xffffffffffffffffffffffffffffffffffffffff\n      and\n      0xffffffffffffffffffffffffffffffffffffffff\n      and\n      dup2\n      mstore\n      0x20\n      add\n      swap1\n      dup2\n      mstore\n      0x20\n      add\n      0x00\n      keccak256\n      sload\n        /* \"contracts/WNTF.sol\":2362:2371  numTokens */\n      dup3\n        /* \"contracts/WNTF.sol\":2362:2404  numTokens <= allowances[owner][msg.sender] */\n      gt\n      iszero\n        /* \"contracts/WNTF.sol\":2354:2432  require(numTokens <= allowances[owner][msg.sender], \"Insufficient allowance.\") */\n      tag_95\n      jumpi\n      mload(0x40)\n      0x08c379a000000000000000000000000000000000000000000000000000000000\n      dup2\n      mstore\n      0x04\n      add\n      tag_96\n      swap1\n      tag_97\n      jump\t// in\n    tag_96:\n      mload(0x40)\n      dup1\n      swap2\n      sub\n      swap1\n      revert\n    tag_95:\n        /* \"contracts/WNTF.sol\":2474:2518  allowances[owner][msg.sender].sub(numTokens) */\n      tag_98\n        /* \"contracts/WNTF.sol\":2508:2517  numTokens */\n      dup3\n        /* \"contracts/WNTF.sol\":2474:2484  allowances */\n      0x01\n        /* \"contracts/WNTF.sol\":2474:2491  allowances[owner] */\n      0x00\n        /* \"contracts/WNTF.sol\":2485:2490  owner */\n      dup8\n        /* \"contracts/WNTF.sol\":2474:2491  allowances[owner] */\n      0xffffffffffffffffffffffffffffffffffffffff\n      and\n      0xffffffffffffffffffffffffffffffffffffffff\n      and\n      dup2\n      mstore\n      0x20\n      add\n      swap1\n      dup2\n      mstore\n      0x20\n      add\n      0x00\n      keccak256\n        /* \"contracts/WNTF.sol\":2474:2503  allowances[owner][msg.sender] */\n      0x00\n        /* \"contracts/WNTF.sol\":2492:2502  msg.sender */\n      caller\n        /* \"contracts/WNTF.sol\":2474:2503  allowances[owner][msg.sender] */\n      0xffffffffffffffffffffffffffffffffffffffff\n      and\n      0xffffffffffffffffffffffffffffffffffffffff\n      and\n      dup2\n      mstore\n      0x20\n      add\n      swap1\n      dup2\n      mstore\n      0x20\n      add\n      0x00\n      keccak256\n      sload\n        /* \"contracts/WNTF.sol\":2474:2507  allowances[owner][msg.sender].sub */\n      tag_99\n      swap1\n        /* \"contracts/WNTF.sol\":2474:2518  allowances[owner][msg.sender].sub(numTokens) */\n      swap2\n      swap1\n      0xffffffff\n      and\n      jump\t// in\n    tag_98:\n        /* \"contracts/WNTF.sol\":2442:2452  allowances */\n      0x01\n        /* \"contracts/WNTF.sol\":2442:2459  allowances[owner] */\n      0x00\n        /* \"contracts/WNTF.sol\":2453:2458  owner */\n      dup7\n        /* \"contracts/WNTF.sol\":2442:2459  allowances[owner] */\n      0xffffffffffffffffffffffffffffffffffffffff\n      and\n      0xffffffffffffffffffffffffffffffffffffffff\n      and\n      dup2\n      mstore\n      0x20\n      add\n      swap1\n      dup2\n      mstore\n      0x20\n      add\n      0x00\n      keccak256\n        /* \"contracts/WNTF.sol\":2442:2471  allowances[owner][msg.sender] */\n      0x00\n        /* \"contracts/WNTF.sol\":2460:2470  msg.sender */\n      caller\n        /* \"contracts/WNTF.sol\":2442:2471  allowances[owner][msg.sender] */\n      0xffffffffffffffffffffffffffffffffffffffff\n      and\n      0xffffffffffffffffffffffffffffffffffffffff\n      and\n      dup2\n      mstore\n      0x20\n      add\n      swap1\n      dup2\n      mstore\n      0x20\n      add\n      0x00\n      keccak256\n        /* \"contracts/WNTF.sol\":2442:2518  allowances[owner][msg.sender] = allowances[owner][msg.sender].sub(numTokens) */\n      dup2\n      swap1\n      sstore\n      pop\n        /* \"contracts/WNTF.sol\":2546:2576  balances[owner].sub(numTokens) */\n      tag_100\n        /* \"contracts/WNTF.sol\":2566:2575  numTokens */\n      dup3\n        /* \"contracts/WNTF.sol\":2546:2554  balances */\n      0x00\n        /* \"contracts/WNTF.sol\":2546:2561  balances[owner] */\n      dup1\n        /* \"contracts/WNTF.sol\":2555:2560  owner */\n      dup8\n        /* \"contracts/WNTF.sol\":2546:2561  balances[owner] */\n      0xffffffffffffffffffffffffffffffffffffffff\n      and\n      0xffffffffffffffffffffffffffffffffffffffff\n      and\n      dup2\n      mstore\n      0x20\n      add\n      swap1\n      dup2\n      mstore\n      0x20\n      add\n      0x00\n      keccak256\n      sload\n        /* \"contracts/WNTF.sol\":2546:2565  balances[owner].sub */\n      tag_99\n      swap1\n        /* \"contracts/WNTF.sol\":2546:2576  balances[owner].sub(numTokens) */\n      swap2\n      swap1\n      0xffffffff\n      and\n      jump\t// in\n    tag_100:\n        /* \"contracts/WNTF.sol\":2528:2536  balances */\n      0x00\n        /* \"contracts/WNTF.sol\":2528:2543  balances[owner] */\n      dup1\n        /* \"contracts/WNTF.sol\":2537:2542  owner */\n      dup7\n        /* \"contracts/WNTF.sol\":2528:2543  balances[owner] */\n      0xffffffffffffffffffffffffffffffffffffffff\n      and\n      0xffffffffffffffffffffffffffffffffffffffff\n      and\n      dup2\n      mstore\n      0x20\n      add\n      swap1\n      dup2\n      mstore\n      0x20\n      add\n      0x00\n      keccak256\n        /* \"contracts/WNTF.sol\":2528:2576  balances[owner] = balances[owner].sub(numTokens) */\n      dup2\n      swap1\n      sstore\n      pop\n        /* \"contracts/WNTF.sol\":2604:2634  balances[buyer].add(numTokens) */\n      tag_101\n        /* \"contracts/WNTF.sol\":2624:2633  numTokens */\n      dup3\n        /* \"contracts/WNTF.sol\":2604:2612  balances */\n      0x00\n        /* \"contracts/WNTF.sol\":2604:2619  balances[buyer] */\n      dup1\n        /* \"contracts/WNTF.sol\":2613:2618  buyer */\n      dup7\n        /* \"contracts/WNTF.sol\":2604:2619  balances[buyer] */\n      0xffffffffffffffffffffffffffffffffffffffff\n      and\n      0xffffffffffffffffffffffffffffffffffffffff\n      and\n      dup2\n      mstore\n      0x20\n      add\n      swap1\n      dup2\n      mstore\n      0x20\n      add\n      0x00\n      keccak256\n      sload\n        /* \"contracts/WNTF.sol\":2604:2623  balances[buyer].add */\n      tag_102\n      swap1\n        /* \"contracts/WNTF.sol\":2604:2634  balances[buyer].add(numTokens) */\n      swap2\n      swap1\n      0xffffffff\n      and\n      jump\t// in\n    tag_101:\n        /* \"contracts/WNTF.sol\":2586:2594  balances */\n      0x00\n        /* \"contracts/WNTF.sol\":2586:2601  balances[buyer] */\n      dup1\n        /* \"contracts/WNTF.sol\":2595:2600  buyer */\n      dup6\n        /* \"contracts/WNTF.sol\":2586:2601  balances[buyer] */\n      0xffffffffffffffffffffffffffffffffffffffff\n      and\n      0xffffffffffffffffffffffffffffffffffffffff\n      and\n      dup2\n      mstore\n      0x20\n      add\n      swap1\n      dup2\n      mstore\n      0x20\n      add\n      0x00\n      keccak256\n        /* \"contracts/WNTF.sol\":2586:2634  balances[buyer] = balances[buyer].add(numTokens) */\n      dup2\n      swap1\n      sstore\n      pop\n        /* \"contracts/WNTF.sol\":2665:2670  buyer */\n      dup3\n        /* \"contracts/WNTF.sol\":2649:2682  Transfer(owner, buyer, numTokens) */\n      0xffffffffffffffffffffffffffffffffffffffff\n      and\n        /* \"contracts/WNTF.sol\":2658:2663  owner */\n      dup5\n        /* \"contracts/WNTF.sol\":2649:2682  Transfer(owner, buyer, numTokens) */\n      0xffffffffffffffffffffffffffffffffffffffff\n      and\n      0xddf252ad1be2c89b69c2b068fc378daa952ba7f163c4a11628f55a4df523b3ef\n        /* \"contracts/WNTF.sol\":2672:2681  numTokens */\n      dup5\n        /* \"contracts/WNTF.sol\":2649:2682  Transfer(owner, buyer, numTokens) */\n      mload(0x40)\n      tag_103\n      swap2\n      swap1\n      tag_33\n      jump\t// in\n    tag_103:\n      mload(0x40)\n      dup1\n      swap2\n      sub\n      swap1\n      log3\n        /* \"contracts/WNTF.sol\":2699:2703  true */\n      0x01\n        /* \"contracts/WNTF.sol\":2692:2703  return true */\n      swap1\n      pop\n        /* \"contracts/WNTF.sol\":2105:2710  function transferFrom(address owner, address buyer, uint256 numTokens) public override returns (bool success) {... */\n      swap4\n      swap3\n      pop\n      pop\n      pop\n      jump\t// out\n        /* \"contracts/WNTF.sol\":2987:3506  function withdraw(uint256 amount) public {... */\n    tag_44:\n        /* \"contracts/WNTF.sol\":3055:3056  0 */\n      0x00\n        /* \"contracts/WNTF.sol\":3046:3052  amount */\n      dup2\n        /* \"contracts/WNTF.sol\":3046:3056  amount > 0 */\n      gt\n        /* \"contracts/WNTF.sol\":3038:3087  require(amount > 0, \"Invalid withdrawal amount.\") */\n      tag_105\n      jumpi\n      mload(0x40)\n      0x08c379a000000000000000000000000000000000000000000000000000000000\n      dup2\n      mstore\n      0x04\n      add\n      tag_106\n      swap1\n      tag_107\n      jump\t// in\n    tag_106:\n      mload(0x40)\n      dup1\n      swap2\n      sub\n      swap1\n      revert\n    tag_105:\n        /* \"contracts/WNTF.sol\":3115:3123  balances */\n      0x00\n        /* \"contracts/WNTF.sol\":3115:3135  balances[msg.sender] */\n      dup1\n        /* \"contracts/WNTF.sol\":3124:3134  msg.sender */\n      caller\n        /* \"contracts/WNTF.sol\":3115:3135  balances[msg.sender] */\n      0xffffffffffffffffffffffffffffffffffffffff\n      and\n      0xffffffffffffffffffffffffffffffffffffffff\n      and\n      dup2\n      mstore\n      0x20\n      add\n      swap1\n      dup2\n      mstore\n      0x20\n      add\n      0x00\n      keccak256\n      sload\n        /* \"contracts/WNTF.sol\":3105:3111  amount */\n      dup2\n        /* \"contracts/WNTF.sol\":3105:3135  amount <= balances[msg.sender] */\n      gt\n      iszero\n        /* \"contracts/WNTF.sol\":3097:3161  require(amount <= balances[msg.sender], \"Insufficient balance.\") */\n      tag_108\n      jumpi\n      mload(0x40)\n      0x08c379a000000000000000000000000000000000000000000000000000000000\n      dup2\n      mstore\n      0x04\n      add\n      tag_109\n      swap1\n      tag_94\n      jump\t// in\n    tag_109:\n      mload(0x40)\n      dup1\n      swap2\n      sub\n      swap1\n      revert\n    tag_108:\n        /* \"contracts/WNTF.sol\":3189:3210  address(this).balance */\n      selfbalance\n        /* \"contracts/WNTF.sol\":3179:3185  amount */\n      dup2\n        /* \"contracts/WNTF.sol\":3179:3210  amount <= address(this).balance */\n      gt\n      iszero\n        /* \"contracts/WNTF.sol\":3171:3248  require(amount <= address(this).balance, \"Insufficient balance in contract.\") */\n      tag_110\n      jumpi\n      mload(0x40)\n      0x08c379a000000000000000000000000000000000000000000000000000000000\n      dup2\n      mstore\n      0x04\n      add\n      tag_111\n      swap1\n      tag_112\n      jump\t// in\n    tag_111:\n      mload(0x40)\n      dup1\n      swap2\n      sub\n      swap1\n      revert\n    tag_110:\n        /* \"contracts/WNTF.sol\":3281:3313  balances[msg.sender].sub(amount) */\n      tag_113\n        /* \"contracts/WNTF.sol\":3306:3312  amount */\n      dup2\n        /* \"contracts/WNTF.sol\":3281:3289  balances */\n      0x00\n        /* \"contracts/WNTF.sol\":3281:3301  balances[msg.sender] */\n      dup1\n        /* \"contracts/WNTF.sol\":3290:3300  msg.sender */\n      caller\n        /* \"contracts/WNTF.sol\":3281:3301  balances[msg.sender] */\n      0xffffffffffffffffffffffffffffffffffffffff\n      and\n      0xffffffffffffffffffffffffffffffffffffffff\n      and\n      dup2\n      mstore\n      0x20\n      add\n      swap1\n      dup2\n      mstore\n      0x20\n      add\n      0x00\n      keccak256\n      sload\n        /* \"contracts/WNTF.sol\":3281:3305  balances[msg.sender].sub */\n      tag_99\n      swap1\n        /* \"contracts/WNTF.sol\":3281:3313  balances[msg.sender].sub(amount) */\n      swap2\n      swap1\n      0xffffffff\n      and\n      jump\t// in\n    tag_113:\n        /* \"contracts/WNTF.sol\":3258:3266  balances */\n      0x00\n        /* \"contracts/WNTF.sol\":3258:3278  balances[msg.sender] */\n      dup1\n        /* \"contracts/WNTF.sol\":3267:3277  msg.sender */\n      caller\n        /* \"contracts/WNTF.sol\":3258:3278  balances[msg.sender] */\n      0xffffffffffffffffffffffffffffffffffffffff\n      and\n      0xffffffffffffffffffffffffffffffffffffffff\n      and\n      dup2\n      mstore\n      0x20\n      add\n      swap1\n      dup2\n      mstore\n      0x20\n      add\n      0x00\n      keccak256\n        /* \"contracts/WNTF.sol\":3258:3313  balances[msg.sender] = balances[msg.sender].sub(amount) */\n      dup2\n      swap1\n      sstore\n      pop\n        /* \"contracts/WNTF.sol\":3338:3362  totalSupply_.sub(amount) */\n      tag_114\n        /* \"contracts/WNTF.sol\":3355:3361  amount */\n      dup2\n        /* \"contracts/WNTF.sol\":3338:3350  totalSupply_ */\n      sload(0x02)\n        /* \"contracts/WNTF.sol\":3338:3354  totalSupply_.sub */\n      tag_99\n      swap1\n        /* \"contracts/WNTF.sol\":3338:3362  totalSupply_.sub(amount) */\n      swap2\n      swap1\n      0xffffffff\n      and\n      jump\t// in\n    tag_114:\n        /* \"contracts/WNTF.sol\":3323:3335  totalSupply_ */\n      0x02\n        /* \"contracts/WNTF.sol\":3323:3362  totalSupply_ = totalSupply_.sub(amount) */\n      dup2\n      swap1\n      sstore\n      pop\n        /* \"contracts/WNTF.sol\":3372:3396  address payable receiver */\n      0x00\n        /* \"contracts/WNTF.sol\":3407:3417  msg.sender */\n      caller\n        /* \"contracts/WNTF.sol\":3372:3418  address payable receiver = payable(msg.sender) */\n      swap1\n      pop\n        /* \"contracts/WNTF.sol\":3428:3436  receiver */\n      dup1\n        /* \"contracts/WNTF.sol\":3428:3445  receiver.transfer */\n      0xffffffffffffffffffffffffffffffffffffffff\n      and\n        /* \"contracts/WNTF.sol\":3428:3453  receiver.transfer(amount) */\n      0x08fc\n        /* \"contracts/WNTF.sol\":3446:3452  amount */\n      dup4\n        /* \"contracts/WNTF.sol\":3428:3453  receiver.transfer(amount) */\n      swap1\n      dup2\n      iszero\n      mul\n      swap1\n      mload(0x40)\n      0x00\n      mload(0x40)\n      dup1\n      dup4\n      sub\n      dup2\n      dup6\n      dup9\n      dup9\n      call\n      swap4\n      pop\n      pop\n      pop\n      pop\n      iszero\n      dup1\n      iszero\n      tag_116\n      jumpi\n      returndatasize\n      0x00\n      dup1\n      returndatacopy\n      revert(0x00, returndatasize)\n    tag_116:\n      pop\n        /* \"contracts/WNTF.sol\":3480:3490  msg.sender */\n      caller\n        /* \"contracts/WNTF.sol\":3469:3499  Withdrawal(msg.sender, amount) */\n      0xffffffffffffffffffffffffffffffffffffffff\n      and\n      0x7fcf532c15f0a6db0bd6d0e038bea71d30d808c7d98cb3bf7268a95bf5081b65\n        /* \"contracts/WNTF.sol\":3492:3498  amount */\n      dup4\n        /* \"contracts/WNTF.sol\":3469:3499  Withdrawal(msg.sender, amount) */\n      mload(0x40)\n      tag_117\n      swap2\n      swap1\n      tag_33\n      jump\t// in\n    tag_117:\n      mload(0x40)\n      dup1\n      swap2\n      sub\n      swap1\n      log2\n        /* \"contracts/WNTF.sol\":3028:3506  {... */\n      pop\n        /* \"contracts/WNTF.sol\":2987:3506  function withdraw(uint256 amount) public {... */\n      pop\n      jump\t// out\n        /* \"contracts/WNTF.sol\":329:364  uint8 constant public decimals = 18 */\n    tag_47:\n        /* \"contracts/WNTF.sol\":362:364  18 */\n      0x12\n        /* \"contracts/WNTF.sol\":329:364  uint8 constant public decimals = 18 */\n      dup2\n      jump\t// out\n        /* \"contracts/WNTF.sol\":3512:3837  function burn(uint256 amount) public {... */\n    tag_53:\n        /* \"contracts/WNTF.sol\":3576:3577  0 */\n      0x00\n        /* \"contracts/WNTF.sol\":3567:3573  amount */\n      dup2\n        /* \"contracts/WNTF.sol\":3567:3577  amount > 0 */\n      gt\n        /* \"contracts/WNTF.sol\":3559:3603  require(amount > 0, \"Invalid token amount.\") */\n      tag_119\n      jumpi\n      mload(0x40)\n      0x08c379a000000000000000000000000000000000000000000000000000000000\n      dup2\n      mstore\n      0x04\n      add\n      tag_120\n      swap1\n      tag_91\n      jump\t// in\n    tag_120:\n      mload(0x40)\n      dup1\n      swap2\n      sub\n      swap1\n      revert\n    tag_119:\n        /* \"contracts/WNTF.sol\":3631:3639  balances */\n      0x00\n        /* \"contracts/WNTF.sol\":3631:3651  balances[msg.sender] */\n      dup1\n        /* \"contracts/WNTF.sol\":3640:3650  msg.sender */\n      caller\n        /* \"contracts/WNTF.sol\":3631:3651  balances[msg.sender] */\n      0xffffffffffffffffffffffffffffffffffffffff\n      and\n      0xffffffffffffffffffffffffffffffffffffffff\n      and\n      dup2\n      mstore\n      0x20\n      add\n      swap1\n      dup2\n      mstore\n      0x20\n      add\n      0x00\n      keccak256\n      sload\n        /* \"contracts/WNTF.sol\":3621:3627  amount */\n      dup2\n        /* \"contracts/WNTF.sol\":3621:3651  amount <= balances[msg.sender] */\n      gt\n      iszero\n        /* \"contracts/WNTF.sol\":3613:3677  require(amount <= balances[msg.sender], \"Insufficient balance.\") */\n      tag_121\n      jumpi\n      mload(0x40)\n      0x08c379a000000000000000000000000000000000000000000000000000000000\n      dup2\n      mstore\n      0x04\n      add\n      tag_122\n      swap1\n      tag_94\n      jump\t// in\n    tag_122:\n      mload(0x40)\n      dup1\n      swap2\n      sub\n      swap1\n      revert\n    tag_121:\n        /* \"contracts/WNTF.sol\":3710:3742  balances[msg.sender].sub(amount) */\n      tag_123\n        /* \"contracts/WNTF.sol\":3735:3741  amount */\n      dup2\n        /* \"contracts/WNTF.sol\":3710:3718  balances */\n      0x00\n        /* \"contracts/WNTF.sol\":3710:3730  balances[msg.sender] */\n      dup1\n        /* \"contracts/WNTF.sol\":3719:3729  msg.sender */\n      caller\n        /* \"contracts/WNTF.sol\":3710:3730  balances[msg.sender] */\n      0xffffffffffffffffffffffffffffffffffffffff\n      and\n      0xffffffffffffffffffffffffffffffffffffffff\n      and\n      dup2\n      mstore\n      0x20\n      add\n      swap1\n      dup2\n      mstore\n      0x20\n      add\n      0x00\n      keccak256\n      sload\n        /* \"contracts/WNTF.sol\":3710:3734  balances[msg.sender].sub */\n      tag_99\n      swap1\n        /* \"contracts/WNTF.sol\":3710:3742  balances[msg.sender].sub(amount) */\n      swap2\n      swap1\n      0xffffffff\n      and\n      jump\t// in\n    tag_123:\n        /* \"contracts/WNTF.sol\":3687:3695  balances */\n      0x00\n        /* \"contracts/WNTF.sol\":3687:3707  balances[msg.sender] */\n      dup1\n        /* \"contracts/WNTF.sol\":3696:3706  msg.sender */\n      caller\n        /* \"contracts/WNTF.sol\":3687:3707  balances[msg.sender] */\n      0xffffffffffffffffffffffffffffffffffffffff\n      and\n      0xffffffffffffffffffffffffffffffffffffffff\n      and\n      dup2\n      mstore\n      0x20\n      add\n      swap1\n      dup2\n      mstore\n      0x20\n      add\n      0x00\n      keccak256\n        /* \"contracts/WNTF.sol\":3687:3742  balances[msg.sender] = balances[msg.sender].sub(amount) */\n      dup2\n      swap1\n      sstore\n      pop\n        /* \"contracts/WNTF.sol\":3767:3791  totalSupply_.sub(amount) */\n      tag_124\n        /* \"contracts/WNTF.sol\":3784:3790  amount */\n      dup2\n        /* \"contracts/WNTF.sol\":3767:3779  totalSupply_ */\n      sload(0x02)\n        /* \"contracts/WNTF.sol\":3767:3783  totalSupply_.sub */\n      tag_99\n      swap1\n        /* \"contracts/WNTF.sol\":3767:3791  totalSupply_.sub(amount) */\n      swap2\n      swap1\n      0xffffffff\n      and\n      jump\t// in\n    tag_124:\n        /* \"contracts/WNTF.sol\":3752:3764  totalSupply_ */\n      0x02\n        /* \"contracts/WNTF.sol\":3752:3791  totalSupply_ = totalSupply_.sub(amount) */\n      dup2\n      swap1\n      sstore\n      pop\n        /* \"contracts/WNTF.sol\":3811:3821  msg.sender */\n      caller\n        /* \"contracts/WNTF.sol\":3806:3830  Burn(msg.sender, amount) */\n      0xffffffffffffffffffffffffffffffffffffffff\n      and\n      0xcc16f5dbb4873280815c1ee09dbd06736cffcc184412cf7a71a0fdb75d397ca5\n        /* \"contracts/WNTF.sol\":3823:3829  amount */\n      dup3\n        /* \"contracts/WNTF.sol\":3806:3830  Burn(msg.sender, amount) */\n      mload(0x40)\n      tag_125\n      swap2\n      swap1\n      tag_33\n      jump\t// in\n    tag_125:\n      mload(0x40)\n      dup1\n      swap2\n      sub\n      swap1\n      log2\n        /* \"contracts/WNTF.sol\":3512:3837  function burn(uint256 amount) public {... */\n      pop\n      jump\t// out\n        /* \"contracts/WNTF.sol\":920:1050  function balanceOf(address tokenOwner) public view override returns (uint256 balance) {... */\n    tag_58:\n        /* \"contracts/WNTF.sol\":989:1004  uint256 balance */\n      0x00\n        /* \"contracts/WNTF.sol\":1023:1031  balances */\n      dup1\n        /* \"contracts/WNTF.sol\":1023:1043  balances[tokenOwner] */\n      0x00\n        /* \"contracts/WNTF.sol\":1032:1042  tokenOwner */\n      dup4\n        /* \"contracts/WNTF.sol\":1023:1043  balances[tokenOwner] */\n      0xffffffffffffffffffffffffffffffffffffffff\n      and\n      0xffffffffffffffffffffffffffffffffffffffff\n      and\n      dup2\n      mstore\n      0x20\n      add\n      swap1\n      dup2\n      mstore\n      0x20\n      add\n      0x00\n      keccak256\n      sload\n        /* \"contracts/WNTF.sol\":1016:1043  return balances[tokenOwner] */\n      swap1\n      pop\n        /* \"contracts/WNTF.sol\":920:1050  function balanceOf(address tokenOwner) public view override returns (uint256 balance) {... */\n      swap2\n      swap1\n      pop\n      jump\t// out\n        /* \"contracts/WNTF.sol\":3843:4183  function mint(uint256 amount, address recipient) public {... */\n    tag_64:\n        /* \"contracts/WNTF.sol\":3926:3927  0 */\n      0x00\n        /* \"contracts/WNTF.sol\":3917:3923  amount */\n      dup3\n        /* \"contracts/WNTF.sol\":3917:3927  amount > 0 */\n      gt\n        /* \"contracts/WNTF.sol\":3909:3953  require(amount > 0, \"Invalid token amount.\") */\n      tag_128\n      jumpi\n      mload(0x40)\n      0x08c379a000000000000000000000000000000000000000000000000000000000\n      dup2\n      mstore\n      0x04\n      add\n      tag_129\n      swap1\n      tag_91\n      jump\t// in\n    tag_129:\n      mload(0x40)\n      dup1\n      swap2\n      sub\n      swap1\n      revert\n    tag_128:\n        /* \"contracts/WNTF.sol\":3992:3993  0 */\n      0x00\n        /* \"contracts/WNTF.sol\":3971:3994  recipient != address(0) */\n      0xffffffffffffffffffffffffffffffffffffffff\n      and\n        /* \"contracts/WNTF.sol\":3971:3980  recipient */\n      dup2\n        /* \"contracts/WNTF.sol\":3971:3994  recipient != address(0) */\n      0xffffffffffffffffffffffffffffffffffffffff\n      and\n      eq\n      iszero\n        /* \"contracts/WNTF.sol\":3963:4025  require(recipient != address(0), \"Invalid recipient address.\") */\n      tag_130\n      jumpi\n      mload(0x40)\n      0x08c379a000000000000000000000000000000000000000000000000000000000\n      dup2\n      mstore\n      0x04\n      add\n      tag_131\n      swap1\n      tag_132\n      jump\t// in\n    tag_131:\n      mload(0x40)\n      dup1\n      swap2\n      sub\n      swap1\n      revert\n    tag_130:\n        /* \"contracts/WNTF.sol\":4057:4088  balances[recipient].add(amount) */\n      tag_133\n        /* \"contracts/WNTF.sol\":4081:4087  amount */\n      dup3\n        /* \"contracts/WNTF.sol\":4057:4065  balances */\n      0x00\n        /* \"contracts/WNTF.sol\":4057:4076  balances[recipient] */\n      dup1\n        /* \"contracts/WNTF.sol\":4066:4075  recipient */\n      dup5\n        /* \"contracts/WNTF.sol\":4057:4076  balances[recipient] */\n      0xffffffffffffffffffffffffffffffffffffffff\n      and\n      0xffffffffffffffffffffffffffffffffffffffff\n      and\n      dup2\n      mstore\n      0x20\n      add\n      swap1\n      dup2\n      mstore\n      0x20\n      add\n      0x00\n      keccak256\n      sload\n        /* \"contracts/WNTF.sol\":4057:4080  balances[recipient].add */\n      tag_102\n      swap1\n        /* \"contracts/WNTF.sol\":4057:4088  balances[recipient].add(amount) */\n      swap2\n      swap1\n      0xffffffff\n      and\n      jump\t// in\n    tag_133:\n        /* \"contracts/WNTF.sol\":4035:4043  balances */\n      0x00\n        /* \"contracts/WNTF.sol\":4035:4054  balances[recipient] */\n      dup1\n        /* \"contracts/WNTF.sol\":4044:4053  recipient */\n      dup4\n        /* \"contracts/WNTF.sol\":4035:4054  balances[recipient] */\n      0xffffffffffffffffffffffffffffffffffffffff\n      and\n      0xffffffffffffffffffffffffffffffffffffffff\n      and\n      dup2\n      mstore\n      0x20\n      add\n      swap1\n      dup2\n      mstore\n      0x20\n      add\n      0x00\n      keccak256\n        /* \"contracts/WNTF.sol\":4035:4088  balances[recipient] = balances[recipient].add(amount) */\n      dup2\n      swap1\n      sstore\n      pop\n        /* \"contracts/WNTF.sol\":4113:4137  totalSupply_.add(amount) */\n      tag_134\n        /* \"contracts/WNTF.sol\":4130:4136  amount */\n      dup3\n        /* \"contracts/WNTF.sol\":4113:4125  totalSupply_ */\n      sload(0x02)\n        /* \"contracts/WNTF.sol\":4113:4129  totalSupply_.add */\n      tag_102\n      swap1\n        /* \"contracts/WNTF.sol\":4113:4137  totalSupply_.add(amount) */\n      swap2\n      swap1\n      0xffffffff\n      and\n      jump\t// in\n    tag_134:\n        /* \"contracts/WNTF.sol\":4098:4110  totalSupply_ */\n      0x02\n        /* \"contracts/WNTF.sol\":4098:4137  totalSupply_ = totalSupply_.add(amount) */\n      dup2\n      swap1\n      sstore\n      pop\n        /* \"contracts/WNTF.sol\":4157:4167  msg.sender */\n      caller\n        /* \"contracts/WNTF.sol\":4152:4176  Mint(msg.sender, amount) */\n      0xffffffffffffffffffffffffffffffffffffffff\n      and\n      0x0f6798a560793a54c3bcfe86a93cde1e73087d944c0ea20544137d4121396885\n        /* \"contracts/WNTF.sol\":4169:4175  amount */\n      dup4\n        /* \"contracts/WNTF.sol\":4152:4176  Mint(msg.sender, amount) */\n      mload(0x40)\n      tag_135\n      swap2\n      swap1\n      tag_33\n      jump\t// in\n    tag_135:\n      mload(0x40)\n      dup1\n      swap2\n      sub\n      swap1\n      log2\n        /* \"contracts/WNTF.sol\":3843:4183  function mint(uint256 amount, address recipient) public {... */\n      pop\n      pop\n      jump\t// out\n        /* \"contracts/WNTF.sol\":285:323  string constant public symbol = \"WNFT\" */\n    tag_67:\n      mload(0x40)\n      dup1\n      0x40\n      add\n      0x40\n      mstore\n      dup1\n      0x04\n      dup2\n      mstore\n      0x20\n      add\n      0x574e465400000000000000000000000000000000000000000000000000000000\n      dup2\n      mstore\n      pop\n      dup2\n      jump\t// out\n        /* \"contracts/WNTF.sol\":1056:1500  function transfer(address receiver, uint256 numTokens) public override returns (bool success) {... */\n    tag_72:\n        /* \"contracts/WNTF.sol\":1136:1148  bool success */\n      0x00\n        /* \"contracts/WNTF.sol\":1180:1181  0 */\n      dup1\n        /* \"contracts/WNTF.sol\":1168:1177  numTokens */\n      dup3\n        /* \"contracts/WNTF.sol\":1168:1181  numTokens > 0 */\n      gt\n        /* \"contracts/WNTF.sol\":1160:1207  require(numTokens > 0, \"Invalid token amount.\") */\n      tag_137\n      jumpi\n      mload(0x40)\n      0x08c379a000000000000000000000000000000000000000000000000000000000\n      dup2\n      mstore\n      0x04\n      add\n      tag_138\n      swap1\n      tag_91\n      jump\t// in\n    tag_138:\n      mload(0x40)\n      dup1\n      swap2\n      sub\n      swap1\n      revert\n    tag_137:\n        /* \"contracts/WNTF.sol\":1238:1246  balances */\n      0x00\n        /* \"contracts/WNTF.sol\":1238:1258  balances[msg.sender] */\n      dup1\n        /* \"contracts/WNTF.sol\":1247:1257  msg.sender */\n      caller\n        /* \"contracts/WNTF.sol\":1238:1258  balances[msg.sender] */\n      0xffffffffffffffffffffffffffffffffffffffff\n      and\n      0xffffffffffffffffffffffffffffffffffffffff\n      and\n      dup2\n      mstore\n      0x20\n      add\n      swap1\n      dup2\n      mstore\n      0x20\n      add\n      0x00\n      keccak256\n      sload\n        /* \"contracts/WNTF.sol\":1225:1234  numTokens */\n      dup3\n        /* \"contracts/WNTF.sol\":1225:1258  numTokens <= balances[msg.sender] */\n      gt\n      iszero\n        /* \"contracts/WNTF.sol\":1217:1284  require(numTokens <= balances[msg.sender], \"Insufficient balance.\") */\n      tag_139\n      jumpi\n      mload(0x40)\n      0x08c379a000000000000000000000000000000000000000000000000000000000\n      dup2\n      mstore\n      0x04\n      add\n      tag_140\n      swap1\n      tag_94\n      jump\t// in\n    tag_140:\n      mload(0x40)\n      dup1\n      swap2\n      sub\n      swap1\n      revert\n    tag_139:\n        /* \"contracts/WNTF.sol\":1317:1352  balances[msg.sender].sub(numTokens) */\n      tag_141\n        /* \"contracts/WNTF.sol\":1342:1351  numTokens */\n      dup3\n        /* \"contracts/WNTF.sol\":1317:1325  balances */\n      0x00\n        /* \"contracts/WNTF.sol\":1317:1337  balances[msg.sender] */\n      dup1\n        /* \"contracts/WNTF.sol\":1326:1336  msg.sender */\n      caller\n        /* \"contracts/WNTF.sol\":1317:1337  balances[msg.sender] */\n      0xffffffffffffffffffffffffffffffffffffffff\n      and\n      0xffffffffffffffffffffffffffffffffffffffff\n      and\n      dup2\n      mstore\n      0x20\n      add\n      swap1\n      dup2\n      mstore\n      0x20\n      add\n      0x00\n      keccak256\n      sload\n        /* \"contracts/WNTF.sol\":1317:1341  balances[msg.sender].sub */\n      tag_99\n      swap1\n        /* \"contracts/WNTF.sol\":1317:1352  balances[msg.sender].sub(numTokens) */\n      swap2\n      swap1\n      0xffffffff\n      and\n      jump\t// in\n    tag_141:\n        /* \"contracts/WNTF.sol\":1294:1302  balances */\n      0x00\n        /* \"contracts/WNTF.sol\":1294:1314  balances[msg.sender] */\n      dup1\n        /* \"contracts/WNTF.sol\":1303:1313  msg.sender */\n      caller\n        /* \"contracts/WNTF.sol\":1294:1314  balances[msg.sender] */\n      0xffffffffffffffffffffffffffffffffffffffff\n      and\n      0xffffffffffffffffffffffffffffffffffffffff\n      and\n      dup2\n      mstore\n      0x20\n      add\n      swap1\n      dup2\n      mstore\n      0x20\n      add\n      0x00\n      keccak256\n        /* \"contracts/WNTF.sol\":1294:1352  balances[msg.sender] = balances[msg.sender].sub(numTokens) */\n      dup2\n      swap1\n      sstore\n      pop\n        /* \"contracts/WNTF.sol\":1383:1416  balances[receiver].add(numTokens) */\n      tag_142\n        /* \"contracts/WNTF.sol\":1406:1415  numTokens */\n      dup3\n        /* \"contracts/WNTF.sol\":1383:1391  balances */\n      0x00\n        /* \"contracts/WNTF.sol\":1383:1401  balances[receiver] */\n      dup1\n        /* \"contracts/WNTF.sol\":1392:1400  receiver */\n      dup7\n        /* \"contracts/WNTF.sol\":1383:1401  balances[receiver] */\n      0xffffffffffffffffffffffffffffffffffffffff\n      and\n      0xffffffffffffffffffffffffffffffffffffffff\n      and\n      dup2\n      mstore\n      0x20\n      add\n      swap1\n      dup2\n      mstore\n      0x20\n      add\n      0x00\n      keccak256\n      sload\n        /* \"contracts/WNTF.sol\":1383:1405  balances[receiver].add */\n      tag_102\n      swap1\n        /* \"contracts/WNTF.sol\":1383:1416  balances[receiver].add(numTokens) */\n      swap2\n      swap1\n      0xffffffff\n      and\n      jump\t// in\n    tag_142:\n        /* \"contracts/WNTF.sol\":1362:1370  balances */\n      0x00\n        /* \"contracts/WNTF.sol\":1362:1380  balances[receiver] */\n      dup1\n        /* \"contracts/WNTF.sol\":1371:1379  receiver */\n      dup6\n        /* \"contracts/WNTF.sol\":1362:1380  balances[receiver] */\n      0xffffffffffffffffffffffffffffffffffffffff\n      and\n      0xffffffffffffffffffffffffffffffffffffffff\n      and\n      dup2\n      mstore\n      0x20\n      add\n      swap1\n      dup2\n      mstore\n      0x20\n      add\n      0x00\n      keccak256\n        /* \"contracts/WNTF.sol\":1362:1416  balances[receiver] = balances[receiver].add(numTokens) */\n      dup2\n      swap1\n      sstore\n      pop\n        /* \"contracts/WNTF.sol\":1452:1460  receiver */\n      dup3\n        /* \"contracts/WNTF.sol\":1431:1472  Transfer(msg.sender, receiver, numTokens) */\n      0xffffffffffffffffffffffffffffffffffffffff\n      and\n        /* \"contracts/WNTF.sol\":1440:1450  msg.sender */\n      caller\n        /* \"contracts/WNTF.sol\":1431:1472  Transfer(msg.sender, receiver, numTokens) */\n      0xffffffffffffffffffffffffffffffffffffffff\n      and\n      0xddf252ad1be2c89b69c2b068fc378daa952ba7f163c4a11628f55a4df523b3ef\n        /* \"contracts/WNTF.sol\":1462:1471  numTokens */\n      dup5\n        /* \"contracts/WNTF.sol\":1431:1472  Transfer(msg.sender, receiver, numTokens) */\n      mload(0x40)\n      tag_143\n      swap2\n      swap1\n      tag_33\n      jump\t// in\n    tag_143:\n      mload(0x40)\n      dup1\n      swap2\n      sub\n      swap1\n      log3\n        /* \"contracts/WNTF.sol\":1489:1493  true */\n      0x01\n        /* \"contracts/WNTF.sol\":1482:1493  return true */\n      swap1\n      pop\n        /* \"contracts/WNTF.sol\":1056:1500  function transfer(address receiver, uint256 numTokens) public override returns (bool success) {... */\n      swap3\n      swap2\n      pop\n      pop\n      jump\t// out\n        /* \"contracts/WNTF.sol\":2716:2981  function deposit() public payable {... */\n    tag_75:\n        /* \"contracts/WNTF.sol\":2780:2781  0 */\n      0x00\n        /* \"contracts/WNTF.sol\":2768:2777  msg.value */\n      callvalue\n        /* \"contracts/WNTF.sol\":2768:2781  msg.value > 0 */\n      gt\n        /* \"contracts/WNTF.sol\":2760:2809  require(msg.value > 0, \"Invalid deposit amount.\") */\n      tag_145\n      jumpi\n      mload(0x40)\n      0x08c379a000000000000000000000000000000000000000000000000000000000\n      dup2\n      mstore\n      0x04\n      add\n      tag_146\n      swap1\n      tag_147\n      jump\t// in\n    tag_146:\n      mload(0x40)\n      dup1\n      swap2\n      sub\n      swap1\n      revert\n    tag_145:\n        /* \"contracts/WNTF.sol\":2842:2877  balances[msg.sender].add(msg.value) */\n      tag_148\n        /* \"contracts/WNTF.sol\":2867:2876  msg.value */\n      callvalue\n        /* \"contracts/WNTF.sol\":2842:2850  balances */\n      0x00\n        /* \"contracts/WNTF.sol\":2842:2862  balances[msg.sender] */\n      dup1\n        /* \"contracts/WNTF.sol\":2851:2861  msg.sender */\n      caller\n        /* \"contracts/WNTF.sol\":2842:2862  balances[msg.sender] */\n      0xffffffffffffffffffffffffffffffffffffffff\n      and\n      0xffffffffffffffffffffffffffffffffffffffff\n      and\n      dup2\n      mstore\n      0x20\n      add\n      swap1\n      dup2\n      mstore\n      0x20\n      add\n      0x00\n      keccak256\n      sload\n        /* \"contracts/WNTF.sol\":2842:2866  balances[msg.sender].add */\n      tag_102\n      swap1\n        /* \"contracts/WNTF.sol\":2842:2877  balances[msg.sender].add(msg.value) */\n      swap2\n      swap1\n      0xffffffff\n      and\n      jump\t// in\n    tag_148:\n        /* \"contracts/WNTF.sol\":2819:2827  balances */\n      0x00\n        /* \"contracts/WNTF.sol\":2819:2839  balances[msg.sender] */\n      dup1\n        /* \"contracts/WNTF.sol\":2828:2838  msg.sender */\n      caller\n        /* \"contracts/WNTF.sol\":2819:2839  balances[msg.sender] */\n      0xffffffffffffffffffffffffffffffffffffffff\n      and\n      0xffffffffffffffffffffffffffffffffffffffff\n      and\n      dup2\n      mstore\n      0x20\n      add\n      swap1\n      dup2\n      mstore\n      0x20\n      add\n      0x00\n      keccak256\n        /* \"contracts/WNTF.sol\":2819:2877  balances[msg.sender] = balances[msg.sender].add(msg.value) */\n      dup2\n      swap1\n      sstore\n      pop\n        /* \"contracts/WNTF.sol\":2902:2929  totalSupply_.add(msg.value) */\n      tag_149\n        /* \"contracts/WNTF.sol\":2919:2928  msg.value */\n      callvalue\n        /* \"contracts/WNTF.sol\":2902:2914  totalSupply_ */\n      sload(0x02)\n        /* \"contracts/WNTF.sol\":2902:2918  totalSupply_.add */\n      tag_102\n      swap1\n        /* \"contracts/WNTF.sol\":2902:2929  totalSupply_.add(msg.value) */\n      swap2\n      swap1\n      0xffffffff\n      and\n      jump\t// in\n    tag_149:\n        /* \"contracts/WNTF.sol\":2887:2899  totalSupply_ */\n      0x02\n        /* \"contracts/WNTF.sol\":2887:2929  totalSupply_ = totalSupply_.add(msg.value) */\n      dup2\n      swap1\n      sstore\n      pop\n        /* \"contracts/WNTF.sol\":2952:2962  msg.sender */\n      caller\n        /* \"contracts/WNTF.sol\":2944:2974  Deposit(msg.sender, msg.value) */\n      0xffffffffffffffffffffffffffffffffffffffff\n      and\n      0xe1fffcc4923d04b559f4d29a8bfc6cda04eb5b0d3c460751c2402c5c5cc9109c\n        /* \"contracts/WNTF.sol\":2964:2973  msg.value */\n      callvalue\n        /* \"contracts/WNTF.sol\":2944:2974  Deposit(msg.sender, msg.value) */\n      mload(0x40)\n      tag_150\n      swap2\n      swap1\n      tag_33\n      jump\t// in\n    tag_150:\n      mload(0x40)\n      dup1\n      swap2\n      sub\n      swap1\n      log2\n        /* \"contracts/WNTF.sol\":2716:2981  function deposit() public payable {... */\n      jump\t// out\n        /* \"contracts/WNTF.sol\":1813:2099  function allowance(address owner, address delegate) public view override returns (uint256 remaining) {... */\n    tag_80:\n        /* \"contracts/WNTF.sol\":1895:1912  uint256 remaining */\n      0x00\n        /* \"contracts/WNTF.sol\":1949:1950  0 */\n      dup1\n        /* \"contracts/WNTF.sol\":1932:1951  owner != address(0) */\n      0xffffffffffffffffffffffffffffffffffffffff\n      and\n        /* \"contracts/WNTF.sol\":1932:1937  owner */\n      dup4\n        /* \"contracts/WNTF.sol\":1932:1951  owner != address(0) */\n      0xffffffffffffffffffffffffffffffffffffffff\n      and\n      eq\n      iszero\n        /* \"contracts/WNTF.sol\":1924:1978  require(owner != address(0), \"Invalid owner address.\") */\n      tag_152\n      jumpi\n      mload(0x40)\n      0x08c379a000000000000000000000000000000000000000000000000000000000\n      dup2\n      mstore\n      0x04\n      add\n      tag_153\n      swap1\n      tag_154\n      jump\t// in\n    tag_153:\n      mload(0x40)\n      dup1\n      swap2\n      sub\n      swap1\n      revert\n    tag_152:\n        /* \"contracts/WNTF.sol\":2016:2017  0 */\n      0x00\n        /* \"contracts/WNTF.sol\":1996:2018  delegate != address(0) */\n      0xffffffffffffffffffffffffffffffffffffffff\n      and\n        /* \"contracts/WNTF.sol\":1996:2004  delegate */\n      dup3\n        /* \"contracts/WNTF.sol\":1996:2018  delegate != address(0) */\n      0xffffffffffffffffffffffffffffffffffffffff\n      and\n      eq\n      iszero\n        /* \"contracts/WNTF.sol\":1988:2048  require(delegate != address(0), \"Invalid delegate address.\") */\n      tag_155\n      jumpi\n      mload(0x40)\n      0x08c379a000000000000000000000000000000000000000000000000000000000\n      dup2\n      mstore\n      0x04\n      add\n      tag_156\n      swap1\n      tag_85\n      jump\t// in\n    tag_156:\n      mload(0x40)\n      dup1\n      swap2\n      sub\n      swap1\n      revert\n    tag_155:\n        /* \"contracts/WNTF.sol\":2065:2075  allowances */\n      0x01\n        /* \"contracts/WNTF.sol\":2065:2082  allowances[owner] */\n      0x00\n        /* \"contracts/WNTF.sol\":2076:2081  owner */\n      dup5\n        /* \"contracts/WNTF.sol\":2065:2082  allowances[owner] */\n      0xffffffffffffffffffffffffffffffffffffffff\n      and\n      0xffffffffffffffffffffffffffffffffffffffff\n      and\n      dup2\n      mstore\n      0x20\n      add\n      swap1\n      dup2\n      mstore\n      0x20\n      add\n      0x00\n      keccak256\n        /* \"contracts/WNTF.sol\":2065:2092  allowances[owner][delegate] */\n      0x00\n        /* \"contracts/WNTF.sol\":2083:2091  delegate */\n      dup4\n        /* \"contracts/WNTF.sol\":2065:2092  allowances[owner][delegate] */\n      0xffffffffffffffffffffffffffffffffffffffff\n      and\n      0xffffffffffffffffffffffffffffffffffffffff\n      and\n      dup2\n      mstore\n      0x20\n      add\n      swap1\n      dup2\n      mstore\n      0x20\n      add\n      0x00\n      keccak256\n      sload\n        /* \"contracts/WNTF.sol\":2058:2092  return allowances[owner][delegate] */\n      swap1\n      pop\n        /* \"contracts/WNTF.sol\":1813:2099  function allowance(address owner, address delegate) public view override returns (uint256 remaining) {... */\n      swap3\n      swap2\n      pop\n      pop\n      jump\t// out\n        /* \"@openzeppelin/contracts/utils/math/SafeMath.sol\":3122:3218  function sub(uint256 a, uint256 b) internal pure returns (uint256) {... */\n    tag_99:\n        /* \"@openzeppelin/contracts/utils/math/SafeMath.sol\":3180:3187  uint256 */\n      0x00\n        /* \"@openzeppelin/contracts/utils/math/SafeMath.sol\":3210:3211  b */\n      dup2\n        /* \"@openzeppelin/contracts/utils/math/SafeMath.sol\":3206:3207  a */\n      dup4\n        /* \"@openzeppelin/contracts/utils/math/SafeMath.sol\":3206:3211  a - b */\n      tag_158\n      swap2\n      swap1\n      tag_159\n      jump\t// in\n    tag_158:\n        /* \"@openzeppelin/contracts/utils/math/SafeMath.sol\":3199:3211  return a - b */\n      swap1\n      pop\n        /* \"@openzeppelin/contracts/utils/math/SafeMath.sol\":3122:3218  function sub(uint256 a, uint256 b) internal pure returns (uint256) {... */\n      swap3\n      swap2\n      pop\n      pop\n      jump\t// out\n        /* \"@openzeppelin/contracts/utils/math/SafeMath.sol\":2755:2851  function add(uint256 a, uint256 b) internal pure returns (uint256) {... */\n    tag_102:\n        /* \"@openzeppelin/contracts/utils/math/SafeMath.sol\":2813:2820  uint256 */\n      0x00\n        /* \"@openzeppelin/contracts/utils/math/SafeMath.sol\":2843:2844  b */\n      dup2\n        /* \"@openzeppelin/contracts/utils/math/SafeMath.sol\":2839:2840  a */\n      dup4\n        /* \"@openzeppelin/contracts/utils/math/SafeMath.sol\":2839:2844  a + b */\n      tag_161\n      swap2\n      swap1\n      tag_162\n      jump\t// in\n    tag_161:\n        /* \"@openzeppelin/contracts/utils/math/SafeMath.sol\":2832:2844  return a + b */\n      swap1\n      pop\n        /* \"@openzeppelin/contracts/utils/math/SafeMath.sol\":2755:2851  function add(uint256 a, uint256 b) internal pure returns (uint256) {... */\n      swap3\n      swap2\n      pop\n      pop\n      jump\t// out\n        /* \"#utility.yul\":7:106   */\n    tag_163:\n        /* \"#utility.yul\":59:65   */\n      0x00\n        /* \"#utility.yul\":93:98   */\n      dup2\n        /* \"#utility.yul\":87:99   */\n      mload\n        /* \"#utility.yul\":77:99   */\n      swap1\n      pop\n        /* \"#utility.yul\":7:106   */\n      swap2\n      swap1\n      pop\n      jump\t// out\n        /* \"#utility.yul\":112:281   */\n    tag_164:\n        /* \"#utility.yul\":196:207   */\n      0x00\n        /* \"#utility.yul\":230:236   */\n      dup3\n        /* \"#utility.yul\":225:228   */\n      dup3\n        /* \"#utility.yul\":218:237   */\n      mstore\n        /* \"#utility.yul\":270:274   */\n      0x20\n        /* \"#utility.yul\":265:268   */\n      dup3\n        /* \"#utility.yul\":261:275   */\n      add\n        /* \"#utility.yul\":246:275   */\n      swap1\n      pop\n        /* \"#utility.yul\":112:281   */\n      swap3\n      swap2\n      pop\n      pop\n      jump\t// out\n        /* \"#utility.yul\":287:594   */\n    tag_165:\n        /* \"#utility.yul\":355:356   */\n      0x00\n        /* \"#utility.yul\":365:478   */\n    tag_206:\n        /* \"#utility.yul\":379:385   */\n      dup4\n        /* \"#utility.yul\":376:377   */\n      dup2\n        /* \"#utility.yul\":373:386   */\n      lt\n        /* \"#utility.yul\":365:478   */\n      iszero\n      tag_208\n      jumpi\n        /* \"#utility.yul\":464:465   */\n      dup1\n        /* \"#utility.yul\":459:462   */\n      dup3\n        /* \"#utility.yul\":455:466   */\n      add\n        /* \"#utility.yul\":449:467   */\n      mload\n        /* \"#utility.yul\":445:446   */\n      dup2\n        /* \"#utility.yul\":440:443   */\n      dup5\n        /* \"#utility.yul\":436:447   */\n      add\n        /* \"#utility.yul\":429:468   */\n      mstore\n        /* \"#utility.yul\":401:403   */\n      0x20\n        /* \"#utility.yul\":398:399   */\n      dup2\n        /* \"#utility.yul\":394:404   */\n      add\n        /* \"#utility.yul\":389:404   */\n      swap1\n      pop\n        /* \"#utility.yul\":365:478   */\n      jump(tag_206)\n    tag_208:\n        /* \"#utility.yul\":496:502   */\n      dup4\n        /* \"#utility.yul\":493:494   */\n      dup2\n        /* \"#utility.yul\":490:503   */\n      gt\n        /* \"#utility.yul\":487:588   */\n      iszero\n      tag_209\n      jumpi\n        /* \"#utility.yul\":576:577   */\n      0x00\n        /* \"#utility.yul\":567:573   */\n      dup5\n        /* \"#utility.yul\":562:565   */\n      dup5\n        /* \"#utility.yul\":558:574   */\n      add\n        /* \"#utility.yul\":551:578   */\n      mstore\n        /* \"#utility.yul\":487:588   */\n    tag_209:\n        /* \"#utility.yul\":336:594   */\n      pop\n        /* \"#utility.yul\":287:594   */\n      pop\n      pop\n      pop\n      jump\t// out\n        /* \"#utility.yul\":600:702   */\n    tag_166:\n        /* \"#utility.yul\":641:647   */\n      0x00\n        /* \"#utility.yul\":692:694   */\n      0x1f\n        /* \"#utility.yul\":688:695   */\n      not\n        /* \"#utility.yul\":683:685   */\n      0x1f\n        /* \"#utility.yul\":676:681   */\n      dup4\n        /* \"#utility.yul\":672:686   */\n      add\n        /* \"#utility.yul\":668:696   */\n      and\n        /* \"#utility.yul\":658:696   */\n      swap1\n      pop\n        /* \"#utility.yul\":600:702   */\n      swap2\n      swap1\n      pop\n      jump\t// out\n        /* \"#utility.yul\":708:1072   */\n    tag_167:\n        /* \"#utility.yul\":796:799   */\n      0x00\n        /* \"#utility.yul\":824:863   */\n      tag_212\n        /* \"#utility.yul\":857:862   */\n      dup3\n        /* \"#utility.yul\":824:863   */\n      tag_163\n      jump\t// in\n    tag_212:\n        /* \"#utility.yul\":879:950   */\n      tag_213\n        /* \"#utility.yul\":943:949   */\n      dup2\n        /* \"#utility.yul\":938:941   */\n      dup6\n        /* \"#utility.yul\":879:950   */\n      tag_164\n      jump\t// in\n    tag_213:\n        /* \"#utility.yul\":872:950   */\n      swap4\n      pop\n        /* \"#utility.yul\":959:1011   */\n      tag_214\n        /* \"#utility.yul\":1004:1010   */\n      dup2\n        /* \"#utility.yul\":999:1002   */\n      dup6\n        /* \"#utility.yul\":992:996   */\n      0x20\n        /* \"#utility.yul\":985:990   */\n      dup7\n        /* \"#utility.yul\":981:997   */\n      add\n        /* \"#utility.yul\":959:1011   */\n      tag_165\n      jump\t// in\n    tag_214:\n        /* \"#utility.yul\":1036:1065   */\n      tag_215\n        /* \"#utility.yul\":1058:1064   */\n      dup2\n        /* \"#utility.yul\":1036:1065   */\n      tag_166\n      jump\t// in\n    tag_215:\n        /* \"#utility.yul\":1031:1034   */\n      dup5\n        /* \"#utility.yul\":1027:1066   */\n      add\n        /* \"#utility.yul\":1020:1066   */\n      swap2\n      pop\n        /* \"#utility.yul\":800:1072   */\n      pop\n        /* \"#utility.yul\":708:1072   */\n      swap3\n      swap2\n      pop\n      pop\n      jump\t// out\n        /* \"#utility.yul\":1078:1391   */\n    tag_21:\n        /* \"#utility.yul\":1191:1195   */\n      0x00\n        /* \"#utility.yul\":1229:1231   */\n      0x20\n        /* \"#utility.yul\":1218:1227   */\n      dup3\n        /* \"#utility.yul\":1214:1232   */\n      add\n        /* \"#utility.yul\":1206:1232   */\n      swap1\n      pop\n        /* \"#utility.yul\":1278:1287   */\n      dup2\n        /* \"#utility.yul\":1272:1276   */\n      dup2\n        /* \"#utility.yul\":1268:1288   */\n      sub\n        /* \"#utility.yul\":1264:1265   */\n      0x00\n        /* \"#utility.yul\":1253:1262   */\n      dup4\n        /* \"#utility.yul\":1249:1266   */\n      add\n        /* \"#utility.yul\":1242:1289   */\n      mstore\n        /* \"#utility.yul\":1306:1384   */\n      tag_217\n        /* \"#utility.yul\":1379:1383   */\n      dup2\n        /* \"#utility.yul\":1370:1376   */\n      dup5\n        /* \"#utility.yul\":1306:1384   */\n      tag_167\n      jump\t// in\n    tag_217:\n        /* \"#utility.yul\":1298:1384   */\n      swap1\n      pop\n        /* \"#utility.yul\":1078:1391   */\n      swap3\n      swap2\n      pop\n      pop\n      jump\t// out\n        /* \"#utility.yul\":1478:1595   */\n    tag_169:\n        /* \"#utility.yul\":1587:1588   */\n      0x00\n        /* \"#utility.yul\":1584:1585   */\n      dup1\n        /* \"#utility.yul\":1577:1589   */\n      revert\n        /* \"#utility.yul\":1724:1850   */\n    tag_171:\n        /* \"#utility.yul\":1761:1768   */\n      0x00\n        /* \"#utility.yul\":1801:1843   */\n      0xffffffffffffffffffffffffffffffffffffffff\n        /* \"#utility.yul\":1794:1799   */\n      dup3\n        /* \"#utility.yul\":1790:1844   */\n      and\n        /* \"#utility.yul\":1779:1844   */\n      swap1\n      pop\n        /* \"#utility.yul\":1724:1850   */\n      swap2\n      swap1\n      pop\n      jump\t// out\n        /* \"#utility.yul\":1856:1952   */\n    tag_172:\n        /* \"#utility.yul\":1893:1900   */\n      0x00\n        /* \"#utility.yul\":1922:1946   */\n      tag_223\n        /* \"#utility.yul\":1940:1945   */\n      dup3\n        /* \"#utility.yul\":1922:1946   */\n      tag_171\n      jump\t// in\n    tag_223:\n        /* \"#utility.yul\":1911:1946   */\n      swap1\n      pop\n        /* \"#utility.yul\":1856:1952   */\n      swap2\n      swap1\n      pop\n      jump\t// out\n        /* \"#utility.yul\":1958:2080   */\n    tag_173:\n        /* \"#utility.yul\":2031:2055   */\n      tag_225\n        /* \"#utility.yul\":2049:2054   */\n      dup2\n        /* \"#utility.yul\":2031:2055   */\n      tag_172\n      jump\t// in\n    tag_225:\n        /* \"#utility.yul\":2024:2029   */\n      dup2\n        /* \"#utility.yul\":2021:2056   */\n      eq\n        /* \"#utility.yul\":2011:2074   */\n      tag_226\n      jumpi\n        /* \"#utility.yul\":2070:2071   */\n      0x00\n        /* \"#utility.yul\":2067:2068   */\n      dup1\n        /* \"#utility.yul\":2060:2072   */\n      revert\n        /* \"#utility.yul\":2011:2074   */\n    tag_226:\n        /* \"#utility.yul\":1958:2080   */\n      pop\n      jump\t// out\n        /* \"#utility.yul\":2086:2225   */\n    tag_174:\n        /* \"#utility.yul\":2132:2137   */\n      0x00\n        /* \"#utility.yul\":2170:2176   */\n      dup2\n        /* \"#utility.yul\":2157:2177   */\n      calldataload\n        /* \"#utility.yul\":2148:2177   */\n      swap1\n      pop\n        /* \"#utility.yul\":2186:2219   */\n      tag_228\n        /* \"#utility.yul\":2213:2218   */\n      dup2\n        /* \"#utility.yul\":2186:2219   */\n      tag_173\n      jump\t// in\n    tag_228:\n        /* \"#utility.yul\":2086:2225   */\n      swap3\n      swap2\n      pop\n      pop\n      jump\t// out\n        /* \"#utility.yul\":2231:2308   */\n    tag_175:\n        /* \"#utility.yul\":2268:2275   */\n      0x00\n        /* \"#utility.yul\":2297:2302   */\n      dup2\n        /* \"#utility.yul\":2286:2302   */\n      swap1\n      pop\n        /* \"#utility.yul\":2231:2308   */\n      swap2\n      swap1\n      pop\n      jump\t// out\n        /* \"#utility.yul\":2314:2436   */\n    tag_176:\n        /* \"#utility.yul\":2387:2411   */\n      tag_231\n        /* \"#utility.yul\":2405:2410   */\n      dup2\n        /* \"#utility.yul\":2387:2411   */\n      tag_175\n      jump\t// in\n    tag_231:\n        /* \"#utility.yul\":2380:2385   */\n      dup2\n        /* \"#utility.yul\":2377:2412   */\n      eq\n        /* \"#utility.yul\":2367:2430   */\n      tag_232\n      jumpi\n        /* \"#utility.yul\":2426:2427   */\n      0x00\n        /* \"#utility.yul\":2423:2424   */\n      dup1\n        /* \"#utility.yul\":2416:2428   */\n      revert\n        /* \"#utility.yul\":2367:2430   */\n    tag_232:\n        /* \"#utility.yul\":2314:2436   */\n      pop\n      jump\t// out\n        /* \"#utility.yul\":2442:2581   */\n    tag_177:\n        /* \"#utility.yul\":2488:2493   */\n      0x00\n        /* \"#utility.yul\":2526:2532   */\n      dup2\n        /* \"#utility.yul\":2513:2533   */\n      calldataload\n        /* \"#utility.yul\":2504:2533   */\n      swap1\n      pop\n        /* \"#utility.yul\":2542:2575   */\n      tag_234\n        /* \"#utility.yul\":2569:2574   */\n      dup2\n        /* \"#utility.yul\":2542:2575   */\n      tag_176\n      jump\t// in\n    tag_234:\n        /* \"#utility.yul\":2442:2581   */\n      swap3\n      swap2\n      pop\n      pop\n      jump\t// out\n        /* \"#utility.yul\":2587:3061   */\n    tag_25:\n        /* \"#utility.yul\":2655:2661   */\n      0x00\n        /* \"#utility.yul\":2663:2669   */\n      dup1\n        /* \"#utility.yul\":2712:2714   */\n      0x40\n        /* \"#utility.yul\":2700:2709   */\n      dup4\n        /* \"#utility.yul\":2691:2698   */\n      dup6\n        /* \"#utility.yul\":2687:2710   */\n      sub\n        /* \"#utility.yul\":2683:2715   */\n      slt\n        /* \"#utility.yul\":2680:2799   */\n      iszero\n      tag_236\n      jumpi\n        /* \"#utility.yul\":2718:2797   */\n      tag_237\n      tag_169\n      jump\t// in\n    tag_237:\n        /* \"#utility.yul\":2680:2799   */\n    tag_236:\n        /* \"#utility.yul\":2838:2839   */\n      0x00\n        /* \"#utility.yul\":2863:2916   */\n      tag_238\n        /* \"#utility.yul\":2908:2915   */\n      dup6\n        /* \"#utility.yul\":2899:2905   */\n      dup3\n        /* \"#utility.yul\":2888:2897   */\n      dup7\n        /* \"#utility.yul\":2884:2906   */\n      add\n        /* \"#utility.yul\":2863:2916   */\n      tag_174\n      jump\t// in\n    tag_238:\n        /* \"#utility.yul\":2853:2916   */\n      swap3\n      pop\n        /* \"#utility.yul\":2809:2926   */\n      pop\n        /* \"#utility.yul\":2965:2967   */\n      0x20\n        /* \"#utility.yul\":2991:3044   */\n      tag_239\n        /* \"#utility.yul\":3036:3043   */\n      dup6\n        /* \"#utility.yul\":3027:3033   */\n      dup3\n        /* \"#utility.yul\":3016:3025   */\n      dup7\n        /* \"#utility.yul\":3012:3034   */\n      add\n        /* \"#utility.yul\":2991:3044   */\n      tag_177\n      jump\t// in\n    tag_239:\n        /* \"#utility.yul\":2981:3044   */\n      swap2\n      pop\n        /* \"#utility.yul\":2936:3054   */\n      pop\n        /* \"#utility.yul\":2587:3061   */\n      swap3\n      pop\n      swap3\n      swap1\n      pop\n      jump\t// out\n        /* \"#utility.yul\":3067:3157   */\n    tag_178:\n        /* \"#utility.yul\":3101:3108   */\n      0x00\n        /* \"#utility.yul\":3144:3149   */\n      dup2\n        /* \"#utility.yul\":3137:3150   */\n      iszero\n        /* \"#utility.yul\":3130:3151   */\n      iszero\n        /* \"#utility.yul\":3119:3151   */\n      swap1\n      pop\n        /* \"#utility.yul\":3067:3157   */\n      swap2\n      swap1\n      pop\n      jump\t// out\n        /* \"#utility.yul\":3163:3272   */\n    tag_179:\n        /* \"#utility.yul\":3244:3265   */\n      tag_242\n        /* \"#utility.yul\":3259:3264   */\n      dup2\n        /* \"#utility.yul\":3244:3265   */\n      tag_178\n      jump\t// in\n    tag_242:\n        /* \"#utility.yul\":3239:3242   */\n      dup3\n        /* \"#utility.yul\":3232:3266   */\n      mstore\n        /* \"#utility.yul\":3163:3272   */\n      pop\n      pop\n      jump\t// out\n        /* \"#utility.yul\":3278:3488   */\n    tag_28:\n        /* \"#utility.yul\":3365:3369   */\n      0x00\n        /* \"#utility.yul\":3403:3405   */\n      0x20\n        /* \"#utility.yul\":3392:3401   */\n      dup3\n        /* \"#utility.yul\":3388:3406   */\n      add\n        /* \"#utility.yul\":3380:3406   */\n      swap1\n      pop\n        /* \"#utility.yul\":3416:3481   */\n      tag_244\n        /* \"#utility.yul\":3478:3479   */\n      0x00\n        /* \"#utility.yul\":3467:3476   */\n      dup4\n        /* \"#utility.yul\":3463:3480   */\n      add\n        /* \"#utility.yul\":3454:3460   */\n      dup5\n        /* \"#utility.yul\":3416:3481   */\n      tag_179\n      jump\t// in\n    tag_244:\n        /* \"#utility.yul\":3278:3488   */\n      swap3\n      swap2\n      pop\n      pop\n      jump\t// out\n        /* \"#utility.yul\":3494:3612   */\n    tag_180:\n        /* \"#utility.yul\":3581:3605   */\n      tag_246\n        /* \"#utility.yul\":3599:3604   */\n      dup2\n        /* \"#utility.yul\":3581:3605   */\n      tag_175\n      jump\t// in\n    tag_246:\n        /* \"#utility.yul\":3576:3579   */\n      dup3\n        /* \"#utility.yul\":3569:3606   */\n      mstore\n        /* \"#utility.yul\":3494:3612   */\n      pop\n      pop\n      jump\t// out\n        /* \"#utility.yul\":3618:3840   */\n    tag_33:\n        /* \"#utility.yul\":3711:3715   */\n      0x00\n        /* \"#utility.yul\":3749:3751   */\n      0x20\n        /* \"#utility.yul\":3738:3747   */\n      dup3\n        /* \"#utility.yul\":3734:3752   */\n      add\n        /* \"#utility.yul\":3726:3752   */\n      swap1\n      pop\n        /* \"#utility.yul\":3762:3833   */\n      tag_248\n        /* \"#utility.yul\":3830:3831   */\n      0x00\n        /* \"#utility.yul\":3819:3828   */\n      dup4\n        /* \"#utility.yul\":3815:3832   */\n      add\n        /* \"#utility.yul\":3806:3812   */\n      dup5\n        /* \"#utility.yul\":3762:3833   */\n      tag_180\n      jump\t// in\n    tag_248:\n        /* \"#utility.yul\":3618:3840   */\n      swap3\n      swap2\n      pop\n      pop\n      jump\t// out\n        /* \"#utility.yul\":3846:4465   */\n    tag_37:\n        /* \"#utility.yul\":3923:3929   */\n      0x00\n        /* \"#utility.yul\":3931:3937   */\n      dup1\n        /* \"#utility.yul\":3939:3945   */\n      0x00\n        /* \"#utility.yul\":3988:3990   */\n      0x60\n        /* \"#utility.yul\":3976:3985   */\n      dup5\n        /* \"#utility.yul\":3967:3974   */\n      dup7\n        /* \"#utility.yul\":3963:3986   */\n      sub\n        /* \"#utility.yul\":3959:3991   */\n      slt\n        /* \"#utility.yul\":3956:4075   */\n      iszero\n      tag_250\n      jumpi\n        /* \"#utility.yul\":3994:4073   */\n      tag_251\n      tag_169\n      jump\t// in\n    tag_251:\n        /* \"#utility.yul\":3956:4075   */\n    tag_250:\n        /* \"#utility.yul\":4114:4115   */\n      0x00\n        /* \"#utility.yul\":4139:4192   */\n      tag_252\n        /* \"#utility.yul\":4184:4191   */\n      dup7\n        /* \"#utility.yul\":4175:4181   */\n      dup3\n        /* \"#utility.yul\":4164:4173   */\n      dup8\n        /* \"#utility.yul\":4160:4182   */\n      add\n        /* \"#utility.yul\":4139:4192   */\n      tag_174\n      jump\t// in\n    tag_252:\n        /* \"#utility.yul\":4129:4192   */\n      swap4\n      pop\n        /* \"#utility.yul\":4085:4202   */\n      pop\n        /* \"#utility.yul\":4241:4243   */\n      0x20\n        /* \"#utility.yul\":4267:4320   */\n      tag_253\n        /* \"#utility.yul\":4312:4319   */\n      dup7\n        /* \"#utility.yul\":4303:4309   */\n      dup3\n        /* \"#utility.yul\":4292:4301   */\n      dup8\n        /* \"#utility.yul\":4288:4310   */\n      add\n        /* \"#utility.yul\":4267:4320   */\n      tag_174\n      jump\t// in\n    tag_253:\n        /* \"#utility.yul\":4257:4320   */\n      swap3\n      pop\n        /* \"#utility.yul\":4212:4330   */\n      pop\n        /* \"#utility.yul\":4369:4371   */\n      0x40\n        /* \"#utility.yul\":4395:4448   */\n      tag_254\n        /* \"#utility.yul\":4440:4447   */\n      dup7\n        /* \"#utility.yul\":4431:4437   */\n      dup3\n        /* \"#utility.yul\":4420:4429   */\n      dup8\n        /* \"#utility.yul\":4416:4438   */\n      add\n        /* \"#utility.yul\":4395:4448   */\n      tag_177\n      jump\t// in\n    tag_254:\n        /* \"#utility.yul\":4385:4448   */\n      swap2\n      pop\n        /* \"#utility.yul\":4340:4458   */\n      pop\n        /* \"#utility.yul\":3846:4465   */\n      swap3\n      pop\n      swap3\n      pop\n      swap3\n      jump\t// out\n        /* \"#utility.yul\":4471:4800   */\n    tag_43:\n        /* \"#utility.yul\":4530:4536   */\n      0x00\n        /* \"#utility.yul\":4579:4581   */\n      0x20\n        /* \"#utility.yul\":4567:4576   */\n      dup3\n        /* \"#utility.yul\":4558:4565   */\n      dup5\n        /* \"#utility.yul\":4554:4577   */\n      sub\n        /* \"#utility.yul\":4550:4582   */\n      slt\n        /* \"#utility.yul\":4547:4666   */\n      iszero\n      tag_256\n      jumpi\n        /* \"#utility.yul\":4585:4664   */\n      tag_257\n      tag_169\n      jump\t// in\n    tag_257:\n        /* \"#utility.yul\":4547:4666   */\n    tag_256:\n        /* \"#utility.yul\":4705:4706   */\n      0x00\n        /* \"#utility.yul\":4730:4783   */\n      tag_258\n        /* \"#utility.yul\":4775:4782   */\n      dup5\n        /* \"#utility.yul\":4766:4772   */\n      dup3\n        /* \"#utility.yul\":4755:4764   */\n      dup6\n        /* \"#utility.yul\":4751:4773   */\n      add\n        /* \"#utility.yul\":4730:4783   */\n      tag_177\n      jump\t// in\n    tag_258:\n        /* \"#utility.yul\":4720:4783   */\n      swap2\n      pop\n        /* \"#utility.yul\":4676:4793   */\n      pop\n        /* \"#utility.yul\":4471:4800   */\n      swap3\n      swap2\n      pop\n      pop\n      jump\t// out\n        /* \"#utility.yul\":4806:4892   */\n    tag_181:\n        /* \"#utility.yul\":4841:4848   */\n      0x00\n        /* \"#utility.yul\":4881:4885   */\n      0xff\n        /* \"#utility.yul\":4874:4879   */\n      dup3\n        /* \"#utility.yul\":4870:4886   */\n      and\n        /* \"#utility.yul\":4859:4886   */\n      swap1\n      pop\n        /* \"#utility.yul\":4806:4892   */\n      swap2\n      swap1\n      pop\n      jump\t// out\n        /* \"#utility.yul\":4898:5010   */\n    tag_182:\n        /* \"#utility.yul\":4981:5003   */\n      tag_261\n        /* \"#utility.yul\":4997:5002   */\n      dup2\n        /* \"#utility.yul\":4981:5003   */\n      tag_181\n      jump\t// in\n    tag_261:\n        /* \"#utility.yul\":4976:4979   */\n      dup3\n        /* \"#utility.yul\":4969:5004   */\n      mstore\n        /* \"#utility.yul\":4898:5010   */\n      pop\n      pop\n      jump\t// out\n        /* \"#utility.yul\":5016:5230   */\n    tag_49:\n        /* \"#utility.yul\":5105:5109   */\n      0x00\n        /* \"#utility.yul\":5143:5145   */\n      0x20\n        /* \"#utility.yul\":5132:5141   */\n      dup3\n        /* \"#utility.yul\":5128:5146   */\n      add\n        /* \"#utility.yul\":5120:5146   */\n      swap1\n      pop\n        /* \"#utility.yul\":5156:5223   */\n      tag_263\n        /* \"#utility.yul\":5220:5221   */\n      0x00\n        /* \"#utility.yul\":5209:5218   */\n      dup4\n        /* \"#utility.yul\":5205:5222   */\n      add\n        /* \"#utility.yul\":5196:5202   */\n      dup5\n        /* \"#utility.yul\":5156:5223   */\n      tag_182\n      jump\t// in\n    tag_263:\n        /* \"#utility.yul\":5016:5230   */\n      swap3\n      swap2\n      pop\n      pop\n      jump\t// out\n        /* \"#utility.yul\":5236:5565   */\n    tag_57:\n        /* \"#utility.yul\":5295:5301   */\n      0x00\n        /* \"#utility.yul\":5344:5346   */\n      0x20\n        /* \"#utility.yul\":5332:5341   */\n      dup3\n        /* \"#utility.yul\":5323:5330   */\n      dup5\n        /* \"#utility.yul\":5319:5342   */\n      sub\n        /* \"#utility.yul\":5315:5347   */\n      slt\n        /* \"#utility.yul\":5312:5431   */\n      iszero\n      tag_265\n      jumpi\n        /* \"#utility.yul\":5350:5429   */\n      tag_266\n      tag_169\n      jump\t// in\n    tag_266:\n        /* \"#utility.yul\":5312:5431   */\n    tag_265:\n        /* \"#utility.yul\":5470:5471   */\n      0x00\n        /* \"#utility.yul\":5495:5548   */\n      tag_267\n        /* \"#utility.yul\":5540:5547   */\n      dup5\n        /* \"#utility.yul\":5531:5537   */\n      dup3\n        /* \"#utility.yul\":5520:5529   */\n      dup6\n        /* \"#utility.yul\":5516:5538   */\n      add\n        /* \"#utility.yul\":5495:5548   */\n      tag_174\n      jump\t// in\n    tag_267:\n        /* \"#utility.yul\":5485:5548   */\n      swap2\n      pop\n        /* \"#utility.yul\":5441:5558   */\n      pop\n        /* \"#utility.yul\":5236:5565   */\n      swap3\n      swap2\n      pop\n      pop\n      jump\t// out\n        /* \"#utility.yul\":5571:6045   */\n    tag_63:\n        /* \"#utility.yul\":5639:5645   */\n      0x00\n        /* \"#utility.yul\":5647:5653   */\n      dup1\n        /* \"#utility.yul\":5696:5698   */\n      0x40\n        /* \"#utility.yul\":5684:5693   */\n      dup4\n        /* \"#utility.yul\":5675:5682   */\n      dup6\n        /* \"#utility.yul\":5671:5694   */\n      sub\n        /* \"#utility.yul\":5667:5699   */\n      slt\n        /* \"#utility.yul\":5664:5783   */\n      iszero\n      tag_269\n      jumpi\n        /* \"#utility.yul\":5702:5781   */\n      tag_270\n      tag_169\n      jump\t// in\n    tag_270:\n        /* \"#utility.yul\":5664:5783   */\n    tag_269:\n        /* \"#utility.yul\":5822:5823   */\n      0x00\n        /* \"#utility.yul\":5847:5900   */\n      tag_271\n        /* \"#utility.yul\":5892:5899   */\n      dup6\n        /* \"#utility.yul\":5883:5889   */\n      dup3\n        /* \"#utility.yul\":5872:5881   */\n      dup7\n        /* \"#utility.yul\":5868:5890   */\n      add\n        /* \"#utility.yul\":5847:5900   */\n      tag_177\n      jump\t// in\n    tag_271:\n        /* \"#utility.yul\":5837:5900   */\n      swap3\n      pop\n        /* \"#utility.yul\":5793:5910   */\n      pop\n        /* \"#utility.yul\":5949:5951   */\n      0x20\n        /* \"#utility.yul\":5975:6028   */\n      tag_272\n        /* \"#utility.yul\":6020:6027   */\n      dup6\n        /* \"#utility.yul\":6011:6017   */\n      dup3\n        /* \"#utility.yul\":6000:6009   */\n      dup7\n        /* \"#utility.yul\":5996:6018   */\n      add\n        /* \"#utility.yul\":5975:6028   */\n      tag_174\n      jump\t// in\n    tag_272:\n        /* \"#utility.yul\":5965:6028   */\n      swap2\n      pop\n        /* \"#utility.yul\":5920:6038   */\n      pop\n        /* \"#utility.yul\":5571:6045   */\n      swap3\n      pop\n      swap3\n      swap1\n      pop\n      jump\t// out\n        /* \"#utility.yul\":6051:6525   */\n    tag_79:\n        /* \"#utility.yul\":6119:6125   */\n      0x00\n        /* \"#utility.yul\":6127:6133   */\n      dup1\n        /* \"#utility.yul\":6176:6178   */\n      0x40\n        /* \"#utility.yul\":6164:6173   */\n      dup4\n        /* \"#utility.yul\":6155:6162   */\n      dup6\n        /* \"#utility.yul\":6151:6174   */\n      sub\n        /* \"#utility.yul\":6147:6179   */\n      slt\n        /* \"#utility.yul\":6144:6263   */\n      iszero\n      tag_274\n      jumpi\n        /* \"#utility.yul\":6182:6261   */\n      tag_275\n      tag_169\n      jump\t// in\n    tag_275:\n        /* \"#utility.yul\":6144:6263   */\n    tag_274:\n        /* \"#utility.yul\":6302:6303   */\n      0x00\n        /* \"#utility.yul\":6327:6380   */\n      tag_276\n        /* \"#utility.yul\":6372:6379   */\n      dup6\n        /* \"#utility.yul\":6363:6369   */\n      dup3\n        /* \"#utility.yul\":6352:6361   */\n      dup7\n        /* \"#utility.yul\":6348:6370   */\n      add\n        /* \"#utility.yul\":6327:6380   */\n      tag_174\n      jump\t// in\n    tag_276:\n        /* \"#utility.yul\":6317:6380   */\n      swap3\n      pop\n        /* \"#utility.yul\":6273:6390   */\n      pop\n        /* \"#utility.yul\":6429:6431   */\n      0x20\n        /* \"#utility.yul\":6455:6508   */\n      tag_277\n        /* \"#utility.yul\":6500:6507   */\n      dup6\n        /* \"#utility.yul\":6491:6497   */\n      dup3\n        /* \"#utility.yul\":6480:6489   */\n      dup7\n        /* \"#utility.yul\":6476:6498   */\n      add\n        /* \"#utility.yul\":6455:6508   */\n      tag_174\n      jump\t// in\n    tag_277:\n        /* \"#utility.yul\":6445:6508   */\n      swap2\n      pop\n        /* \"#utility.yul\":6400:6518   */\n      pop\n        /* \"#utility.yul\":6051:6525   */\n      swap3\n      pop\n      swap3\n      swap1\n      pop\n      jump\t// out\n        /* \"#utility.yul\":6531:6706   */\n    tag_183:\n        /* \"#utility.yul\":6671:6698   */\n      0x496e76616c69642064656c656761746520616464726573732e00000000000000\n        /* \"#utility.yul\":6667:6668   */\n      0x00\n        /* \"#utility.yul\":6659:6665   */\n      dup3\n        /* \"#utility.yul\":6655:6669   */\n      add\n        /* \"#utility.yul\":6648:6699   */\n      mstore\n        /* \"#utility.yul\":6531:6706   */\n      pop\n      jump\t// out\n        /* \"#utility.yul\":6712:7078   */\n    tag_184:\n        /* \"#utility.yul\":6854:6857   */\n      0x00\n        /* \"#utility.yul\":6875:6942   */\n      tag_280\n        /* \"#utility.yul\":6939:6941   */\n      0x19\n        /* \"#utility.yul\":6934:6937   */\n      dup4\n        /* \"#utility.yul\":6875:6942   */\n      tag_164\n      jump\t// in\n    tag_280:\n        /* \"#utility.yul\":6868:6942   */\n      swap2\n      pop\n        /* \"#utility.yul\":6951:7044   */\n      tag_281\n        /* \"#utility.yul\":7040:7043   */\n      dup3\n        /* \"#utility.yul\":6951:7044   */\n      tag_183\n      jump\t// in\n    tag_281:\n        /* \"#utility.yul\":7069:7071   */\n      0x20\n        /* \"#utility.yul\":7064:7067   */\n      dup3\n        /* \"#utility.yul\":7060:7072   */\n      add\n        /* \"#utility.yul\":7053:7072   */\n      swap1\n      pop\n        /* \"#utility.yul\":6712:7078   */\n      swap2\n      swap1\n      pop\n      jump\t// out\n        /* \"#utility.yul\":7084:7503   */\n    tag_85:\n        /* \"#utility.yul\":7250:7254   */\n      0x00\n        /* \"#utility.yul\":7288:7290   */\n      0x20\n        /* \"#utility.yul\":7277:7286   */\n      dup3\n        /* \"#utility.yul\":7273:7291   */\n      add\n        /* \"#utility.yul\":7265:7291   */\n      swap1\n      pop\n        /* \"#utility.yul\":7337:7346   */\n      dup2\n        /* \"#utility.yul\":7331:7335   */\n      dup2\n        /* \"#utility.yul\":7327:7347   */\n      sub\n        /* \"#utility.yul\":7323:7324   */\n      0x00\n        /* \"#utility.yul\":7312:7321   */\n      dup4\n        /* \"#utility.yul\":7308:7325   */\n      add\n        /* \"#utility.yul\":7301:7348   */\n      mstore\n        /* \"#utility.yul\":7365:7496   */\n      tag_283\n        /* \"#utility.yul\":7491:7495   */\n      dup2\n        /* \"#utility.yul\":7365:7496   */\n      tag_184\n      jump\t// in\n    tag_283:\n        /* \"#utility.yul\":7357:7496   */\n      swap1\n      pop\n        /* \"#utility.yul\":7084:7503   */\n      swap2\n      swap1\n      pop\n      jump\t// out\n        /* \"#utility.yul\":7509:7680   */\n    tag_185:\n        /* \"#utility.yul\":7649:7672   */\n      0x496e76616c696420746f6b656e20616d6f756e742e0000000000000000000000\n        /* \"#utility.yul\":7645:7646   */\n      0x00\n        /* \"#utility.yul\":7637:7643   */\n      dup3\n        /* \"#utility.yul\":7633:7647   */\n      add\n        /* \"#utility.yul\":7626:7673   */\n      mstore\n        /* \"#utility.yul\":7509:7680   */\n      pop\n      jump\t// out\n        /* \"#utility.yul\":7686:8052   */\n    tag_186:\n        /* \"#utility.yul\":7828:7831   */\n      0x00\n        /* \"#utility.yul\":7849:7916   */\n      tag_286\n        /* \"#utility.yul\":7913:7915   */\n      0x15\n        /* \"#utility.yul\":7908:7911   */\n      dup4\n        /* \"#utility.yul\":7849:7916   */\n      tag_164\n      jump\t// in\n    tag_286:\n        /* \"#utility.yul\":7842:7916   */\n      swap2\n      pop\n        /* \"#utility.yul\":7925:8018   */\n      tag_287\n        /* \"#utility.yul\":8014:8017   */\n      dup3\n        /* \"#utility.yul\":7925:8018   */\n      tag_185\n      jump\t// in\n    tag_287:\n        /* \"#utility.yul\":8043:8045   */\n      0x20\n        /* \"#utility.yul\":8038:8041   */\n      dup3\n        /* \"#utility.yul\":8034:8046   */\n      add\n        /* \"#utility.yul\":8027:8046   */\n      swap1\n      pop\n        /* \"#utility.yul\":7686:8052   */\n      swap2\n      swap1\n      pop\n      jump\t// out\n        /* \"#utility.yul\":8058:8477   */\n    tag_91:\n        /* \"#utility.yul\":8224:8228   */\n      0x00\n        /* \"#utility.yul\":8262:8264   */\n      0x20\n        /* \"#utility.yul\":8251:8260   */\n      dup3\n        /* \"#utility.yul\":8247:8265   */\n      add\n        /* \"#utility.yul\":8239:8265   */\n      swap1\n      pop\n        /* \"#utility.yul\":8311:8320   */\n      dup2\n        /* \"#utility.yul\":8305:8309   */\n      dup2\n        /* \"#utility.yul\":8301:8321   */\n      sub\n        /* \"#utility.yul\":8297:8298   */\n      0x00\n        /* \"#utility.yul\":8286:8295   */\n      dup4\n        /* \"#utility.yul\":8282:8299   */\n      add\n        /* \"#utility.yul\":8275:8322   */\n      mstore\n        /* \"#utility.yul\":8339:8470   */\n      tag_289\n        /* \"#utility.yul\":8465:8469   */\n      dup2\n        /* \"#utility.yul\":8339:8470   */\n      tag_186\n      jump\t// in\n    tag_289:\n        /* \"#utility.yul\":8331:8470   */\n      swap1\n      pop\n        /* \"#utility.yul\":8058:8477   */\n      swap2\n      swap1\n      pop\n      jump\t// out\n        /* \"#utility.yul\":8483:8654   */\n    tag_187:\n        /* \"#utility.yul\":8623:8646   */\n      0x496e73756666696369656e742062616c616e63652e0000000000000000000000\n        /* \"#utility.yul\":8619:8620   */\n      0x00\n        /* \"#utility.yul\":8611:8617   */\n      dup3\n        /* \"#utility.yul\":8607:8621   */\n      add\n        /* \"#utility.yul\":8600:8647   */\n      mstore\n        /* \"#utility.yul\":8483:8654   */\n      pop\n      jump\t// out\n        /* \"#utility.yul\":8660:9026   */\n    tag_188:\n        /* \"#utility.yul\":8802:8805   */\n      0x00\n        /* \"#utility.yul\":8823:8890   */\n      tag_292\n        /* \"#utility.yul\":8887:8889   */\n      0x15\n        /* \"#utility.yul\":8882:8885   */\n      dup4\n        /* \"#utility.yul\":8823:8890   */\n      tag_164\n      jump\t// in\n    tag_292:\n        /* \"#utility.yul\":8816:8890   */\n      swap2\n      pop\n        /* \"#utility.yul\":8899:8992   */\n      tag_293\n        /* \"#utility.yul\":8988:8991   */\n      dup3\n        /* \"#utility.yul\":8899:8992   */\n      tag_187\n      jump\t// in\n    tag_293:\n        /* \"#utility.yul\":9017:9019   */\n      0x20\n        /* \"#utility.yul\":9012:9015   */\n      dup3\n        /* \"#utility.yul\":9008:9020   */\n      add\n        /* \"#utility.yul\":9001:9020   */\n      swap1\n      pop\n        /* \"#utility.yul\":8660:9026   */\n      swap2\n      swap1\n      pop\n      jump\t// out\n        /* \"#utility.yul\":9032:9451   */\n    tag_94:\n        /* \"#utility.yul\":9198:9202   */\n      0x00\n        /* \"#utility.yul\":9236:9238   */\n      0x20\n        /* \"#utility.yul\":9225:9234   */\n      dup3\n        /* \"#utility.yul\":9221:9239   */\n      add\n        /* \"#utility.yul\":9213:9239   */\n      swap1\n      pop\n        /* \"#utility.yul\":9285:9294   */\n      dup2\n        /* \"#utility.yul\":9279:9283   */\n      dup2\n        /* \"#utility.yul\":9275:9295   */\n      sub\n        /* \"#utility.yul\":9271:9272   */\n      0x00\n        /* \"#utility.yul\":9260:9269   */\n      dup4\n        /* \"#utility.yul\":9256:9273   */\n      add\n        /* \"#utility.yul\":9249:9296   */\n      mstore\n        /* \"#utility.yul\":9313:9444   */\n      tag_295\n        /* \"#utility.yul\":9439:9443   */\n      dup2\n        /* \"#utility.yul\":9313:9444   */\n      tag_188\n      jump\t// in\n    tag_295:\n        /* \"#utility.yul\":9305:9444   */\n      swap1\n      pop\n        /* \"#utility.yul\":9032:9451   */\n      swap2\n      swap1\n      pop\n      jump\t// out\n        /* \"#utility.yul\":9457:9630   */\n    tag_189:\n        /* \"#utility.yul\":9597:9622   */\n      0x496e73756666696369656e7420616c6c6f77616e63652e000000000000000000\n        /* \"#utility.yul\":9593:9594   */\n      0x00\n        /* \"#utility.yul\":9585:9591   */\n      dup3\n        /* \"#utility.yul\":9581:9595   */\n      add\n        /* \"#utility.yul\":9574:9623   */\n      mstore\n        /* \"#utility.yul\":9457:9630   */\n      pop\n      jump\t// out\n        /* \"#utility.yul\":9636:10002   */\n    tag_190:\n        /* \"#utility.yul\":9778:9781   */\n      0x00\n        /* \"#utility.yul\":9799:9866   */\n      tag_298\n        /* \"#utility.yul\":9863:9865   */\n      0x17\n        /* \"#utility.yul\":9858:9861   */\n      dup4\n        /* \"#utility.yul\":9799:9866   */\n      tag_164\n      jump\t// in\n    tag_298:\n        /* \"#utility.yul\":9792:9866   */\n      swap2\n      pop\n        /* \"#utility.yul\":9875:9968   */\n      tag_299\n        /* \"#utility.yul\":9964:9967   */\n      dup3\n        /* \"#utility.yul\":9875:9968   */\n      tag_189\n      jump\t// in\n    tag_299:\n        /* \"#utility.yul\":9993:9995   */\n      0x20\n        /* \"#utility.yul\":9988:9991   */\n      dup3\n        /* \"#utility.yul\":9984:9996   */\n      add\n        /* \"#utility.yul\":9977:9996   */\n      swap1\n      pop\n        /* \"#utility.yul\":9636:10002   */\n      swap2\n      swap1\n      pop\n      jump\t// out\n        /* \"#utility.yul\":10008:10427   */\n    tag_97:\n        /* \"#utility.yul\":10174:10178   */\n      0x00\n        /* \"#utility.yul\":10212:10214   */\n      0x20\n        /* \"#utility.yul\":10201:10210   */\n      dup3\n        /* \"#utility.yul\":10197:10215   */\n      add\n        /* \"#utility.yul\":10189:10215   */\n      swap1\n      pop\n        /* \"#utility.yul\":10261:10270   */\n      dup2\n        /* \"#utility.yul\":10255:10259   */\n      dup2\n        /* \"#utility.yul\":10251:10271   */\n      sub\n        /* \"#utility.yul\":10247:10248   */\n      0x00\n        /* \"#utility.yul\":10236:10245   */\n      dup4\n        /* \"#utility.yul\":10232:10249   */\n      add\n        /* \"#utility.yul\":10225:10272   */\n      mstore\n        /* \"#utility.yul\":10289:10420   */\n      tag_301\n        /* \"#utility.yul\":10415:10419   */\n      dup2\n        /* \"#utility.yul\":10289:10420   */\n      tag_190\n      jump\t// in\n    tag_301:\n        /* \"#utility.yul\":10281:10420   */\n      swap1\n      pop\n        /* \"#utility.yul\":10008:10427   */\n      swap2\n      swap1\n      pop\n      jump\t// out\n        /* \"#utility.yul\":10433:10609   */\n    tag_191:\n        /* \"#utility.yul\":10573:10601   */\n      0x496e76616c6964207769746864726177616c20616d6f756e742e000000000000\n        /* \"#utility.yul\":10569:10570   */\n      0x00\n        /* \"#utility.yul\":10561:10567   */\n      dup3\n        /* \"#utility.yul\":10557:10571   */\n      add\n        /* \"#utility.yul\":10550:10602   */\n      mstore\n        /* \"#utility.yul\":10433:10609   */\n      pop\n      jump\t// out\n        /* \"#utility.yul\":10615:10981   */\n    tag_192:\n        /* \"#utility.yul\":10757:10760   */\n      0x00\n        /* \"#utility.yul\":10778:10845   */\n      tag_304\n        /* \"#utility.yul\":10842:10844   */\n      0x1a\n        /* \"#utility.yul\":10837:10840   */\n      dup4\n        /* \"#utility.yul\":10778:10845   */\n      tag_164\n      jump\t// in\n    tag_304:\n        /* \"#utility.yul\":10771:10845   */\n      swap2\n      pop\n        /* \"#utility.yul\":10854:10947   */\n      tag_305\n        /* \"#utility.yul\":10943:10946   */\n      dup3\n        /* \"#utility.yul\":10854:10947   */\n      tag_191\n      jump\t// in\n    tag_305:\n        /* \"#utility.yul\":10972:10974   */\n      0x20\n        /* \"#utility.yul\":10967:10970   */\n      dup3\n        /* \"#utility.yul\":10963:10975   */\n      add\n        /* \"#utility.yul\":10956:10975   */\n      swap1\n      pop\n        /* \"#utility.yul\":10615:10981   */\n      swap2\n      swap1\n      pop\n      jump\t// out\n        /* \"#utility.yul\":10987:11406   */\n    tag_107:\n        /* \"#utility.yul\":11153:11157   */\n      0x00\n        /* \"#utility.yul\":11191:11193   */\n      0x20\n        /* \"#utility.yul\":11180:11189   */\n      dup3\n        /* \"#utility.yul\":11176:11194   */\n      add\n        /* \"#utility.yul\":11168:11194   */\n      swap1\n      pop\n        /* \"#utility.yul\":11240:11249   */\n      dup2\n        /* \"#utility.yul\":11234:11238   */\n      dup2\n        /* \"#utility.yul\":11230:11250   */\n      sub\n        /* \"#utility.yul\":11226:11227   */\n      0x00\n        /* \"#utility.yul\":11215:11224   */\n      dup4\n        /* \"#utility.yul\":11211:11228   */\n      add\n        /* \"#utility.yul\":11204:11251   */\n      mstore\n        /* \"#utility.yul\":11268:11399   */\n      tag_307\n        /* \"#utility.yul\":11394:11398   */\n      dup2\n        /* \"#utility.yul\":11268:11399   */\n      tag_192\n      jump\t// in\n    tag_307:\n        /* \"#utility.yul\":11260:11399   */\n      swap1\n      pop\n        /* \"#utility.yul\":10987:11406   */\n      swap2\n      swap1\n      pop\n      jump\t// out\n        /* \"#utility.yul\":11412:11632   */\n    tag_193:\n        /* \"#utility.yul\":11552:11586   */\n      0x496e73756666696369656e742062616c616e636520696e20636f6e7472616374\n        /* \"#utility.yul\":11548:11549   */\n      0x00\n        /* \"#utility.yul\":11540:11546   */\n      dup3\n        /* \"#utility.yul\":11536:11550   */\n      add\n        /* \"#utility.yul\":11529:11587   */\n      mstore\n        /* \"#utility.yul\":11621:11624   */\n      0x2e00000000000000000000000000000000000000000000000000000000000000\n        /* \"#utility.yul\":11616:11618   */\n      0x20\n        /* \"#utility.yul\":11608:11614   */\n      dup3\n        /* \"#utility.yul\":11604:11619   */\n      add\n        /* \"#utility.yul\":11597:11625   */\n      mstore\n        /* \"#utility.yul\":11412:11632   */\n      pop\n      jump\t// out\n        /* \"#utility.yul\":11638:12004   */\n    tag_194:\n        /* \"#utility.yul\":11780:11783   */\n      0x00\n        /* \"#utility.yul\":11801:11868   */\n      tag_310\n        /* \"#utility.yul\":11865:11867   */\n      0x21\n        /* \"#utility.yul\":11860:11863   */\n      dup4\n        /* \"#utility.yul\":11801:11868   */\n      tag_164\n      jump\t// in\n    tag_310:\n        /* \"#utility.yul\":11794:11868   */\n      swap2\n      pop\n        /* \"#utility.yul\":11877:11970   */\n      tag_311\n        /* \"#utility.yul\":11966:11969   */\n      dup3\n        /* \"#utility.yul\":11877:11970   */\n      tag_193\n      jump\t// in\n    tag_311:\n        /* \"#utility.yul\":11995:11997   */\n      0x40\n        /* \"#utility.yul\":11990:11993   */\n      dup3\n        /* \"#utility.yul\":11986:11998   */\n      add\n        /* \"#utility.yul\":11979:11998   */\n      swap1\n      pop\n        /* \"#utility.yul\":11638:12004   */\n      swap2\n      swap1\n      pop\n      jump\t// out\n        /* \"#utility.yul\":12010:12429   */\n    tag_112:\n        /* \"#utility.yul\":12176:12180   */\n      0x00\n        /* \"#utility.yul\":12214:12216   */\n      0x20\n        /* \"#utility.yul\":12203:12212   */\n      dup3\n        /* \"#utility.yul\":12199:12217   */\n      add\n        /* \"#utility.yul\":12191:12217   */\n      swap1\n      pop\n        /* \"#utility.yul\":12263:12272   */\n      dup2\n        /* \"#utility.yul\":12257:12261   */\n      dup2\n        /* \"#utility.yul\":12253:12273   */\n      sub\n        /* \"#utility.yul\":12249:12250   */\n      0x00\n        /* \"#utility.yul\":12238:12247   */\n      dup4\n        /* \"#utility.yul\":12234:12251   */\n      add\n        /* \"#utility.yul\":12227:12274   */\n      mstore\n        /* \"#utility.yul\":12291:12422   */\n      tag_313\n        /* \"#utility.yul\":12417:12421   */\n      dup2\n        /* \"#utility.yul\":12291:12422   */\n      tag_194\n      jump\t// in\n    tag_313:\n        /* \"#utility.yul\":12283:12422   */\n      swap1\n      pop\n        /* \"#utility.yul\":12010:12429   */\n      swap2\n      swap1\n      pop\n      jump\t// out\n        /* \"#utility.yul\":12435:12611   */\n    tag_195:\n        /* \"#utility.yul\":12575:12603   */\n      0x496e76616c696420726563697069656e7420616464726573732e000000000000\n        /* \"#utility.yul\":12571:12572   */\n      0x00\n        /* \"#utility.yul\":12563:12569   */\n      dup3\n        /* \"#utility.yul\":12559:12573   */\n      add\n        /* \"#utility.yul\":12552:12604   */\n      mstore\n        /* \"#utility.yul\":12435:12611   */\n      pop\n      jump\t// out\n        /* \"#utility.yul\":12617:12983   */\n    tag_196:\n        /* \"#utility.yul\":12759:12762   */\n      0x00\n        /* \"#utility.yul\":12780:12847   */\n      tag_316\n        /* \"#utility.yul\":12844:12846   */\n      0x1a\n        /* \"#utility.yul\":12839:12842   */\n      dup4\n        /* \"#utility.yul\":12780:12847   */\n      tag_164\n      jump\t// in\n    tag_316:\n        /* \"#utility.yul\":12773:12847   */\n      swap2\n      pop\n        /* \"#utility.yul\":12856:12949   */\n      tag_317\n        /* \"#utility.yul\":12945:12948   */\n      dup3\n        /* \"#utility.yul\":12856:12949   */\n      tag_195\n      jump\t// in\n    tag_317:\n        /* \"#utility.yul\":12974:12976   */\n      0x20\n        /* \"#utility.yul\":12969:12972   */\n      dup3\n        /* \"#utility.yul\":12965:12977   */\n      add\n        /* \"#utility.yul\":12958:12977   */\n      swap1\n      pop\n        /* \"#utility.yul\":12617:12983   */\n      swap2\n      swap1\n      pop\n      jump\t// out\n        /* \"#utility.yul\":12989:13408   */\n    tag_132:\n        /* \"#utility.yul\":13155:13159   */\n      0x00\n        /* \"#utility.yul\":13193:13195   */\n      0x20\n        /* \"#utility.yul\":13182:13191   */\n      dup3\n        /* \"#utility.yul\":13178:13196   */\n      add\n        /* \"#utility.yul\":13170:13196   */\n      swap1\n      pop\n        /* \"#utility.yul\":13242:13251   */\n      dup2\n        /* \"#utility.yul\":13236:13240   */\n      dup2\n        /* \"#utility.yul\":13232:13252   */\n      sub\n        /* \"#utility.yul\":13228:13229   */\n      0x00\n        /* \"#utility.yul\":13217:13226   */\n      dup4\n        /* \"#utility.yul\":13213:13230   */\n      add\n        /* \"#utility.yul\":13206:13253   */\n      mstore\n        /* \"#utility.yul\":13270:13401   */\n      tag_319\n        /* \"#utility.yul\":13396:13400   */\n      dup2\n        /* \"#utility.yul\":13270:13401   */\n      tag_196\n      jump\t// in\n    tag_319:\n        /* \"#utility.yul\":13262:13401   */\n      swap1\n      pop\n        /* \"#utility.yul\":12989:13408   */\n      swap2\n      swap1\n      pop\n      jump\t// out\n        /* \"#utility.yul\":13414:13587   */\n    tag_197:\n        /* \"#utility.yul\":13554:13579   */\n      0x496e76616c6964206465706f73697420616d6f756e742e000000000000000000\n        /* \"#utility.yul\":13550:13551   */\n      0x00\n        /* \"#utility.yul\":13542:13548   */\n      dup3\n        /* \"#utility.yul\":13538:13552   */\n      add\n        /* \"#utility.yul\":13531:13580   */\n      mstore\n        /* \"#utility.yul\":13414:13587   */\n      pop\n      jump\t// out\n        /* \"#utility.yul\":13593:13959   */\n    tag_198:\n        /* \"#utility.yul\":13735:13738   */\n      0x00\n        /* \"#utility.yul\":13756:13823   */\n      tag_322\n        /* \"#utility.yul\":13820:13822   */\n      0x17\n        /* \"#utility.yul\":13815:13818   */\n      dup4\n        /* \"#utility.yul\":13756:13823   */\n      tag_164\n      jump\t// in\n    tag_322:\n        /* \"#utility.yul\":13749:13823   */\n      swap2\n      pop\n        /* \"#utility.yul\":13832:13925   */\n      tag_323\n        /* \"#utility.yul\":13921:13924   */\n      dup3\n        /* \"#utility.yul\":13832:13925   */\n      tag_197\n      jump\t// in\n    tag_323:\n        /* \"#utility.yul\":13950:13952   */\n      0x20\n        /* \"#utility.yul\":13945:13948   */\n      dup3\n        /* \"#utility.yul\":13941:13953   */\n      add\n        /* \"#utility.yul\":13934:13953   */\n      swap1\n      pop\n        /* \"#utility.yul\":13593:13959   */\n      swap2\n      swap1\n      pop\n      jump\t// out\n        /* \"#utility.yul\":13965:14384   */\n    tag_147:\n        /* \"#utility.yul\":14131:14135   */\n      0x00\n        /* \"#utility.yul\":14169:14171   */\n      0x20\n        /* \"#utility.yul\":14158:14167   */\n      dup3\n        /* \"#utility.yul\":14154:14172   */\n      add\n        /* \"#utility.yul\":14146:14172   */\n      swap1\n      pop\n        /* \"#utility.yul\":14218:14227   */\n      dup2\n        /* \"#utility.yul\":14212:14216   */\n      dup2\n        /* \"#utility.yul\":14208:14228   */\n      sub\n        /* \"#utility.yul\":14204:14205   */\n      0x00\n        /* \"#utility.yul\":14193:14202   */\n      dup4\n        /* \"#utility.yul\":14189:14206   */\n      add\n        /* \"#utility.yul\":14182:14229   */\n      mstore\n        /* \"#utility.yul\":14246:14377   */\n      tag_325\n        /* \"#utility.yul\":14372:14376   */\n      dup2\n        /* \"#utility.yul\":14246:14377   */\n      tag_198\n      jump\t// in\n    tag_325:\n        /* \"#utility.yul\":14238:14377   */\n      swap1\n      pop\n        /* \"#utility.yul\":13965:14384   */\n      swap2\n      swap1\n      pop\n      jump\t// out\n        /* \"#utility.yul\":14390:14562   */\n    tag_199:\n        /* \"#utility.yul\":14530:14554   */\n      0x496e76616c6964206f776e657220616464726573732e00000000000000000000\n        /* \"#utility.yul\":14526:14527   */\n      0x00\n        /* \"#utility.yul\":14518:14524   */\n      dup3\n        /* \"#utility.yul\":14514:14528   */\n      add\n        /* \"#utility.yul\":14507:14555   */\n      mstore\n        /* \"#utility.yul\":14390:14562   */\n      pop\n      jump\t// out\n        /* \"#utility.yul\":14568:14934   */\n    tag_200:\n        /* \"#utility.yul\":14710:14713   */\n      0x00\n        /* \"#utility.yul\":14731:14798   */\n      tag_328\n        /* \"#utility.yul\":14795:14797   */\n      0x16\n        /* \"#utility.yul\":14790:14793   */\n      dup4\n        /* \"#utility.yul\":14731:14798   */\n      tag_164\n      jump\t// in\n    tag_328:\n        /* \"#utility.yul\":14724:14798   */\n      swap2\n      pop\n        /* \"#utility.yul\":14807:14900   */\n      tag_329\n        /* \"#utility.yul\":14896:14899   */\n      dup3\n        /* \"#utility.yul\":14807:14900   */\n      tag_199\n      jump\t// in\n    tag_329:\n        /* \"#utility.yul\":14925:14927   */\n      0x20\n        /* \"#utility.yul\":14920:14923   */\n      dup3\n        /* \"#utility.yul\":14916:14928   */\n      add\n        /* \"#utility.yul\":14909:14928   */\n      swap1\n      pop\n        /* \"#utility.yul\":14568:14934   */\n      swap2\n      swap1\n      pop\n      jump\t// out\n        /* \"#utility.yul\":14940:15359   */\n    tag_154:\n        /* \"#utility.yul\":15106:15110   */\n      0x00\n        /* \"#utility.yul\":15144:15146   */\n      0x20\n        /* \"#utility.yul\":15133:15142   */\n      dup3\n        /* \"#utility.yul\":15129:15147   */\n      add\n        /* \"#utility.yul\":15121:15147   */\n      swap1\n      pop\n        /* \"#utility.yul\":15193:15202   */\n      dup2\n        /* \"#utility.yul\":15187:15191   */\n      dup2\n        /* \"#utility.yul\":15183:15203   */\n      sub\n        /* \"#utility.yul\":15179:15180   */\n      0x00\n        /* \"#utility.yul\":15168:15177   */\n      dup4\n        /* \"#utility.yul\":15164:15181   */\n      add\n        /* \"#utility.yul\":15157:15204   */\n      mstore\n        /* \"#utility.yul\":15221:15352   */\n      tag_331\n        /* \"#utility.yul\":15347:15351   */\n      dup2\n        /* \"#utility.yul\":15221:15352   */\n      tag_200\n      jump\t// in\n    tag_331:\n        /* \"#utility.yul\":15213:15352   */\n      swap1\n      pop\n        /* \"#utility.yul\":14940:15359   */\n      swap2\n      swap1\n      pop\n      jump\t// out\n        /* \"#utility.yul\":15365:15545   */\n    tag_201:\n        /* \"#utility.yul\":15413:15490   */\n      0x4e487b7100000000000000000000000000000000000000000000000000000000\n        /* \"#utility.yul\":15410:15411   */\n      0x00\n        /* \"#utility.yul\":15403:15491   */\n      mstore\n        /* \"#utility.yul\":15510:15514   */\n      0x11\n        /* \"#utility.yul\":15507:15508   */\n      0x04\n        /* \"#utility.yul\":15500:15515   */\n      mstore\n        /* \"#utility.yul\":15534:15538   */\n      0x24\n        /* \"#utility.yul\":15531:15532   */\n      0x00\n        /* \"#utility.yul\":15524:15539   */\n      revert\n        /* \"#utility.yul\":15551:15742   */\n    tag_159:\n        /* \"#utility.yul\":15591:15595   */\n      0x00\n        /* \"#utility.yul\":15611:15631   */\n      tag_334\n        /* \"#utility.yul\":15629:15630   */\n      dup3\n        /* \"#utility.yul\":15611:15631   */\n      tag_175\n      jump\t// in\n    tag_334:\n        /* \"#utility.yul\":15606:15631   */\n      swap2\n      pop\n        /* \"#utility.yul\":15645:15665   */\n      tag_335\n        /* \"#utility.yul\":15663:15664   */\n      dup4\n        /* \"#utility.yul\":15645:15665   */\n      tag_175\n      jump\t// in\n    tag_335:\n        /* \"#utility.yul\":15640:15665   */\n      swap3\n      pop\n        /* \"#utility.yul\":15684:15685   */\n      dup3\n        /* \"#utility.yul\":15681:15682   */\n      dup3\n        /* \"#utility.yul\":15678:15686   */\n      lt\n        /* \"#utility.yul\":15675:15709   */\n      iszero\n      tag_336\n      jumpi\n        /* \"#utility.yul\":15689:15707   */\n      tag_337\n      tag_201\n      jump\t// in\n    tag_337:\n        /* \"#utility.yul\":15675:15709   */\n    tag_336:\n        /* \"#utility.yul\":15734:15735   */\n      dup3\n        /* \"#utility.yul\":15731:15732   */\n      dup3\n        /* \"#utility.yul\":15727:15736   */\n      sub\n        /* \"#utility.yul\":15719:15736   */\n      swap1\n      pop\n        /* \"#utility.yul\":15551:15742   */\n      swap3\n      swap2\n      pop\n      pop\n      jump\t// out\n        /* \"#utility.yul\":15748:16053   */\n    tag_162:\n        /* \"#utility.yul\":15788:15791   */\n      0x00\n        /* \"#utility.yul\":15807:15827   */\n      tag_339\n        /* \"#utility.yul\":15825:15826   */\n      dup3\n        /* \"#utility.yul\":15807:15827   */\n      tag_175\n      jump\t// in\n    tag_339:\n        /* \"#utility.yul\":15802:15827   */\n      swap2\n      pop\n        /* \"#utility.yul\":15841:15861   */\n      tag_340\n        /* \"#utility.yul\":15859:15860   */\n      dup4\n        /* \"#utility.yul\":15841:15861   */\n      tag_175\n      jump\t// in\n    tag_340:\n        /* \"#utility.yul\":15836:15861   */\n      swap3\n      pop\n        /* \"#utility.yul\":15995:15996   */\n      dup3\n        /* \"#utility.yul\":15927:15993   */\n      0xffffffffffffffffffffffffffffffffffffffffffffffffffffffffffffffff\n        /* \"#utility.yul\":15923:15997   */\n      sub\n        /* \"#utility.yul\":15920:15921   */\n      dup3\n        /* \"#utility.yul\":15917:15998   */\n      gt\n        /* \"#utility.yul\":15914:16021   */\n      iszero\n      tag_341\n      jumpi\n        /* \"#utility.yul\":16001:16019   */\n      tag_342\n      tag_201\n      jump\t// in\n    tag_342:\n        /* \"#utility.yul\":15914:16021   */\n    tag_341:\n        /* \"#utility.yul\":16045:16046   */\n      dup3\n        /* \"#utility.yul\":16042:16043   */\n      dup3\n        /* \"#utility.yul\":16038:16047   */\n      add\n        /* \"#utility.yul\":16031:16047   */\n      swap1\n      pop\n        /* \"#utility.yul\":15748:16053   */\n      swap3\n      swap2\n      pop\n      pop\n      jump\t// out\n\n    auxdata: 0xa2646970667358221220521a393942cb7d7ce1df8d92c5e99f94bc28c04132f42613fd3fa86edb8675e364736f6c63430008080033\n}\n",
				"bytecode": {
					"linkReferences": {},
					"object": "608060405234801561001057600080fd5b506000600281905550611cab806100286000396000f3fe6080604052600436106100c25760003560e01c806342966c681161007f57806395d89b411161005957806395d89b411461027a578063a9059cbb146102a5578063d0e30db0146102e2578063dd62ed3e146102ec576100c2565b806342966c68146101eb57806370a082311461021457806394bf804d14610251576100c2565b806306fdde03146100c7578063095ea7b3146100f257806318160ddd1461012f57806323b872dd1461015a5780632e1a7d4d14610197578063313ce567146101c0575b600080fd5b3480156100d357600080fd5b506100dc610329565b6040516100e9919061150b565b60405180910390f35b3480156100fe57600080fd5b50610119600480360381019061011491906115c6565b610362565b6040516101269190611621565b60405180910390f35b34801561013b57600080fd5b506101446104c3565b604051610151919061164b565b60405180910390f35b34801561016657600080fd5b50610181600480360381019061017c9190611666565b6104cd565b60405161018e9190611621565b60405180910390f35b3480156101a357600080fd5b506101be60048036038101906101b991906116b9565b6108f6565b005b3480156101cc57600080fd5b506101d5610b49565b6040516101e29190611702565b60405180910390f35b3480156101f757600080fd5b50610212600480360381019061020d91906116b9565b610b4e565b005b34801561022057600080fd5b5061023b6004803603810190610236919061171d565b610d11565b604051610248919061164b565b60405180910390f35b34801561025d57600080fd5b506102786004803603810190610273919061174a565b610d59565b005b34801561028657600080fd5b5061028f610f0c565b60405161029c919061150b565b60405180910390f35b3480156102b157600080fd5b506102cc60048036038101906102c791906115c6565b610f45565b6040516102d99190611621565b60405180910390f35b6102ea61119f565b005b3480156102f857600080fd5b50610313600480360381019061030e919061178a565b6112e0565b604051610320919061164b565b60405180910390f35b6040518060400160405280600b81526020017f57726170706564204e465400000000000000000000000000000000000000000081525081565b60008073ffffffffffffffffffffffffffffffffffffffff168373ffffffffffffffffffffffffffffffffffffffff1614156103d3576040517f08c379a00000000000000000000000000000000000000000000000000000000081526004016103ca90611816565b60405180910390fd5b81600160003373ffffffffffffffffffffffffffffffffffffffff1673ffffffffffffffffffffffffffffffffffffffff16815260200190815260200160002060008573ffffffffffffffffffffffffffffffffffffffff1673ffffffffffffffffffffffffffffffffffffffff168152602001908152602001600020819055508273ffffffffffffffffffffffffffffffffffffffff163373ffffffffffffffffffffffffffffffffffffffff167f8c5be1e5ebec7d5bd14f71427d1e84f3dd0314c0f7b2291e5b200ac8c7c3b925846040516104b1919061164b565b60405180910390a36001905092915050565b6000600254905090565b6000808211610511576040517f08c379a000000000000000000000000000000000000000000000000000000000815260040161050890611882565b60405180910390fd5b6000808573ffffffffffffffffffffffffffffffffffffffff1673ffffffffffffffffffffffffffffffffffffffff16815260200190815260200160002054821115610592576040517f08c379a0000000000000000000000000000000000000000000000000000000008152600401610589906118ee565b60405180910390fd5b600160008573ffffffffffffffffffffffffffffffffffffffff1673ffffffffffffffffffffffffffffffffffffffff16815260200190815260200160002060003373ffffffffffffffffffffffffffffffffffffffff1673ffffffffffffffffffffffffffffffffffffffff16815260200190815260200160002054821115610651576040517f08c379a00000000000000000000000000000000000000000000000000000000081526004016106489061195a565b60405180910390fd5b6106e082600160008773ffffffffffffffffffffffffffffffffffffffff1673ffffffffffffffffffffffffffffffffffffffff16815260200190815260200160002060003373ffffffffffffffffffffffffffffffffffffffff1673ffffffffffffffffffffffffffffffffffffffff1681526020019081526020016000205461144690919063ffffffff16565b600160008673ffffffffffffffffffffffffffffffffffffffff1673ffffffffffffffffffffffffffffffffffffffff16815260200190815260200160002060003373ffffffffffffffffffffffffffffffffffffffff1673ffffffffffffffffffffffffffffffffffffffff168152602001908152602001600020819055506107b1826000808773ffffffffffffffffffffffffffffffffffffffff1673ffffffffffffffffffffffffffffffffffffffff1681526020019081526020016000205461144690919063ffffffff16565b6000808673ffffffffffffffffffffffffffffffffffffffff1673ffffffffffffffffffffffffffffffffffffffff16815260200190815260200160002081905550610844826000808673ffffffffffffffffffffffffffffffffffffffff1673ffffffffffffffffffffffffffffffffffffffff1681526020019081526020016000205461145c90919063ffffffff16565b6000808573ffffffffffffffffffffffffffffffffffffffff1673ffffffffffffffffffffffffffffffffffffffff168152602001908152602001600020819055508273ffffffffffffffffffffffffffffffffffffffff168473ffffffffffffffffffffffffffffffffffffffff167fddf252ad1be2c89b69c2b068fc378daa952ba7f163c4a11628f55a4df523b3ef846040516108e3919061164b565b60405180910390a3600190509392505050565b60008111610939576040517f08c379a0000000000000000000000000000000000000000000000000000000008152600401610930906119c6565b60405180910390fd5b6000803373ffffffffffffffffffffffffffffffffffffffff1673ffffffffffffffffffffffffffffffffffffffff168152602001908152602001600020548111156109ba576040517f08c379a00000000000000000000000000000000000000000000000000000000081526004016109b1906118ee565b60405180910390fd5b478111156109fd576040517f08c379a00000000000000000000000000000000000000000000000000000000081526004016109f490611a58565b60405180910390fd5b610a4e816000803373ffffffffffffffffffffffffffffffffffffffff1673ffffffffffffffffffffffffffffffffffffffff1681526020019081526020016000205461144690919063ffffffff16565b6000803373ffffffffffffffffffffffffffffffffffffffff1673ffffffffffffffffffffffffffffffffffffffff16815260200190815260200160002081905550610aa58160025461144690919063ffffffff16565b60028190555060003390508073ffffffffffffffffffffffffffffffffffffffff166108fc839081150290604051600060405180830381858888f19350505050158015610af6573d6000803e3d6000fd5b503373ffffffffffffffffffffffffffffffffffffffff167f7fcf532c15f0a6db0bd6d0e038bea71d30d808c7d98cb3bf7268a95bf5081b6583604051610b3d919061164b565b60405180910390a25050565b601281565b60008111610b91576040517f08c379a0000000000000000000000000000000000000000000000000000000008152600401610b8890611882565b60405180910390fd5b6000803373ffffffffffffffffffffffffffffffffffffffff1673ffffffffffffffffffffffffffffffffffffffff16815260200190815260200160002054811115610c12576040517f08c379a0000000000000000000000000000000000000000000000000000000008152600401610c09906118ee565b60405180910390fd5b610c63816000803373ffffffffffffffffffffffffffffffffffffffff1673ffffffffffffffffffffffffffffffffffffffff1681526020019081526020016000205461144690919063ffffffff16565b6000803373ffffffffffffffffffffffffffffffffffffffff1673ffffffffffffffffffffffffffffffffffffffff16815260200190815260200160002081905550610cba8160025461144690919063ffffffff16565b6002819055503373ffffffffffffffffffffffffffffffffffffffff167fcc16f5dbb4873280815c1ee09dbd06736cffcc184412cf7a71a0fdb75d397ca582604051610d06919061164b565b60405180910390a250565b60008060008373ffffffffffffffffffffffffffffffffffffffff1673ffffffffffffffffffffffffffffffffffffffff168152602001908152602001600020549050919050565b60008211610d9c576040517f08c379a0000000000000000000000000000000000000000000000000000000008152600401610d9390611882565b60405180910390fd5b600073ffffffffffffffffffffffffffffffffffffffff168173ffffffffffffffffffffffffffffffffffffffff161415610e0c576040517f08c379a0000000000000000000000000000000000000000000000000000000008152600401610e0390611ac4565b60405180910390fd5b610e5d826000808473ffffffffffffffffffffffffffffffffffffffff1673ffffffffffffffffffffffffffffffffffffffff1681526020019081526020016000205461145c90919063ffffffff16565b6000808373ffffffffffffffffffffffffffffffffffffffff1673ffffffffffffffffffffffffffffffffffffffff16815260200190815260200160002081905550610eb48260025461145c90919063ffffffff16565b6002819055503373ffffffffffffffffffffffffffffffffffffffff167f0f6798a560793a54c3bcfe86a93cde1e73087d944c0ea20544137d412139688583604051610f00919061164b565b60405180910390a25050565b6040518060400160405280600481526020017f574e46540000000000000000000000000000000000000000000000000000000081525081565b6000808211610f89576040517f08c379a0000000000000000000000000000000000000000000000000000000008152600401610f8090611882565b60405180910390fd5b6000803373ffffffffffffffffffffffffffffffffffffffff1673ffffffffffffffffffffffffffffffffffffffff1681526020019081526020016000205482111561100a576040517f08c379a0000000000000000000000000000000000000000000000000000000008152600401611001906118ee565b60405180910390fd5b61105b826000803373ffffffffffffffffffffffffffffffffffffffff1673ffffffffffffffffffffffffffffffffffffffff1681526020019081526020016000205461144690919063ffffffff16565b6000803373ffffffffffffffffffffffffffffffffffffffff1673ffffffffffffffffffffffffffffffffffffffff168152602001908152602001600020819055506110ee826000808673ffffffffffffffffffffffffffffffffffffffff1673ffffffffffffffffffffffffffffffffffffffff1681526020019081526020016000205461145c90919063ffffffff16565b6000808573ffffffffffffffffffffffffffffffffffffffff1673ffffffffffffffffffffffffffffffffffffffff168152602001908152602001600020819055508273ffffffffffffffffffffffffffffffffffffffff163373ffffffffffffffffffffffffffffffffffffffff167fddf252ad1be2c89b69c2b068fc378daa952ba7f163c4a11628f55a4df523b3ef8460405161118d919061164b565b60405180910390a36001905092915050565b600034116111e2576040517f08c379a00000000000000000000000000000000000000000000000000000000081526004016111d990611b30565b60405180910390fd5b611233346000803373ffffffffffffffffffffffffffffffffffffffff1673ffffffffffffffffffffffffffffffffffffffff1681526020019081526020016000205461145c90919063ffffffff16565b6000803373ffffffffffffffffffffffffffffffffffffffff1673ffffffffffffffffffffffffffffffffffffffff1681526020019081526020016000208190555061128a3460025461145c90919063ffffffff16565b6002819055503373ffffffffffffffffffffffffffffffffffffffff167fe1fffcc4923d04b559f4d29a8bfc6cda04eb5b0d3c460751c2402c5c5cc9109c346040516112d6919061164b565b60405180910390a2565b60008073ffffffffffffffffffffffffffffffffffffffff168373ffffffffffffffffffffffffffffffffffffffff161415611351576040517f08c379a000000000000000000000000000000000000000000000000000000000815260040161134890611b9c565b60405180910390fd5b600073ffffffffffffffffffffffffffffffffffffffff168273ffffffffffffffffffffffffffffffffffffffff1614156113c1576040517f08c379a00000000000000000000000000000000000000000000000000000000081526004016113b890611816565b60405180910390fd5b600160008473ffffffffffffffffffffffffffffffffffffffff1673ffffffffffffffffffffffffffffffffffffffff16815260200190815260200160002060008373ffffffffffffffffffffffffffffffffffffffff1673ffffffffffffffffffffffffffffffffffffffff16815260200190815260200160002054905092915050565b600081836114549190611beb565b905092915050565b6000818361146a9190611c1f565b905092915050565b600081519050919050565b600082825260208201905092915050565b60005b838110156114ac578082015181840152602081019050611491565b838111156114bb576000848401525b50505050565b6000601f19601f8301169050919050565b60006114dd82611472565b6114e7818561147d565b93506114f781856020860161148e565b611500816114c1565b840191505092915050565b6000602082019050818103600083015261152581846114d2565b905092915050565b600080fd5b600073ffffffffffffffffffffffffffffffffffffffff82169050919050565b600061155d82611532565b9050919050565b61156d81611552565b811461157857600080fd5b50565b60008135905061158a81611564565b92915050565b6000819050919050565b6115a381611590565b81146115ae57600080fd5b50565b6000813590506115c08161159a565b92915050565b600080604083850312156115dd576115dc61152d565b5b60006115eb8582860161157b565b92505060206115fc858286016115b1565b9150509250929050565b60008115159050919050565b61161b81611606565b82525050565b60006020820190506116366000830184611612565b92915050565b61164581611590565b82525050565b6000602082019050611660600083018461163c565b92915050565b60008060006060848603121561167f5761167e61152d565b5b600061168d8682870161157b565b935050602061169e8682870161157b565b92505060406116af868287016115b1565b9150509250925092565b6000602082840312156116cf576116ce61152d565b5b60006116dd848285016115b1565b91505092915050565b600060ff82169050919050565b6116fc816116e6565b82525050565b600060208201905061171760008301846116f3565b92915050565b6000602082840312156117335761173261152d565b5b60006117418482850161157b565b91505092915050565b600080604083850312156117615761176061152d565b5b600061176f858286016115b1565b92505060206117808582860161157b565b9150509250929050565b600080604083850312156117a1576117a061152d565b5b60006117af8582860161157b565b92505060206117c08582860161157b565b9150509250929050565b7f496e76616c69642064656c656761746520616464726573732e00000000000000600082015250565b600061180060198361147d565b915061180b826117ca565b602082019050919050565b6000602082019050818103600083015261182f816117f3565b9050919050565b7f496e76616c696420746f6b656e20616d6f756e742e0000000000000000000000600082015250565b600061186c60158361147d565b915061187782611836565b602082019050919050565b6000602082019050818103600083015261189b8161185f565b9050919050565b7f496e73756666696369656e742062616c616e63652e0000000000000000000000600082015250565b60006118d860158361147d565b91506118e3826118a2565b602082019050919050565b60006020820190508181036000830152611907816118cb565b9050919050565b7f496e73756666696369656e7420616c6c6f77616e63652e000000000000000000600082015250565b600061194460178361147d565b915061194f8261190e565b602082019050919050565b6000602082019050818103600083015261197381611937565b9050919050565b7f496e76616c6964207769746864726177616c20616d6f756e742e000000000000600082015250565b60006119b0601a8361147d565b91506119bb8261197a565b602082019050919050565b600060208201905081810360008301526119df816119a3565b9050919050565b7f496e73756666696369656e742062616c616e636520696e20636f6e747261637460008201527f2e00000000000000000000000000000000000000000000000000000000000000602082015250565b6000611a4260218361147d565b9150611a4d826119e6565b604082019050919050565b60006020820190508181036000830152611a7181611a35565b9050919050565b7f496e76616c696420726563697069656e7420616464726573732e000000000000600082015250565b6000611aae601a8361147d565b9150611ab982611a78565b602082019050919050565b60006020820190508181036000830152611add81611aa1565b9050919050565b7f496e76616c6964206465706f73697420616d6f756e742e000000000000000000600082015250565b6000611b1a60178361147d565b9150611b2582611ae4565b602082019050919050565b60006020820190508181036000830152611b4981611b0d565b9050919050565b7f496e76616c6964206f776e657220616464726573732e00000000000000000000600082015250565b6000611b8660168361147d565b9150611b9182611b50565b602082019050919050565b60006020820190508181036000830152611bb581611b79565b9050919050565b7f4e487b7100000000000000000000000000000000000000000000000000000000600052601160045260246000fd5b6000611bf682611590565b9150611c0183611590565b925082821015611c1457611c13611bbc565b5b828203905092915050565b6000611c2a82611590565b9150611c3583611590565b9250827fffffffffffffffffffffffffffffffffffffffffffffffffffffffffffffffff03821115611c6a57611c69611bbc565b5b82820190509291505056fea2646970667358221220521a393942cb7d7ce1df8d92c5e99f94bc28c04132f42613fd3fa86edb8675e364736f6c63430008080033",
					"opcodes": "PUSH1 0x80 PUSH1 0x40 MSTORE CALLVALUE DUP1 ISZERO PUSH2 0x10 JUMPI PUSH1 0x0 DUP1 REVERT JUMPDEST POP PUSH1 0x0 PUSH1 0x2 DUP2 SWAP1 SSTORE POP PUSH2 0x1CAB DUP1 PUSH2 0x28 PUSH1 0x0 CODECOPY PUSH1 0x0 RETURN INVALID PUSH1 0x80 PUSH1 0x40 MSTORE PUSH1 0x4 CALLDATASIZE LT PUSH2 0xC2 JUMPI PUSH1 0x0 CALLDATALOAD PUSH1 0xE0 SHR DUP1 PUSH4 0x42966C68 GT PUSH2 0x7F JUMPI DUP1 PUSH4 0x95D89B41 GT PUSH2 0x59 JUMPI DUP1 PUSH4 0x95D89B41 EQ PUSH2 0x27A JUMPI DUP1 PUSH4 0xA9059CBB EQ PUSH2 0x2A5 JUMPI DUP1 PUSH4 0xD0E30DB0 EQ PUSH2 0x2E2 JUMPI DUP1 PUSH4 0xDD62ED3E EQ PUSH2 0x2EC JUMPI PUSH2 0xC2 JUMP JUMPDEST DUP1 PUSH4 0x42966C68 EQ PUSH2 0x1EB JUMPI DUP1 PUSH4 0x70A08231 EQ PUSH2 0x214 JUMPI DUP1 PUSH4 0x94BF804D EQ PUSH2 0x251 JUMPI PUSH2 0xC2 JUMP JUMPDEST DUP1 PUSH4 0x6FDDE03 EQ PUSH2 0xC7 JUMPI DUP1 PUSH4 0x95EA7B3 EQ PUSH2 0xF2 JUMPI DUP1 PUSH4 0x18160DDD EQ PUSH2 0x12F JUMPI DUP1 PUSH4 0x23B872DD EQ PUSH2 0x15A JUMPI DUP1 PUSH4 0x2E1A7D4D EQ PUSH2 0x197 JUMPI DUP1 PUSH4 0x313CE567 EQ PUSH2 0x1C0 JUMPI JUMPDEST PUSH1 0x0 DUP1 REVERT JUMPDEST CALLVALUE DUP1 ISZERO PUSH2 0xD3 JUMPI PUSH1 0x0 DUP1 REVERT JUMPDEST POP PUSH2 0xDC PUSH2 0x329 JUMP JUMPDEST PUSH1 0x40 MLOAD PUSH2 0xE9 SWAP2 SWAP1 PUSH2 0x150B JUMP JUMPDEST PUSH1 0x40 MLOAD DUP1 SWAP2 SUB SWAP1 RETURN JUMPDEST CALLVALUE DUP1 ISZERO PUSH2 0xFE JUMPI PUSH1 0x0 DUP1 REVERT JUMPDEST POP PUSH2 0x119 PUSH1 0x4 DUP1 CALLDATASIZE SUB DUP2 ADD SWAP1 PUSH2 0x114 SWAP2 SWAP1 PUSH2 0x15C6 JUMP JUMPDEST PUSH2 0x362 JUMP JUMPDEST PUSH1 0x40 MLOAD PUSH2 0x126 SWAP2 SWAP1 PUSH2 0x1621 JUMP JUMPDEST PUSH1 0x40 MLOAD DUP1 SWAP2 SUB SWAP1 RETURN JUMPDEST CALLVALUE DUP1 ISZERO PUSH2 0x13B JUMPI PUSH1 0x0 DUP1 REVERT JUMPDEST POP PUSH2 0x144 PUSH2 0x4C3 JUMP JUMPDEST PUSH1 0x40 MLOAD PUSH2 0x151 SWAP2 SWAP1 PUSH2 0x164B JUMP JUMPDEST PUSH1 0x40 MLOAD DUP1 SWAP2 SUB SWAP1 RETURN JUMPDEST CALLVALUE DUP1 ISZERO PUSH2 0x166 JUMPI PUSH1 0x0 DUP1 REVERT JUMPDEST POP PUSH2 0x181 PUSH1 0x4 DUP1 CALLDATASIZE SUB DUP2 ADD SWAP1 PUSH2 0x17C SWAP2 SWAP1 PUSH2 0x1666 JUMP JUMPDEST PUSH2 0x4CD JUMP JUMPDEST PUSH1 0x40 MLOAD PUSH2 0x18E SWAP2 SWAP1 PUSH2 0x1621 JUMP JUMPDEST PUSH1 0x40 MLOAD DUP1 SWAP2 SUB SWAP1 RETURN JUMPDEST CALLVALUE DUP1 ISZERO PUSH2 0x1A3 JUMPI PUSH1 0x0 DUP1 REVERT JUMPDEST POP PUSH2 0x1BE PUSH1 0x4 DUP1 CALLDATASIZE SUB DUP2 ADD SWAP1 PUSH2 0x1B9 SWAP2 SWAP1 PUSH2 0x16B9 JUMP JUMPDEST PUSH2 0x8F6 JUMP JUMPDEST STOP JUMPDEST CALLVALUE DUP1 ISZERO PUSH2 0x1CC JUMPI PUSH1 0x0 DUP1 REVERT JUMPDEST POP PUSH2 0x1D5 PUSH2 0xB49 JUMP JUMPDEST PUSH1 0x40 MLOAD PUSH2 0x1E2 SWAP2 SWAP1 PUSH2 0x1702 JUMP JUMPDEST PUSH1 0x40 MLOAD DUP1 SWAP2 SUB SWAP1 RETURN JUMPDEST CALLVALUE DUP1 ISZERO PUSH2 0x1F7 JUMPI PUSH1 0x0 DUP1 REVERT JUMPDEST POP PUSH2 0x212 PUSH1 0x4 DUP1 CALLDATASIZE SUB DUP2 ADD SWAP1 PUSH2 0x20D SWAP2 SWAP1 PUSH2 0x16B9 JUMP JUMPDEST PUSH2 0xB4E JUMP JUMPDEST STOP JUMPDEST CALLVALUE DUP1 ISZERO PUSH2 0x220 JUMPI PUSH1 0x0 DUP1 REVERT JUMPDEST POP PUSH2 0x23B PUSH1 0x4 DUP1 CALLDATASIZE SUB DUP2 ADD SWAP1 PUSH2 0x236 SWAP2 SWAP1 PUSH2 0x171D JUMP JUMPDEST PUSH2 0xD11 JUMP JUMPDEST PUSH1 0x40 MLOAD PUSH2 0x248 SWAP2 SWAP1 PUSH2 0x164B JUMP JUMPDEST PUSH1 0x40 MLOAD DUP1 SWAP2 SUB SWAP1 RETURN JUMPDEST CALLVALUE DUP1 ISZERO PUSH2 0x25D JUMPI PUSH1 0x0 DUP1 REVERT JUMPDEST POP PUSH2 0x278 PUSH1 0x4 DUP1 CALLDATASIZE SUB DUP2 ADD SWAP1 PUSH2 0x273 SWAP2 SWAP1 PUSH2 0x174A JUMP JUMPDEST PUSH2 0xD59 JUMP JUMPDEST STOP JUMPDEST CALLVALUE DUP1 ISZERO PUSH2 0x286 JUMPI PUSH1 0x0 DUP1 REVERT JUMPDEST POP PUSH2 0x28F PUSH2 0xF0C JUMP JUMPDEST PUSH1 0x40 MLOAD PUSH2 0x29C SWAP2 SWAP1 PUSH2 0x150B JUMP JUMPDEST PUSH1 0x40 MLOAD DUP1 SWAP2 SUB SWAP1 RETURN JUMPDEST CALLVALUE DUP1 ISZERO PUSH2 0x2B1 JUMPI PUSH1 0x0 DUP1 REVERT JUMPDEST POP PUSH2 0x2CC PUSH1 0x4 DUP1 CALLDATASIZE SUB DUP2 ADD SWAP1 PUSH2 0x2C7 SWAP2 SWAP1 PUSH2 0x15C6 JUMP JUMPDEST PUSH2 0xF45 JUMP JUMPDEST PUSH1 0x40 MLOAD PUSH2 0x2D9 SWAP2 SWAP1 PUSH2 0x1621 JUMP JUMPDEST PUSH1 0x40 MLOAD DUP1 SWAP2 SUB SWAP1 RETURN JUMPDEST PUSH2 0x2EA PUSH2 0x119F JUMP JUMPDEST STOP JUMPDEST CALLVALUE DUP1 ISZERO PUSH2 0x2F8 JUMPI PUSH1 0x0 DUP1 REVERT JUMPDEST POP PUSH2 0x313 PUSH1 0x4 DUP1 CALLDATASIZE SUB DUP2 ADD SWAP1 PUSH2 0x30E SWAP2 SWAP1 PUSH2 0x178A JUMP JUMPDEST PUSH2 0x12E0 JUMP JUMPDEST PUSH1 0x40 MLOAD PUSH2 0x320 SWAP2 SWAP1 PUSH2 0x164B JUMP JUMPDEST PUSH1 0x40 MLOAD DUP1 SWAP2 SUB SWAP1 RETURN JUMPDEST PUSH1 0x40 MLOAD DUP1 PUSH1 0x40 ADD PUSH1 0x40 MSTORE DUP1 PUSH1 0xB DUP2 MSTORE PUSH1 0x20 ADD PUSH32 0x57726170706564204E4654000000000000000000000000000000000000000000 DUP2 MSTORE POP DUP2 JUMP JUMPDEST PUSH1 0x0 DUP1 PUSH20 0xFFFFFFFFFFFFFFFFFFFFFFFFFFFFFFFFFFFFFFFF AND DUP4 PUSH20 0xFFFFFFFFFFFFFFFFFFFFFFFFFFFFFFFFFFFFFFFF AND EQ ISZERO PUSH2 0x3D3 JUMPI PUSH1 0x40 MLOAD PUSH32 0x8C379A000000000000000000000000000000000000000000000000000000000 DUP2 MSTORE PUSH1 0x4 ADD PUSH2 0x3CA SWAP1 PUSH2 0x1816 JUMP JUMPDEST PUSH1 0x40 MLOAD DUP1 SWAP2 SUB SWAP1 REVERT JUMPDEST DUP2 PUSH1 0x1 PUSH1 0x0 CALLER PUSH20 0xFFFFFFFFFFFFFFFFFFFFFFFFFFFFFFFFFFFFFFFF AND PUSH20 0xFFFFFFFFFFFFFFFFFFFFFFFFFFFFFFFFFFFFFFFF AND DUP2 MSTORE PUSH1 0x20 ADD SWAP1 DUP2 MSTORE PUSH1 0x20 ADD PUSH1 0x0 KECCAK256 PUSH1 0x0 DUP6 PUSH20 0xFFFFFFFFFFFFFFFFFFFFFFFFFFFFFFFFFFFFFFFF AND PUSH20 0xFFFFFFFFFFFFFFFFFFFFFFFFFFFFFFFFFFFFFFFF AND DUP2 MSTORE PUSH1 0x20 ADD SWAP1 DUP2 MSTORE PUSH1 0x20 ADD PUSH1 0x0 KECCAK256 DUP2 SWAP1 SSTORE POP DUP3 PUSH20 0xFFFFFFFFFFFFFFFFFFFFFFFFFFFFFFFFFFFFFFFF AND CALLER PUSH20 0xFFFFFFFFFFFFFFFFFFFFFFFFFFFFFFFFFFFFFFFF AND PUSH32 0x8C5BE1E5EBEC7D5BD14F71427D1E84F3DD0314C0F7B2291E5B200AC8C7C3B925 DUP5 PUSH1 0x40 MLOAD PUSH2 0x4B1 SWAP2 SWAP1 PUSH2 0x164B JUMP JUMPDEST PUSH1 0x40 MLOAD DUP1 SWAP2 SUB SWAP1 LOG3 PUSH1 0x1 SWAP1 POP SWAP3 SWAP2 POP POP JUMP JUMPDEST PUSH1 0x0 PUSH1 0x2 SLOAD SWAP1 POP SWAP1 JUMP JUMPDEST PUSH1 0x0 DUP1 DUP3 GT PUSH2 0x511 JUMPI PUSH1 0x40 MLOAD PUSH32 0x8C379A000000000000000000000000000000000000000000000000000000000 DUP2 MSTORE PUSH1 0x4 ADD PUSH2 0x508 SWAP1 PUSH2 0x1882 JUMP JUMPDEST PUSH1 0x40 MLOAD DUP1 SWAP2 SUB SWAP1 REVERT JUMPDEST PUSH1 0x0 DUP1 DUP6 PUSH20 0xFFFFFFFFFFFFFFFFFFFFFFFFFFFFFFFFFFFFFFFF AND PUSH20 0xFFFFFFFFFFFFFFFFFFFFFFFFFFFFFFFFFFFFFFFF AND DUP2 MSTORE PUSH1 0x20 ADD SWAP1 DUP2 MSTORE PUSH1 0x20 ADD PUSH1 0x0 KECCAK256 SLOAD DUP3 GT ISZERO PUSH2 0x592 JUMPI PUSH1 0x40 MLOAD PUSH32 0x8C379A000000000000000000000000000000000000000000000000000000000 DUP2 MSTORE PUSH1 0x4 ADD PUSH2 0x589 SWAP1 PUSH2 0x18EE JUMP JUMPDEST PUSH1 0x40 MLOAD DUP1 SWAP2 SUB SWAP1 REVERT JUMPDEST PUSH1 0x1 PUSH1 0x0 DUP6 PUSH20 0xFFFFFFFFFFFFFFFFFFFFFFFFFFFFFFFFFFFFFFFF AND PUSH20 0xFFFFFFFFFFFFFFFFFFFFFFFFFFFFFFFFFFFFFFFF AND DUP2 MSTORE PUSH1 0x20 ADD SWAP1 DUP2 MSTORE PUSH1 0x20 ADD PUSH1 0x0 KECCAK256 PUSH1 0x0 CALLER PUSH20 0xFFFFFFFFFFFFFFFFFFFFFFFFFFFFFFFFFFFFFFFF AND PUSH20 0xFFFFFFFFFFFFFFFFFFFFFFFFFFFFFFFFFFFFFFFF AND DUP2 MSTORE PUSH1 0x20 ADD SWAP1 DUP2 MSTORE PUSH1 0x20 ADD PUSH1 0x0 KECCAK256 SLOAD DUP3 GT ISZERO PUSH2 0x651 JUMPI PUSH1 0x40 MLOAD PUSH32 0x8C379A000000000000000000000000000000000000000000000000000000000 DUP2 MSTORE PUSH1 0x4 ADD PUSH2 0x648 SWAP1 PUSH2 0x195A JUMP JUMPDEST PUSH1 0x40 MLOAD DUP1 SWAP2 SUB SWAP1 REVERT JUMPDEST PUSH2 0x6E0 DUP3 PUSH1 0x1 PUSH1 0x0 DUP8 PUSH20 0xFFFFFFFFFFFFFFFFFFFFFFFFFFFFFFFFFFFFFFFF AND PUSH20 0xFFFFFFFFFFFFFFFFFFFFFFFFFFFFFFFFFFFFFFFF AND DUP2 MSTORE PUSH1 0x20 ADD SWAP1 DUP2 MSTORE PUSH1 0x20 ADD PUSH1 0x0 KECCAK256 PUSH1 0x0 CALLER PUSH20 0xFFFFFFFFFFFFFFFFFFFFFFFFFFFFFFFFFFFFFFFF AND PUSH20 0xFFFFFFFFFFFFFFFFFFFFFFFFFFFFFFFFFFFFFFFF AND DUP2 MSTORE PUSH1 0x20 ADD SWAP1 DUP2 MSTORE PUSH1 0x20 ADD PUSH1 0x0 KECCAK256 SLOAD PUSH2 0x1446 SWAP1 SWAP2 SWAP1 PUSH4 0xFFFFFFFF AND JUMP JUMPDEST PUSH1 0x1 PUSH1 0x0 DUP7 PUSH20 0xFFFFFFFFFFFFFFFFFFFFFFFFFFFFFFFFFFFFFFFF AND PUSH20 0xFFFFFFFFFFFFFFFFFFFFFFFFFFFFFFFFFFFFFFFF AND DUP2 MSTORE PUSH1 0x20 ADD SWAP1 DUP2 MSTORE PUSH1 0x20 ADD PUSH1 0x0 KECCAK256 PUSH1 0x0 CALLER PUSH20 0xFFFFFFFFFFFFFFFFFFFFFFFFFFFFFFFFFFFFFFFF AND PUSH20 0xFFFFFFFFFFFFFFFFFFFFFFFFFFFFFFFFFFFFFFFF AND DUP2 MSTORE PUSH1 0x20 ADD SWAP1 DUP2 MSTORE PUSH1 0x20 ADD PUSH1 0x0 KECCAK256 DUP2 SWAP1 SSTORE POP PUSH2 0x7B1 DUP3 PUSH1 0x0 DUP1 DUP8 PUSH20 0xFFFFFFFFFFFFFFFFFFFFFFFFFFFFFFFFFFFFFFFF AND PUSH20 0xFFFFFFFFFFFFFFFFFFFFFFFFFFFFFFFFFFFFFFFF AND DUP2 MSTORE PUSH1 0x20 ADD SWAP1 DUP2 MSTORE PUSH1 0x20 ADD PUSH1 0x0 KECCAK256 SLOAD PUSH2 0x1446 SWAP1 SWAP2 SWAP1 PUSH4 0xFFFFFFFF AND JUMP JUMPDEST PUSH1 0x0 DUP1 DUP7 PUSH20 0xFFFFFFFFFFFFFFFFFFFFFFFFFFFFFFFFFFFFFFFF AND PUSH20 0xFFFFFFFFFFFFFFFFFFFFFFFFFFFFFFFFFFFFFFFF AND DUP2 MSTORE PUSH1 0x20 ADD SWAP1 DUP2 MSTORE PUSH1 0x20 ADD PUSH1 0x0 KECCAK256 DUP2 SWAP1 SSTORE POP PUSH2 0x844 DUP3 PUSH1 0x0 DUP1 DUP7 PUSH20 0xFFFFFFFFFFFFFFFFFFFFFFFFFFFFFFFFFFFFFFFF AND PUSH20 0xFFFFFFFFFFFFFFFFFFFFFFFFFFFFFFFFFFFFFFFF AND DUP2 MSTORE PUSH1 0x20 ADD SWAP1 DUP2 MSTORE PUSH1 0x20 ADD PUSH1 0x0 KECCAK256 SLOAD PUSH2 0x145C SWAP1 SWAP2 SWAP1 PUSH4 0xFFFFFFFF AND JUMP JUMPDEST PUSH1 0x0 DUP1 DUP6 PUSH20 0xFFFFFFFFFFFFFFFFFFFFFFFFFFFFFFFFFFFFFFFF AND PUSH20 0xFFFFFFFFFFFFFFFFFFFFFFFFFFFFFFFFFFFFFFFF AND DUP2 MSTORE PUSH1 0x20 ADD SWAP1 DUP2 MSTORE PUSH1 0x20 ADD PUSH1 0x0 KECCAK256 DUP2 SWAP1 SSTORE POP DUP3 PUSH20 0xFFFFFFFFFFFFFFFFFFFFFFFFFFFFFFFFFFFFFFFF AND DUP5 PUSH20 0xFFFFFFFFFFFFFFFFFFFFFFFFFFFFFFFFFFFFFFFF AND PUSH32 0xDDF252AD1BE2C89B69C2B068FC378DAA952BA7F163C4A11628F55A4DF523B3EF DUP5 PUSH1 0x40 MLOAD PUSH2 0x8E3 SWAP2 SWAP1 PUSH2 0x164B JUMP JUMPDEST PUSH1 0x40 MLOAD DUP1 SWAP2 SUB SWAP1 LOG3 PUSH1 0x1 SWAP1 POP SWAP4 SWAP3 POP POP POP JUMP JUMPDEST PUSH1 0x0 DUP2 GT PUSH2 0x939 JUMPI PUSH1 0x40 MLOAD PUSH32 0x8C379A000000000000000000000000000000000000000000000000000000000 DUP2 MSTORE PUSH1 0x4 ADD PUSH2 0x930 SWAP1 PUSH2 0x19C6 JUMP JUMPDEST PUSH1 0x40 MLOAD DUP1 SWAP2 SUB SWAP1 REVERT JUMPDEST PUSH1 0x0 DUP1 CALLER PUSH20 0xFFFFFFFFFFFFFFFFFFFFFFFFFFFFFFFFFFFFFFFF AND PUSH20 0xFFFFFFFFFFFFFFFFFFFFFFFFFFFFFFFFFFFFFFFF AND DUP2 MSTORE PUSH1 0x20 ADD SWAP1 DUP2 MSTORE PUSH1 0x20 ADD PUSH1 0x0 KECCAK256 SLOAD DUP2 GT ISZERO PUSH2 0x9BA JUMPI PUSH1 0x40 MLOAD PUSH32 0x8C379A000000000000000000000000000000000000000000000000000000000 DUP2 MSTORE PUSH1 0x4 ADD PUSH2 0x9B1 SWAP1 PUSH2 0x18EE JUMP JUMPDEST PUSH1 0x40 MLOAD DUP1 SWAP2 SUB SWAP1 REVERT JUMPDEST SELFBALANCE DUP2 GT ISZERO PUSH2 0x9FD JUMPI PUSH1 0x40 MLOAD PUSH32 0x8C379A000000000000000000000000000000000000000000000000000000000 DUP2 MSTORE PUSH1 0x4 ADD PUSH2 0x9F4 SWAP1 PUSH2 0x1A58 JUMP JUMPDEST PUSH1 0x40 MLOAD DUP1 SWAP2 SUB SWAP1 REVERT JUMPDEST PUSH2 0xA4E DUP2 PUSH1 0x0 DUP1 CALLER PUSH20 0xFFFFFFFFFFFFFFFFFFFFFFFFFFFFFFFFFFFFFFFF AND PUSH20 0xFFFFFFFFFFFFFFFFFFFFFFFFFFFFFFFFFFFFFFFF AND DUP2 MSTORE PUSH1 0x20 ADD SWAP1 DUP2 MSTORE PUSH1 0x20 ADD PUSH1 0x0 KECCAK256 SLOAD PUSH2 0x1446 SWAP1 SWAP2 SWAP1 PUSH4 0xFFFFFFFF AND JUMP JUMPDEST PUSH1 0x0 DUP1 CALLER PUSH20 0xFFFFFFFFFFFFFFFFFFFFFFFFFFFFFFFFFFFFFFFF AND PUSH20 0xFFFFFFFFFFFFFFFFFFFFFFFFFFFFFFFFFFFFFFFF AND DUP2 MSTORE PUSH1 0x20 ADD SWAP1 DUP2 MSTORE PUSH1 0x20 ADD PUSH1 0x0 KECCAK256 DUP2 SWAP1 SSTORE POP PUSH2 0xAA5 DUP2 PUSH1 0x2 SLOAD PUSH2 0x1446 SWAP1 SWAP2 SWAP1 PUSH4 0xFFFFFFFF AND JUMP JUMPDEST PUSH1 0x2 DUP2 SWAP1 SSTORE POP PUSH1 0x0 CALLER SWAP1 POP DUP1 PUSH20 0xFFFFFFFFFFFFFFFFFFFFFFFFFFFFFFFFFFFFFFFF AND PUSH2 0x8FC DUP4 SWAP1 DUP2 ISZERO MUL SWAP1 PUSH1 0x40 MLOAD PUSH1 0x0 PUSH1 0x40 MLOAD DUP1 DUP4 SUB DUP2 DUP6 DUP9 DUP9 CALL SWAP4 POP POP POP POP ISZERO DUP1 ISZERO PUSH2 0xAF6 JUMPI RETURNDATASIZE PUSH1 0x0 DUP1 RETURNDATACOPY RETURNDATASIZE PUSH1 0x0 REVERT JUMPDEST POP CALLER PUSH20 0xFFFFFFFFFFFFFFFFFFFFFFFFFFFFFFFFFFFFFFFF AND PUSH32 0x7FCF532C15F0A6DB0BD6D0E038BEA71D30D808C7D98CB3BF7268A95BF5081B65 DUP4 PUSH1 0x40 MLOAD PUSH2 0xB3D SWAP2 SWAP1 PUSH2 0x164B JUMP JUMPDEST PUSH1 0x40 MLOAD DUP1 SWAP2 SUB SWAP1 LOG2 POP POP JUMP JUMPDEST PUSH1 0x12 DUP2 JUMP JUMPDEST PUSH1 0x0 DUP2 GT PUSH2 0xB91 JUMPI PUSH1 0x40 MLOAD PUSH32 0x8C379A000000000000000000000000000000000000000000000000000000000 DUP2 MSTORE PUSH1 0x4 ADD PUSH2 0xB88 SWAP1 PUSH2 0x1882 JUMP JUMPDEST PUSH1 0x40 MLOAD DUP1 SWAP2 SUB SWAP1 REVERT JUMPDEST PUSH1 0x0 DUP1 CALLER PUSH20 0xFFFFFFFFFFFFFFFFFFFFFFFFFFFFFFFFFFFFFFFF AND PUSH20 0xFFFFFFFFFFFFFFFFFFFFFFFFFFFFFFFFFFFFFFFF AND DUP2 MSTORE PUSH1 0x20 ADD SWAP1 DUP2 MSTORE PUSH1 0x20 ADD PUSH1 0x0 KECCAK256 SLOAD DUP2 GT ISZERO PUSH2 0xC12 JUMPI PUSH1 0x40 MLOAD PUSH32 0x8C379A000000000000000000000000000000000000000000000000000000000 DUP2 MSTORE PUSH1 0x4 ADD PUSH2 0xC09 SWAP1 PUSH2 0x18EE JUMP JUMPDEST PUSH1 0x40 MLOAD DUP1 SWAP2 SUB SWAP1 REVERT JUMPDEST PUSH2 0xC63 DUP2 PUSH1 0x0 DUP1 CALLER PUSH20 0xFFFFFFFFFFFFFFFFFFFFFFFFFFFFFFFFFFFFFFFF AND PUSH20 0xFFFFFFFFFFFFFFFFFFFFFFFFFFFFFFFFFFFFFFFF AND DUP2 MSTORE PUSH1 0x20 ADD SWAP1 DUP2 MSTORE PUSH1 0x20 ADD PUSH1 0x0 KECCAK256 SLOAD PUSH2 0x1446 SWAP1 SWAP2 SWAP1 PUSH4 0xFFFFFFFF AND JUMP JUMPDEST PUSH1 0x0 DUP1 CALLER PUSH20 0xFFFFFFFFFFFFFFFFFFFFFFFFFFFFFFFFFFFFFFFF AND PUSH20 0xFFFFFFFFFFFFFFFFFFFFFFFFFFFFFFFFFFFFFFFF AND DUP2 MSTORE PUSH1 0x20 ADD SWAP1 DUP2 MSTORE PUSH1 0x20 ADD PUSH1 0x0 KECCAK256 DUP2 SWAP1 SSTORE POP PUSH2 0xCBA DUP2 PUSH1 0x2 SLOAD PUSH2 0x1446 SWAP1 SWAP2 SWAP1 PUSH4 0xFFFFFFFF AND JUMP JUMPDEST PUSH1 0x2 DUP2 SWAP1 SSTORE POP CALLER PUSH20 0xFFFFFFFFFFFFFFFFFFFFFFFFFFFFFFFFFFFFFFFF AND PUSH32 0xCC16F5DBB4873280815C1EE09DBD06736CFFCC184412CF7A71A0FDB75D397CA5 DUP3 PUSH1 0x40 MLOAD PUSH2 0xD06 SWAP2 SWAP1 PUSH2 0x164B JUMP JUMPDEST PUSH1 0x40 MLOAD DUP1 SWAP2 SUB SWAP1 LOG2 POP JUMP JUMPDEST PUSH1 0x0 DUP1 PUSH1 0x0 DUP4 PUSH20 0xFFFFFFFFFFFFFFFFFFFFFFFFFFFFFFFFFFFFFFFF AND PUSH20 0xFFFFFFFFFFFFFFFFFFFFFFFFFFFFFFFFFFFFFFFF AND DUP2 MSTORE PUSH1 0x20 ADD SWAP1 DUP2 MSTORE PUSH1 0x20 ADD PUSH1 0x0 KECCAK256 SLOAD SWAP1 POP SWAP2 SWAP1 POP JUMP JUMPDEST PUSH1 0x0 DUP3 GT PUSH2 0xD9C JUMPI PUSH1 0x40 MLOAD PUSH32 0x8C379A000000000000000000000000000000000000000000000000000000000 DUP2 MSTORE PUSH1 0x4 ADD PUSH2 0xD93 SWAP1 PUSH2 0x1882 JUMP JUMPDEST PUSH1 0x40 MLOAD DUP1 SWAP2 SUB SWAP1 REVERT JUMPDEST PUSH1 0x0 PUSH20 0xFFFFFFFFFFFFFFFFFFFFFFFFFFFFFFFFFFFFFFFF AND DUP2 PUSH20 0xFFFFFFFFFFFFFFFFFFFFFFFFFFFFFFFFFFFFFFFF AND EQ ISZERO PUSH2 0xE0C JUMPI PUSH1 0x40 MLOAD PUSH32 0x8C379A000000000000000000000000000000000000000000000000000000000 DUP2 MSTORE PUSH1 0x4 ADD PUSH2 0xE03 SWAP1 PUSH2 0x1AC4 JUMP JUMPDEST PUSH1 0x40 MLOAD DUP1 SWAP2 SUB SWAP1 REVERT JUMPDEST PUSH2 0xE5D DUP3 PUSH1 0x0 DUP1 DUP5 PUSH20 0xFFFFFFFFFFFFFFFFFFFFFFFFFFFFFFFFFFFFFFFF AND PUSH20 0xFFFFFFFFFFFFFFFFFFFFFFFFFFFFFFFFFFFFFFFF AND DUP2 MSTORE PUSH1 0x20 ADD SWAP1 DUP2 MSTORE PUSH1 0x20 ADD PUSH1 0x0 KECCAK256 SLOAD PUSH2 0x145C SWAP1 SWAP2 SWAP1 PUSH4 0xFFFFFFFF AND JUMP JUMPDEST PUSH1 0x0 DUP1 DUP4 PUSH20 0xFFFFFFFFFFFFFFFFFFFFFFFFFFFFFFFFFFFFFFFF AND PUSH20 0xFFFFFFFFFFFFFFFFFFFFFFFFFFFFFFFFFFFFFFFF AND DUP2 MSTORE PUSH1 0x20 ADD SWAP1 DUP2 MSTORE PUSH1 0x20 ADD PUSH1 0x0 KECCAK256 DUP2 SWAP1 SSTORE POP PUSH2 0xEB4 DUP3 PUSH1 0x2 SLOAD PUSH2 0x145C SWAP1 SWAP2 SWAP1 PUSH4 0xFFFFFFFF AND JUMP JUMPDEST PUSH1 0x2 DUP2 SWAP1 SSTORE POP CALLER PUSH20 0xFFFFFFFFFFFFFFFFFFFFFFFFFFFFFFFFFFFFFFFF AND PUSH32 0xF6798A560793A54C3BCFE86A93CDE1E73087D944C0EA20544137D4121396885 DUP4 PUSH1 0x40 MLOAD PUSH2 0xF00 SWAP2 SWAP1 PUSH2 0x164B JUMP JUMPDEST PUSH1 0x40 MLOAD DUP1 SWAP2 SUB SWAP1 LOG2 POP POP JUMP JUMPDEST PUSH1 0x40 MLOAD DUP1 PUSH1 0x40 ADD PUSH1 0x40 MSTORE DUP1 PUSH1 0x4 DUP2 MSTORE PUSH1 0x20 ADD PUSH32 0x574E465400000000000000000000000000000000000000000000000000000000 DUP2 MSTORE POP DUP2 JUMP JUMPDEST PUSH1 0x0 DUP1 DUP3 GT PUSH2 0xF89 JUMPI PUSH1 0x40 MLOAD PUSH32 0x8C379A000000000000000000000000000000000000000000000000000000000 DUP2 MSTORE PUSH1 0x4 ADD PUSH2 0xF80 SWAP1 PUSH2 0x1882 JUMP JUMPDEST PUSH1 0x40 MLOAD DUP1 SWAP2 SUB SWAP1 REVERT JUMPDEST PUSH1 0x0 DUP1 CALLER PUSH20 0xFFFFFFFFFFFFFFFFFFFFFFFFFFFFFFFFFFFFFFFF AND PUSH20 0xFFFFFFFFFFFFFFFFFFFFFFFFFFFFFFFFFFFFFFFF AND DUP2 MSTORE PUSH1 0x20 ADD SWAP1 DUP2 MSTORE PUSH1 0x20 ADD PUSH1 0x0 KECCAK256 SLOAD DUP3 GT ISZERO PUSH2 0x100A JUMPI PUSH1 0x40 MLOAD PUSH32 0x8C379A000000000000000000000000000000000000000000000000000000000 DUP2 MSTORE PUSH1 0x4 ADD PUSH2 0x1001 SWAP1 PUSH2 0x18EE JUMP JUMPDEST PUSH1 0x40 MLOAD DUP1 SWAP2 SUB SWAP1 REVERT JUMPDEST PUSH2 0x105B DUP3 PUSH1 0x0 DUP1 CALLER PUSH20 0xFFFFFFFFFFFFFFFFFFFFFFFFFFFFFFFFFFFFFFFF AND PUSH20 0xFFFFFFFFFFFFFFFFFFFFFFFFFFFFFFFFFFFFFFFF AND DUP2 MSTORE PUSH1 0x20 ADD SWAP1 DUP2 MSTORE PUSH1 0x20 ADD PUSH1 0x0 KECCAK256 SLOAD PUSH2 0x1446 SWAP1 SWAP2 SWAP1 PUSH4 0xFFFFFFFF AND JUMP JUMPDEST PUSH1 0x0 DUP1 CALLER PUSH20 0xFFFFFFFFFFFFFFFFFFFFFFFFFFFFFFFFFFFFFFFF AND PUSH20 0xFFFFFFFFFFFFFFFFFFFFFFFFFFFFFFFFFFFFFFFF AND DUP2 MSTORE PUSH1 0x20 ADD SWAP1 DUP2 MSTORE PUSH1 0x20 ADD PUSH1 0x0 KECCAK256 DUP2 SWAP1 SSTORE POP PUSH2 0x10EE DUP3 PUSH1 0x0 DUP1 DUP7 PUSH20 0xFFFFFFFFFFFFFFFFFFFFFFFFFFFFFFFFFFFFFFFF AND PUSH20 0xFFFFFFFFFFFFFFFFFFFFFFFFFFFFFFFFFFFFFFFF AND DUP2 MSTORE PUSH1 0x20 ADD SWAP1 DUP2 MSTORE PUSH1 0x20 ADD PUSH1 0x0 KECCAK256 SLOAD PUSH2 0x145C SWAP1 SWAP2 SWAP1 PUSH4 0xFFFFFFFF AND JUMP JUMPDEST PUSH1 0x0 DUP1 DUP6 PUSH20 0xFFFFFFFFFFFFFFFFFFFFFFFFFFFFFFFFFFFFFFFF AND PUSH20 0xFFFFFFFFFFFFFFFFFFFFFFFFFFFFFFFFFFFFFFFF AND DUP2 MSTORE PUSH1 0x20 ADD SWAP1 DUP2 MSTORE PUSH1 0x20 ADD PUSH1 0x0 KECCAK256 DUP2 SWAP1 SSTORE POP DUP3 PUSH20 0xFFFFFFFFFFFFFFFFFFFFFFFFFFFFFFFFFFFFFFFF AND CALLER PUSH20 0xFFFFFFFFFFFFFFFFFFFFFFFFFFFFFFFFFFFFFFFF AND PUSH32 0xDDF252AD1BE2C89B69C2B068FC378DAA952BA7F163C4A11628F55A4DF523B3EF DUP5 PUSH1 0x40 MLOAD PUSH2 0x118D SWAP2 SWAP1 PUSH2 0x164B JUMP JUMPDEST PUSH1 0x40 MLOAD DUP1 SWAP2 SUB SWAP1 LOG3 PUSH1 0x1 SWAP1 POP SWAP3 SWAP2 POP POP JUMP JUMPDEST PUSH1 0x0 CALLVALUE GT PUSH2 0x11E2 JUMPI PUSH1 0x40 MLOAD PUSH32 0x8C379A000000000000000000000000000000000000000000000000000000000 DUP2 MSTORE PUSH1 0x4 ADD PUSH2 0x11D9 SWAP1 PUSH2 0x1B30 JUMP JUMPDEST PUSH1 0x40 MLOAD DUP1 SWAP2 SUB SWAP1 REVERT JUMPDEST PUSH2 0x1233 CALLVALUE PUSH1 0x0 DUP1 CALLER PUSH20 0xFFFFFFFFFFFFFFFFFFFFFFFFFFFFFFFFFFFFFFFF AND PUSH20 0xFFFFFFFFFFFFFFFFFFFFFFFFFFFFFFFFFFFFFFFF AND DUP2 MSTORE PUSH1 0x20 ADD SWAP1 DUP2 MSTORE PUSH1 0x20 ADD PUSH1 0x0 KECCAK256 SLOAD PUSH2 0x145C SWAP1 SWAP2 SWAP1 PUSH4 0xFFFFFFFF AND JUMP JUMPDEST PUSH1 0x0 DUP1 CALLER PUSH20 0xFFFFFFFFFFFFFFFFFFFFFFFFFFFFFFFFFFFFFFFF AND PUSH20 0xFFFFFFFFFFFFFFFFFFFFFFFFFFFFFFFFFFFFFFFF AND DUP2 MSTORE PUSH1 0x20 ADD SWAP1 DUP2 MSTORE PUSH1 0x20 ADD PUSH1 0x0 KECCAK256 DUP2 SWAP1 SSTORE POP PUSH2 0x128A CALLVALUE PUSH1 0x2 SLOAD PUSH2 0x145C SWAP1 SWAP2 SWAP1 PUSH4 0xFFFFFFFF AND JUMP JUMPDEST PUSH1 0x2 DUP2 SWAP1 SSTORE POP CALLER PUSH20 0xFFFFFFFFFFFFFFFFFFFFFFFFFFFFFFFFFFFFFFFF AND PUSH32 0xE1FFFCC4923D04B559F4D29A8BFC6CDA04EB5B0D3C460751C2402C5C5CC9109C CALLVALUE PUSH1 0x40 MLOAD PUSH2 0x12D6 SWAP2 SWAP1 PUSH2 0x164B JUMP JUMPDEST PUSH1 0x40 MLOAD DUP1 SWAP2 SUB SWAP1 LOG2 JUMP JUMPDEST PUSH1 0x0 DUP1 PUSH20 0xFFFFFFFFFFFFFFFFFFFFFFFFFFFFFFFFFFFFFFFF AND DUP4 PUSH20 0xFFFFFFFFFFFFFFFFFFFFFFFFFFFFFFFFFFFFFFFF AND EQ ISZERO PUSH2 0x1351 JUMPI PUSH1 0x40 MLOAD PUSH32 0x8C379A000000000000000000000000000000000000000000000000000000000 DUP2 MSTORE PUSH1 0x4 ADD PUSH2 0x1348 SWAP1 PUSH2 0x1B9C JUMP JUMPDEST PUSH1 0x40 MLOAD DUP1 SWAP2 SUB SWAP1 REVERT JUMPDEST PUSH1 0x0 PUSH20 0xFFFFFFFFFFFFFFFFFFFFFFFFFFFFFFFFFFFFFFFF AND DUP3 PUSH20 0xFFFFFFFFFFFFFFFFFFFFFFFFFFFFFFFFFFFFFFFF AND EQ ISZERO PUSH2 0x13C1 JUMPI PUSH1 0x40 MLOAD PUSH32 0x8C379A000000000000000000000000000000000000000000000000000000000 DUP2 MSTORE PUSH1 0x4 ADD PUSH2 0x13B8 SWAP1 PUSH2 0x1816 JUMP JUMPDEST PUSH1 0x40 MLOAD DUP1 SWAP2 SUB SWAP1 REVERT JUMPDEST PUSH1 0x1 PUSH1 0x0 DUP5 PUSH20 0xFFFFFFFFFFFFFFFFFFFFFFFFFFFFFFFFFFFFFFFF AND PUSH20 0xFFFFFFFFFFFFFFFFFFFFFFFFFFFFFFFFFFFFFFFF AND DUP2 MSTORE PUSH1 0x20 ADD SWAP1 DUP2 MSTORE PUSH1 0x20 ADD PUSH1 0x0 KECCAK256 PUSH1 0x0 DUP4 PUSH20 0xFFFFFFFFFFFFFFFFFFFFFFFFFFFFFFFFFFFFFFFF AND PUSH20 0xFFFFFFFFFFFFFFFFFFFFFFFFFFFFFFFFFFFFFFFF AND DUP2 MSTORE PUSH1 0x20 ADD SWAP1 DUP2 MSTORE PUSH1 0x20 ADD PUSH1 0x0 KECCAK256 SLOAD SWAP1 POP SWAP3 SWAP2 POP POP JUMP JUMPDEST PUSH1 0x0 DUP2 DUP4 PUSH2 0x1454 SWAP2 SWAP1 PUSH2 0x1BEB JUMP JUMPDEST SWAP1 POP SWAP3 SWAP2 POP POP JUMP JUMPDEST PUSH1 0x0 DUP2 DUP4 PUSH2 0x146A SWAP2 SWAP1 PUSH2 0x1C1F JUMP JUMPDEST SWAP1 POP SWAP3 SWAP2 POP POP JUMP JUMPDEST PUSH1 0x0 DUP2 MLOAD SWAP1 POP SWAP2 SWAP1 POP JUMP JUMPDEST PUSH1 0x0 DUP3 DUP3 MSTORE PUSH1 0x20 DUP3 ADD SWAP1 POP SWAP3 SWAP2 POP POP JUMP JUMPDEST PUSH1 0x0 JUMPDEST DUP4 DUP2 LT ISZERO PUSH2 0x14AC JUMPI DUP1 DUP3 ADD MLOAD DUP2 DUP5 ADD MSTORE PUSH1 0x20 DUP2 ADD SWAP1 POP PUSH2 0x1491 JUMP JUMPDEST DUP4 DUP2 GT ISZERO PUSH2 0x14BB JUMPI PUSH1 0x0 DUP5 DUP5 ADD MSTORE JUMPDEST POP POP POP POP JUMP JUMPDEST PUSH1 0x0 PUSH1 0x1F NOT PUSH1 0x1F DUP4 ADD AND SWAP1 POP SWAP2 SWAP1 POP JUMP JUMPDEST PUSH1 0x0 PUSH2 0x14DD DUP3 PUSH2 0x1472 JUMP JUMPDEST PUSH2 0x14E7 DUP2 DUP6 PUSH2 0x147D JUMP JUMPDEST SWAP4 POP PUSH2 0x14F7 DUP2 DUP6 PUSH1 0x20 DUP7 ADD PUSH2 0x148E JUMP JUMPDEST PUSH2 0x1500 DUP2 PUSH2 0x14C1 JUMP JUMPDEST DUP5 ADD SWAP2 POP POP SWAP3 SWAP2 POP POP JUMP JUMPDEST PUSH1 0x0 PUSH1 0x20 DUP3 ADD SWAP1 POP DUP2 DUP2 SUB PUSH1 0x0 DUP4 ADD MSTORE PUSH2 0x1525 DUP2 DUP5 PUSH2 0x14D2 JUMP JUMPDEST SWAP1 POP SWAP3 SWAP2 POP POP JUMP JUMPDEST PUSH1 0x0 DUP1 REVERT JUMPDEST PUSH1 0x0 PUSH20 0xFFFFFFFFFFFFFFFFFFFFFFFFFFFFFFFFFFFFFFFF DUP3 AND SWAP1 POP SWAP2 SWAP1 POP JUMP JUMPDEST PUSH1 0x0 PUSH2 0x155D DUP3 PUSH2 0x1532 JUMP JUMPDEST SWAP1 POP SWAP2 SWAP1 POP JUMP JUMPDEST PUSH2 0x156D DUP2 PUSH2 0x1552 JUMP JUMPDEST DUP2 EQ PUSH2 0x1578 JUMPI PUSH1 0x0 DUP1 REVERT JUMPDEST POP JUMP JUMPDEST PUSH1 0x0 DUP2 CALLDATALOAD SWAP1 POP PUSH2 0x158A DUP2 PUSH2 0x1564 JUMP JUMPDEST SWAP3 SWAP2 POP POP JUMP JUMPDEST PUSH1 0x0 DUP2 SWAP1 POP SWAP2 SWAP1 POP JUMP JUMPDEST PUSH2 0x15A3 DUP2 PUSH2 0x1590 JUMP JUMPDEST DUP2 EQ PUSH2 0x15AE JUMPI PUSH1 0x0 DUP1 REVERT JUMPDEST POP JUMP JUMPDEST PUSH1 0x0 DUP2 CALLDATALOAD SWAP1 POP PUSH2 0x15C0 DUP2 PUSH2 0x159A JUMP JUMPDEST SWAP3 SWAP2 POP POP JUMP JUMPDEST PUSH1 0x0 DUP1 PUSH1 0x40 DUP4 DUP6 SUB SLT ISZERO PUSH2 0x15DD JUMPI PUSH2 0x15DC PUSH2 0x152D JUMP JUMPDEST JUMPDEST PUSH1 0x0 PUSH2 0x15EB DUP6 DUP3 DUP7 ADD PUSH2 0x157B JUMP JUMPDEST SWAP3 POP POP PUSH1 0x20 PUSH2 0x15FC DUP6 DUP3 DUP7 ADD PUSH2 0x15B1 JUMP JUMPDEST SWAP2 POP POP SWAP3 POP SWAP3 SWAP1 POP JUMP JUMPDEST PUSH1 0x0 DUP2 ISZERO ISZERO SWAP1 POP SWAP2 SWAP1 POP JUMP JUMPDEST PUSH2 0x161B DUP2 PUSH2 0x1606 JUMP JUMPDEST DUP3 MSTORE POP POP JUMP JUMPDEST PUSH1 0x0 PUSH1 0x20 DUP3 ADD SWAP1 POP PUSH2 0x1636 PUSH1 0x0 DUP4 ADD DUP5 PUSH2 0x1612 JUMP JUMPDEST SWAP3 SWAP2 POP POP JUMP JUMPDEST PUSH2 0x1645 DUP2 PUSH2 0x1590 JUMP JUMPDEST DUP3 MSTORE POP POP JUMP JUMPDEST PUSH1 0x0 PUSH1 0x20 DUP3 ADD SWAP1 POP PUSH2 0x1660 PUSH1 0x0 DUP4 ADD DUP5 PUSH2 0x163C JUMP JUMPDEST SWAP3 SWAP2 POP POP JUMP JUMPDEST PUSH1 0x0 DUP1 PUSH1 0x0 PUSH1 0x60 DUP5 DUP7 SUB SLT ISZERO PUSH2 0x167F JUMPI PUSH2 0x167E PUSH2 0x152D JUMP JUMPDEST JUMPDEST PUSH1 0x0 PUSH2 0x168D DUP7 DUP3 DUP8 ADD PUSH2 0x157B JUMP JUMPDEST SWAP4 POP POP PUSH1 0x20 PUSH2 0x169E DUP7 DUP3 DUP8 ADD PUSH2 0x157B JUMP JUMPDEST SWAP3 POP POP PUSH1 0x40 PUSH2 0x16AF DUP7 DUP3 DUP8 ADD PUSH2 0x15B1 JUMP JUMPDEST SWAP2 POP POP SWAP3 POP SWAP3 POP SWAP3 JUMP JUMPDEST PUSH1 0x0 PUSH1 0x20 DUP3 DUP5 SUB SLT ISZERO PUSH2 0x16CF JUMPI PUSH2 0x16CE PUSH2 0x152D JUMP JUMPDEST JUMPDEST PUSH1 0x0 PUSH2 0x16DD DUP5 DUP3 DUP6 ADD PUSH2 0x15B1 JUMP JUMPDEST SWAP2 POP POP SWAP3 SWAP2 POP POP JUMP JUMPDEST PUSH1 0x0 PUSH1 0xFF DUP3 AND SWAP1 POP SWAP2 SWAP1 POP JUMP JUMPDEST PUSH2 0x16FC DUP2 PUSH2 0x16E6 JUMP JUMPDEST DUP3 MSTORE POP POP JUMP JUMPDEST PUSH1 0x0 PUSH1 0x20 DUP3 ADD SWAP1 POP PUSH2 0x1717 PUSH1 0x0 DUP4 ADD DUP5 PUSH2 0x16F3 JUMP JUMPDEST SWAP3 SWAP2 POP POP JUMP JUMPDEST PUSH1 0x0 PUSH1 0x20 DUP3 DUP5 SUB SLT ISZERO PUSH2 0x1733 JUMPI PUSH2 0x1732 PUSH2 0x152D JUMP JUMPDEST JUMPDEST PUSH1 0x0 PUSH2 0x1741 DUP5 DUP3 DUP6 ADD PUSH2 0x157B JUMP JUMPDEST SWAP2 POP POP SWAP3 SWAP2 POP POP JUMP JUMPDEST PUSH1 0x0 DUP1 PUSH1 0x40 DUP4 DUP6 SUB SLT ISZERO PUSH2 0x1761 JUMPI PUSH2 0x1760 PUSH2 0x152D JUMP JUMPDEST JUMPDEST PUSH1 0x0 PUSH2 0x176F DUP6 DUP3 DUP7 ADD PUSH2 0x15B1 JUMP JUMPDEST SWAP3 POP POP PUSH1 0x20 PUSH2 0x1780 DUP6 DUP3 DUP7 ADD PUSH2 0x157B JUMP JUMPDEST SWAP2 POP POP SWAP3 POP SWAP3 SWAP1 POP JUMP JUMPDEST PUSH1 0x0 DUP1 PUSH1 0x40 DUP4 DUP6 SUB SLT ISZERO PUSH2 0x17A1 JUMPI PUSH2 0x17A0 PUSH2 0x152D JUMP JUMPDEST JUMPDEST PUSH1 0x0 PUSH2 0x17AF DUP6 DUP3 DUP7 ADD PUSH2 0x157B JUMP JUMPDEST SWAP3 POP POP PUSH1 0x20 PUSH2 0x17C0 DUP6 DUP3 DUP7 ADD PUSH2 0x157B JUMP JUMPDEST SWAP2 POP POP SWAP3 POP SWAP3 SWAP1 POP JUMP JUMPDEST PUSH32 0x496E76616C69642064656C656761746520616464726573732E00000000000000 PUSH1 0x0 DUP3 ADD MSTORE POP JUMP JUMPDEST PUSH1 0x0 PUSH2 0x1800 PUSH1 0x19 DUP4 PUSH2 0x147D JUMP JUMPDEST SWAP2 POP PUSH2 0x180B DUP3 PUSH2 0x17CA JUMP JUMPDEST PUSH1 0x20 DUP3 ADD SWAP1 POP SWAP2 SWAP1 POP JUMP JUMPDEST PUSH1 0x0 PUSH1 0x20 DUP3 ADD SWAP1 POP DUP2 DUP2 SUB PUSH1 0x0 DUP4 ADD MSTORE PUSH2 0x182F DUP2 PUSH2 0x17F3 JUMP JUMPDEST SWAP1 POP SWAP2 SWAP1 POP JUMP JUMPDEST PUSH32 0x496E76616C696420746F6B656E20616D6F756E742E0000000000000000000000 PUSH1 0x0 DUP3 ADD MSTORE POP JUMP JUMPDEST PUSH1 0x0 PUSH2 0x186C PUSH1 0x15 DUP4 PUSH2 0x147D JUMP JUMPDEST SWAP2 POP PUSH2 0x1877 DUP3 PUSH2 0x1836 JUMP JUMPDEST PUSH1 0x20 DUP3 ADD SWAP1 POP SWAP2 SWAP1 POP JUMP JUMPDEST PUSH1 0x0 PUSH1 0x20 DUP3 ADD SWAP1 POP DUP2 DUP2 SUB PUSH1 0x0 DUP4 ADD MSTORE PUSH2 0x189B DUP2 PUSH2 0x185F JUMP JUMPDEST SWAP1 POP SWAP2 SWAP1 POP JUMP JUMPDEST PUSH32 0x496E73756666696369656E742062616C616E63652E0000000000000000000000 PUSH1 0x0 DUP3 ADD MSTORE POP JUMP JUMPDEST PUSH1 0x0 PUSH2 0x18D8 PUSH1 0x15 DUP4 PUSH2 0x147D JUMP JUMPDEST SWAP2 POP PUSH2 0x18E3 DUP3 PUSH2 0x18A2 JUMP JUMPDEST PUSH1 0x20 DUP3 ADD SWAP1 POP SWAP2 SWAP1 POP JUMP JUMPDEST PUSH1 0x0 PUSH1 0x20 DUP3 ADD SWAP1 POP DUP2 DUP2 SUB PUSH1 0x0 DUP4 ADD MSTORE PUSH2 0x1907 DUP2 PUSH2 0x18CB JUMP JUMPDEST SWAP1 POP SWAP2 SWAP1 POP JUMP JUMPDEST PUSH32 0x496E73756666696369656E7420616C6C6F77616E63652E000000000000000000 PUSH1 0x0 DUP3 ADD MSTORE POP JUMP JUMPDEST PUSH1 0x0 PUSH2 0x1944 PUSH1 0x17 DUP4 PUSH2 0x147D JUMP JUMPDEST SWAP2 POP PUSH2 0x194F DUP3 PUSH2 0x190E JUMP JUMPDEST PUSH1 0x20 DUP3 ADD SWAP1 POP SWAP2 SWAP1 POP JUMP JUMPDEST PUSH1 0x0 PUSH1 0x20 DUP3 ADD SWAP1 POP DUP2 DUP2 SUB PUSH1 0x0 DUP4 ADD MSTORE PUSH2 0x1973 DUP2 PUSH2 0x1937 JUMP JUMPDEST SWAP1 POP SWAP2 SWAP1 POP JUMP JUMPDEST PUSH32 0x496E76616C6964207769746864726177616C20616D6F756E742E000000000000 PUSH1 0x0 DUP3 ADD MSTORE POP JUMP JUMPDEST PUSH1 0x0 PUSH2 0x19B0 PUSH1 0x1A DUP4 PUSH2 0x147D JUMP JUMPDEST SWAP2 POP PUSH2 0x19BB DUP3 PUSH2 0x197A JUMP JUMPDEST PUSH1 0x20 DUP3 ADD SWAP1 POP SWAP2 SWAP1 POP JUMP JUMPDEST PUSH1 0x0 PUSH1 0x20 DUP3 ADD SWAP1 POP DUP2 DUP2 SUB PUSH1 0x0 DUP4 ADD MSTORE PUSH2 0x19DF DUP2 PUSH2 0x19A3 JUMP JUMPDEST SWAP1 POP SWAP2 SWAP1 POP JUMP JUMPDEST PUSH32 0x496E73756666696369656E742062616C616E636520696E20636F6E7472616374 PUSH1 0x0 DUP3 ADD MSTORE PUSH32 0x2E00000000000000000000000000000000000000000000000000000000000000 PUSH1 0x20 DUP3 ADD MSTORE POP JUMP JUMPDEST PUSH1 0x0 PUSH2 0x1A42 PUSH1 0x21 DUP4 PUSH2 0x147D JUMP JUMPDEST SWAP2 POP PUSH2 0x1A4D DUP3 PUSH2 0x19E6 JUMP JUMPDEST PUSH1 0x40 DUP3 ADD SWAP1 POP SWAP2 SWAP1 POP JUMP JUMPDEST PUSH1 0x0 PUSH1 0x20 DUP3 ADD SWAP1 POP DUP2 DUP2 SUB PUSH1 0x0 DUP4 ADD MSTORE PUSH2 0x1A71 DUP2 PUSH2 0x1A35 JUMP JUMPDEST SWAP1 POP SWAP2 SWAP1 POP JUMP JUMPDEST PUSH32 0x496E76616C696420726563697069656E7420616464726573732E000000000000 PUSH1 0x0 DUP3 ADD MSTORE POP JUMP JUMPDEST PUSH1 0x0 PUSH2 0x1AAE PUSH1 0x1A DUP4 PUSH2 0x147D JUMP JUMPDEST SWAP2 POP PUSH2 0x1AB9 DUP3 PUSH2 0x1A78 JUMP JUMPDEST PUSH1 0x20 DUP3 ADD SWAP1 POP SWAP2 SWAP1 POP JUMP JUMPDEST PUSH1 0x0 PUSH1 0x20 DUP3 ADD SWAP1 POP DUP2 DUP2 SUB PUSH1 0x0 DUP4 ADD MSTORE PUSH2 0x1ADD DUP2 PUSH2 0x1AA1 JUMP JUMPDEST SWAP1 POP SWAP2 SWAP1 POP JUMP JUMPDEST PUSH32 0x496E76616C6964206465706F73697420616D6F756E742E000000000000000000 PUSH1 0x0 DUP3 ADD MSTORE POP JUMP JUMPDEST PUSH1 0x0 PUSH2 0x1B1A PUSH1 0x17 DUP4 PUSH2 0x147D JUMP JUMPDEST SWAP2 POP PUSH2 0x1B25 DUP3 PUSH2 0x1AE4 JUMP JUMPDEST PUSH1 0x20 DUP3 ADD SWAP1 POP SWAP2 SWAP1 POP JUMP JUMPDEST PUSH1 0x0 PUSH1 0x20 DUP3 ADD SWAP1 POP DUP2 DUP2 SUB PUSH1 0x0 DUP4 ADD MSTORE PUSH2 0x1B49 DUP2 PUSH2 0x1B0D JUMP JUMPDEST SWAP1 POP SWAP2 SWAP1 POP JUMP JUMPDEST PUSH32 0x496E76616C6964206F776E657220616464726573732E00000000000000000000 PUSH1 0x0 DUP3 ADD MSTORE POP JUMP JUMPDEST PUSH1 0x0 PUSH2 0x1B86 PUSH1 0x16 DUP4 PUSH2 0x147D JUMP JUMPDEST SWAP2 POP PUSH2 0x1B91 DUP3 PUSH2 0x1B50 JUMP JUMPDEST PUSH1 0x20 DUP3 ADD SWAP1 POP SWAP2 SWAP1 POP JUMP JUMPDEST PUSH1 0x0 PUSH1 0x20 DUP3 ADD SWAP1 POP DUP2 DUP2 SUB PUSH1 0x0 DUP4 ADD MSTORE PUSH2 0x1BB5 DUP2 PUSH2 0x1B79 JUMP JUMPDEST SWAP1 POP SWAP2 SWAP1 POP JUMP JUMPDEST PUSH32 0x4E487B7100000000000000000000000000000000000000000000000000000000 PUSH1 0x0 MSTORE PUSH1 0x11 PUSH1 0x4 MSTORE PUSH1 0x24 PUSH1 0x0 REVERT JUMPDEST PUSH1 0x0 PUSH2 0x1BF6 DUP3 PUSH2 0x1590 JUMP JUMPDEST SWAP2 POP PUSH2 0x1C01 DUP4 PUSH2 0x1590 JUMP JUMPDEST SWAP3 POP DUP3 DUP3 LT ISZERO PUSH2 0x1C14 JUMPI PUSH2 0x1C13 PUSH2 0x1BBC JUMP JUMPDEST JUMPDEST DUP3 DUP3 SUB SWAP1 POP SWAP3 SWAP2 POP POP JUMP JUMPDEST PUSH1 0x0 PUSH2 0x1C2A DUP3 PUSH2 0x1590 JUMP JUMPDEST SWAP2 POP PUSH2 0x1C35 DUP4 PUSH2 0x1590 JUMP JUMPDEST SWAP3 POP DUP3 PUSH32 0xFFFFFFFFFFFFFFFFFFFFFFFFFFFFFFFFFFFFFFFFFFFFFFFFFFFFFFFFFFFFFFFF SUB DUP3 GT ISZERO PUSH2 0x1C6A JUMPI PUSH2 0x1C69 PUSH2 0x1BBC JUMP JUMPDEST JUMPDEST DUP3 DUP3 ADD SWAP1 POP SWAP3 SWAP2 POP POP JUMP INVALID LOG2 PUSH5 0x6970667358 0x22 SLT KECCAK256 MSTORE BYTE CODECOPY CODECOPY TIMESTAMP 0xCB PUSH30 0x7CE1DF8D92C5E99F94BC28C04132F42613FD3FA86EDB8675E364736F6C63 NUMBER STOP ADDMOD ADDMOD STOP CALLER "
				},
				"gasEstimates": {
					"creation": {
						"codeDepositCost": "1467800",
						"executionCost": "6548",
						"totalCost": "1474348"
					},
					"external": {
						"allowance(address,address)": "infinite",
						"approve(address,uint256)": "infinite",
						"balanceOf(address)": "2886",
						"burn(uint256)": "infinite",
						"decimals()": "446",
						"deposit()": "infinite",
						"mint(uint256,address)": "infinite",
						"name()": "infinite",
						"symbol()": "infinite",
						"totalSupply()": "2482",
						"transfer(address,uint256)": "infinite",
						"transferFrom(address,address,uint256)": "infinite",
						"withdraw(uint256)": "infinite"
					}
				},
				"methodIdentifiers": {
					"allowance(address,address)": "dd62ed3e",
					"approve(address,uint256)": "095ea7b3",
					"balanceOf(address)": "70a08231",
					"burn(uint256)": "42966c68",
					"decimals()": "313ce567",
					"deposit()": "d0e30db0",
					"mint(uint256,address)": "94bf804d",
					"name()": "06fdde03",
					"symbol()": "95d89b41",
					"totalSupply()": "18160ddd",
					"transfer(address,uint256)": "a9059cbb",
					"transferFrom(address,address,uint256)": "23b872dd",
					"withdraw(uint256)": "2e1a7d4d"
				}
			},
			"storageLayout": {
				"storage": [
					{
						"astId": 411,
						"contract": "contracts/WNTF.sol:WNFT",
						"label": "balances",
						"offset": 0,
						"slot": "0",
						"type": "t_mapping(t_address,t_uint256)"
					},
					{
						"astId": 417,
						"contract": "contracts/WNTF.sol:WNFT",
						"label": "allowances",
						"offset": 0,
						"slot": "1",
						"type": "t_mapping(t_address,t_mapping(t_address,t_uint256))"
					},
					{
						"astId": 419,
						"contract": "contracts/WNTF.sol:WNFT",
						"label": "totalSupply_",
						"offset": 0,
						"slot": "2",
						"type": "t_uint256"
					}
				],
				"types": {
					"t_address": {
						"encoding": "inplace",
						"label": "address",
						"numberOfBytes": "20"
					},
					"t_mapping(t_address,t_mapping(t_address,t_uint256))": {
						"encoding": "mapping",
						"key": "t_address",
						"label": "mapping(address => mapping(address => uint256))",
						"numberOfBytes": "32",
						"value": "t_mapping(t_address,t_uint256)"
					},
					"t_mapping(t_address,t_uint256)": {
						"encoding": "mapping",
						"key": "t_address",
						"label": "mapping(address => uint256)",
						"numberOfBytes": "32",
						"value": "t_uint256"
					},
					"t_uint256": {
						"encoding": "inplace",
						"label": "uint256",
						"numberOfBytes": "32"
					}
				}
			},
			"userdoc": {
				"kind": "user",
				"methods": {},
				"version": 1
			}
		}
	}
}