{
	"contracts/fund.sol": {
		"PaymentSplit": {
			"abi": [
				{
					"inputs": [
						{
							"internalType": "address[]",
							"name": "_payees",
							"type": "address[]"
						},
						{
							"internalType": "uint256[]",
							"name": "_shares",
							"type": "uint256[]"
						}
					],
					"stateMutability": "payable",
					"type": "constructor"
				},
				{
					"anonymous": false,
					"inputs": [
						{
							"indexed": false,
							"internalType": "address",
							"name": "account",
							"type": "address"
						},
						{
							"indexed": false,
							"internalType": "uint256",
							"name": "shares",
							"type": "uint256"
						}
					],
					"name": "PayeeAdded",
					"type": "event"
				},
				{
					"anonymous": false,
					"inputs": [
						{
							"indexed": false,
							"internalType": "address",
							"name": "from",
							"type": "address"
						},
						{
							"indexed": false,
							"internalType": "uint256",
							"name": "amount",
							"type": "uint256"
						}
					],
					"name": "PaymentReceived",
					"type": "event"
				},
				{
					"anonymous": false,
					"inputs": [
						{
							"indexed": false,
							"internalType": "address",
							"name": "to",
							"type": "address"
						},
						{
							"indexed": false,
							"internalType": "uint256",
							"name": "amount",
							"type": "uint256"
						}
					],
					"name": "PaymentReleased",
					"type": "event"
				},
				{
					"inputs": [
						{
							"internalType": "uint256",
							"name": "",
							"type": "uint256"
						}
					],
					"name": "payees",
					"outputs": [
						{
							"internalType": "address",
							"name": "",
							"type": "address"
						}
					],
					"stateMutability": "view",
					"type": "function"
				},
				{
					"inputs": [
						{
							"internalType": "address",
							"name": "_account",
							"type": "address"
						},
						{
							"internalType": "uint256",
							"name": "_totalReceived",
							"type": "uint256"
						},
						{
							"internalType": "uint256",
							"name": "_alreadyReleased",
							"type": "uint256"
						}
					],
					"name": "pendingPayment",
					"outputs": [
						{
							"internalType": "uint256",
							"name": "",
							"type": "uint256"
						}
					],
					"stateMutability": "view",
					"type": "function"
				},
				{
					"inputs": [
						{
							"internalType": "address",
							"name": "_account",
							"type": "address"
						}
					],
					"name": "releasable",
					"outputs": [
						{
							"internalType": "uint256",
							"name": "",
							"type": "uint256"
						}
					],
					"stateMutability": "view",
					"type": "function"
				},
				{
					"inputs": [
						{
							"internalType": "address payable",
							"name": "_account",
							"type": "address"
						}
					],
					"name": "release",
					"outputs": [],
					"stateMutability": "nonpayable",
					"type": "function"
				},
				{
					"inputs": [
						{
							"internalType": "address",
							"name": "",
							"type": "address"
						}
					],
					"name": "released",
					"outputs": [
						{
							"internalType": "uint256",
							"name": "",
							"type": "uint256"
						}
					],
					"stateMutability": "view",
					"type": "function"
				},
				{
					"inputs": [
						{
							"internalType": "address",
							"name": "",
							"type": "address"
						}
					],
					"name": "shares",
					"outputs": [
						{
							"internalType": "uint256",
							"name": "",
							"type": "uint256"
						}
					],
					"stateMutability": "view",
					"type": "function"
				},
				{
					"inputs": [],
					"name": "totalReleased",
					"outputs": [
						{
							"internalType": "uint256",
							"name": "",
							"type": "uint256"
						}
					],
					"stateMutability": "view",
					"type": "function"
				},
				{
					"inputs": [],
					"name": "totalShares",
					"outputs": [
						{
							"internalType": "uint256",
							"name": "",
							"type": "uint256"
						}
					],
					"stateMutability": "view",
					"type": "function"
				},
				{
					"stateMutability": "payable",
					"type": "receive"
				}
			],
			"devdoc": {
				"kind": "dev",
				"methods": {},
				"version": 1
			},
			"evm": {
				"assembly": "    /* \"contracts/fund.sol\":145:2414  contract PaymentSplit{... */\n  mstore(0x40, 0x80)\n    /* \"contracts/fund.sol\":542:905  constructor(address[] memory _payees, uint256[] memory _shares) payable {... */\n  mload(0x40)\n  sub(codesize, bytecodeSize)\n  dup1\n  bytecodeSize\n  dup4\n  codecopy\n  dup2\n  dup2\n  add\n  0x40\n  mstore\n  dup2\n  add\n  swap1\n  tag_1\n  swap2\n  swap1\n  tag_2\n  jump\t// in\ntag_1:\n    /* \"contracts/fund.sol\":650:657  _shares */\n  dup1\n    /* \"contracts/fund.sol\":650:664  _shares.length */\n  mload\n    /* \"contracts/fund.sol\":632:639  _payees */\n  dup3\n    /* \"contracts/fund.sol\":632:646  _payees.length */\n  mload\n    /* \"contracts/fund.sol\":632:664  _payees.length == _shares.length */\n  eq\n    /* \"contracts/fund.sol\":624:719  require(_payees.length == _shares.length, \"PaymentSplitter: payees and shares length mismatch\") */\n  tag_5\n  jumpi\n  mload(0x40)\n  0x08c379a000000000000000000000000000000000000000000000000000000000\n  dup2\n  mstore\n  0x04\n  add\n  tag_6\n  swap1\n  tag_7\n  jump\t// in\ntag_6:\n  mload(0x40)\n  dup1\n  swap2\n  sub\n  swap1\n  revert\ntag_5:\n    /* \"contracts/fund.sol\":754:755  0 */\n  0x00\n    /* \"contracts/fund.sol\":737:744  _payees */\n  dup3\n    /* \"contracts/fund.sol\":737:751  _payees.length */\n  mload\n    /* \"contracts/fund.sol\":737:755  _payees.length > 0 */\n  gt\n    /* \"contracts/fund.sol\":729:786  require(_payees.length > 0, \"PaymentSplitter: no payees\") */\n  tag_8\n  jumpi\n  mload(0x40)\n  0x08c379a000000000000000000000000000000000000000000000000000000000\n  dup2\n  mstore\n  0x04\n  add\n  tag_9\n  swap1\n  tag_10\n  jump\t// in\ntag_9:\n  mload(0x40)\n  dup1\n  swap2\n  sub\n  swap1\n  revert\ntag_8:\n    /* \"contracts/fund.sol\":801:810  uint256 i */\n  0x00\n    /* \"contracts/fund.sol\":796:899  for (uint256 i = 0; i < _payees.length; i++) {... */\ntag_11:\n    /* \"contracts/fund.sol\":820:827  _payees */\n  dup3\n    /* \"contracts/fund.sol\":820:834  _payees.length */\n  mload\n    /* \"contracts/fund.sol\":816:817  i */\n  dup2\n    /* \"contracts/fund.sol\":816:834  i < _payees.length */\n  lt\n    /* \"contracts/fund.sol\":796:899  for (uint256 i = 0; i < _payees.length; i++) {... */\n  iszero\n  tag_12\n  jumpi\n    /* \"contracts/fund.sol\":855:888  _addPayee(_payees[i], _shares[i]) */\n  tag_14\n    /* \"contracts/fund.sol\":865:872  _payees */\n  dup4\n    /* \"contracts/fund.sol\":873:874  i */\n  dup3\n    /* \"contracts/fund.sol\":865:875  _payees[i] */\n  dup2\n  mload\n  dup2\n  lt\n  tag_15\n  jumpi\n  tag_16\n  tag_17\n  jump\t// in\ntag_16:\ntag_15:\n  0x20\n  mul\n  0x20\n  add\n  add\n  mload\n    /* \"contracts/fund.sol\":877:884  _shares */\n  dup4\n    /* \"contracts/fund.sol\":885:886  i */\n  dup4\n    /* \"contracts/fund.sol\":877:887  _shares[i] */\n  dup2\n  mload\n  dup2\n  lt\n  tag_18\n  jumpi\n  tag_19\n  tag_17\n  jump\t// in\ntag_19:\ntag_18:\n  0x20\n  mul\n  0x20\n  add\n  add\n  mload\n    /* \"contracts/fund.sol\":855:864  _addPayee */\n  shl(0x20, tag_20)\n    /* \"contracts/fund.sol\":855:888  _addPayee(_payees[i], _shares[i]) */\n  0x20\n  shr\n  jump\t// in\ntag_14:\n    /* \"contracts/fund.sol\":836:839  i++ */\n  dup1\n  dup1\n  tag_21\n  swap1\n  tag_22\n  jump\t// in\ntag_21:\n  swap2\n  pop\n  pop\n    /* \"contracts/fund.sol\":796:899  for (uint256 i = 0; i < _payees.length; i++) {... */\n  jump(tag_11)\ntag_12:\n  pop\n    /* \"contracts/fund.sol\":542:905  constructor(address[] memory _payees, uint256[] memory _shares) payable {... */\n  pop\n  pop\n    /* \"contracts/fund.sol\":145:2414  contract PaymentSplit{... */\n  jump(tag_23)\n    /* \"contracts/fund.sol\":1926:2412  function _addPayee(address _account, uint256 _accountShares) private {... */\ntag_20:\n    /* \"contracts/fund.sol\":2033:2034  0 */\n  0x00\n    /* \"contracts/fund.sol\":2013:2035  _account != address(0) */\n  0xffffffffffffffffffffffffffffffffffffffff\n  and\n    /* \"contracts/fund.sol\":2013:2021  _account */\n  dup3\n    /* \"contracts/fund.sol\":2013:2035  _account != address(0) */\n  0xffffffffffffffffffffffffffffffffffffffff\n  and\n  eq\n  iszero\n    /* \"contracts/fund.sol\":2005:2084  require(_account != address(0), \"PaymentSplitter: account is the zero address\") */\n  tag_25\n  jumpi\n  mload(0x40)\n  0x08c379a000000000000000000000000000000000000000000000000000000000\n  dup2\n  mstore\n  0x04\n  add\n  tag_26\n  swap1\n  tag_27\n  jump\t// in\ntag_26:\n  mload(0x40)\n  dup1\n  swap2\n  sub\n  swap1\n  revert\ntag_25:\n    /* \"contracts/fund.sol\":2119:2120  0 */\n  0x00\n    /* \"contracts/fund.sol\":2102:2116  _accountShares */\n  dup2\n    /* \"contracts/fund.sol\":2102:2120  _accountShares > 0 */\n  gt\n    /* \"contracts/fund.sol\":2094:2154  require(_accountShares > 0, \"PaymentSplitter: shares are 0\") */\n  tag_28\n  jumpi\n  mload(0x40)\n  0x08c379a000000000000000000000000000000000000000000000000000000000\n  dup2\n  mstore\n  0x04\n  add\n  tag_29\n  swap1\n  tag_30\n  jump\t// in\ntag_29:\n  mload(0x40)\n  dup1\n  swap2\n  sub\n  swap1\n  revert\ntag_28:\n    /* \"contracts/fund.sol\":2192:2193  0 */\n  0x00\n    /* \"contracts/fund.sol\":2172:2178  shares */\n  0x02\n    /* \"contracts/fund.sol\":2172:2188  shares[_account] */\n  0x00\n    /* \"contracts/fund.sol\":2179:2187  _account */\n  dup5\n    /* \"contracts/fund.sol\":2172:2188  shares[_account] */\n  0xffffffffffffffffffffffffffffffffffffffff\n  and\n  0xffffffffffffffffffffffffffffffffffffffff\n  and\n  dup2\n  mstore\n  0x20\n  add\n  swap1\n  dup2\n  mstore\n  0x20\n  add\n  0x00\n  keccak256\n  sload\n    /* \"contracts/fund.sol\":2172:2193  shares[_account] == 0 */\n  eq\n    /* \"contracts/fund.sol\":2164:2241  require(shares[_account] == 0, \"PaymentSplitter: account already has shares\") */\n  tag_31\n  jumpi\n  mload(0x40)\n  0x08c379a000000000000000000000000000000000000000000000000000000000\n  dup2\n  mstore\n  0x04\n  add\n  tag_32\n  swap1\n  tag_33\n  jump\t// in\ntag_32:\n  mload(0x40)\n  dup1\n  swap2\n  sub\n  swap1\n  revert\ntag_31:\n    /* \"contracts/fund.sol\":2251:2257  payees */\n  0x04\n    /* \"contracts/fund.sol\":2263:2271  _account */\n  dup3\n    /* \"contracts/fund.sol\":2251:2272  payees.push(_account) */\n  swap1\n  dup1\n  0x01\n  dup2\n  sload\n  add\n  dup1\n  dup3\n  sstore\n  dup1\n  swap2\n  pop\n  pop\n  0x01\n  swap1\n  sub\n  swap1\n  0x00\n  mstore\n  keccak256(0x00, 0x20)\n  add\n  0x00\n  swap1\n  swap2\n  swap1\n  swap2\n  swap1\n  swap2\n  0x0100\n  exp\n  dup2\n  sload\n  dup2\n  0xffffffffffffffffffffffffffffffffffffffff\n  mul\n  not\n  and\n  swap1\n  dup4\n  0xffffffffffffffffffffffffffffffffffffffff\n  and\n  mul\n  or\n  swap1\n  sstore\n  pop\n    /* \"contracts/fund.sol\":2301:2315  _accountShares */\n  dup1\n    /* \"contracts/fund.sol\":2282:2288  shares */\n  0x02\n    /* \"contracts/fund.sol\":2282:2298  shares[_account] */\n  0x00\n    /* \"contracts/fund.sol\":2289:2297  _account */\n  dup5\n    /* \"contracts/fund.sol\":2282:2298  shares[_account] */\n  0xffffffffffffffffffffffffffffffffffffffff\n  and\n  0xffffffffffffffffffffffffffffffffffffffff\n  and\n  dup2\n  mstore\n  0x20\n  add\n  swap1\n  dup2\n  mstore\n  0x20\n  add\n  0x00\n  keccak256\n    /* \"contracts/fund.sol\":2282:2315  shares[_account] = _accountShares */\n  dup2\n  swap1\n  sstore\n  pop\n    /* \"contracts/fund.sol\":2340:2354  _accountShares */\n  dup1\n    /* \"contracts/fund.sol\":2325:2336  totalShares */\n  0x00\n  dup1\n    /* \"contracts/fund.sol\":2325:2354  totalShares += _accountShares */\n  dup3\n  dup3\n  sload\n  tag_35\n  swap2\n  swap1\n  tag_36\n  jump\t// in\ntag_35:\n  swap3\n  pop\n  pop\n  dup2\n  swap1\n  sstore\n  pop\n    /* \"contracts/fund.sol\":2369:2405  PayeeAdded(_account, _accountShares) */\n  0x40c340f65e17194d14ddddb073d3c9f888e3cb52b5aae0c6c7706b4fbc905fac\n    /* \"contracts/fund.sol\":2380:2388  _account */\n  dup3\n    /* \"contracts/fund.sol\":2390:2404  _accountShares */\n  dup3\n    /* \"contracts/fund.sol\":2369:2405  PayeeAdded(_account, _accountShares) */\n  mload(0x40)\n  tag_37\n  swap3\n  swap2\n  swap1\n  tag_38\n  jump\t// in\ntag_37:\n  mload(0x40)\n  dup1\n  swap2\n  sub\n  swap1\n  log1\n    /* \"contracts/fund.sol\":1926:2412  function _addPayee(address _account, uint256 _accountShares) private {... */\n  pop\n  pop\n  jump\t// out\n    /* \"#utility.yul\":7:82   */\ntag_39:\n    /* \"#utility.yul\":40:46   */\n  0x00\n    /* \"#utility.yul\":73:75   */\n  0x40\n    /* \"#utility.yul\":67:76   */\n  mload\n    /* \"#utility.yul\":57:76   */\n  swap1\n  pop\n    /* \"#utility.yul\":7:82   */\n  swap1\n  jump\t// out\n    /* \"#utility.yul\":88:205   */\ntag_40:\n    /* \"#utility.yul\":197:198   */\n  0x00\n    /* \"#utility.yul\":194:195   */\n  dup1\n    /* \"#utility.yul\":187:199   */\n  revert\n    /* \"#utility.yul\":211:328   */\ntag_41:\n    /* \"#utility.yul\":320:321   */\n  0x00\n    /* \"#utility.yul\":317:318   */\n  dup1\n    /* \"#utility.yul\":310:322   */\n  revert\n    /* \"#utility.yul\":334:451   */\ntag_42:\n    /* \"#utility.yul\":443:444   */\n  0x00\n    /* \"#utility.yul\":440:441   */\n  dup1\n    /* \"#utility.yul\":433:445   */\n  revert\n    /* \"#utility.yul\":457:559   */\ntag_43:\n    /* \"#utility.yul\":498:504   */\n  0x00\n    /* \"#utility.yul\":549:551   */\n  0x1f\n    /* \"#utility.yul\":545:552   */\n  not\n    /* \"#utility.yul\":540:542   */\n  0x1f\n    /* \"#utility.yul\":533:538   */\n  dup4\n    /* \"#utility.yul\":529:543   */\n  add\n    /* \"#utility.yul\":525:553   */\n  and\n    /* \"#utility.yul\":515:553   */\n  swap1\n  pop\n    /* \"#utility.yul\":457:559   */\n  swap2\n  swap1\n  pop\n  jump\t// out\n    /* \"#utility.yul\":565:745   */\ntag_44:\n    /* \"#utility.yul\":613:690   */\n  0x4e487b7100000000000000000000000000000000000000000000000000000000\n    /* \"#utility.yul\":610:611   */\n  0x00\n    /* \"#utility.yul\":603:691   */\n  mstore\n    /* \"#utility.yul\":710:714   */\n  0x41\n    /* \"#utility.yul\":707:708   */\n  0x04\n    /* \"#utility.yul\":700:715   */\n  mstore\n    /* \"#utility.yul\":734:738   */\n  0x24\n    /* \"#utility.yul\":731:732   */\n  0x00\n    /* \"#utility.yul\":724:739   */\n  revert\n    /* \"#utility.yul\":751:1032   */\ntag_45:\n    /* \"#utility.yul\":834:861   */\n  tag_83\n    /* \"#utility.yul\":856:860   */\n  dup3\n    /* \"#utility.yul\":834:861   */\n  tag_43\n  jump\t// in\ntag_83:\n    /* \"#utility.yul\":826:832   */\n  dup2\n    /* \"#utility.yul\":822:862   */\n  add\n    /* \"#utility.yul\":964:970   */\n  dup2\n    /* \"#utility.yul\":952:962   */\n  dup2\n    /* \"#utility.yul\":949:971   */\n  lt\n    /* \"#utility.yul\":928:946   */\n  0xffffffffffffffff\n    /* \"#utility.yul\":916:926   */\n  dup3\n    /* \"#utility.yul\":913:947   */\n  gt\n    /* \"#utility.yul\":910:972   */\n  or\n    /* \"#utility.yul\":907:995   */\n  iszero\n  tag_84\n  jumpi\n    /* \"#utility.yul\":975:993   */\n  tag_85\n  tag_44\n  jump\t// in\ntag_85:\n    /* \"#utility.yul\":907:995   */\ntag_84:\n    /* \"#utility.yul\":1015:1025   */\n  dup1\n    /* \"#utility.yul\":1011:1013   */\n  0x40\n    /* \"#utility.yul\":1004:1026   */\n  mstore\n    /* \"#utility.yul\":794:1032   */\n  pop\n    /* \"#utility.yul\":751:1032   */\n  pop\n  pop\n  jump\t// out\n    /* \"#utility.yul\":1038:1167   */\ntag_46:\n    /* \"#utility.yul\":1072:1078   */\n  0x00\n    /* \"#utility.yul\":1099:1119   */\n  tag_87\n  tag_39\n  jump\t// in\ntag_87:\n    /* \"#utility.yul\":1089:1119   */\n  swap1\n  pop\n    /* \"#utility.yul\":1128:1161   */\n  tag_88\n    /* \"#utility.yul\":1156:1160   */\n  dup3\n    /* \"#utility.yul\":1148:1154   */\n  dup3\n    /* \"#utility.yul\":1128:1161   */\n  tag_45\n  jump\t// in\ntag_88:\n    /* \"#utility.yul\":1038:1167   */\n  swap2\n  swap1\n  pop\n  jump\t// out\n    /* \"#utility.yul\":1173:1484   */\ntag_47:\n    /* \"#utility.yul\":1250:1254   */\n  0x00\n    /* \"#utility.yul\":1340:1358   */\n  0xffffffffffffffff\n    /* \"#utility.yul\":1332:1338   */\n  dup3\n    /* \"#utility.yul\":1329:1359   */\n  gt\n    /* \"#utility.yul\":1326:1382   */\n  iszero\n  tag_90\n  jumpi\n    /* \"#utility.yul\":1362:1380   */\n  tag_91\n  tag_44\n  jump\t// in\ntag_91:\n    /* \"#utility.yul\":1326:1382   */\ntag_90:\n    /* \"#utility.yul\":1412:1416   */\n  0x20\n    /* \"#utility.yul\":1404:1410   */\n  dup3\n    /* \"#utility.yul\":1400:1417   */\n  mul\n    /* \"#utility.yul\":1392:1417   */\n  swap1\n  pop\n    /* \"#utility.yul\":1472:1476   */\n  0x20\n    /* \"#utility.yul\":1466:1470   */\n  dup2\n    /* \"#utility.yul\":1462:1477   */\n  add\n    /* \"#utility.yul\":1454:1477   */\n  swap1\n  pop\n    /* \"#utility.yul\":1173:1484   */\n  swap2\n  swap1\n  pop\n  jump\t// out\n    /* \"#utility.yul\":1490:1607   */\ntag_48:\n    /* \"#utility.yul\":1599:1600   */\n  0x00\n    /* \"#utility.yul\":1596:1597   */\n  dup1\n    /* \"#utility.yul\":1589:1601   */\n  revert\n    /* \"#utility.yul\":1613:1739   */\ntag_49:\n    /* \"#utility.yul\":1650:1657   */\n  0x00\n    /* \"#utility.yul\":1690:1732   */\n  0xffffffffffffffffffffffffffffffffffffffff\n    /* \"#utility.yul\":1683:1688   */\n  dup3\n    /* \"#utility.yul\":1679:1733   */\n  and\n    /* \"#utility.yul\":1668:1733   */\n  swap1\n  pop\n    /* \"#utility.yul\":1613:1739   */\n  swap2\n  swap1\n  pop\n  jump\t// out\n    /* \"#utility.yul\":1745:1841   */\ntag_50:\n    /* \"#utility.yul\":1782:1789   */\n  0x00\n    /* \"#utility.yul\":1811:1835   */\n  tag_95\n    /* \"#utility.yul\":1829:1834   */\n  dup3\n    /* \"#utility.yul\":1811:1835   */\n  tag_49\n  jump\t// in\ntag_95:\n    /* \"#utility.yul\":1800:1835   */\n  swap1\n  pop\n    /* \"#utility.yul\":1745:1841   */\n  swap2\n  swap1\n  pop\n  jump\t// out\n    /* \"#utility.yul\":1847:1969   */\ntag_51:\n    /* \"#utility.yul\":1920:1944   */\n  tag_97\n    /* \"#utility.yul\":1938:1943   */\n  dup2\n    /* \"#utility.yul\":1920:1944   */\n  tag_50\n  jump\t// in\ntag_97:\n    /* \"#utility.yul\":1913:1918   */\n  dup2\n    /* \"#utility.yul\":1910:1945   */\n  eq\n    /* \"#utility.yul\":1900:1963   */\n  tag_98\n  jumpi\n    /* \"#utility.yul\":1959:1960   */\n  0x00\n    /* \"#utility.yul\":1956:1957   */\n  dup1\n    /* \"#utility.yul\":1949:1961   */\n  revert\n    /* \"#utility.yul\":1900:1963   */\ntag_98:\n    /* \"#utility.yul\":1847:1969   */\n  pop\n  jump\t// out\n    /* \"#utility.yul\":1975:2118   */\ntag_52:\n    /* \"#utility.yul\":2032:2037   */\n  0x00\n    /* \"#utility.yul\":2063:2069   */\n  dup2\n    /* \"#utility.yul\":2057:2070   */\n  mload\n    /* \"#utility.yul\":2048:2070   */\n  swap1\n  pop\n    /* \"#utility.yul\":2079:2112   */\n  tag_100\n    /* \"#utility.yul\":2106:2111   */\n  dup2\n    /* \"#utility.yul\":2079:2112   */\n  tag_51\n  jump\t// in\ntag_100:\n    /* \"#utility.yul\":1975:2118   */\n  swap3\n  swap2\n  pop\n  pop\n  jump\t// out\n    /* \"#utility.yul\":2141:2873   */\ntag_53:\n    /* \"#utility.yul\":2248:2253   */\n  0x00\n    /* \"#utility.yul\":2273:2354   */\n  tag_102\n    /* \"#utility.yul\":2289:2353   */\n  tag_103\n    /* \"#utility.yul\":2346:2352   */\n  dup5\n    /* \"#utility.yul\":2289:2353   */\n  tag_47\n  jump\t// in\ntag_103:\n    /* \"#utility.yul\":2273:2354   */\n  tag_46\n  jump\t// in\ntag_102:\n    /* \"#utility.yul\":2264:2354   */\n  swap1\n  pop\n    /* \"#utility.yul\":2374:2379   */\n  dup1\n    /* \"#utility.yul\":2403:2409   */\n  dup4\n    /* \"#utility.yul\":2396:2401   */\n  dup3\n    /* \"#utility.yul\":2389:2410   */\n  mstore\n    /* \"#utility.yul\":2437:2441   */\n  0x20\n    /* \"#utility.yul\":2430:2435   */\n  dup3\n    /* \"#utility.yul\":2426:2442   */\n  add\n    /* \"#utility.yul\":2419:2442   */\n  swap1\n  pop\n    /* \"#utility.yul\":2490:2494   */\n  0x20\n    /* \"#utility.yul\":2482:2488   */\n  dup5\n    /* \"#utility.yul\":2478:2495   */\n  mul\n    /* \"#utility.yul\":2470:2476   */\n  dup4\n    /* \"#utility.yul\":2466:2496   */\n  add\n    /* \"#utility.yul\":2519:2522   */\n  dup6\n    /* \"#utility.yul\":2511:2517   */\n  dup2\n    /* \"#utility.yul\":2508:2523   */\n  gt\n    /* \"#utility.yul\":2505:2627   */\n  iszero\n  tag_104\n  jumpi\n    /* \"#utility.yul\":2538:2617   */\n  tag_105\n  tag_48\n  jump\t// in\ntag_105:\n    /* \"#utility.yul\":2505:2627   */\ntag_104:\n    /* \"#utility.yul\":2653:2659   */\n  dup4\n    /* \"#utility.yul\":2636:2867   */\ntag_106:\n    /* \"#utility.yul\":2670:2676   */\n  dup2\n    /* \"#utility.yul\":2665:2668   */\n  dup2\n    /* \"#utility.yul\":2662:2677   */\n  lt\n    /* \"#utility.yul\":2636:2867   */\n  iszero\n  tag_108\n  jumpi\n    /* \"#utility.yul\":2745:2748   */\n  dup1\n    /* \"#utility.yul\":2774:2822   */\n  tag_109\n    /* \"#utility.yul\":2818:2821   */\n  dup9\n    /* \"#utility.yul\":2806:2816   */\n  dup3\n    /* \"#utility.yul\":2774:2822   */\n  tag_52\n  jump\t// in\ntag_109:\n    /* \"#utility.yul\":2769:2772   */\n  dup5\n    /* \"#utility.yul\":2762:2823   */\n  mstore\n    /* \"#utility.yul\":2852:2856   */\n  0x20\n    /* \"#utility.yul\":2847:2850   */\n  dup5\n    /* \"#utility.yul\":2843:2857   */\n  add\n    /* \"#utility.yul\":2836:2857   */\n  swap4\n  pop\n    /* \"#utility.yul\":2712:2867   */\n  pop\n    /* \"#utility.yul\":2696:2700   */\n  0x20\n    /* \"#utility.yul\":2691:2694   */\n  dup2\n    /* \"#utility.yul\":2687:2701   */\n  add\n    /* \"#utility.yul\":2680:2701   */\n  swap1\n  pop\n    /* \"#utility.yul\":2636:2867   */\n  jump(tag_106)\ntag_108:\n    /* \"#utility.yul\":2640:2661   */\n  pop\n    /* \"#utility.yul\":2254:2873   */\n  pop\n  pop\n    /* \"#utility.yul\":2141:2873   */\n  swap4\n  swap3\n  pop\n  pop\n  pop\n  jump\t// out\n    /* \"#utility.yul\":2896:3281   */\ntag_54:\n    /* \"#utility.yul\":2978:2983   */\n  0x00\n    /* \"#utility.yul\":3027:3030   */\n  dup3\n    /* \"#utility.yul\":3020:3024   */\n  0x1f\n    /* \"#utility.yul\":3012:3018   */\n  dup4\n    /* \"#utility.yul\":3008:3025   */\n  add\n    /* \"#utility.yul\":3004:3031   */\n  slt\n    /* \"#utility.yul\":2994:3116   */\n  tag_111\n  jumpi\n    /* \"#utility.yul\":3035:3114   */\n  tag_112\n  tag_42\n  jump\t// in\ntag_112:\n    /* \"#utility.yul\":2994:3116   */\ntag_111:\n    /* \"#utility.yul\":3145:3151   */\n  dup2\n    /* \"#utility.yul\":3139:3152   */\n  mload\n    /* \"#utility.yul\":3170:3275   */\n  tag_113\n    /* \"#utility.yul\":3271:3274   */\n  dup5\n    /* \"#utility.yul\":3263:3269   */\n  dup3\n    /* \"#utility.yul\":3256:3260   */\n  0x20\n    /* \"#utility.yul\":3248:3254   */\n  dup7\n    /* \"#utility.yul\":3244:3261   */\n  add\n    /* \"#utility.yul\":3170:3275   */\n  tag_53\n  jump\t// in\ntag_113:\n    /* \"#utility.yul\":3161:3275   */\n  swap2\n  pop\n    /* \"#utility.yul\":2984:3281   */\n  pop\n    /* \"#utility.yul\":2896:3281   */\n  swap3\n  swap2\n  pop\n  pop\n  jump\t// out\n    /* \"#utility.yul\":3287:3598   */\ntag_55:\n    /* \"#utility.yul\":3364:3368   */\n  0x00\n    /* \"#utility.yul\":3454:3472   */\n  0xffffffffffffffff\n    /* \"#utility.yul\":3446:3452   */\n  dup3\n    /* \"#utility.yul\":3443:3473   */\n  gt\n    /* \"#utility.yul\":3440:3496   */\n  iszero\n  tag_115\n  jumpi\n    /* \"#utility.yul\":3476:3494   */\n  tag_116\n  tag_44\n  jump\t// in\ntag_116:\n    /* \"#utility.yul\":3440:3496   */\ntag_115:\n    /* \"#utility.yul\":3526:3530   */\n  0x20\n    /* \"#utility.yul\":3518:3524   */\n  dup3\n    /* \"#utility.yul\":3514:3531   */\n  mul\n    /* \"#utility.yul\":3506:3531   */\n  swap1\n  pop\n    /* \"#utility.yul\":3586:3590   */\n  0x20\n    /* \"#utility.yul\":3580:3584   */\n  dup2\n    /* \"#utility.yul\":3576:3591   */\n  add\n    /* \"#utility.yul\":3568:3591   */\n  swap1\n  pop\n    /* \"#utility.yul\":3287:3598   */\n  swap2\n  swap1\n  pop\n  jump\t// out\n    /* \"#utility.yul\":3604:3681   */\ntag_56:\n    /* \"#utility.yul\":3641:3648   */\n  0x00\n    /* \"#utility.yul\":3670:3675   */\n  dup2\n    /* \"#utility.yul\":3659:3675   */\n  swap1\n  pop\n    /* \"#utility.yul\":3604:3681   */\n  swap2\n  swap1\n  pop\n  jump\t// out\n    /* \"#utility.yul\":3687:3809   */\ntag_57:\n    /* \"#utility.yul\":3760:3784   */\n  tag_119\n    /* \"#utility.yul\":3778:3783   */\n  dup2\n    /* \"#utility.yul\":3760:3784   */\n  tag_56\n  jump\t// in\ntag_119:\n    /* \"#utility.yul\":3753:3758   */\n  dup2\n    /* \"#utility.yul\":3750:3785   */\n  eq\n    /* \"#utility.yul\":3740:3803   */\n  tag_120\n  jumpi\n    /* \"#utility.yul\":3799:3800   */\n  0x00\n    /* \"#utility.yul\":3796:3797   */\n  dup1\n    /* \"#utility.yul\":3789:3801   */\n  revert\n    /* \"#utility.yul\":3740:3803   */\ntag_120:\n    /* \"#utility.yul\":3687:3809   */\n  pop\n  jump\t// out\n    /* \"#utility.yul\":3815:3958   */\ntag_58:\n    /* \"#utility.yul\":3872:3877   */\n  0x00\n    /* \"#utility.yul\":3903:3909   */\n  dup2\n    /* \"#utility.yul\":3897:3910   */\n  mload\n    /* \"#utility.yul\":3888:3910   */\n  swap1\n  pop\n    /* \"#utility.yul\":3919:3952   */\n  tag_122\n    /* \"#utility.yul\":3946:3951   */\n  dup2\n    /* \"#utility.yul\":3919:3952   */\n  tag_57\n  jump\t// in\ntag_122:\n    /* \"#utility.yul\":3815:3958   */\n  swap3\n  swap2\n  pop\n  pop\n  jump\t// out\n    /* \"#utility.yul\":3981:4713   */\ntag_59:\n    /* \"#utility.yul\":4088:4093   */\n  0x00\n    /* \"#utility.yul\":4113:4194   */\n  tag_124\n    /* \"#utility.yul\":4129:4193   */\n  tag_125\n    /* \"#utility.yul\":4186:4192   */\n  dup5\n    /* \"#utility.yul\":4129:4193   */\n  tag_55\n  jump\t// in\ntag_125:\n    /* \"#utility.yul\":4113:4194   */\n  tag_46\n  jump\t// in\ntag_124:\n    /* \"#utility.yul\":4104:4194   */\n  swap1\n  pop\n    /* \"#utility.yul\":4214:4219   */\n  dup1\n    /* \"#utility.yul\":4243:4249   */\n  dup4\n    /* \"#utility.yul\":4236:4241   */\n  dup3\n    /* \"#utility.yul\":4229:4250   */\n  mstore\n    /* \"#utility.yul\":4277:4281   */\n  0x20\n    /* \"#utility.yul\":4270:4275   */\n  dup3\n    /* \"#utility.yul\":4266:4282   */\n  add\n    /* \"#utility.yul\":4259:4282   */\n  swap1\n  pop\n    /* \"#utility.yul\":4330:4334   */\n  0x20\n    /* \"#utility.yul\":4322:4328   */\n  dup5\n    /* \"#utility.yul\":4318:4335   */\n  mul\n    /* \"#utility.yul\":4310:4316   */\n  dup4\n    /* \"#utility.yul\":4306:4336   */\n  add\n    /* \"#utility.yul\":4359:4362   */\n  dup6\n    /* \"#utility.yul\":4351:4357   */\n  dup2\n    /* \"#utility.yul\":4348:4363   */\n  gt\n    /* \"#utility.yul\":4345:4467   */\n  iszero\n  tag_126\n  jumpi\n    /* \"#utility.yul\":4378:4457   */\n  tag_127\n  tag_48\n  jump\t// in\ntag_127:\n    /* \"#utility.yul\":4345:4467   */\ntag_126:\n    /* \"#utility.yul\":4493:4499   */\n  dup4\n    /* \"#utility.yul\":4476:4707   */\ntag_128:\n    /* \"#utility.yul\":4510:4516   */\n  dup2\n    /* \"#utility.yul\":4505:4508   */\n  dup2\n    /* \"#utility.yul\":4502:4517   */\n  lt\n    /* \"#utility.yul\":4476:4707   */\n  iszero\n  tag_130\n  jumpi\n    /* \"#utility.yul\":4585:4588   */\n  dup1\n    /* \"#utility.yul\":4614:4662   */\n  tag_131\n    /* \"#utility.yul\":4658:4661   */\n  dup9\n    /* \"#utility.yul\":4646:4656   */\n  dup3\n    /* \"#utility.yul\":4614:4662   */\n  tag_58\n  jump\t// in\ntag_131:\n    /* \"#utility.yul\":4609:4612   */\n  dup5\n    /* \"#utility.yul\":4602:4663   */\n  mstore\n    /* \"#utility.yul\":4692:4696   */\n  0x20\n    /* \"#utility.yul\":4687:4690   */\n  dup5\n    /* \"#utility.yul\":4683:4697   */\n  add\n    /* \"#utility.yul\":4676:4697   */\n  swap4\n  pop\n    /* \"#utility.yul\":4552:4707   */\n  pop\n    /* \"#utility.yul\":4536:4540   */\n  0x20\n    /* \"#utility.yul\":4531:4534   */\n  dup2\n    /* \"#utility.yul\":4527:4541   */\n  add\n    /* \"#utility.yul\":4520:4541   */\n  swap1\n  pop\n    /* \"#utility.yul\":4476:4707   */\n  jump(tag_128)\ntag_130:\n    /* \"#utility.yul\":4480:4501   */\n  pop\n    /* \"#utility.yul\":4094:4713   */\n  pop\n  pop\n    /* \"#utility.yul\":3981:4713   */\n  swap4\n  swap3\n  pop\n  pop\n  pop\n  jump\t// out\n    /* \"#utility.yul\":4736:5121   */\ntag_60:\n    /* \"#utility.yul\":4818:4823   */\n  0x00\n    /* \"#utility.yul\":4867:4870   */\n  dup3\n    /* \"#utility.yul\":4860:4864   */\n  0x1f\n    /* \"#utility.yul\":4852:4858   */\n  dup4\n    /* \"#utility.yul\":4848:4865   */\n  add\n    /* \"#utility.yul\":4844:4871   */\n  slt\n    /* \"#utility.yul\":4834:4956   */\n  tag_133\n  jumpi\n    /* \"#utility.yul\":4875:4954   */\n  tag_134\n  tag_42\n  jump\t// in\ntag_134:\n    /* \"#utility.yul\":4834:4956   */\ntag_133:\n    /* \"#utility.yul\":4985:4991   */\n  dup2\n    /* \"#utility.yul\":4979:4992   */\n  mload\n    /* \"#utility.yul\":5010:5115   */\n  tag_135\n    /* \"#utility.yul\":5111:5114   */\n  dup5\n    /* \"#utility.yul\":5103:5109   */\n  dup3\n    /* \"#utility.yul\":5096:5100   */\n  0x20\n    /* \"#utility.yul\":5088:5094   */\n  dup7\n    /* \"#utility.yul\":5084:5101   */\n  add\n    /* \"#utility.yul\":5010:5115   */\n  tag_59\n  jump\t// in\ntag_135:\n    /* \"#utility.yul\":5001:5115   */\n  swap2\n  pop\n    /* \"#utility.yul\":4824:5121   */\n  pop\n    /* \"#utility.yul\":4736:5121   */\n  swap3\n  swap2\n  pop\n  pop\n  jump\t// out\n    /* \"#utility.yul\":5127:6040   */\ntag_2:\n    /* \"#utility.yul\":5256:5262   */\n  0x00\n    /* \"#utility.yul\":5264:5270   */\n  dup1\n    /* \"#utility.yul\":5313:5315   */\n  0x40\n    /* \"#utility.yul\":5301:5310   */\n  dup4\n    /* \"#utility.yul\":5292:5299   */\n  dup6\n    /* \"#utility.yul\":5288:5311   */\n  sub\n    /* \"#utility.yul\":5284:5316   */\n  slt\n    /* \"#utility.yul\":5281:5400   */\n  iszero\n  tag_137\n  jumpi\n    /* \"#utility.yul\":5319:5398   */\n  tag_138\n  tag_40\n  jump\t// in\ntag_138:\n    /* \"#utility.yul\":5281:5400   */\ntag_137:\n    /* \"#utility.yul\":5460:5461   */\n  0x00\n    /* \"#utility.yul\":5449:5458   */\n  dup4\n    /* \"#utility.yul\":5445:5462   */\n  add\n    /* \"#utility.yul\":5439:5463   */\n  mload\n    /* \"#utility.yul\":5490:5508   */\n  0xffffffffffffffff\n    /* \"#utility.yul\":5482:5488   */\n  dup2\n    /* \"#utility.yul\":5479:5509   */\n  gt\n    /* \"#utility.yul\":5476:5593   */\n  iszero\n  tag_139\n  jumpi\n    /* \"#utility.yul\":5512:5591   */\n  tag_140\n  tag_41\n  jump\t// in\ntag_140:\n    /* \"#utility.yul\":5476:5593   */\ntag_139:\n    /* \"#utility.yul\":5617:5706   */\n  tag_141\n    /* \"#utility.yul\":5698:5705   */\n  dup6\n    /* \"#utility.yul\":5689:5695   */\n  dup3\n    /* \"#utility.yul\":5678:5687   */\n  dup7\n    /* \"#utility.yul\":5674:5696   */\n  add\n    /* \"#utility.yul\":5617:5706   */\n  tag_54\n  jump\t// in\ntag_141:\n    /* \"#utility.yul\":5607:5706   */\n  swap3\n  pop\n    /* \"#utility.yul\":5410:5716   */\n  pop\n    /* \"#utility.yul\":5776:5778   */\n  0x20\n    /* \"#utility.yul\":5765:5774   */\n  dup4\n    /* \"#utility.yul\":5761:5779   */\n  add\n    /* \"#utility.yul\":5755:5780   */\n  mload\n    /* \"#utility.yul\":5807:5825   */\n  0xffffffffffffffff\n    /* \"#utility.yul\":5799:5805   */\n  dup2\n    /* \"#utility.yul\":5796:5826   */\n  gt\n    /* \"#utility.yul\":5793:5910   */\n  iszero\n  tag_142\n  jumpi\n    /* \"#utility.yul\":5829:5908   */\n  tag_143\n  tag_41\n  jump\t// in\ntag_143:\n    /* \"#utility.yul\":5793:5910   */\ntag_142:\n    /* \"#utility.yul\":5934:6023   */\n  tag_144\n    /* \"#utility.yul\":6015:6022   */\n  dup6\n    /* \"#utility.yul\":6006:6012   */\n  dup3\n    /* \"#utility.yul\":5995:6004   */\n  dup7\n    /* \"#utility.yul\":5991:6013   */\n  add\n    /* \"#utility.yul\":5934:6023   */\n  tag_60\n  jump\t// in\ntag_144:\n    /* \"#utility.yul\":5924:6023   */\n  swap2\n  pop\n    /* \"#utility.yul\":5726:6033   */\n  pop\n    /* \"#utility.yul\":5127:6040   */\n  swap3\n  pop\n  swap3\n  swap1\n  pop\n  jump\t// out\n    /* \"#utility.yul\":6046:6215   */\ntag_61:\n    /* \"#utility.yul\":6130:6141   */\n  0x00\n    /* \"#utility.yul\":6164:6170   */\n  dup3\n    /* \"#utility.yul\":6159:6162   */\n  dup3\n    /* \"#utility.yul\":6152:6171   */\n  mstore\n    /* \"#utility.yul\":6204:6208   */\n  0x20\n    /* \"#utility.yul\":6199:6202   */\n  dup3\n    /* \"#utility.yul\":6195:6209   */\n  add\n    /* \"#utility.yul\":6180:6209   */\n  swap1\n  pop\n    /* \"#utility.yul\":6046:6215   */\n  swap3\n  swap2\n  pop\n  pop\n  jump\t// out\n    /* \"#utility.yul\":6221:6458   */\ntag_62:\n    /* \"#utility.yul\":6361:6395   */\n  0x5061796d656e7453706c69747465723a2070617965657320616e642073686172\n    /* \"#utility.yul\":6357:6358   */\n  0x00\n    /* \"#utility.yul\":6349:6355   */\n  dup3\n    /* \"#utility.yul\":6345:6359   */\n  add\n    /* \"#utility.yul\":6338:6396   */\n  mstore\n    /* \"#utility.yul\":6430:6450   */\n  0x6573206c656e677468206d69736d617463680000000000000000000000000000\n    /* \"#utility.yul\":6425:6427   */\n  0x20\n    /* \"#utility.yul\":6417:6423   */\n  dup3\n    /* \"#utility.yul\":6413:6428   */\n  add\n    /* \"#utility.yul\":6406:6451   */\n  mstore\n    /* \"#utility.yul\":6221:6458   */\n  pop\n  jump\t// out\n    /* \"#utility.yul\":6464:6830   */\ntag_63:\n    /* \"#utility.yul\":6606:6609   */\n  0x00\n    /* \"#utility.yul\":6627:6694   */\n  tag_148\n    /* \"#utility.yul\":6691:6693   */\n  0x32\n    /* \"#utility.yul\":6686:6689   */\n  dup4\n    /* \"#utility.yul\":6627:6694   */\n  tag_61\n  jump\t// in\ntag_148:\n    /* \"#utility.yul\":6620:6694   */\n  swap2\n  pop\n    /* \"#utility.yul\":6703:6796   */\n  tag_149\n    /* \"#utility.yul\":6792:6795   */\n  dup3\n    /* \"#utility.yul\":6703:6796   */\n  tag_62\n  jump\t// in\ntag_149:\n    /* \"#utility.yul\":6821:6823   */\n  0x40\n    /* \"#utility.yul\":6816:6819   */\n  dup3\n    /* \"#utility.yul\":6812:6824   */\n  add\n    /* \"#utility.yul\":6805:6824   */\n  swap1\n  pop\n    /* \"#utility.yul\":6464:6830   */\n  swap2\n  swap1\n  pop\n  jump\t// out\n    /* \"#utility.yul\":6836:7255   */\ntag_7:\n    /* \"#utility.yul\":7002:7006   */\n  0x00\n    /* \"#utility.yul\":7040:7042   */\n  0x20\n    /* \"#utility.yul\":7029:7038   */\n  dup3\n    /* \"#utility.yul\":7025:7043   */\n  add\n    /* \"#utility.yul\":7017:7043   */\n  swap1\n  pop\n    /* \"#utility.yul\":7089:7098   */\n  dup2\n    /* \"#utility.yul\":7083:7087   */\n  dup2\n    /* \"#utility.yul\":7079:7099   */\n  sub\n    /* \"#utility.yul\":7075:7076   */\n  0x00\n    /* \"#utility.yul\":7064:7073   */\n  dup4\n    /* \"#utility.yul\":7060:7077   */\n  add\n    /* \"#utility.yul\":7053:7100   */\n  mstore\n    /* \"#utility.yul\":7117:7248   */\n  tag_151\n    /* \"#utility.yul\":7243:7247   */\n  dup2\n    /* \"#utility.yul\":7117:7248   */\n  tag_63\n  jump\t// in\ntag_151:\n    /* \"#utility.yul\":7109:7248   */\n  swap1\n  pop\n    /* \"#utility.yul\":6836:7255   */\n  swap2\n  swap1\n  pop\n  jump\t// out\n    /* \"#utility.yul\":7261:7437   */\ntag_64:\n    /* \"#utility.yul\":7401:7429   */\n  0x5061796d656e7453706c69747465723a206e6f20706179656573000000000000\n    /* \"#utility.yul\":7397:7398   */\n  0x00\n    /* \"#utility.yul\":7389:7395   */\n  dup3\n    /* \"#utility.yul\":7385:7399   */\n  add\n    /* \"#utility.yul\":7378:7430   */\n  mstore\n    /* \"#utility.yul\":7261:7437   */\n  pop\n  jump\t// out\n    /* \"#utility.yul\":7443:7809   */\ntag_65:\n    /* \"#utility.yul\":7585:7588   */\n  0x00\n    /* \"#utility.yul\":7606:7673   */\n  tag_154\n    /* \"#utility.yul\":7670:7672   */\n  0x1a\n    /* \"#utility.yul\":7665:7668   */\n  dup4\n    /* \"#utility.yul\":7606:7673   */\n  tag_61\n  jump\t// in\ntag_154:\n    /* \"#utility.yul\":7599:7673   */\n  swap2\n  pop\n    /* \"#utility.yul\":7682:7775   */\n  tag_155\n    /* \"#utility.yul\":7771:7774   */\n  dup3\n    /* \"#utility.yul\":7682:7775   */\n  tag_64\n  jump\t// in\ntag_155:\n    /* \"#utility.yul\":7800:7802   */\n  0x20\n    /* \"#utility.yul\":7795:7798   */\n  dup3\n    /* \"#utility.yul\":7791:7803   */\n  add\n    /* \"#utility.yul\":7784:7803   */\n  swap1\n  pop\n    /* \"#utility.yul\":7443:7809   */\n  swap2\n  swap1\n  pop\n  jump\t// out\n    /* \"#utility.yul\":7815:8234   */\ntag_10:\n    /* \"#utility.yul\":7981:7985   */\n  0x00\n    /* \"#utility.yul\":8019:8021   */\n  0x20\n    /* \"#utility.yul\":8008:8017   */\n  dup3\n    /* \"#utility.yul\":8004:8022   */\n  add\n    /* \"#utility.yul\":7996:8022   */\n  swap1\n  pop\n    /* \"#utility.yul\":8068:8077   */\n  dup2\n    /* \"#utility.yul\":8062:8066   */\n  dup2\n    /* \"#utility.yul\":8058:8078   */\n  sub\n    /* \"#utility.yul\":8054:8055   */\n  0x00\n    /* \"#utility.yul\":8043:8052   */\n  dup4\n    /* \"#utility.yul\":8039:8056   */\n  add\n    /* \"#utility.yul\":8032:8079   */\n  mstore\n    /* \"#utility.yul\":8096:8227   */\n  tag_157\n    /* \"#utility.yul\":8222:8226   */\n  dup2\n    /* \"#utility.yul\":8096:8227   */\n  tag_65\n  jump\t// in\ntag_157:\n    /* \"#utility.yul\":8088:8227   */\n  swap1\n  pop\n    /* \"#utility.yul\":7815:8234   */\n  swap2\n  swap1\n  pop\n  jump\t// out\n    /* \"#utility.yul\":8240:8420   */\ntag_17:\n    /* \"#utility.yul\":8288:8365   */\n  0x4e487b7100000000000000000000000000000000000000000000000000000000\n    /* \"#utility.yul\":8285:8286   */\n  0x00\n    /* \"#utility.yul\":8278:8366   */\n  mstore\n    /* \"#utility.yul\":8385:8389   */\n  0x32\n    /* \"#utility.yul\":8382:8383   */\n  0x04\n    /* \"#utility.yul\":8375:8390   */\n  mstore\n    /* \"#utility.yul\":8409:8413   */\n  0x24\n    /* \"#utility.yul\":8406:8407   */\n  0x00\n    /* \"#utility.yul\":8399:8414   */\n  revert\n    /* \"#utility.yul\":8426:8606   */\ntag_66:\n    /* \"#utility.yul\":8474:8551   */\n  0x4e487b7100000000000000000000000000000000000000000000000000000000\n    /* \"#utility.yul\":8471:8472   */\n  0x00\n    /* \"#utility.yul\":8464:8552   */\n  mstore\n    /* \"#utility.yul\":8571:8575   */\n  0x11\n    /* \"#utility.yul\":8568:8569   */\n  0x04\n    /* \"#utility.yul\":8561:8576   */\n  mstore\n    /* \"#utility.yul\":8595:8599   */\n  0x24\n    /* \"#utility.yul\":8592:8593   */\n  0x00\n    /* \"#utility.yul\":8585:8600   */\n  revert\n    /* \"#utility.yul\":8612:8845   */\ntag_22:\n    /* \"#utility.yul\":8651:8654   */\n  0x00\n    /* \"#utility.yul\":8674:8698   */\n  tag_161\n    /* \"#utility.yul\":8692:8697   */\n  dup3\n    /* \"#utility.yul\":8674:8698   */\n  tag_56\n  jump\t// in\ntag_161:\n    /* \"#utility.yul\":8665:8698   */\n  swap2\n  pop\n    /* \"#utility.yul\":8720:8786   */\n  0xffffffffffffffffffffffffffffffffffffffffffffffffffffffffffffffff\n    /* \"#utility.yul\":8713:8718   */\n  dup3\n    /* \"#utility.yul\":8710:8787   */\n  eq\n    /* \"#utility.yul\":8707:8810   */\n  iszero\n  tag_162\n  jumpi\n    /* \"#utility.yul\":8790:8808   */\n  tag_163\n  tag_66\n  jump\t// in\ntag_163:\n    /* \"#utility.yul\":8707:8810   */\ntag_162:\n    /* \"#utility.yul\":8837:8838   */\n  0x01\n    /* \"#utility.yul\":8830:8835   */\n  dup3\n    /* \"#utility.yul\":8826:8839   */\n  add\n    /* \"#utility.yul\":8819:8839   */\n  swap1\n  pop\n    /* \"#utility.yul\":8612:8845   */\n  swap2\n  swap1\n  pop\n  jump\t// out\n    /* \"#utility.yul\":8851:9082   */\ntag_67:\n    /* \"#utility.yul\":8991:9025   */\n  0x5061796d656e7453706c69747465723a206163636f756e742069732074686520\n    /* \"#utility.yul\":8987:8988   */\n  0x00\n    /* \"#utility.yul\":8979:8985   */\n  dup3\n    /* \"#utility.yul\":8975:8989   */\n  add\n    /* \"#utility.yul\":8968:9026   */\n  mstore\n    /* \"#utility.yul\":9060:9074   */\n  0x7a65726f20616464726573730000000000000000000000000000000000000000\n    /* \"#utility.yul\":9055:9057   */\n  0x20\n    /* \"#utility.yul\":9047:9053   */\n  dup3\n    /* \"#utility.yul\":9043:9058   */\n  add\n    /* \"#utility.yul\":9036:9075   */\n  mstore\n    /* \"#utility.yul\":8851:9082   */\n  pop\n  jump\t// out\n    /* \"#utility.yul\":9088:9454   */\ntag_68:\n    /* \"#utility.yul\":9230:9233   */\n  0x00\n    /* \"#utility.yul\":9251:9318   */\n  tag_166\n    /* \"#utility.yul\":9315:9317   */\n  0x2c\n    /* \"#utility.yul\":9310:9313   */\n  dup4\n    /* \"#utility.yul\":9251:9318   */\n  tag_61\n  jump\t// in\ntag_166:\n    /* \"#utility.yul\":9244:9318   */\n  swap2\n  pop\n    /* \"#utility.yul\":9327:9420   */\n  tag_167\n    /* \"#utility.yul\":9416:9419   */\n  dup3\n    /* \"#utility.yul\":9327:9420   */\n  tag_67\n  jump\t// in\ntag_167:\n    /* \"#utility.yul\":9445:9447   */\n  0x40\n    /* \"#utility.yul\":9440:9443   */\n  dup3\n    /* \"#utility.yul\":9436:9448   */\n  add\n    /* \"#utility.yul\":9429:9448   */\n  swap1\n  pop\n    /* \"#utility.yul\":9088:9454   */\n  swap2\n  swap1\n  pop\n  jump\t// out\n    /* \"#utility.yul\":9460:9879   */\ntag_27:\n    /* \"#utility.yul\":9626:9630   */\n  0x00\n    /* \"#utility.yul\":9664:9666   */\n  0x20\n    /* \"#utility.yul\":9653:9662   */\n  dup3\n    /* \"#utility.yul\":9649:9667   */\n  add\n    /* \"#utility.yul\":9641:9667   */\n  swap1\n  pop\n    /* \"#utility.yul\":9713:9722   */\n  dup2\n    /* \"#utility.yul\":9707:9711   */\n  dup2\n    /* \"#utility.yul\":9703:9723   */\n  sub\n    /* \"#utility.yul\":9699:9700   */\n  0x00\n    /* \"#utility.yul\":9688:9697   */\n  dup4\n    /* \"#utility.yul\":9684:9701   */\n  add\n    /* \"#utility.yul\":9677:9724   */\n  mstore\n    /* \"#utility.yul\":9741:9872   */\n  tag_169\n    /* \"#utility.yul\":9867:9871   */\n  dup2\n    /* \"#utility.yul\":9741:9872   */\n  tag_68\n  jump\t// in\ntag_169:\n    /* \"#utility.yul\":9733:9872   */\n  swap1\n  pop\n    /* \"#utility.yul\":9460:9879   */\n  swap2\n  swap1\n  pop\n  jump\t// out\n    /* \"#utility.yul\":9885:10064   */\ntag_69:\n    /* \"#utility.yul\":10025:10056   */\n  0x5061796d656e7453706c69747465723a20736861726573206172652030000000\n    /* \"#utility.yul\":10021:10022   */\n  0x00\n    /* \"#utility.yul\":10013:10019   */\n  dup3\n    /* \"#utility.yul\":10009:10023   */\n  add\n    /* \"#utility.yul\":10002:10057   */\n  mstore\n    /* \"#utility.yul\":9885:10064   */\n  pop\n  jump\t// out\n    /* \"#utility.yul\":10070:10436   */\ntag_70:\n    /* \"#utility.yul\":10212:10215   */\n  0x00\n    /* \"#utility.yul\":10233:10300   */\n  tag_172\n    /* \"#utility.yul\":10297:10299   */\n  0x1d\n    /* \"#utility.yul\":10292:10295   */\n  dup4\n    /* \"#utility.yul\":10233:10300   */\n  tag_61\n  jump\t// in\ntag_172:\n    /* \"#utility.yul\":10226:10300   */\n  swap2\n  pop\n    /* \"#utility.yul\":10309:10402   */\n  tag_173\n    /* \"#utility.yul\":10398:10401   */\n  dup3\n    /* \"#utility.yul\":10309:10402   */\n  tag_69\n  jump\t// in\ntag_173:\n    /* \"#utility.yul\":10427:10429   */\n  0x20\n    /* \"#utility.yul\":10422:10425   */\n  dup3\n    /* \"#utility.yul\":10418:10430   */\n  add\n    /* \"#utility.yul\":10411:10430   */\n  swap1\n  pop\n    /* \"#utility.yul\":10070:10436   */\n  swap2\n  swap1\n  pop\n  jump\t// out\n    /* \"#utility.yul\":10442:10861   */\ntag_30:\n    /* \"#utility.yul\":10608:10612   */\n  0x00\n    /* \"#utility.yul\":10646:10648   */\n  0x20\n    /* \"#utility.yul\":10635:10644   */\n  dup3\n    /* \"#utility.yul\":10631:10649   */\n  add\n    /* \"#utility.yul\":10623:10649   */\n  swap1\n  pop\n    /* \"#utility.yul\":10695:10704   */\n  dup2\n    /* \"#utility.yul\":10689:10693   */\n  dup2\n    /* \"#utility.yul\":10685:10705   */\n  sub\n    /* \"#utility.yul\":10681:10682   */\n  0x00\n    /* \"#utility.yul\":10670:10679   */\n  dup4\n    /* \"#utility.yul\":10666:10683   */\n  add\n    /* \"#utility.yul\":10659:10706   */\n  mstore\n    /* \"#utility.yul\":10723:10854   */\n  tag_175\n    /* \"#utility.yul\":10849:10853   */\n  dup2\n    /* \"#utility.yul\":10723:10854   */\n  tag_70\n  jump\t// in\ntag_175:\n    /* \"#utility.yul\":10715:10854   */\n  swap1\n  pop\n    /* \"#utility.yul\":10442:10861   */\n  swap2\n  swap1\n  pop\n  jump\t// out\n    /* \"#utility.yul\":10867:11097   */\ntag_71:\n    /* \"#utility.yul\":11007:11041   */\n  0x5061796d656e7453706c69747465723a206163636f756e7420616c7265616479\n    /* \"#utility.yul\":11003:11004   */\n  0x00\n    /* \"#utility.yul\":10995:11001   */\n  dup3\n    /* \"#utility.yul\":10991:11005   */\n  add\n    /* \"#utility.yul\":10984:11042   */\n  mstore\n    /* \"#utility.yul\":11076:11089   */\n  0x2068617320736861726573000000000000000000000000000000000000000000\n    /* \"#utility.yul\":11071:11073   */\n  0x20\n    /* \"#utility.yul\":11063:11069   */\n  dup3\n    /* \"#utility.yul\":11059:11074   */\n  add\n    /* \"#utility.yul\":11052:11090   */\n  mstore\n    /* \"#utility.yul\":10867:11097   */\n  pop\n  jump\t// out\n    /* \"#utility.yul\":11103:11469   */\ntag_72:\n    /* \"#utility.yul\":11245:11248   */\n  0x00\n    /* \"#utility.yul\":11266:11333   */\n  tag_178\n    /* \"#utility.yul\":11330:11332   */\n  0x2b\n    /* \"#utility.yul\":11325:11328   */\n  dup4\n    /* \"#utility.yul\":11266:11333   */\n  tag_61\n  jump\t// in\ntag_178:\n    /* \"#utility.yul\":11259:11333   */\n  swap2\n  pop\n    /* \"#utility.yul\":11342:11435   */\n  tag_179\n    /* \"#utility.yul\":11431:11434   */\n  dup3\n    /* \"#utility.yul\":11342:11435   */\n  tag_71\n  jump\t// in\ntag_179:\n    /* \"#utility.yul\":11460:11462   */\n  0x40\n    /* \"#utility.yul\":11455:11458   */\n  dup3\n    /* \"#utility.yul\":11451:11463   */\n  add\n    /* \"#utility.yul\":11444:11463   */\n  swap1\n  pop\n    /* \"#utility.yul\":11103:11469   */\n  swap2\n  swap1\n  pop\n  jump\t// out\n    /* \"#utility.yul\":11475:11894   */\ntag_33:\n    /* \"#utility.yul\":11641:11645   */\n  0x00\n    /* \"#utility.yul\":11679:11681   */\n  0x20\n    /* \"#utility.yul\":11668:11677   */\n  dup3\n    /* \"#utility.yul\":11664:11682   */\n  add\n    /* \"#utility.yul\":11656:11682   */\n  swap1\n  pop\n    /* \"#utility.yul\":11728:11737   */\n  dup2\n    /* \"#utility.yul\":11722:11726   */\n  dup2\n    /* \"#utility.yul\":11718:11738   */\n  sub\n    /* \"#utility.yul\":11714:11715   */\n  0x00\n    /* \"#utility.yul\":11703:11712   */\n  dup4\n    /* \"#utility.yul\":11699:11716   */\n  add\n    /* \"#utility.yul\":11692:11739   */\n  mstore\n    /* \"#utility.yul\":11756:11887   */\n  tag_181\n    /* \"#utility.yul\":11882:11886   */\n  dup2\n    /* \"#utility.yul\":11756:11887   */\n  tag_72\n  jump\t// in\ntag_181:\n    /* \"#utility.yul\":11748:11887   */\n  swap1\n  pop\n    /* \"#utility.yul\":11475:11894   */\n  swap2\n  swap1\n  pop\n  jump\t// out\n    /* \"#utility.yul\":11900:12205   */\ntag_36:\n    /* \"#utility.yul\":11940:11943   */\n  0x00\n    /* \"#utility.yul\":11959:11979   */\n  tag_183\n    /* \"#utility.yul\":11977:11978   */\n  dup3\n    /* \"#utility.yul\":11959:11979   */\n  tag_56\n  jump\t// in\ntag_183:\n    /* \"#utility.yul\":11954:11979   */\n  swap2\n  pop\n    /* \"#utility.yul\":11993:12013   */\n  tag_184\n    /* \"#utility.yul\":12011:12012   */\n  dup4\n    /* \"#utility.yul\":11993:12013   */\n  tag_56\n  jump\t// in\ntag_184:\n    /* \"#utility.yul\":11988:12013   */\n  swap3\n  pop\n    /* \"#utility.yul\":12147:12148   */\n  dup3\n    /* \"#utility.yul\":12079:12145   */\n  0xffffffffffffffffffffffffffffffffffffffffffffffffffffffffffffffff\n    /* \"#utility.yul\":12075:12149   */\n  sub\n    /* \"#utility.yul\":12072:12073   */\n  dup3\n    /* \"#utility.yul\":12069:12150   */\n  gt\n    /* \"#utility.yul\":12066:12173   */\n  iszero\n  tag_185\n  jumpi\n    /* \"#utility.yul\":12153:12171   */\n  tag_186\n  tag_66\n  jump\t// in\ntag_186:\n    /* \"#utility.yul\":12066:12173   */\ntag_185:\n    /* \"#utility.yul\":12197:12198   */\n  dup3\n    /* \"#utility.yul\":12194:12195   */\n  dup3\n    /* \"#utility.yul\":12190:12199   */\n  add\n    /* \"#utility.yul\":12183:12199   */\n  swap1\n  pop\n    /* \"#utility.yul\":11900:12205   */\n  swap3\n  swap2\n  pop\n  pop\n  jump\t// out\n    /* \"#utility.yul\":12211:12329   */\ntag_73:\n    /* \"#utility.yul\":12298:12322   */\n  tag_188\n    /* \"#utility.yul\":12316:12321   */\n  dup2\n    /* \"#utility.yul\":12298:12322   */\n  tag_50\n  jump\t// in\ntag_188:\n    /* \"#utility.yul\":12293:12296   */\n  dup3\n    /* \"#utility.yul\":12286:12323   */\n  mstore\n    /* \"#utility.yul\":12211:12329   */\n  pop\n  pop\n  jump\t// out\n    /* \"#utility.yul\":12335:12453   */\ntag_74:\n    /* \"#utility.yul\":12422:12446   */\n  tag_190\n    /* \"#utility.yul\":12440:12445   */\n  dup2\n    /* \"#utility.yul\":12422:12446   */\n  tag_56\n  jump\t// in\ntag_190:\n    /* \"#utility.yul\":12417:12420   */\n  dup3\n    /* \"#utility.yul\":12410:12447   */\n  mstore\n    /* \"#utility.yul\":12335:12453   */\n  pop\n  pop\n  jump\t// out\n    /* \"#utility.yul\":12459:12791   */\ntag_38:\n    /* \"#utility.yul\":12580:12584   */\n  0x00\n    /* \"#utility.yul\":12618:12620   */\n  0x40\n    /* \"#utility.yul\":12607:12616   */\n  dup3\n    /* \"#utility.yul\":12603:12621   */\n  add\n    /* \"#utility.yul\":12595:12621   */\n  swap1\n  pop\n    /* \"#utility.yul\":12631:12702   */\n  tag_192\n    /* \"#utility.yul\":12699:12700   */\n  0x00\n    /* \"#utility.yul\":12688:12697   */\n  dup4\n    /* \"#utility.yul\":12684:12701   */\n  add\n    /* \"#utility.yul\":12675:12681   */\n  dup6\n    /* \"#utility.yul\":12631:12702   */\n  tag_73\n  jump\t// in\ntag_192:\n    /* \"#utility.yul\":12712:12784   */\n  tag_193\n    /* \"#utility.yul\":12780:12782   */\n  0x20\n    /* \"#utility.yul\":12769:12778   */\n  dup4\n    /* \"#utility.yul\":12765:12783   */\n  add\n    /* \"#utility.yul\":12756:12762   */\n  dup5\n    /* \"#utility.yul\":12712:12784   */\n  tag_74\n  jump\t// in\ntag_193:\n    /* \"#utility.yul\":12459:12791   */\n  swap4\n  swap3\n  pop\n  pop\n  pop\n  jump\t// out\n    /* \"contracts/fund.sol\":145:2414  contract PaymentSplit{... */\ntag_23:\n  dataSize(sub_0)\n  dup1\n  dataOffset(sub_0)\n  0x00\n  codecopy\n  0x00\n  return\nstop\n\nsub_0: assembly {\n        /* \"contracts/fund.sol\":145:2414  contract PaymentSplit{... */\n      mstore(0x40, 0x80)\n      jumpi(tag_1, lt(calldatasize, 0x04))\n      shr(0xe0, calldataload(0x00))\n      dup1\n      0x9852595c\n      gt\n      tag_11\n      jumpi\n      dup1\n      0x9852595c\n      eq\n      tag_7\n      jumpi\n      dup1\n      0xa3f8eace\n      eq\n      tag_8\n      jumpi\n      dup1\n      0xce7c2ac2\n      eq\n      tag_9\n      jumpi\n      dup1\n      0xe33b7de3\n      eq\n      tag_10\n      jumpi\n      jump(tag_2)\n    tag_11:\n      dup1\n      0x19165587\n      eq\n      tag_3\n      jumpi\n      dup1\n      0x1b51003d\n      eq\n      tag_4\n      jumpi\n      dup1\n      0x3a98ef39\n      eq\n      tag_5\n      jumpi\n      dup1\n      0x63037b0c\n      eq\n      tag_6\n      jumpi\n      jump(tag_2)\n    tag_1:\n      jumpi(tag_2, calldatasize)\n        /* \"contracts/fund.sol\":961:999  PaymentReceived(msg.sender, msg.value) */\n      0x6ef95f06320e7a25a04a175ca677b7052bdd97131872c2192525a629f51be770\n        /* \"contracts/fund.sol\":977:987  msg.sender */\n      caller\n        /* \"contracts/fund.sol\":989:998  msg.value */\n      callvalue\n        /* \"contracts/fund.sol\":961:999  PaymentReceived(msg.sender, msg.value) */\n      mload(0x40)\n      tag_14\n      swap3\n      swap2\n      swap1\n      tag_15\n      jump\t// in\n    tag_14:\n      mload(0x40)\n      dup1\n      swap2\n      sub\n      swap1\n      log1\n        /* \"contracts/fund.sol\":145:2414  contract PaymentSplit{... */\n      stop\n    tag_2:\n      0x00\n      dup1\n      revert\n        /* \"contracts/fund.sol\":1012:1442  function release(address payable _account) public virtual {... */\n    tag_3:\n      callvalue\n      dup1\n      iszero\n      tag_16\n      jumpi\n      0x00\n      dup1\n      revert\n    tag_16:\n      pop\n      tag_17\n      0x04\n      dup1\n      calldatasize\n      sub\n      dup2\n      add\n      swap1\n      tag_18\n      swap2\n      swap1\n      tag_19\n      jump\t// in\n    tag_18:\n      tag_20\n      jump\t// in\n    tag_17:\n      stop\n        /* \"contracts/fund.sol\":1676:1920  function pendingPayment(... */\n    tag_4:\n      callvalue\n      dup1\n      iszero\n      tag_21\n      jumpi\n      0x00\n      dup1\n      revert\n    tag_21:\n      pop\n      tag_22\n      0x04\n      dup1\n      calldatasize\n      sub\n      dup2\n      add\n      swap1\n      tag_23\n      swap2\n      swap1\n      tag_24\n      jump\t// in\n    tag_23:\n      tag_25\n      jump\t// in\n    tag_22:\n      mload(0x40)\n      tag_26\n      swap2\n      swap1\n      tag_27\n      jump\t// in\n    tag_26:\n      mload(0x40)\n      dup1\n      swap2\n      sub\n      swap1\n      return\n        /* \"contracts/fund.sol\":344:370  uint256 public totalShares */\n    tag_5:\n      callvalue\n      dup1\n      iszero\n      tag_28\n      jumpi\n      0x00\n      dup1\n      revert\n    tag_28:\n      pop\n      tag_29\n      tag_30\n      jump\t// in\n    tag_29:\n      mload(0x40)\n      tag_31\n      swap2\n      swap1\n      tag_27\n      jump\t// in\n    tag_31:\n      mload(0x40)\n      dup1\n      swap2\n      sub\n      swap1\n      return\n        /* \"contracts/fund.sol\":511:534  address[] public payees */\n    tag_6:\n      callvalue\n      dup1\n      iszero\n      tag_32\n      jumpi\n      0x00\n      dup1\n      revert\n    tag_32:\n      pop\n      tag_33\n      0x04\n      dup1\n      calldatasize\n      sub\n      dup2\n      add\n      swap1\n      tag_34\n      swap2\n      swap1\n      tag_35\n      jump\t// in\n    tag_34:\n      tag_36\n      jump\t// in\n    tag_33:\n      mload(0x40)\n      tag_37\n      swap2\n      swap1\n      tag_38\n      jump\t// in\n    tag_37:\n      mload(0x40)\n      dup1\n      swap2\n      sub\n      swap1\n      return\n        /* \"contracts/fund.sol\":461:504  mapping(address => uint256) public released */\n    tag_7:\n      callvalue\n      dup1\n      iszero\n      tag_39\n      jumpi\n      0x00\n      dup1\n      revert\n    tag_39:\n      pop\n      tag_40\n      0x04\n      dup1\n      calldatasize\n      sub\n      dup2\n      add\n      swap1\n      tag_41\n      swap2\n      swap1\n      tag_42\n      jump\t// in\n    tag_41:\n      tag_43\n      jump\t// in\n    tag_40:\n      mload(0x40)\n      tag_44\n      swap2\n      swap1\n      tag_27\n      jump\t// in\n    tag_44:\n      mload(0x40)\n      dup1\n      swap2\n      sub\n      swap1\n      return\n        /* \"contracts/fund.sol\":1448:1670  function releasable(address _account) public view returns (uint256) {... */\n    tag_8:\n      callvalue\n      dup1\n      iszero\n      tag_45\n      jumpi\n      0x00\n      dup1\n      revert\n    tag_45:\n      pop\n      tag_46\n      0x04\n      dup1\n      calldatasize\n      sub\n      dup2\n      add\n      swap1\n      tag_47\n      swap2\n      swap1\n      tag_42\n      jump\t// in\n    tag_47:\n      tag_48\n      jump\t// in\n    tag_46:\n      mload(0x40)\n      tag_49\n      swap2\n      swap1\n      tag_27\n      jump\t// in\n    tag_49:\n      mload(0x40)\n      dup1\n      swap2\n      sub\n      swap1\n      return\n        /* \"contracts/fund.sol\":413:454  mapping(address => uint256) public shares */\n    tag_9:\n      callvalue\n      dup1\n      iszero\n      tag_50\n      jumpi\n      0x00\n      dup1\n      revert\n    tag_50:\n      pop\n      tag_51\n      0x04\n      dup1\n      calldatasize\n      sub\n      dup2\n      add\n      swap1\n      tag_52\n      swap2\n      swap1\n      tag_42\n      jump\t// in\n    tag_52:\n      tag_53\n      jump\t// in\n    tag_51:\n      mload(0x40)\n      tag_54\n      swap2\n      swap1\n      tag_27\n      jump\t// in\n    tag_54:\n      mload(0x40)\n      dup1\n      swap2\n      sub\n      swap1\n      return\n        /* \"contracts/fund.sol\":377:405  uint256 public totalReleased */\n    tag_10:\n      callvalue\n      dup1\n      iszero\n      tag_55\n      jumpi\n      0x00\n      dup1\n      revert\n    tag_55:\n      pop\n      tag_56\n      tag_57\n      jump\t// in\n    tag_56:\n      mload(0x40)\n      tag_58\n      swap2\n      swap1\n      tag_27\n      jump\t// in\n    tag_58:\n      mload(0x40)\n      dup1\n      swap2\n      sub\n      swap1\n      return\n        /* \"contracts/fund.sol\":1012:1442  function release(address payable _account) public virtual {... */\n    tag_20:\n        /* \"contracts/fund.sol\":1107:1108  0 */\n      0x00\n        /* \"contracts/fund.sol\":1088:1094  shares */\n      0x02\n        /* \"contracts/fund.sol\":1088:1104  shares[_account] */\n      0x00\n        /* \"contracts/fund.sol\":1095:1103  _account */\n      dup4\n        /* \"contracts/fund.sol\":1088:1104  shares[_account] */\n      0xffffffffffffffffffffffffffffffffffffffff\n      and\n      0xffffffffffffffffffffffffffffffffffffffff\n      and\n      dup2\n      mstore\n      0x20\n      add\n      swap1\n      dup2\n      mstore\n      0x20\n      add\n      0x00\n      keccak256\n      sload\n        /* \"contracts/fund.sol\":1088:1108  shares[_account] > 0 */\n      gt\n        /* \"contracts/fund.sol\":1080:1151  require(shares[_account] > 0, \"PaymentSplitter: account has no shares\") */\n      tag_60\n      jumpi\n      mload(0x40)\n      0x08c379a000000000000000000000000000000000000000000000000000000000\n      dup2\n      mstore\n      0x04\n      add\n      tag_61\n      swap1\n      tag_62\n      jump\t// in\n    tag_61:\n      mload(0x40)\n      dup1\n      swap2\n      sub\n      swap1\n      revert\n    tag_60:\n        /* \"contracts/fund.sol\":1161:1176  uint256 payment */\n      0x00\n        /* \"contracts/fund.sol\":1179:1199  releasable(_account) */\n      tag_63\n        /* \"contracts/fund.sol\":1190:1198  _account */\n      dup3\n        /* \"contracts/fund.sol\":1179:1189  releasable */\n      tag_48\n        /* \"contracts/fund.sol\":1179:1199  releasable(_account) */\n      jump\t// in\n    tag_63:\n        /* \"contracts/fund.sol\":1161:1199  uint256 payment = releasable(_account) */\n      swap1\n      pop\n        /* \"contracts/fund.sol\":1228:1229  0 */\n      0x00\n        /* \"contracts/fund.sol\":1217:1224  payment */\n      dup2\n        /* \"contracts/fund.sol\":1217:1229  payment != 0 */\n      eq\n      iszero\n        /* \"contracts/fund.sol\":1209:1277  require(payment != 0, \"PaymentSplitter: account is not due payment\") */\n      tag_64\n      jumpi\n      mload(0x40)\n      0x08c379a000000000000000000000000000000000000000000000000000000000\n      dup2\n      mstore\n      0x04\n      add\n      tag_65\n      swap1\n      tag_66\n      jump\t// in\n    tag_65:\n      mload(0x40)\n      dup1\n      swap2\n      sub\n      swap1\n      revert\n    tag_64:\n        /* \"contracts/fund.sol\":1304:1311  payment */\n      dup1\n        /* \"contracts/fund.sol\":1287:1300  totalReleased */\n      0x01\n      0x00\n        /* \"contracts/fund.sol\":1287:1311  totalReleased += payment */\n      dup3\n      dup3\n      sload\n      tag_67\n      swap2\n      swap1\n      tag_68\n      jump\t// in\n    tag_67:\n      swap3\n      pop\n      pop\n      dup2\n      swap1\n      sstore\n      pop\n        /* \"contracts/fund.sol\":1343:1350  payment */\n      dup1\n        /* \"contracts/fund.sol\":1321:1329  released */\n      0x03\n        /* \"contracts/fund.sol\":1321:1339  released[_account] */\n      0x00\n        /* \"contracts/fund.sol\":1330:1338  _account */\n      dup5\n        /* \"contracts/fund.sol\":1321:1339  released[_account] */\n      0xffffffffffffffffffffffffffffffffffffffff\n      and\n      0xffffffffffffffffffffffffffffffffffffffff\n      and\n      dup2\n      mstore\n      0x20\n      add\n      swap1\n      dup2\n      mstore\n      0x20\n      add\n      0x00\n      keccak256\n      0x00\n        /* \"contracts/fund.sol\":1321:1350  released[_account] += payment */\n      dup3\n      dup3\n      sload\n      tag_69\n      swap2\n      swap1\n      tag_68\n      jump\t// in\n    tag_69:\n      swap3\n      pop\n      pop\n      dup2\n      swap1\n      sstore\n      pop\n        /* \"contracts/fund.sol\":1360:1368  _account */\n      dup2\n        /* \"contracts/fund.sol\":1360:1377  _account.transfer */\n      0xffffffffffffffffffffffffffffffffffffffff\n      and\n        /* \"contracts/fund.sol\":1360:1386  _account.transfer(payment) */\n      0x08fc\n        /* \"contracts/fund.sol\":1378:1385  payment */\n      dup3\n        /* \"contracts/fund.sol\":1360:1386  _account.transfer(payment) */\n      swap1\n      dup2\n      iszero\n      mul\n      swap1\n      mload(0x40)\n      0x00\n      mload(0x40)\n      dup1\n      dup4\n      sub\n      dup2\n      dup6\n      dup9\n      dup9\n      call\n      swap4\n      pop\n      pop\n      pop\n      pop\n      iszero\n      dup1\n      iszero\n      tag_71\n      jumpi\n      returndatasize\n      0x00\n      dup1\n      returndatacopy\n      revert(0x00, returndatasize)\n    tag_71:\n      pop\n        /* \"contracts/fund.sol\":1401:1435  PaymentReleased(_account, payment) */\n      0xdf20fd1e76bc69d672e4814fafb2c449bba3a5369d8359adf9e05e6fde87b056\n        /* \"contracts/fund.sol\":1417:1425  _account */\n      dup3\n        /* \"contracts/fund.sol\":1427:1434  payment */\n      dup3\n        /* \"contracts/fund.sol\":1401:1435  PaymentReleased(_account, payment) */\n      mload(0x40)\n      tag_72\n      swap3\n      swap2\n      swap1\n      tag_73\n      jump\t// in\n    tag_72:\n      mload(0x40)\n      dup1\n      swap2\n      sub\n      swap1\n      log1\n        /* \"contracts/fund.sol\":1070:1442  {... */\n      pop\n        /* \"contracts/fund.sol\":1012:1442  function release(address payable _account) public virtual {... */\n      pop\n      jump\t// out\n        /* \"contracts/fund.sol\":1676:1920  function pendingPayment(... */\n    tag_25:\n        /* \"contracts/fund.sol\":1819:1826  uint256 */\n      0x00\n        /* \"contracts/fund.sol\":1897:1913  _alreadyReleased */\n      dup2\n        /* \"contracts/fund.sol\":1883:1894  totalShares */\n      sload(0x00)\n        /* \"contracts/fund.sol\":1863:1869  shares */\n      0x02\n        /* \"contracts/fund.sol\":1863:1879  shares[_account] */\n      0x00\n        /* \"contracts/fund.sol\":1870:1878  _account */\n      dup8\n        /* \"contracts/fund.sol\":1863:1879  shares[_account] */\n      0xffffffffffffffffffffffffffffffffffffffff\n      and\n      0xffffffffffffffffffffffffffffffffffffffff\n      and\n      dup2\n      mstore\n      0x20\n      add\n      swap1\n      dup2\n      mstore\n      0x20\n      add\n      0x00\n      keccak256\n      sload\n        /* \"contracts/fund.sol\":1846:1860  _totalReceived */\n      dup6\n        /* \"contracts/fund.sol\":1846:1879  _totalReceived * shares[_account] */\n      tag_75\n      swap2\n      swap1\n      tag_76\n      jump\t// in\n    tag_75:\n        /* \"contracts/fund.sol\":1845:1894  (_totalReceived * shares[_account]) / totalShares */\n      tag_77\n      swap2\n      swap1\n      tag_78\n      jump\t// in\n    tag_77:\n        /* \"contracts/fund.sol\":1845:1913  (_totalReceived * shares[_account]) / totalShares - _alreadyReleased */\n      tag_79\n      swap2\n      swap1\n      tag_80\n      jump\t// in\n    tag_79:\n        /* \"contracts/fund.sol\":1838:1913  return (_totalReceived * shares[_account]) / totalShares - _alreadyReleased */\n      swap1\n      pop\n        /* \"contracts/fund.sol\":1676:1920  function pendingPayment(... */\n      swap4\n      swap3\n      pop\n      pop\n      pop\n      jump\t// out\n        /* \"contracts/fund.sol\":344:370  uint256 public totalShares */\n    tag_30:\n      sload(0x00)\n      dup2\n      jump\t// out\n        /* \"contracts/fund.sol\":511:534  address[] public payees */\n    tag_36:\n      0x04\n      dup2\n      dup2\n      sload\n      dup2\n      lt\n      tag_81\n      jumpi\n      0x00\n      dup1\n      revert\n    tag_81:\n      swap1\n      0x00\n      mstore\n      keccak256(0x00, 0x20)\n      add\n      0x00\n      swap2\n      pop\n      sload\n      swap1\n      0x0100\n      exp\n      swap1\n      div\n      0xffffffffffffffffffffffffffffffffffffffff\n      and\n      dup2\n      jump\t// out\n        /* \"contracts/fund.sol\":461:504  mapping(address => uint256) public released */\n    tag_43:\n      mstore(0x20, 0x03)\n      dup1\n      0x00\n      mstore\n      keccak256(0x00, 0x40)\n      0x00\n      swap2\n      pop\n      swap1\n      pop\n      sload\n      dup2\n      jump\t// out\n        /* \"contracts/fund.sol\":1448:1670  function releasable(address _account) public view returns (uint256) {... */\n    tag_48:\n        /* \"contracts/fund.sol\":1507:1514  uint256 */\n      0x00\n        /* \"contracts/fund.sol\":1526:1547  uint256 totalReceived */\n      dup1\n        /* \"contracts/fund.sol\":1574:1587  totalReleased */\n      sload(0x01)\n        /* \"contracts/fund.sol\":1550:1571  address(this).balance */\n      selfbalance\n        /* \"contracts/fund.sol\":1550:1587  address(this).balance + totalReleased */\n      tag_84\n      swap2\n      swap1\n      tag_68\n      jump\t// in\n    tag_84:\n        /* \"contracts/fund.sol\":1526:1587  uint256 totalReceived = address(this).balance + totalReleased */\n      swap1\n      pop\n        /* \"contracts/fund.sol\":1604:1663  pendingPayment(_account, totalReceived, released[_account]) */\n      tag_85\n        /* \"contracts/fund.sol\":1619:1627  _account */\n      dup4\n        /* \"contracts/fund.sol\":1629:1642  totalReceived */\n      dup3\n        /* \"contracts/fund.sol\":1644:1652  released */\n      0x03\n        /* \"contracts/fund.sol\":1644:1662  released[_account] */\n      0x00\n        /* \"contracts/fund.sol\":1653:1661  _account */\n      dup8\n        /* \"contracts/fund.sol\":1644:1662  released[_account] */\n      0xffffffffffffffffffffffffffffffffffffffff\n      and\n      0xffffffffffffffffffffffffffffffffffffffff\n      and\n      dup2\n      mstore\n      0x20\n      add\n      swap1\n      dup2\n      mstore\n      0x20\n      add\n      0x00\n      keccak256\n      sload\n        /* \"contracts/fund.sol\":1604:1618  pendingPayment */\n      tag_25\n        /* \"contracts/fund.sol\":1604:1663  pendingPayment(_account, totalReceived, released[_account]) */\n      jump\t// in\n    tag_85:\n        /* \"contracts/fund.sol\":1597:1663  return pendingPayment(_account, totalReceived, released[_account]) */\n      swap2\n      pop\n      pop\n        /* \"contracts/fund.sol\":1448:1670  function releasable(address _account) public view returns (uint256) {... */\n      swap2\n      swap1\n      pop\n      jump\t// out\n        /* \"contracts/fund.sol\":413:454  mapping(address => uint256) public shares */\n    tag_53:\n      mstore(0x20, 0x02)\n      dup1\n      0x00\n      mstore\n      keccak256(0x00, 0x40)\n      0x00\n      swap2\n      pop\n      swap1\n      pop\n      sload\n      dup2\n      jump\t// out\n        /* \"contracts/fund.sol\":377:405  uint256 public totalReleased */\n    tag_57:\n      sload(0x01)\n      dup2\n      jump\t// out\n        /* \"#utility.yul\":7:133   */\n    tag_86:\n        /* \"#utility.yul\":44:51   */\n      0x00\n        /* \"#utility.yul\":84:126   */\n      0xffffffffffffffffffffffffffffffffffffffff\n        /* \"#utility.yul\":77:82   */\n      dup3\n        /* \"#utility.yul\":73:127   */\n      and\n        /* \"#utility.yul\":62:127   */\n      swap1\n      pop\n        /* \"#utility.yul\":7:133   */\n      swap2\n      swap1\n      pop\n      jump\t// out\n        /* \"#utility.yul\":139:235   */\n    tag_87:\n        /* \"#utility.yul\":176:183   */\n      0x00\n        /* \"#utility.yul\":205:229   */\n      tag_116\n        /* \"#utility.yul\":223:228   */\n      dup3\n        /* \"#utility.yul\":205:229   */\n      tag_86\n      jump\t// in\n    tag_116:\n        /* \"#utility.yul\":194:229   */\n      swap1\n      pop\n        /* \"#utility.yul\":139:235   */\n      swap2\n      swap1\n      pop\n      jump\t// out\n        /* \"#utility.yul\":241:359   */\n    tag_88:\n        /* \"#utility.yul\":328:352   */\n      tag_118\n        /* \"#utility.yul\":346:351   */\n      dup2\n        /* \"#utility.yul\":328:352   */\n      tag_87\n      jump\t// in\n    tag_118:\n        /* \"#utility.yul\":323:326   */\n      dup3\n        /* \"#utility.yul\":316:353   */\n      mstore\n        /* \"#utility.yul\":241:359   */\n      pop\n      pop\n      jump\t// out\n        /* \"#utility.yul\":365:442   */\n    tag_89:\n        /* \"#utility.yul\":402:409   */\n      0x00\n        /* \"#utility.yul\":431:436   */\n      dup2\n        /* \"#utility.yul\":420:436   */\n      swap1\n      pop\n        /* \"#utility.yul\":365:442   */\n      swap2\n      swap1\n      pop\n      jump\t// out\n        /* \"#utility.yul\":448:566   */\n    tag_90:\n        /* \"#utility.yul\":535:559   */\n      tag_121\n        /* \"#utility.yul\":553:558   */\n      dup2\n        /* \"#utility.yul\":535:559   */\n      tag_89\n      jump\t// in\n    tag_121:\n        /* \"#utility.yul\":530:533   */\n      dup3\n        /* \"#utility.yul\":523:560   */\n      mstore\n        /* \"#utility.yul\":448:566   */\n      pop\n      pop\n      jump\t// out\n        /* \"#utility.yul\":572:904   */\n    tag_15:\n        /* \"#utility.yul\":693:697   */\n      0x00\n        /* \"#utility.yul\":731:733   */\n      0x40\n        /* \"#utility.yul\":720:729   */\n      dup3\n        /* \"#utility.yul\":716:734   */\n      add\n        /* \"#utility.yul\":708:734   */\n      swap1\n      pop\n        /* \"#utility.yul\":744:815   */\n      tag_123\n        /* \"#utility.yul\":812:813   */\n      0x00\n        /* \"#utility.yul\":801:810   */\n      dup4\n        /* \"#utility.yul\":797:814   */\n      add\n        /* \"#utility.yul\":788:794   */\n      dup6\n        /* \"#utility.yul\":744:815   */\n      tag_88\n      jump\t// in\n    tag_123:\n        /* \"#utility.yul\":825:897   */\n      tag_124\n        /* \"#utility.yul\":893:895   */\n      0x20\n        /* \"#utility.yul\":882:891   */\n      dup4\n        /* \"#utility.yul\":878:896   */\n      add\n        /* \"#utility.yul\":869:875   */\n      dup5\n        /* \"#utility.yul\":825:897   */\n      tag_90\n      jump\t// in\n    tag_124:\n        /* \"#utility.yul\":572:904   */\n      swap4\n      swap3\n      pop\n      pop\n      pop\n      jump\t// out\n        /* \"#utility.yul\":991:1108   */\n    tag_92:\n        /* \"#utility.yul\":1100:1101   */\n      0x00\n        /* \"#utility.yul\":1097:1098   */\n      dup1\n        /* \"#utility.yul\":1090:1102   */\n      revert\n        /* \"#utility.yul\":1237:1341   */\n    tag_94:\n        /* \"#utility.yul\":1282:1289   */\n      0x00\n        /* \"#utility.yul\":1311:1335   */\n      tag_129\n        /* \"#utility.yul\":1329:1334   */\n      dup3\n        /* \"#utility.yul\":1311:1335   */\n      tag_86\n      jump\t// in\n    tag_129:\n        /* \"#utility.yul\":1300:1335   */\n      swap1\n      pop\n        /* \"#utility.yul\":1237:1341   */\n      swap2\n      swap1\n      pop\n      jump\t// out\n        /* \"#utility.yul\":1347:1485   */\n    tag_95:\n        /* \"#utility.yul\":1428:1460   */\n      tag_131\n        /* \"#utility.yul\":1454:1459   */\n      dup2\n        /* \"#utility.yul\":1428:1460   */\n      tag_94\n      jump\t// in\n    tag_131:\n        /* \"#utility.yul\":1421:1426   */\n      dup2\n        /* \"#utility.yul\":1418:1461   */\n      eq\n        /* \"#utility.yul\":1408:1479   */\n      tag_132\n      jumpi\n        /* \"#utility.yul\":1475:1476   */\n      0x00\n        /* \"#utility.yul\":1472:1473   */\n      dup1\n        /* \"#utility.yul\":1465:1477   */\n      revert\n        /* \"#utility.yul\":1408:1479   */\n    tag_132:\n        /* \"#utility.yul\":1347:1485   */\n      pop\n      jump\t// out\n        /* \"#utility.yul\":1491:1646   */\n    tag_96:\n        /* \"#utility.yul\":1545:1550   */\n      0x00\n        /* \"#utility.yul\":1583:1589   */\n      dup2\n        /* \"#utility.yul\":1570:1590   */\n      calldataload\n        /* \"#utility.yul\":1561:1590   */\n      swap1\n      pop\n        /* \"#utility.yul\":1599:1640   */\n      tag_134\n        /* \"#utility.yul\":1634:1639   */\n      dup2\n        /* \"#utility.yul\":1599:1640   */\n      tag_95\n      jump\t// in\n    tag_134:\n        /* \"#utility.yul\":1491:1646   */\n      swap3\n      swap2\n      pop\n      pop\n      jump\t// out\n        /* \"#utility.yul\":1652:1997   */\n    tag_19:\n        /* \"#utility.yul\":1719:1725   */\n      0x00\n        /* \"#utility.yul\":1768:1770   */\n      0x20\n        /* \"#utility.yul\":1756:1765   */\n      dup3\n        /* \"#utility.yul\":1747:1754   */\n      dup5\n        /* \"#utility.yul\":1743:1766   */\n      sub\n        /* \"#utility.yul\":1739:1771   */\n      slt\n        /* \"#utility.yul\":1736:1855   */\n      iszero\n      tag_136\n      jumpi\n        /* \"#utility.yul\":1774:1853   */\n      tag_137\n      tag_92\n      jump\t// in\n    tag_137:\n        /* \"#utility.yul\":1736:1855   */\n    tag_136:\n        /* \"#utility.yul\":1894:1895   */\n      0x00\n        /* \"#utility.yul\":1919:1980   */\n      tag_138\n        /* \"#utility.yul\":1972:1979   */\n      dup5\n        /* \"#utility.yul\":1963:1969   */\n      dup3\n        /* \"#utility.yul\":1952:1961   */\n      dup6\n        /* \"#utility.yul\":1948:1970   */\n      add\n        /* \"#utility.yul\":1919:1980   */\n      tag_96\n      jump\t// in\n    tag_138:\n        /* \"#utility.yul\":1909:1980   */\n      swap2\n      pop\n        /* \"#utility.yul\":1865:1990   */\n      pop\n        /* \"#utility.yul\":1652:1997   */\n      swap3\n      swap2\n      pop\n      pop\n      jump\t// out\n        /* \"#utility.yul\":2003:2125   */\n    tag_97:\n        /* \"#utility.yul\":2076:2100   */\n      tag_140\n        /* \"#utility.yul\":2094:2099   */\n      dup2\n        /* \"#utility.yul\":2076:2100   */\n      tag_87\n      jump\t// in\n    tag_140:\n        /* \"#utility.yul\":2069:2074   */\n      dup2\n        /* \"#utility.yul\":2066:2101   */\n      eq\n        /* \"#utility.yul\":2056:2119   */\n      tag_141\n      jumpi\n        /* \"#utility.yul\":2115:2116   */\n      0x00\n        /* \"#utility.yul\":2112:2113   */\n      dup1\n        /* \"#utility.yul\":2105:2117   */\n      revert\n        /* \"#utility.yul\":2056:2119   */\n    tag_141:\n        /* \"#utility.yul\":2003:2125   */\n      pop\n      jump\t// out\n        /* \"#utility.yul\":2131:2270   */\n    tag_98:\n        /* \"#utility.yul\":2177:2182   */\n      0x00\n        /* \"#utility.yul\":2215:2221   */\n      dup2\n        /* \"#utility.yul\":2202:2222   */\n      calldataload\n        /* \"#utility.yul\":2193:2222   */\n      swap1\n      pop\n        /* \"#utility.yul\":2231:2264   */\n      tag_143\n        /* \"#utility.yul\":2258:2263   */\n      dup2\n        /* \"#utility.yul\":2231:2264   */\n      tag_97\n      jump\t// in\n    tag_143:\n        /* \"#utility.yul\":2131:2270   */\n      swap3\n      swap2\n      pop\n      pop\n      jump\t// out\n        /* \"#utility.yul\":2276:2398   */\n    tag_99:\n        /* \"#utility.yul\":2349:2373   */\n      tag_145\n        /* \"#utility.yul\":2367:2372   */\n      dup2\n        /* \"#utility.yul\":2349:2373   */\n      tag_89\n      jump\t// in\n    tag_145:\n        /* \"#utility.yul\":2342:2347   */\n      dup2\n        /* \"#utility.yul\":2339:2374   */\n      eq\n        /* \"#utility.yul\":2329:2392   */\n      tag_146\n      jumpi\n        /* \"#utility.yul\":2388:2389   */\n      0x00\n        /* \"#utility.yul\":2385:2386   */\n      dup1\n        /* \"#utility.yul\":2378:2390   */\n      revert\n        /* \"#utility.yul\":2329:2392   */\n    tag_146:\n        /* \"#utility.yul\":2276:2398   */\n      pop\n      jump\t// out\n        /* \"#utility.yul\":2404:2543   */\n    tag_100:\n        /* \"#utility.yul\":2450:2455   */\n      0x00\n        /* \"#utility.yul\":2488:2494   */\n      dup2\n        /* \"#utility.yul\":2475:2495   */\n      calldataload\n        /* \"#utility.yul\":2466:2495   */\n      swap1\n      pop\n        /* \"#utility.yul\":2504:2537   */\n      tag_148\n        /* \"#utility.yul\":2531:2536   */\n      dup2\n        /* \"#utility.yul\":2504:2537   */\n      tag_99\n      jump\t// in\n    tag_148:\n        /* \"#utility.yul\":2404:2543   */\n      swap3\n      swap2\n      pop\n      pop\n      jump\t// out\n        /* \"#utility.yul\":2549:3168   */\n    tag_24:\n        /* \"#utility.yul\":2626:2632   */\n      0x00\n        /* \"#utility.yul\":2634:2640   */\n      dup1\n        /* \"#utility.yul\":2642:2648   */\n      0x00\n        /* \"#utility.yul\":2691:2693   */\n      0x60\n        /* \"#utility.yul\":2679:2688   */\n      dup5\n        /* \"#utility.yul\":2670:2677   */\n      dup7\n        /* \"#utility.yul\":2666:2689   */\n      sub\n        /* \"#utility.yul\":2662:2694   */\n      slt\n        /* \"#utility.yul\":2659:2778   */\n      iszero\n      tag_150\n      jumpi\n        /* \"#utility.yul\":2697:2776   */\n      tag_151\n      tag_92\n      jump\t// in\n    tag_151:\n        /* \"#utility.yul\":2659:2778   */\n    tag_150:\n        /* \"#utility.yul\":2817:2818   */\n      0x00\n        /* \"#utility.yul\":2842:2895   */\n      tag_152\n        /* \"#utility.yul\":2887:2894   */\n      dup7\n        /* \"#utility.yul\":2878:2884   */\n      dup3\n        /* \"#utility.yul\":2867:2876   */\n      dup8\n        /* \"#utility.yul\":2863:2885   */\n      add\n        /* \"#utility.yul\":2842:2895   */\n      tag_98\n      jump\t// in\n    tag_152:\n        /* \"#utility.yul\":2832:2895   */\n      swap4\n      pop\n        /* \"#utility.yul\":2788:2905   */\n      pop\n        /* \"#utility.yul\":2944:2946   */\n      0x20\n        /* \"#utility.yul\":2970:3023   */\n      tag_153\n        /* \"#utility.yul\":3015:3022   */\n      dup7\n        /* \"#utility.yul\":3006:3012   */\n      dup3\n        /* \"#utility.yul\":2995:3004   */\n      dup8\n        /* \"#utility.yul\":2991:3013   */\n      add\n        /* \"#utility.yul\":2970:3023   */\n      tag_100\n      jump\t// in\n    tag_153:\n        /* \"#utility.yul\":2960:3023   */\n      swap3\n      pop\n        /* \"#utility.yul\":2915:3033   */\n      pop\n        /* \"#utility.yul\":3072:3074   */\n      0x40\n        /* \"#utility.yul\":3098:3151   */\n      tag_154\n        /* \"#utility.yul\":3143:3150   */\n      dup7\n        /* \"#utility.yul\":3134:3140   */\n      dup3\n        /* \"#utility.yul\":3123:3132   */\n      dup8\n        /* \"#utility.yul\":3119:3141   */\n      add\n        /* \"#utility.yul\":3098:3151   */\n      tag_100\n      jump\t// in\n    tag_154:\n        /* \"#utility.yul\":3088:3151   */\n      swap2\n      pop\n        /* \"#utility.yul\":3043:3161   */\n      pop\n        /* \"#utility.yul\":2549:3168   */\n      swap3\n      pop\n      swap3\n      pop\n      swap3\n      jump\t// out\n        /* \"#utility.yul\":3174:3396   */\n    tag_27:\n        /* \"#utility.yul\":3267:3271   */\n      0x00\n        /* \"#utility.yul\":3305:3307   */\n      0x20\n        /* \"#utility.yul\":3294:3303   */\n      dup3\n        /* \"#utility.yul\":3290:3308   */\n      add\n        /* \"#utility.yul\":3282:3308   */\n      swap1\n      pop\n        /* \"#utility.yul\":3318:3389   */\n      tag_156\n        /* \"#utility.yul\":3386:3387   */\n      0x00\n        /* \"#utility.yul\":3375:3384   */\n      dup4\n        /* \"#utility.yul\":3371:3388   */\n      add\n        /* \"#utility.yul\":3362:3368   */\n      dup5\n        /* \"#utility.yul\":3318:3389   */\n      tag_90\n      jump\t// in\n    tag_156:\n        /* \"#utility.yul\":3174:3396   */\n      swap3\n      swap2\n      pop\n      pop\n      jump\t// out\n        /* \"#utility.yul\":3402:3731   */\n    tag_35:\n        /* \"#utility.yul\":3461:3467   */\n      0x00\n        /* \"#utility.yul\":3510:3512   */\n      0x20\n        /* \"#utility.yul\":3498:3507   */\n      dup3\n        /* \"#utility.yul\":3489:3496   */\n      dup5\n        /* \"#utility.yul\":3485:3508   */\n      sub\n        /* \"#utility.yul\":3481:3513   */\n      slt\n        /* \"#utility.yul\":3478:3597   */\n      iszero\n      tag_158\n      jumpi\n        /* \"#utility.yul\":3516:3595   */\n      tag_159\n      tag_92\n      jump\t// in\n    tag_159:\n        /* \"#utility.yul\":3478:3597   */\n    tag_158:\n        /* \"#utility.yul\":3636:3637   */\n      0x00\n        /* \"#utility.yul\":3661:3714   */\n      tag_160\n        /* \"#utility.yul\":3706:3713   */\n      dup5\n        /* \"#utility.yul\":3697:3703   */\n      dup3\n        /* \"#utility.yul\":3686:3695   */\n      dup6\n        /* \"#utility.yul\":3682:3704   */\n      add\n        /* \"#utility.yul\":3661:3714   */\n      tag_100\n      jump\t// in\n    tag_160:\n        /* \"#utility.yul\":3651:3714   */\n      swap2\n      pop\n        /* \"#utility.yul\":3607:3724   */\n      pop\n        /* \"#utility.yul\":3402:3731   */\n      swap3\n      swap2\n      pop\n      pop\n      jump\t// out\n        /* \"#utility.yul\":3737:3959   */\n    tag_38:\n        /* \"#utility.yul\":3830:3834   */\n      0x00\n        /* \"#utility.yul\":3868:3870   */\n      0x20\n        /* \"#utility.yul\":3857:3866   */\n      dup3\n        /* \"#utility.yul\":3853:3871   */\n      add\n        /* \"#utility.yul\":3845:3871   */\n      swap1\n      pop\n        /* \"#utility.yul\":3881:3952   */\n      tag_162\n        /* \"#utility.yul\":3949:3950   */\n      0x00\n        /* \"#utility.yul\":3938:3947   */\n      dup4\n        /* \"#utility.yul\":3934:3951   */\n      add\n        /* \"#utility.yul\":3925:3931   */\n      dup5\n        /* \"#utility.yul\":3881:3952   */\n      tag_88\n      jump\t// in\n    tag_162:\n        /* \"#utility.yul\":3737:3959   */\n      swap3\n      swap2\n      pop\n      pop\n      jump\t// out\n        /* \"#utility.yul\":3965:4294   */\n    tag_42:\n        /* \"#utility.yul\":4024:4030   */\n      0x00\n        /* \"#utility.yul\":4073:4075   */\n      0x20\n        /* \"#utility.yul\":4061:4070   */\n      dup3\n        /* \"#utility.yul\":4052:4059   */\n      dup5\n        /* \"#utility.yul\":4048:4071   */\n      sub\n        /* \"#utility.yul\":4044:4076   */\n      slt\n        /* \"#utility.yul\":4041:4160   */\n      iszero\n      tag_164\n      jumpi\n        /* \"#utility.yul\":4079:4158   */\n      tag_165\n      tag_92\n      jump\t// in\n    tag_165:\n        /* \"#utility.yul\":4041:4160   */\n    tag_164:\n        /* \"#utility.yul\":4199:4200   */\n      0x00\n        /* \"#utility.yul\":4224:4277   */\n      tag_166\n        /* \"#utility.yul\":4269:4276   */\n      dup5\n        /* \"#utility.yul\":4260:4266   */\n      dup3\n        /* \"#utility.yul\":4249:4258   */\n      dup6\n        /* \"#utility.yul\":4245:4267   */\n      add\n        /* \"#utility.yul\":4224:4277   */\n      tag_98\n      jump\t// in\n    tag_166:\n        /* \"#utility.yul\":4214:4277   */\n      swap2\n      pop\n        /* \"#utility.yul\":4170:4287   */\n      pop\n        /* \"#utility.yul\":3965:4294   */\n      swap3\n      swap2\n      pop\n      pop\n      jump\t// out\n        /* \"#utility.yul\":4300:4469   */\n    tag_101:\n        /* \"#utility.yul\":4384:4395   */\n      0x00\n        /* \"#utility.yul\":4418:4424   */\n      dup3\n        /* \"#utility.yul\":4413:4416   */\n      dup3\n        /* \"#utility.yul\":4406:4425   */\n      mstore\n        /* \"#utility.yul\":4458:4462   */\n      0x20\n        /* \"#utility.yul\":4453:4456   */\n      dup3\n        /* \"#utility.yul\":4449:4463   */\n      add\n        /* \"#utility.yul\":4434:4463   */\n      swap1\n      pop\n        /* \"#utility.yul\":4300:4469   */\n      swap3\n      swap2\n      pop\n      pop\n      jump\t// out\n        /* \"#utility.yul\":4475:4700   */\n    tag_102:\n        /* \"#utility.yul\":4615:4649   */\n      0x5061796d656e7453706c69747465723a206163636f756e7420686173206e6f20\n        /* \"#utility.yul\":4611:4612   */\n      0x00\n        /* \"#utility.yul\":4603:4609   */\n      dup3\n        /* \"#utility.yul\":4599:4613   */\n      add\n        /* \"#utility.yul\":4592:4650   */\n      mstore\n        /* \"#utility.yul\":4684:4692   */\n      0x7368617265730000000000000000000000000000000000000000000000000000\n        /* \"#utility.yul\":4679:4681   */\n      0x20\n        /* \"#utility.yul\":4671:4677   */\n      dup3\n        /* \"#utility.yul\":4667:4682   */\n      add\n        /* \"#utility.yul\":4660:4693   */\n      mstore\n        /* \"#utility.yul\":4475:4700   */\n      pop\n      jump\t// out\n        /* \"#utility.yul\":4706:5072   */\n    tag_103:\n        /* \"#utility.yul\":4848:4851   */\n      0x00\n        /* \"#utility.yul\":4869:4936   */\n      tag_170\n        /* \"#utility.yul\":4933:4935   */\n      0x26\n        /* \"#utility.yul\":4928:4931   */\n      dup4\n        /* \"#utility.yul\":4869:4936   */\n      tag_101\n      jump\t// in\n    tag_170:\n        /* \"#utility.yul\":4862:4936   */\n      swap2\n      pop\n        /* \"#utility.yul\":4945:5038   */\n      tag_171\n        /* \"#utility.yul\":5034:5037   */\n      dup3\n        /* \"#utility.yul\":4945:5038   */\n      tag_102\n      jump\t// in\n    tag_171:\n        /* \"#utility.yul\":5063:5065   */\n      0x40\n        /* \"#utility.yul\":5058:5061   */\n      dup3\n        /* \"#utility.yul\":5054:5066   */\n      add\n        /* \"#utility.yul\":5047:5066   */\n      swap1\n      pop\n        /* \"#utility.yul\":4706:5072   */\n      swap2\n      swap1\n      pop\n      jump\t// out\n        /* \"#utility.yul\":5078:5497   */\n    tag_62:\n        /* \"#utility.yul\":5244:5248   */\n      0x00\n        /* \"#utility.yul\":5282:5284   */\n      0x20\n        /* \"#utility.yul\":5271:5280   */\n      dup3\n        /* \"#utility.yul\":5267:5285   */\n      add\n        /* \"#utility.yul\":5259:5285   */\n      swap1\n      pop\n        /* \"#utility.yul\":5331:5340   */\n      dup2\n        /* \"#utility.yul\":5325:5329   */\n      dup2\n        /* \"#utility.yul\":5321:5341   */\n      sub\n        /* \"#utility.yul\":5317:5318   */\n      0x00\n        /* \"#utility.yul\":5306:5315   */\n      dup4\n        /* \"#utility.yul\":5302:5319   */\n      add\n        /* \"#utility.yul\":5295:5342   */\n      mstore\n        /* \"#utility.yul\":5359:5490   */\n      tag_173\n        /* \"#utility.yul\":5485:5489   */\n      dup2\n        /* \"#utility.yul\":5359:5490   */\n      tag_103\n      jump\t// in\n    tag_173:\n        /* \"#utility.yul\":5351:5490   */\n      swap1\n      pop\n        /* \"#utility.yul\":5078:5497   */\n      swap2\n      swap1\n      pop\n      jump\t// out\n        /* \"#utility.yul\":5503:5733   */\n    tag_104:\n        /* \"#utility.yul\":5643:5677   */\n      0x5061796d656e7453706c69747465723a206163636f756e74206973206e6f7420\n        /* \"#utility.yul\":5639:5640   */\n      0x00\n        /* \"#utility.yul\":5631:5637   */\n      dup3\n        /* \"#utility.yul\":5627:5641   */\n      add\n        /* \"#utility.yul\":5620:5678   */\n      mstore\n        /* \"#utility.yul\":5712:5725   */\n      0x647565207061796d656e74000000000000000000000000000000000000000000\n        /* \"#utility.yul\":5707:5709   */\n      0x20\n        /* \"#utility.yul\":5699:5705   */\n      dup3\n        /* \"#utility.yul\":5695:5710   */\n      add\n        /* \"#utility.yul\":5688:5726   */\n      mstore\n        /* \"#utility.yul\":5503:5733   */\n      pop\n      jump\t// out\n        /* \"#utility.yul\":5739:6105   */\n    tag_105:\n        /* \"#utility.yul\":5881:5884   */\n      0x00\n        /* \"#utility.yul\":5902:5969   */\n      tag_176\n        /* \"#utility.yul\":5966:5968   */\n      0x2b\n        /* \"#utility.yul\":5961:5964   */\n      dup4\n        /* \"#utility.yul\":5902:5969   */\n      tag_101\n      jump\t// in\n    tag_176:\n        /* \"#utility.yul\":5895:5969   */\n      swap2\n      pop\n        /* \"#utility.yul\":5978:6071   */\n      tag_177\n        /* \"#utility.yul\":6067:6070   */\n      dup3\n        /* \"#utility.yul\":5978:6071   */\n      tag_104\n      jump\t// in\n    tag_177:\n        /* \"#utility.yul\":6096:6098   */\n      0x40\n        /* \"#utility.yul\":6091:6094   */\n      dup3\n        /* \"#utility.yul\":6087:6099   */\n      add\n        /* \"#utility.yul\":6080:6099   */\n      swap1\n      pop\n        /* \"#utility.yul\":5739:6105   */\n      swap2\n      swap1\n      pop\n      jump\t// out\n        /* \"#utility.yul\":6111:6530   */\n    tag_66:\n        /* \"#utility.yul\":6277:6281   */\n      0x00\n        /* \"#utility.yul\":6315:6317   */\n      0x20\n        /* \"#utility.yul\":6304:6313   */\n      dup3\n        /* \"#utility.yul\":6300:6318   */\n      add\n        /* \"#utility.yul\":6292:6318   */\n      swap1\n      pop\n        /* \"#utility.yul\":6364:6373   */\n      dup2\n        /* \"#utility.yul\":6358:6362   */\n      dup2\n        /* \"#utility.yul\":6354:6374   */\n      sub\n        /* \"#utility.yul\":6350:6351   */\n      0x00\n        /* \"#utility.yul\":6339:6348   */\n      dup4\n        /* \"#utility.yul\":6335:6352   */\n      add\n        /* \"#utility.yul\":6328:6375   */\n      mstore\n        /* \"#utility.yul\":6392:6523   */\n      tag_179\n        /* \"#utility.yul\":6518:6522   */\n      dup2\n        /* \"#utility.yul\":6392:6523   */\n      tag_105\n      jump\t// in\n    tag_179:\n        /* \"#utility.yul\":6384:6523   */\n      swap1\n      pop\n        /* \"#utility.yul\":6111:6530   */\n      swap2\n      swap1\n      pop\n      jump\t// out\n        /* \"#utility.yul\":6536:6716   */\n    tag_106:\n        /* \"#utility.yul\":6584:6661   */\n      0x4e487b7100000000000000000000000000000000000000000000000000000000\n        /* \"#utility.yul\":6581:6582   */\n      0x00\n        /* \"#utility.yul\":6574:6662   */\n      mstore\n        /* \"#utility.yul\":6681:6685   */\n      0x11\n        /* \"#utility.yul\":6678:6679   */\n      0x04\n        /* \"#utility.yul\":6671:6686   */\n      mstore\n        /* \"#utility.yul\":6705:6709   */\n      0x24\n        /* \"#utility.yul\":6702:6703   */\n      0x00\n        /* \"#utility.yul\":6695:6710   */\n      revert\n        /* \"#utility.yul\":6722:7027   */\n    tag_68:\n        /* \"#utility.yul\":6762:6765   */\n      0x00\n        /* \"#utility.yul\":6781:6801   */\n      tag_182\n        /* \"#utility.yul\":6799:6800   */\n      dup3\n        /* \"#utility.yul\":6781:6801   */\n      tag_89\n      jump\t// in\n    tag_182:\n        /* \"#utility.yul\":6776:6801   */\n      swap2\n      pop\n        /* \"#utility.yul\":6815:6835   */\n      tag_183\n        /* \"#utility.yul\":6833:6834   */\n      dup4\n        /* \"#utility.yul\":6815:6835   */\n      tag_89\n      jump\t// in\n    tag_183:\n        /* \"#utility.yul\":6810:6835   */\n      swap3\n      pop\n        /* \"#utility.yul\":6969:6970   */\n      dup3\n        /* \"#utility.yul\":6901:6967   */\n      0xffffffffffffffffffffffffffffffffffffffffffffffffffffffffffffffff\n        /* \"#utility.yul\":6897:6971   */\n      sub\n        /* \"#utility.yul\":6894:6895   */\n      dup3\n        /* \"#utility.yul\":6891:6972   */\n      gt\n        /* \"#utility.yul\":6888:6995   */\n      iszero\n      tag_184\n      jumpi\n        /* \"#utility.yul\":6975:6993   */\n      tag_185\n      tag_106\n      jump\t// in\n    tag_185:\n        /* \"#utility.yul\":6888:6995   */\n    tag_184:\n        /* \"#utility.yul\":7019:7020   */\n      dup3\n        /* \"#utility.yul\":7016:7017   */\n      dup3\n        /* \"#utility.yul\":7012:7021   */\n      add\n        /* \"#utility.yul\":7005:7021   */\n      swap1\n      pop\n        /* \"#utility.yul\":6722:7027   */\n      swap3\n      swap2\n      pop\n      pop\n      jump\t// out\n        /* \"#utility.yul\":7033:7093   */\n    tag_107:\n        /* \"#utility.yul\":7061:7064   */\n      0x00\n        /* \"#utility.yul\":7082:7087   */\n      dup2\n        /* \"#utility.yul\":7075:7087   */\n      swap1\n      pop\n        /* \"#utility.yul\":7033:7093   */\n      swap2\n      swap1\n      pop\n      jump\t// out\n        /* \"#utility.yul\":7099:7241   */\n    tag_108:\n        /* \"#utility.yul\":7149:7158   */\n      0x00\n        /* \"#utility.yul\":7182:7235   */\n      tag_188\n        /* \"#utility.yul\":7200:7234   */\n      tag_189\n        /* \"#utility.yul\":7209:7233   */\n      tag_190\n        /* \"#utility.yul\":7227:7232   */\n      dup5\n        /* \"#utility.yul\":7209:7233   */\n      tag_86\n      jump\t// in\n    tag_190:\n        /* \"#utility.yul\":7200:7234   */\n      tag_107\n      jump\t// in\n    tag_189:\n        /* \"#utility.yul\":7182:7235   */\n      tag_86\n      jump\t// in\n    tag_188:\n        /* \"#utility.yul\":7169:7235   */\n      swap1\n      pop\n        /* \"#utility.yul\":7099:7241   */\n      swap2\n      swap1\n      pop\n      jump\t// out\n        /* \"#utility.yul\":7247:7373   */\n    tag_109:\n        /* \"#utility.yul\":7297:7306   */\n      0x00\n        /* \"#utility.yul\":7330:7367   */\n      tag_192\n        /* \"#utility.yul\":7361:7366   */\n      dup3\n        /* \"#utility.yul\":7330:7367   */\n      tag_108\n      jump\t// in\n    tag_192:\n        /* \"#utility.yul\":7317:7367   */\n      swap1\n      pop\n        /* \"#utility.yul\":7247:7373   */\n      swap2\n      swap1\n      pop\n      jump\t// out\n        /* \"#utility.yul\":7379:7513   */\n    tag_110:\n        /* \"#utility.yul\":7437:7446   */\n      0x00\n        /* \"#utility.yul\":7470:7507   */\n      tag_194\n        /* \"#utility.yul\":7501:7506   */\n      dup3\n        /* \"#utility.yul\":7470:7507   */\n      tag_109\n      jump\t// in\n    tag_194:\n        /* \"#utility.yul\":7457:7507   */\n      swap1\n      pop\n        /* \"#utility.yul\":7379:7513   */\n      swap2\n      swap1\n      pop\n      jump\t// out\n        /* \"#utility.yul\":7519:7666   */\n    tag_111:\n        /* \"#utility.yul\":7614:7659   */\n      tag_196\n        /* \"#utility.yul\":7653:7658   */\n      dup2\n        /* \"#utility.yul\":7614:7659   */\n      tag_110\n      jump\t// in\n    tag_196:\n        /* \"#utility.yul\":7609:7612   */\n      dup3\n        /* \"#utility.yul\":7602:7660   */\n      mstore\n        /* \"#utility.yul\":7519:7666   */\n      pop\n      pop\n      jump\t// out\n        /* \"#utility.yul\":7672:8020   */\n    tag_73:\n        /* \"#utility.yul\":7801:7805   */\n      0x00\n        /* \"#utility.yul\":7839:7841   */\n      0x40\n        /* \"#utility.yul\":7828:7837   */\n      dup3\n        /* \"#utility.yul\":7824:7842   */\n      add\n        /* \"#utility.yul\":7816:7842   */\n      swap1\n      pop\n        /* \"#utility.yul\":7852:7931   */\n      tag_198\n        /* \"#utility.yul\":7928:7929   */\n      0x00\n        /* \"#utility.yul\":7917:7926   */\n      dup4\n        /* \"#utility.yul\":7913:7930   */\n      add\n        /* \"#utility.yul\":7904:7910   */\n      dup6\n        /* \"#utility.yul\":7852:7931   */\n      tag_111\n      jump\t// in\n    tag_198:\n        /* \"#utility.yul\":7941:8013   */\n      tag_199\n        /* \"#utility.yul\":8009:8011   */\n      0x20\n        /* \"#utility.yul\":7998:8007   */\n      dup4\n        /* \"#utility.yul\":7994:8012   */\n      add\n        /* \"#utility.yul\":7985:7991   */\n      dup5\n        /* \"#utility.yul\":7941:8013   */\n      tag_90\n      jump\t// in\n    tag_199:\n        /* \"#utility.yul\":7672:8020   */\n      swap4\n      swap3\n      pop\n      pop\n      pop\n      jump\t// out\n        /* \"#utility.yul\":8026:8374   */\n    tag_76:\n        /* \"#utility.yul\":8066:8073   */\n      0x00\n        /* \"#utility.yul\":8089:8109   */\n      tag_201\n        /* \"#utility.yul\":8107:8108   */\n      dup3\n        /* \"#utility.yul\":8089:8109   */\n      tag_89\n      jump\t// in\n    tag_201:\n        /* \"#utility.yul\":8084:8109   */\n      swap2\n      pop\n        /* \"#utility.yul\":8123:8143   */\n      tag_202\n        /* \"#utility.yul\":8141:8142   */\n      dup4\n        /* \"#utility.yul\":8123:8143   */\n      tag_89\n      jump\t// in\n    tag_202:\n        /* \"#utility.yul\":8118:8143   */\n      swap3\n      pop\n        /* \"#utility.yul\":8311:8312   */\n      dup2\n        /* \"#utility.yul\":8243:8309   */\n      0xffffffffffffffffffffffffffffffffffffffffffffffffffffffffffffffff\n        /* \"#utility.yul\":8239:8313   */\n      div\n        /* \"#utility.yul\":8236:8237   */\n      dup4\n        /* \"#utility.yul\":8233:8314   */\n      gt\n        /* \"#utility.yul\":8228:8229   */\n      dup3\n        /* \"#utility.yul\":8221:8230   */\n      iszero\n        /* \"#utility.yul\":8214:8231   */\n      iszero\n        /* \"#utility.yul\":8210:8315   */\n      and\n        /* \"#utility.yul\":8207:8338   */\n      iszero\n      tag_203\n      jumpi\n        /* \"#utility.yul\":8318:8336   */\n      tag_204\n      tag_106\n      jump\t// in\n    tag_204:\n        /* \"#utility.yul\":8207:8338   */\n    tag_203:\n        /* \"#utility.yul\":8366:8367   */\n      dup3\n        /* \"#utility.yul\":8363:8364   */\n      dup3\n        /* \"#utility.yul\":8359:8368   */\n      mul\n        /* \"#utility.yul\":8348:8368   */\n      swap1\n      pop\n        /* \"#utility.yul\":8026:8374   */\n      swap3\n      swap2\n      pop\n      pop\n      jump\t// out\n        /* \"#utility.yul\":8380:8560   */\n    tag_112:\n        /* \"#utility.yul\":8428:8505   */\n      0x4e487b7100000000000000000000000000000000000000000000000000000000\n        /* \"#utility.yul\":8425:8426   */\n      0x00\n        /* \"#utility.yul\":8418:8506   */\n      mstore\n        /* \"#utility.yul\":8525:8529   */\n      0x12\n        /* \"#utility.yul\":8522:8523   */\n      0x04\n        /* \"#utility.yul\":8515:8530   */\n      mstore\n        /* \"#utility.yul\":8549:8553   */\n      0x24\n        /* \"#utility.yul\":8546:8547   */\n      0x00\n        /* \"#utility.yul\":8539:8554   */\n      revert\n        /* \"#utility.yul\":8566:8751   */\n    tag_78:\n        /* \"#utility.yul\":8606:8607   */\n      0x00\n        /* \"#utility.yul\":8623:8643   */\n      tag_207\n        /* \"#utility.yul\":8641:8642   */\n      dup3\n        /* \"#utility.yul\":8623:8643   */\n      tag_89\n      jump\t// in\n    tag_207:\n        /* \"#utility.yul\":8618:8643   */\n      swap2\n      pop\n        /* \"#utility.yul\":8657:8677   */\n      tag_208\n        /* \"#utility.yul\":8675:8676   */\n      dup4\n        /* \"#utility.yul\":8657:8677   */\n      tag_89\n      jump\t// in\n    tag_208:\n        /* \"#utility.yul\":8652:8677   */\n      swap3\n      pop\n        /* \"#utility.yul\":8696:8697   */\n      dup3\n        /* \"#utility.yul\":8686:8721   */\n      tag_209\n      jumpi\n        /* \"#utility.yul\":8701:8719   */\n      tag_210\n      tag_112\n      jump\t// in\n    tag_210:\n        /* \"#utility.yul\":8686:8721   */\n    tag_209:\n        /* \"#utility.yul\":8743:8744   */\n      dup3\n        /* \"#utility.yul\":8740:8741   */\n      dup3\n        /* \"#utility.yul\":8736:8745   */\n      div\n        /* \"#utility.yul\":8731:8745   */\n      swap1\n      pop\n        /* \"#utility.yul\":8566:8751   */\n      swap3\n      swap2\n      pop\n      pop\n      jump\t// out\n        /* \"#utility.yul\":8757:8948   */\n    tag_80:\n        /* \"#utility.yul\":8797:8801   */\n      0x00\n        /* \"#utility.yul\":8817:8837   */\n      tag_212\n        /* \"#utility.yul\":8835:8836   */\n      dup3\n        /* \"#utility.yul\":8817:8837   */\n      tag_89\n      jump\t// in\n    tag_212:\n        /* \"#utility.yul\":8812:8837   */\n      swap2\n      pop\n        /* \"#utility.yul\":8851:8871   */\n      tag_213\n        /* \"#utility.yul\":8869:8870   */\n      dup4\n        /* \"#utility.yul\":8851:8871   */\n      tag_89\n      jump\t// in\n    tag_213:\n        /* \"#utility.yul\":8846:8871   */\n      swap3\n      pop\n        /* \"#utility.yul\":8890:8891   */\n      dup3\n        /* \"#utility.yul\":8887:8888   */\n      dup3\n        /* \"#utility.yul\":8884:8892   */\n      lt\n        /* \"#utility.yul\":8881:8915   */\n      iszero\n      tag_214\n      jumpi\n        /* \"#utility.yul\":8895:8913   */\n      tag_215\n      tag_106\n      jump\t// in\n    tag_215:\n        /* \"#utility.yul\":8881:8915   */\n    tag_214:\n        /* \"#utility.yul\":8940:8941   */\n      dup3\n        /* \"#utility.yul\":8937:8938   */\n      dup3\n        /* \"#utility.yul\":8933:8942   */\n      sub\n        /* \"#utility.yul\":8925:8942   */\n      swap1\n      pop\n        /* \"#utility.yul\":8757:8948   */\n      swap3\n      swap2\n      pop\n      pop\n      jump\t// out\n\n    auxdata: 0xa2646970667358221220863569f933400aaa6ed6fe791de5fda35ecfd6114f46f46ef032af643c6fb44064736f6c63430008080033\n}\n",
				"bytecode": {
					"linkReferences": {},
					"object": "6080604052604051620016323803806200163283398181016040528101906200002991906200066c565b805182511462000070576040517f08c379a0000000000000000000000000000000000000000000000000000000008152600401620000679062000778565b60405180910390fd5b6000825111620000b7576040517f08c379a0000000000000000000000000000000000000000000000000000000008152600401620000ae90620007ea565b60405180910390fd5b60005b8251811015620001265762000110838281518110620000de57620000dd6200080c565b5b6020026020010151838381518110620000fc57620000fb6200080c565b5b60200260200101516200012f60201b60201c565b80806200011d906200086a565b915050620000ba565b50505062000b06565b600073ffffffffffffffffffffffffffffffffffffffff168273ffffffffffffffffffffffffffffffffffffffff161415620001a2576040517f08c379a000000000000000000000000000000000000000000000000000000000815260040162000199906200092e565b60405180910390fd5b60008111620001e8576040517f08c379a0000000000000000000000000000000000000000000000000000000008152600401620001df90620009a0565b60405180910390fd5b6000600260008473ffffffffffffffffffffffffffffffffffffffff1673ffffffffffffffffffffffffffffffffffffffff16815260200190815260200160002054146200026d576040517f08c379a0000000000000000000000000000000000000000000000000000000008152600401620002649062000a38565b60405180910390fd5b6004829080600181540180825580915050600190039060005260206000200160009091909190916101000a81548173ffffffffffffffffffffffffffffffffffffffff021916908373ffffffffffffffffffffffffffffffffffffffff16021790555080600260008473ffffffffffffffffffffffffffffffffffffffff1673ffffffffffffffffffffffffffffffffffffffff168152602001908152602001600020819055508060008082825462000327919062000a5a565b925050819055507f40c340f65e17194d14ddddb073d3c9f888e3cb52b5aae0c6c7706b4fbc905fac82826040516200036192919062000ad9565b60405180910390a15050565b6000604051905090565b600080fd5b600080fd5b600080fd5b6000601f19601f8301169050919050565b7f4e487b7100000000000000000000000000000000000000000000000000000000600052604160045260246000fd5b620003d18262000386565b810181811067ffffffffffffffff82111715620003f357620003f262000397565b5b80604052505050565b6000620004086200036d565b9050620004168282620003c6565b919050565b600067ffffffffffffffff82111562000439576200043862000397565b5b602082029050602081019050919050565b600080fd5b600073ffffffffffffffffffffffffffffffffffffffff82169050919050565b60006200047c826200044f565b9050919050565b6200048e816200046f565b81146200049a57600080fd5b50565b600081519050620004ae8162000483565b92915050565b6000620004cb620004c5846200041b565b620003fc565b90508083825260208201905060208402830185811115620004f157620004f06200044a565b5b835b818110156200051e57806200050988826200049d565b845260208401935050602081019050620004f3565b5050509392505050565b600082601f83011262000540576200053f62000381565b5b815162000552848260208601620004b4565b91505092915050565b600067ffffffffffffffff82111562000579576200057862000397565b5b602082029050602081019050919050565b6000819050919050565b6200059f816200058a565b8114620005ab57600080fd5b50565b600081519050620005bf8162000594565b92915050565b6000620005dc620005d6846200055b565b620003fc565b905080838252602082019050602084028301858111156200060257620006016200044a565b5b835b818110156200062f57806200061a8882620005ae565b84526020840193505060208101905062000604565b5050509392505050565b600082601f83011262000651576200065062000381565b5b815162000663848260208601620005c5565b91505092915050565b6000806040838503121562000686576200068562000377565b5b600083015167ffffffffffffffff811115620006a757620006a66200037c565b5b620006b58582860162000528565b925050602083015167ffffffffffffffff811115620006d957620006d86200037c565b5b620006e78582860162000639565b9150509250929050565b600082825260208201905092915050565b7f5061796d656e7453706c69747465723a2070617965657320616e64207368617260008201527f6573206c656e677468206d69736d617463680000000000000000000000000000602082015250565b600062000760603283620006f1565b91506200076d8262000702565b604082019050919050565b60006020820190508181036000830152620007938162000751565b9050919050565b7f5061796d656e7453706c69747465723a206e6f20706179656573000000000000600082015250565b6000620007d2601a83620006f1565b9150620007df826200079a565b602082019050919050565b600060208201905081810360008301526200080581620007c3565b9050919050565b7f4e487b7100000000000000000000000000000000000000000000000000000000600052603260045260246000fd5b7f4e487b7100000000000000000000000000000000000000000000000000000000600052601160045260246000fd5b600062000877826200058a565b91507fffffffffffffffffffffffffffffffffffffffffffffffffffffffffffffffff821415620008ad57620008ac6200083b565b5b600182019050919050565b7f5061796d656e7453706c69747465723a206163636f756e74206973207468652060008201527f7a65726f20616464726573730000000000000000000000000000000000000000602082015250565b600062000916602c83620006f1565b91506200092382620008b8565b604082019050919050565b60006020820190508181036000830152620009498162000907565b9050919050565b7f5061796d656e7453706c69747465723a20736861726573206172652030000000600082015250565b600062000988601d83620006f1565b9150620009958262000950565b602082019050919050565b60006020820190508181036000830152620009bb8162000979565b9050919050565b7f5061796d656e7453706c69747465723a206163636f756e7420616c726561647960008201527f2068617320736861726573000000000000000000000000000000000000000000602082015250565b600062000a20602b83620006f1565b915062000a2d82620009c2565b604082019050919050565b6000602082019050818103600083015262000a538162000a11565b9050919050565b600062000a67826200058a565b915062000a74836200058a565b9250827fffffffffffffffffffffffffffffffffffffffffffffffffffffffffffffffff0382111562000aac5762000aab6200083b565b5b828201905092915050565b62000ac2816200046f565b82525050565b62000ad3816200058a565b82525050565b600060408201905062000af0600083018562000ab7565b62000aff602083018462000ac8565b9392505050565b610b1c8062000b166000396000f3fe60806040526004361061007f5760003560e01c80639852595c1161004e5780639852595c14610192578063a3f8eace146101cf578063ce7c2ac21461020c578063e33b7de314610249576100bf565b806319165587146100c45780631b51003d146100ed5780633a98ef391461012a57806363037b0c14610155576100bf565b366100bf577f6ef95f06320e7a25a04a175ca677b7052bdd97131872c2192525a629f51be77033346040516100b59291906105e2565b60405180910390a1005b600080fd5b3480156100d057600080fd5b506100eb60048036038101906100e6919061064e565b610274565b005b3480156100f957600080fd5b50610114600480360381019061010f91906106d3565b61043a565b6040516101219190610726565b60405180910390f35b34801561013657600080fd5b5061013f6104a8565b60405161014c9190610726565b60405180910390f35b34801561016157600080fd5b5061017c60048036038101906101779190610741565b6104ae565b604051610189919061076e565b60405180910390f35b34801561019e57600080fd5b506101b960048036038101906101b49190610789565b6104ed565b6040516101c69190610726565b60405180910390f35b3480156101db57600080fd5b506101f660048036038101906101f19190610789565b610505565b6040516102039190610726565b60405180910390f35b34801561021857600080fd5b50610233600480360381019061022e9190610789565b61056a565b6040516102409190610726565b60405180910390f35b34801561025557600080fd5b5061025e610582565b60405161026b9190610726565b60405180910390f35b6000600260008373ffffffffffffffffffffffffffffffffffffffff1673ffffffffffffffffffffffffffffffffffffffff16815260200190815260200160002054116102f6576040517f08c379a00000000000000000000000000000000000000000000000000000000081526004016102ed90610839565b60405180910390fd5b600061030182610505565b90506000811415610347576040517f08c379a000000000000000000000000000000000000000000000000000000000815260040161033e906108cb565b60405180910390fd5b8060016000828254610359919061091a565b9250508190555080600360008473ffffffffffffffffffffffffffffffffffffffff1673ffffffffffffffffffffffffffffffffffffffff16815260200190815260200160002060008282546103af919061091a565b925050819055508173ffffffffffffffffffffffffffffffffffffffff166108fc829081150290604051600060405180830381858888f193505050501580156103fc573d6000803e3d6000fd5b507fdf20fd1e76bc69d672e4814fafb2c449bba3a5369d8359adf9e05e6fde87b056828260405161042e9291906109cf565b60405180910390a15050565b600081600054600260008773ffffffffffffffffffffffffffffffffffffffff1673ffffffffffffffffffffffffffffffffffffffff168152602001908152602001600020548561048b91906109f8565b6104959190610a81565b61049f9190610ab2565b90509392505050565b60005481565b600481815481106104be57600080fd5b906000526020600020016000915054906101000a900473ffffffffffffffffffffffffffffffffffffffff1681565b60036020528060005260406000206000915090505481565b60008060015447610516919061091a565b90506105628382600360008773ffffffffffffffffffffffffffffffffffffffff1673ffffffffffffffffffffffffffffffffffffffff1681526020019081526020016000205461043a565b915050919050565b60026020528060005260406000206000915090505481565b60015481565b600073ffffffffffffffffffffffffffffffffffffffff82169050919050565b60006105b382610588565b9050919050565b6105c3816105a8565b82525050565b6000819050919050565b6105dc816105c9565b82525050565b60006040820190506105f760008301856105ba565b61060460208301846105d3565b9392505050565b600080fd5b600061061b82610588565b9050919050565b61062b81610610565b811461063657600080fd5b50565b60008135905061064881610622565b92915050565b6000602082840312156106645761066361060b565b5b600061067284828501610639565b91505092915050565b610684816105a8565b811461068f57600080fd5b50565b6000813590506106a18161067b565b92915050565b6106b0816105c9565b81146106bb57600080fd5b50565b6000813590506106cd816106a7565b92915050565b6000806000606084860312156106ec576106eb61060b565b5b60006106fa86828701610692565b935050602061070b868287016106be565b925050604061071c868287016106be565b9150509250925092565b600060208201905061073b60008301846105d3565b92915050565b6000602082840312156107575761075661060b565b5b6000610765848285016106be565b91505092915050565b600060208201905061078360008301846105ba565b92915050565b60006020828403121561079f5761079e61060b565b5b60006107ad84828501610692565b91505092915050565b600082825260208201905092915050565b7f5061796d656e7453706c69747465723a206163636f756e7420686173206e6f2060008201527f7368617265730000000000000000000000000000000000000000000000000000602082015250565b60006108236026836107b6565b915061082e826107c7565b604082019050919050565b6000602082019050818103600083015261085281610816565b9050919050565b7f5061796d656e7453706c69747465723a206163636f756e74206973206e6f742060008201527f647565207061796d656e74000000000000000000000000000000000000000000602082015250565b60006108b5602b836107b6565b91506108c082610859565b604082019050919050565b600060208201905081810360008301526108e4816108a8565b9050919050565b7f4e487b7100000000000000000000000000000000000000000000000000000000600052601160045260246000fd5b6000610925826105c9565b9150610930836105c9565b9250827fffffffffffffffffffffffffffffffffffffffffffffffffffffffffffffffff03821115610965576109646108eb565b5b828201905092915050565b6000819050919050565b600061099561099061098b84610588565b610970565b610588565b9050919050565b60006109a78261097a565b9050919050565b60006109b98261099c565b9050919050565b6109c9816109ae565b82525050565b60006040820190506109e460008301856109c0565b6109f160208301846105d3565b9392505050565b6000610a03826105c9565b9150610a0e836105c9565b9250817fffffffffffffffffffffffffffffffffffffffffffffffffffffffffffffffff0483118215151615610a4757610a466108eb565b5b828202905092915050565b7f4e487b7100000000000000000000000000000000000000000000000000000000600052601260045260246000fd5b6000610a8c826105c9565b9150610a97836105c9565b925082610aa757610aa6610a52565b5b828204905092915050565b6000610abd826105c9565b9150610ac8836105c9565b925082821015610adb57610ada6108eb565b5b82820390509291505056fea2646970667358221220863569f933400aaa6ed6fe791de5fda35ecfd6114f46f46ef032af643c6fb44064736f6c63430008080033",
					"opcodes": "PUSH1 0x80 PUSH1 0x40 MSTORE PUSH1 0x40 MLOAD PUSH3 0x1632 CODESIZE SUB DUP1 PUSH3 0x1632 DUP4 CODECOPY DUP2 DUP2 ADD PUSH1 0x40 MSTORE DUP2 ADD SWAP1 PUSH3 0x29 SWAP2 SWAP1 PUSH3 0x66C JUMP JUMPDEST DUP1 MLOAD DUP3 MLOAD EQ PUSH3 0x70 JUMPI PUSH1 0x40 MLOAD PUSH32 0x8C379A000000000000000000000000000000000000000000000000000000000 DUP2 MSTORE PUSH1 0x4 ADD PUSH3 0x67 SWAP1 PUSH3 0x778 JUMP JUMPDEST PUSH1 0x40 MLOAD DUP1 SWAP2 SUB SWAP1 REVERT JUMPDEST PUSH1 0x0 DUP3 MLOAD GT PUSH3 0xB7 JUMPI PUSH1 0x40 MLOAD PUSH32 0x8C379A000000000000000000000000000000000000000000000000000000000 DUP2 MSTORE PUSH1 0x4 ADD PUSH3 0xAE SWAP1 PUSH3 0x7EA JUMP JUMPDEST PUSH1 0x40 MLOAD DUP1 SWAP2 SUB SWAP1 REVERT JUMPDEST PUSH1 0x0 JUMPDEST DUP3 MLOAD DUP2 LT ISZERO PUSH3 0x126 JUMPI PUSH3 0x110 DUP4 DUP3 DUP2 MLOAD DUP2 LT PUSH3 0xDE JUMPI PUSH3 0xDD PUSH3 0x80C JUMP JUMPDEST JUMPDEST PUSH1 0x20 MUL PUSH1 0x20 ADD ADD MLOAD DUP4 DUP4 DUP2 MLOAD DUP2 LT PUSH3 0xFC JUMPI PUSH3 0xFB PUSH3 0x80C JUMP JUMPDEST JUMPDEST PUSH1 0x20 MUL PUSH1 0x20 ADD ADD MLOAD PUSH3 0x12F PUSH1 0x20 SHL PUSH1 0x20 SHR JUMP JUMPDEST DUP1 DUP1 PUSH3 0x11D SWAP1 PUSH3 0x86A JUMP JUMPDEST SWAP2 POP POP PUSH3 0xBA JUMP JUMPDEST POP POP POP PUSH3 0xB06 JUMP JUMPDEST PUSH1 0x0 PUSH20 0xFFFFFFFFFFFFFFFFFFFFFFFFFFFFFFFFFFFFFFFF AND DUP3 PUSH20 0xFFFFFFFFFFFFFFFFFFFFFFFFFFFFFFFFFFFFFFFF AND EQ ISZERO PUSH3 0x1A2 JUMPI PUSH1 0x40 MLOAD PUSH32 0x8C379A000000000000000000000000000000000000000000000000000000000 DUP2 MSTORE PUSH1 0x4 ADD PUSH3 0x199 SWAP1 PUSH3 0x92E JUMP JUMPDEST PUSH1 0x40 MLOAD DUP1 SWAP2 SUB SWAP1 REVERT JUMPDEST PUSH1 0x0 DUP2 GT PUSH3 0x1E8 JUMPI PUSH1 0x40 MLOAD PUSH32 0x8C379A000000000000000000000000000000000000000000000000000000000 DUP2 MSTORE PUSH1 0x4 ADD PUSH3 0x1DF SWAP1 PUSH3 0x9A0 JUMP JUMPDEST PUSH1 0x40 MLOAD DUP1 SWAP2 SUB SWAP1 REVERT JUMPDEST PUSH1 0x0 PUSH1 0x2 PUSH1 0x0 DUP5 PUSH20 0xFFFFFFFFFFFFFFFFFFFFFFFFFFFFFFFFFFFFFFFF AND PUSH20 0xFFFFFFFFFFFFFFFFFFFFFFFFFFFFFFFFFFFFFFFF AND DUP2 MSTORE PUSH1 0x20 ADD SWAP1 DUP2 MSTORE PUSH1 0x20 ADD PUSH1 0x0 KECCAK256 SLOAD EQ PUSH3 0x26D JUMPI PUSH1 0x40 MLOAD PUSH32 0x8C379A000000000000000000000000000000000000000000000000000000000 DUP2 MSTORE PUSH1 0x4 ADD PUSH3 0x264 SWAP1 PUSH3 0xA38 JUMP JUMPDEST PUSH1 0x40 MLOAD DUP1 SWAP2 SUB SWAP1 REVERT JUMPDEST PUSH1 0x4 DUP3 SWAP1 DUP1 PUSH1 0x1 DUP2 SLOAD ADD DUP1 DUP3 SSTORE DUP1 SWAP2 POP POP PUSH1 0x1 SWAP1 SUB SWAP1 PUSH1 0x0 MSTORE PUSH1 0x20 PUSH1 0x0 KECCAK256 ADD PUSH1 0x0 SWAP1 SWAP2 SWAP1 SWAP2 SWAP1 SWAP2 PUSH2 0x100 EXP DUP2 SLOAD DUP2 PUSH20 0xFFFFFFFFFFFFFFFFFFFFFFFFFFFFFFFFFFFFFFFF MUL NOT AND SWAP1 DUP4 PUSH20 0xFFFFFFFFFFFFFFFFFFFFFFFFFFFFFFFFFFFFFFFF AND MUL OR SWAP1 SSTORE POP DUP1 PUSH1 0x2 PUSH1 0x0 DUP5 PUSH20 0xFFFFFFFFFFFFFFFFFFFFFFFFFFFFFFFFFFFFFFFF AND PUSH20 0xFFFFFFFFFFFFFFFFFFFFFFFFFFFFFFFFFFFFFFFF AND DUP2 MSTORE PUSH1 0x20 ADD SWAP1 DUP2 MSTORE PUSH1 0x20 ADD PUSH1 0x0 KECCAK256 DUP2 SWAP1 SSTORE POP DUP1 PUSH1 0x0 DUP1 DUP3 DUP3 SLOAD PUSH3 0x327 SWAP2 SWAP1 PUSH3 0xA5A JUMP JUMPDEST SWAP3 POP POP DUP2 SWAP1 SSTORE POP PUSH32 0x40C340F65E17194D14DDDDB073D3C9F888E3CB52B5AAE0C6C7706B4FBC905FAC DUP3 DUP3 PUSH1 0x40 MLOAD PUSH3 0x361 SWAP3 SWAP2 SWAP1 PUSH3 0xAD9 JUMP JUMPDEST PUSH1 0x40 MLOAD DUP1 SWAP2 SUB SWAP1 LOG1 POP POP JUMP JUMPDEST PUSH1 0x0 PUSH1 0x40 MLOAD SWAP1 POP SWAP1 JUMP JUMPDEST PUSH1 0x0 DUP1 REVERT JUMPDEST PUSH1 0x0 DUP1 REVERT JUMPDEST PUSH1 0x0 DUP1 REVERT JUMPDEST PUSH1 0x0 PUSH1 0x1F NOT PUSH1 0x1F DUP4 ADD AND SWAP1 POP SWAP2 SWAP1 POP JUMP JUMPDEST PUSH32 0x4E487B7100000000000000000000000000000000000000000000000000000000 PUSH1 0x0 MSTORE PUSH1 0x41 PUSH1 0x4 MSTORE PUSH1 0x24 PUSH1 0x0 REVERT JUMPDEST PUSH3 0x3D1 DUP3 PUSH3 0x386 JUMP JUMPDEST DUP2 ADD DUP2 DUP2 LT PUSH8 0xFFFFFFFFFFFFFFFF DUP3 GT OR ISZERO PUSH3 0x3F3 JUMPI PUSH3 0x3F2 PUSH3 0x397 JUMP JUMPDEST JUMPDEST DUP1 PUSH1 0x40 MSTORE POP POP POP JUMP JUMPDEST PUSH1 0x0 PUSH3 0x408 PUSH3 0x36D JUMP JUMPDEST SWAP1 POP PUSH3 0x416 DUP3 DUP3 PUSH3 0x3C6 JUMP JUMPDEST SWAP2 SWAP1 POP JUMP JUMPDEST PUSH1 0x0 PUSH8 0xFFFFFFFFFFFFFFFF DUP3 GT ISZERO PUSH3 0x439 JUMPI PUSH3 0x438 PUSH3 0x397 JUMP JUMPDEST JUMPDEST PUSH1 0x20 DUP3 MUL SWAP1 POP PUSH1 0x20 DUP2 ADD SWAP1 POP SWAP2 SWAP1 POP JUMP JUMPDEST PUSH1 0x0 DUP1 REVERT JUMPDEST PUSH1 0x0 PUSH20 0xFFFFFFFFFFFFFFFFFFFFFFFFFFFFFFFFFFFFFFFF DUP3 AND SWAP1 POP SWAP2 SWAP1 POP JUMP JUMPDEST PUSH1 0x0 PUSH3 0x47C DUP3 PUSH3 0x44F JUMP JUMPDEST SWAP1 POP SWAP2 SWAP1 POP JUMP JUMPDEST PUSH3 0x48E DUP2 PUSH3 0x46F JUMP JUMPDEST DUP2 EQ PUSH3 0x49A JUMPI PUSH1 0x0 DUP1 REVERT JUMPDEST POP JUMP JUMPDEST PUSH1 0x0 DUP2 MLOAD SWAP1 POP PUSH3 0x4AE DUP2 PUSH3 0x483 JUMP JUMPDEST SWAP3 SWAP2 POP POP JUMP JUMPDEST PUSH1 0x0 PUSH3 0x4CB PUSH3 0x4C5 DUP5 PUSH3 0x41B JUMP JUMPDEST PUSH3 0x3FC JUMP JUMPDEST SWAP1 POP DUP1 DUP4 DUP3 MSTORE PUSH1 0x20 DUP3 ADD SWAP1 POP PUSH1 0x20 DUP5 MUL DUP4 ADD DUP6 DUP2 GT ISZERO PUSH3 0x4F1 JUMPI PUSH3 0x4F0 PUSH3 0x44A JUMP JUMPDEST JUMPDEST DUP4 JUMPDEST DUP2 DUP2 LT ISZERO PUSH3 0x51E JUMPI DUP1 PUSH3 0x509 DUP9 DUP3 PUSH3 0x49D JUMP JUMPDEST DUP5 MSTORE PUSH1 0x20 DUP5 ADD SWAP4 POP POP PUSH1 0x20 DUP2 ADD SWAP1 POP PUSH3 0x4F3 JUMP JUMPDEST POP POP POP SWAP4 SWAP3 POP POP POP JUMP JUMPDEST PUSH1 0x0 DUP3 PUSH1 0x1F DUP4 ADD SLT PUSH3 0x540 JUMPI PUSH3 0x53F PUSH3 0x381 JUMP JUMPDEST JUMPDEST DUP2 MLOAD PUSH3 0x552 DUP5 DUP3 PUSH1 0x20 DUP7 ADD PUSH3 0x4B4 JUMP JUMPDEST SWAP2 POP POP SWAP3 SWAP2 POP POP JUMP JUMPDEST PUSH1 0x0 PUSH8 0xFFFFFFFFFFFFFFFF DUP3 GT ISZERO PUSH3 0x579 JUMPI PUSH3 0x578 PUSH3 0x397 JUMP JUMPDEST JUMPDEST PUSH1 0x20 DUP3 MUL SWAP1 POP PUSH1 0x20 DUP2 ADD SWAP1 POP SWAP2 SWAP1 POP JUMP JUMPDEST PUSH1 0x0 DUP2 SWAP1 POP SWAP2 SWAP1 POP JUMP JUMPDEST PUSH3 0x59F DUP2 PUSH3 0x58A JUMP JUMPDEST DUP2 EQ PUSH3 0x5AB JUMPI PUSH1 0x0 DUP1 REVERT JUMPDEST POP JUMP JUMPDEST PUSH1 0x0 DUP2 MLOAD SWAP1 POP PUSH3 0x5BF DUP2 PUSH3 0x594 JUMP JUMPDEST SWAP3 SWAP2 POP POP JUMP JUMPDEST PUSH1 0x0 PUSH3 0x5DC PUSH3 0x5D6 DUP5 PUSH3 0x55B JUMP JUMPDEST PUSH3 0x3FC JUMP JUMPDEST SWAP1 POP DUP1 DUP4 DUP3 MSTORE PUSH1 0x20 DUP3 ADD SWAP1 POP PUSH1 0x20 DUP5 MUL DUP4 ADD DUP6 DUP2 GT ISZERO PUSH3 0x602 JUMPI PUSH3 0x601 PUSH3 0x44A JUMP JUMPDEST JUMPDEST DUP4 JUMPDEST DUP2 DUP2 LT ISZERO PUSH3 0x62F JUMPI DUP1 PUSH3 0x61A DUP9 DUP3 PUSH3 0x5AE JUMP JUMPDEST DUP5 MSTORE PUSH1 0x20 DUP5 ADD SWAP4 POP POP PUSH1 0x20 DUP2 ADD SWAP1 POP PUSH3 0x604 JUMP JUMPDEST POP POP POP SWAP4 SWAP3 POP POP POP JUMP JUMPDEST PUSH1 0x0 DUP3 PUSH1 0x1F DUP4 ADD SLT PUSH3 0x651 JUMPI PUSH3 0x650 PUSH3 0x381 JUMP JUMPDEST JUMPDEST DUP2 MLOAD PUSH3 0x663 DUP5 DUP3 PUSH1 0x20 DUP7 ADD PUSH3 0x5C5 JUMP JUMPDEST SWAP2 POP POP SWAP3 SWAP2 POP POP JUMP JUMPDEST PUSH1 0x0 DUP1 PUSH1 0x40 DUP4 DUP6 SUB SLT ISZERO PUSH3 0x686 JUMPI PUSH3 0x685 PUSH3 0x377 JUMP JUMPDEST JUMPDEST PUSH1 0x0 DUP4 ADD MLOAD PUSH8 0xFFFFFFFFFFFFFFFF DUP2 GT ISZERO PUSH3 0x6A7 JUMPI PUSH3 0x6A6 PUSH3 0x37C JUMP JUMPDEST JUMPDEST PUSH3 0x6B5 DUP6 DUP3 DUP7 ADD PUSH3 0x528 JUMP JUMPDEST SWAP3 POP POP PUSH1 0x20 DUP4 ADD MLOAD PUSH8 0xFFFFFFFFFFFFFFFF DUP2 GT ISZERO PUSH3 0x6D9 JUMPI PUSH3 0x6D8 PUSH3 0x37C JUMP JUMPDEST JUMPDEST PUSH3 0x6E7 DUP6 DUP3 DUP7 ADD PUSH3 0x639 JUMP JUMPDEST SWAP2 POP POP SWAP3 POP SWAP3 SWAP1 POP JUMP JUMPDEST PUSH1 0x0 DUP3 DUP3 MSTORE PUSH1 0x20 DUP3 ADD SWAP1 POP SWAP3 SWAP2 POP POP JUMP JUMPDEST PUSH32 0x5061796D656E7453706C69747465723A2070617965657320616E642073686172 PUSH1 0x0 DUP3 ADD MSTORE PUSH32 0x6573206C656E677468206D69736D617463680000000000000000000000000000 PUSH1 0x20 DUP3 ADD MSTORE POP JUMP JUMPDEST PUSH1 0x0 PUSH3 0x760 PUSH1 0x32 DUP4 PUSH3 0x6F1 JUMP JUMPDEST SWAP2 POP PUSH3 0x76D DUP3 PUSH3 0x702 JUMP JUMPDEST PUSH1 0x40 DUP3 ADD SWAP1 POP SWAP2 SWAP1 POP JUMP JUMPDEST PUSH1 0x0 PUSH1 0x20 DUP3 ADD SWAP1 POP DUP2 DUP2 SUB PUSH1 0x0 DUP4 ADD MSTORE PUSH3 0x793 DUP2 PUSH3 0x751 JUMP JUMPDEST SWAP1 POP SWAP2 SWAP1 POP JUMP JUMPDEST PUSH32 0x5061796D656E7453706C69747465723A206E6F20706179656573000000000000 PUSH1 0x0 DUP3 ADD MSTORE POP JUMP JUMPDEST PUSH1 0x0 PUSH3 0x7D2 PUSH1 0x1A DUP4 PUSH3 0x6F1 JUMP JUMPDEST SWAP2 POP PUSH3 0x7DF DUP3 PUSH3 0x79A JUMP JUMPDEST PUSH1 0x20 DUP3 ADD SWAP1 POP SWAP2 SWAP1 POP JUMP JUMPDEST PUSH1 0x0 PUSH1 0x20 DUP3 ADD SWAP1 POP DUP2 DUP2 SUB PUSH1 0x0 DUP4 ADD MSTORE PUSH3 0x805 DUP2 PUSH3 0x7C3 JUMP JUMPDEST SWAP1 POP SWAP2 SWAP1 POP JUMP JUMPDEST PUSH32 0x4E487B7100000000000000000000000000000000000000000000000000000000 PUSH1 0x0 MSTORE PUSH1 0x32 PUSH1 0x4 MSTORE PUSH1 0x24 PUSH1 0x0 REVERT JUMPDEST PUSH32 0x4E487B7100000000000000000000000000000000000000000000000000000000 PUSH1 0x0 MSTORE PUSH1 0x11 PUSH1 0x4 MSTORE PUSH1 0x24 PUSH1 0x0 REVERT JUMPDEST PUSH1 0x0 PUSH3 0x877 DUP3 PUSH3 0x58A JUMP JUMPDEST SWAP2 POP PUSH32 0xFFFFFFFFFFFFFFFFFFFFFFFFFFFFFFFFFFFFFFFFFFFFFFFFFFFFFFFFFFFFFFFF DUP3 EQ ISZERO PUSH3 0x8AD JUMPI PUSH3 0x8AC PUSH3 0x83B JUMP JUMPDEST JUMPDEST PUSH1 0x1 DUP3 ADD SWAP1 POP SWAP2 SWAP1 POP JUMP JUMPDEST PUSH32 0x5061796D656E7453706C69747465723A206163636F756E742069732074686520 PUSH1 0x0 DUP3 ADD MSTORE PUSH32 0x7A65726F20616464726573730000000000000000000000000000000000000000 PUSH1 0x20 DUP3 ADD MSTORE POP JUMP JUMPDEST PUSH1 0x0 PUSH3 0x916 PUSH1 0x2C DUP4 PUSH3 0x6F1 JUMP JUMPDEST SWAP2 POP PUSH3 0x923 DUP3 PUSH3 0x8B8 JUMP JUMPDEST PUSH1 0x40 DUP3 ADD SWAP1 POP SWAP2 SWAP1 POP JUMP JUMPDEST PUSH1 0x0 PUSH1 0x20 DUP3 ADD SWAP1 POP DUP2 DUP2 SUB PUSH1 0x0 DUP4 ADD MSTORE PUSH3 0x949 DUP2 PUSH3 0x907 JUMP JUMPDEST SWAP1 POP SWAP2 SWAP1 POP JUMP JUMPDEST PUSH32 0x5061796D656E7453706C69747465723A20736861726573206172652030000000 PUSH1 0x0 DUP3 ADD MSTORE POP JUMP JUMPDEST PUSH1 0x0 PUSH3 0x988 PUSH1 0x1D DUP4 PUSH3 0x6F1 JUMP JUMPDEST SWAP2 POP PUSH3 0x995 DUP3 PUSH3 0x950 JUMP JUMPDEST PUSH1 0x20 DUP3 ADD SWAP1 POP SWAP2 SWAP1 POP JUMP JUMPDEST PUSH1 0x0 PUSH1 0x20 DUP3 ADD SWAP1 POP DUP2 DUP2 SUB PUSH1 0x0 DUP4 ADD MSTORE PUSH3 0x9BB DUP2 PUSH3 0x979 JUMP JUMPDEST SWAP1 POP SWAP2 SWAP1 POP JUMP JUMPDEST PUSH32 0x5061796D656E7453706C69747465723A206163636F756E7420616C7265616479 PUSH1 0x0 DUP3 ADD MSTORE PUSH32 0x2068617320736861726573000000000000000000000000000000000000000000 PUSH1 0x20 DUP3 ADD MSTORE POP JUMP JUMPDEST PUSH1 0x0 PUSH3 0xA20 PUSH1 0x2B DUP4 PUSH3 0x6F1 JUMP JUMPDEST SWAP2 POP PUSH3 0xA2D DUP3 PUSH3 0x9C2 JUMP JUMPDEST PUSH1 0x40 DUP3 ADD SWAP1 POP SWAP2 SWAP1 POP JUMP JUMPDEST PUSH1 0x0 PUSH1 0x20 DUP3 ADD SWAP1 POP DUP2 DUP2 SUB PUSH1 0x0 DUP4 ADD MSTORE PUSH3 0xA53 DUP2 PUSH3 0xA11 JUMP JUMPDEST SWAP1 POP SWAP2 SWAP1 POP JUMP JUMPDEST PUSH1 0x0 PUSH3 0xA67 DUP3 PUSH3 0x58A JUMP JUMPDEST SWAP2 POP PUSH3 0xA74 DUP4 PUSH3 0x58A JUMP JUMPDEST SWAP3 POP DUP3 PUSH32 0xFFFFFFFFFFFFFFFFFFFFFFFFFFFFFFFFFFFFFFFFFFFFFFFFFFFFFFFFFFFFFFFF SUB DUP3 GT ISZERO PUSH3 0xAAC JUMPI PUSH3 0xAAB PUSH3 0x83B JUMP JUMPDEST JUMPDEST DUP3 DUP3 ADD SWAP1 POP SWAP3 SWAP2 POP POP JUMP JUMPDEST PUSH3 0xAC2 DUP2 PUSH3 0x46F JUMP JUMPDEST DUP3 MSTORE POP POP JUMP JUMPDEST PUSH3 0xAD3 DUP2 PUSH3 0x58A JUMP JUMPDEST DUP3 MSTORE POP POP JUMP JUMPDEST PUSH1 0x0 PUSH1 0x40 DUP3 ADD SWAP1 POP PUSH3 0xAF0 PUSH1 0x0 DUP4 ADD DUP6 PUSH3 0xAB7 JUMP JUMPDEST PUSH3 0xAFF PUSH1 0x20 DUP4 ADD DUP5 PUSH3 0xAC8 JUMP JUMPDEST SWAP4 SWAP3 POP POP POP JUMP JUMPDEST PUSH2 0xB1C DUP1 PUSH3 0xB16 PUSH1 0x0 CODECOPY PUSH1 0x0 RETURN INVALID PUSH1 0x80 PUSH1 0x40 MSTORE PUSH1 0x4 CALLDATASIZE LT PUSH2 0x7F JUMPI PUSH1 0x0 CALLDATALOAD PUSH1 0xE0 SHR DUP1 PUSH4 0x9852595C GT PUSH2 0x4E JUMPI DUP1 PUSH4 0x9852595C EQ PUSH2 0x192 JUMPI DUP1 PUSH4 0xA3F8EACE EQ PUSH2 0x1CF JUMPI DUP1 PUSH4 0xCE7C2AC2 EQ PUSH2 0x20C JUMPI DUP1 PUSH4 0xE33B7DE3 EQ PUSH2 0x249 JUMPI PUSH2 0xBF JUMP JUMPDEST DUP1 PUSH4 0x19165587 EQ PUSH2 0xC4 JUMPI DUP1 PUSH4 0x1B51003D EQ PUSH2 0xED JUMPI DUP1 PUSH4 0x3A98EF39 EQ PUSH2 0x12A JUMPI DUP1 PUSH4 0x63037B0C EQ PUSH2 0x155 JUMPI PUSH2 0xBF JUMP JUMPDEST CALLDATASIZE PUSH2 0xBF JUMPI PUSH32 0x6EF95F06320E7A25A04A175CA677B7052BDD97131872C2192525A629F51BE770 CALLER CALLVALUE PUSH1 0x40 MLOAD PUSH2 0xB5 SWAP3 SWAP2 SWAP1 PUSH2 0x5E2 JUMP JUMPDEST PUSH1 0x40 MLOAD DUP1 SWAP2 SUB SWAP1 LOG1 STOP JUMPDEST PUSH1 0x0 DUP1 REVERT JUMPDEST CALLVALUE DUP1 ISZERO PUSH2 0xD0 JUMPI PUSH1 0x0 DUP1 REVERT JUMPDEST POP PUSH2 0xEB PUSH1 0x4 DUP1 CALLDATASIZE SUB DUP2 ADD SWAP1 PUSH2 0xE6 SWAP2 SWAP1 PUSH2 0x64E JUMP JUMPDEST PUSH2 0x274 JUMP JUMPDEST STOP JUMPDEST CALLVALUE DUP1 ISZERO PUSH2 0xF9 JUMPI PUSH1 0x0 DUP1 REVERT JUMPDEST POP PUSH2 0x114 PUSH1 0x4 DUP1 CALLDATASIZE SUB DUP2 ADD SWAP1 PUSH2 0x10F SWAP2 SWAP1 PUSH2 0x6D3 JUMP JUMPDEST PUSH2 0x43A JUMP JUMPDEST PUSH1 0x40 MLOAD PUSH2 0x121 SWAP2 SWAP1 PUSH2 0x726 JUMP JUMPDEST PUSH1 0x40 MLOAD DUP1 SWAP2 SUB SWAP1 RETURN JUMPDEST CALLVALUE DUP1 ISZERO PUSH2 0x136 JUMPI PUSH1 0x0 DUP1 REVERT JUMPDEST POP PUSH2 0x13F PUSH2 0x4A8 JUMP JUMPDEST PUSH1 0x40 MLOAD PUSH2 0x14C SWAP2 SWAP1 PUSH2 0x726 JUMP JUMPDEST PUSH1 0x40 MLOAD DUP1 SWAP2 SUB SWAP1 RETURN JUMPDEST CALLVALUE DUP1 ISZERO PUSH2 0x161 JUMPI PUSH1 0x0 DUP1 REVERT JUMPDEST POP PUSH2 0x17C PUSH1 0x4 DUP1 CALLDATASIZE SUB DUP2 ADD SWAP1 PUSH2 0x177 SWAP2 SWAP1 PUSH2 0x741 JUMP JUMPDEST PUSH2 0x4AE JUMP JUMPDEST PUSH1 0x40 MLOAD PUSH2 0x189 SWAP2 SWAP1 PUSH2 0x76E JUMP JUMPDEST PUSH1 0x40 MLOAD DUP1 SWAP2 SUB SWAP1 RETURN JUMPDEST CALLVALUE DUP1 ISZERO PUSH2 0x19E JUMPI PUSH1 0x0 DUP1 REVERT JUMPDEST POP PUSH2 0x1B9 PUSH1 0x4 DUP1 CALLDATASIZE SUB DUP2 ADD SWAP1 PUSH2 0x1B4 SWAP2 SWAP1 PUSH2 0x789 JUMP JUMPDEST PUSH2 0x4ED JUMP JUMPDEST PUSH1 0x40 MLOAD PUSH2 0x1C6 SWAP2 SWAP1 PUSH2 0x726 JUMP JUMPDEST PUSH1 0x40 MLOAD DUP1 SWAP2 SUB SWAP1 RETURN JUMPDEST CALLVALUE DUP1 ISZERO PUSH2 0x1DB JUMPI PUSH1 0x0 DUP1 REVERT JUMPDEST POP PUSH2 0x1F6 PUSH1 0x4 DUP1 CALLDATASIZE SUB DUP2 ADD SWAP1 PUSH2 0x1F1 SWAP2 SWAP1 PUSH2 0x789 JUMP JUMPDEST PUSH2 0x505 JUMP JUMPDEST PUSH1 0x40 MLOAD PUSH2 0x203 SWAP2 SWAP1 PUSH2 0x726 JUMP JUMPDEST PUSH1 0x40 MLOAD DUP1 SWAP2 SUB SWAP1 RETURN JUMPDEST CALLVALUE DUP1 ISZERO PUSH2 0x218 JUMPI PUSH1 0x0 DUP1 REVERT JUMPDEST POP PUSH2 0x233 PUSH1 0x4 DUP1 CALLDATASIZE SUB DUP2 ADD SWAP1 PUSH2 0x22E SWAP2 SWAP1 PUSH2 0x789 JUMP JUMPDEST PUSH2 0x56A JUMP JUMPDEST PUSH1 0x40 MLOAD PUSH2 0x240 SWAP2 SWAP1 PUSH2 0x726 JUMP JUMPDEST PUSH1 0x40 MLOAD DUP1 SWAP2 SUB SWAP1 RETURN JUMPDEST CALLVALUE DUP1 ISZERO PUSH2 0x255 JUMPI PUSH1 0x0 DUP1 REVERT JUMPDEST POP PUSH2 0x25E PUSH2 0x582 JUMP JUMPDEST PUSH1 0x40 MLOAD PUSH2 0x26B SWAP2 SWAP1 PUSH2 0x726 JUMP JUMPDEST PUSH1 0x40 MLOAD DUP1 SWAP2 SUB SWAP1 RETURN JUMPDEST PUSH1 0x0 PUSH1 0x2 PUSH1 0x0 DUP4 PUSH20 0xFFFFFFFFFFFFFFFFFFFFFFFFFFFFFFFFFFFFFFFF AND PUSH20 0xFFFFFFFFFFFFFFFFFFFFFFFFFFFFFFFFFFFFFFFF AND DUP2 MSTORE PUSH1 0x20 ADD SWAP1 DUP2 MSTORE PUSH1 0x20 ADD PUSH1 0x0 KECCAK256 SLOAD GT PUSH2 0x2F6 JUMPI PUSH1 0x40 MLOAD PUSH32 0x8C379A000000000000000000000000000000000000000000000000000000000 DUP2 MSTORE PUSH1 0x4 ADD PUSH2 0x2ED SWAP1 PUSH2 0x839 JUMP JUMPDEST PUSH1 0x40 MLOAD DUP1 SWAP2 SUB SWAP1 REVERT JUMPDEST PUSH1 0x0 PUSH2 0x301 DUP3 PUSH2 0x505 JUMP JUMPDEST SWAP1 POP PUSH1 0x0 DUP2 EQ ISZERO PUSH2 0x347 JUMPI PUSH1 0x40 MLOAD PUSH32 0x8C379A000000000000000000000000000000000000000000000000000000000 DUP2 MSTORE PUSH1 0x4 ADD PUSH2 0x33E SWAP1 PUSH2 0x8CB JUMP JUMPDEST PUSH1 0x40 MLOAD DUP1 SWAP2 SUB SWAP1 REVERT JUMPDEST DUP1 PUSH1 0x1 PUSH1 0x0 DUP3 DUP3 SLOAD PUSH2 0x359 SWAP2 SWAP1 PUSH2 0x91A JUMP JUMPDEST SWAP3 POP POP DUP2 SWAP1 SSTORE POP DUP1 PUSH1 0x3 PUSH1 0x0 DUP5 PUSH20 0xFFFFFFFFFFFFFFFFFFFFFFFFFFFFFFFFFFFFFFFF AND PUSH20 0xFFFFFFFFFFFFFFFFFFFFFFFFFFFFFFFFFFFFFFFF AND DUP2 MSTORE PUSH1 0x20 ADD SWAP1 DUP2 MSTORE PUSH1 0x20 ADD PUSH1 0x0 KECCAK256 PUSH1 0x0 DUP3 DUP3 SLOAD PUSH2 0x3AF SWAP2 SWAP1 PUSH2 0x91A JUMP JUMPDEST SWAP3 POP POP DUP2 SWAP1 SSTORE POP DUP2 PUSH20 0xFFFFFFFFFFFFFFFFFFFFFFFFFFFFFFFFFFFFFFFF AND PUSH2 0x8FC DUP3 SWAP1 DUP2 ISZERO MUL SWAP1 PUSH1 0x40 MLOAD PUSH1 0x0 PUSH1 0x40 MLOAD DUP1 DUP4 SUB DUP2 DUP6 DUP9 DUP9 CALL SWAP4 POP POP POP POP ISZERO DUP1 ISZERO PUSH2 0x3FC JUMPI RETURNDATASIZE PUSH1 0x0 DUP1 RETURNDATACOPY RETURNDATASIZE PUSH1 0x0 REVERT JUMPDEST POP PUSH32 0xDF20FD1E76BC69D672E4814FAFB2C449BBA3A5369D8359ADF9E05E6FDE87B056 DUP3 DUP3 PUSH1 0x40 MLOAD PUSH2 0x42E SWAP3 SWAP2 SWAP1 PUSH2 0x9CF JUMP JUMPDEST PUSH1 0x40 MLOAD DUP1 SWAP2 SUB SWAP1 LOG1 POP POP JUMP JUMPDEST PUSH1 0x0 DUP2 PUSH1 0x0 SLOAD PUSH1 0x2 PUSH1 0x0 DUP8 PUSH20 0xFFFFFFFFFFFFFFFFFFFFFFFFFFFFFFFFFFFFFFFF AND PUSH20 0xFFFFFFFFFFFFFFFFFFFFFFFFFFFFFFFFFFFFFFFF AND DUP2 MSTORE PUSH1 0x20 ADD SWAP1 DUP2 MSTORE PUSH1 0x20 ADD PUSH1 0x0 KECCAK256 SLOAD DUP6 PUSH2 0x48B SWAP2 SWAP1 PUSH2 0x9F8 JUMP JUMPDEST PUSH2 0x495 SWAP2 SWAP1 PUSH2 0xA81 JUMP JUMPDEST PUSH2 0x49F SWAP2 SWAP1 PUSH2 0xAB2 JUMP JUMPDEST SWAP1 POP SWAP4 SWAP3 POP POP POP JUMP JUMPDEST PUSH1 0x0 SLOAD DUP2 JUMP JUMPDEST PUSH1 0x4 DUP2 DUP2 SLOAD DUP2 LT PUSH2 0x4BE JUMPI PUSH1 0x0 DUP1 REVERT JUMPDEST SWAP1 PUSH1 0x0 MSTORE PUSH1 0x20 PUSH1 0x0 KECCAK256 ADD PUSH1 0x0 SWAP2 POP SLOAD SWAP1 PUSH2 0x100 EXP SWAP1 DIV PUSH20 0xFFFFFFFFFFFFFFFFFFFFFFFFFFFFFFFFFFFFFFFF AND DUP2 JUMP JUMPDEST PUSH1 0x3 PUSH1 0x20 MSTORE DUP1 PUSH1 0x0 MSTORE PUSH1 0x40 PUSH1 0x0 KECCAK256 PUSH1 0x0 SWAP2 POP SWAP1 POP SLOAD DUP2 JUMP JUMPDEST PUSH1 0x0 DUP1 PUSH1 0x1 SLOAD SELFBALANCE PUSH2 0x516 SWAP2 SWAP1 PUSH2 0x91A JUMP JUMPDEST SWAP1 POP PUSH2 0x562 DUP4 DUP3 PUSH1 0x3 PUSH1 0x0 DUP8 PUSH20 0xFFFFFFFFFFFFFFFFFFFFFFFFFFFFFFFFFFFFFFFF AND PUSH20 0xFFFFFFFFFFFFFFFFFFFFFFFFFFFFFFFFFFFFFFFF AND DUP2 MSTORE PUSH1 0x20 ADD SWAP1 DUP2 MSTORE PUSH1 0x20 ADD PUSH1 0x0 KECCAK256 SLOAD PUSH2 0x43A JUMP JUMPDEST SWAP2 POP POP SWAP2 SWAP1 POP JUMP JUMPDEST PUSH1 0x2 PUSH1 0x20 MSTORE DUP1 PUSH1 0x0 MSTORE PUSH1 0x40 PUSH1 0x0 KECCAK256 PUSH1 0x0 SWAP2 POP SWAP1 POP SLOAD DUP2 JUMP JUMPDEST PUSH1 0x1 SLOAD DUP2 JUMP JUMPDEST PUSH1 0x0 PUSH20 0xFFFFFFFFFFFFFFFFFFFFFFFFFFFFFFFFFFFFFFFF DUP3 AND SWAP1 POP SWAP2 SWAP1 POP JUMP JUMPDEST PUSH1 0x0 PUSH2 0x5B3 DUP3 PUSH2 0x588 JUMP JUMPDEST SWAP1 POP SWAP2 SWAP1 POP JUMP JUMPDEST PUSH2 0x5C3 DUP2 PUSH2 0x5A8 JUMP JUMPDEST DUP3 MSTORE POP POP JUMP JUMPDEST PUSH1 0x0 DUP2 SWAP1 POP SWAP2 SWAP1 POP JUMP JUMPDEST PUSH2 0x5DC DUP2 PUSH2 0x5C9 JUMP JUMPDEST DUP3 MSTORE POP POP JUMP JUMPDEST PUSH1 0x0 PUSH1 0x40 DUP3 ADD SWAP1 POP PUSH2 0x5F7 PUSH1 0x0 DUP4 ADD DUP6 PUSH2 0x5BA JUMP JUMPDEST PUSH2 0x604 PUSH1 0x20 DUP4 ADD DUP5 PUSH2 0x5D3 JUMP JUMPDEST SWAP4 SWAP3 POP POP POP JUMP JUMPDEST PUSH1 0x0 DUP1 REVERT JUMPDEST PUSH1 0x0 PUSH2 0x61B DUP3 PUSH2 0x588 JUMP JUMPDEST SWAP1 POP SWAP2 SWAP1 POP JUMP JUMPDEST PUSH2 0x62B DUP2 PUSH2 0x610 JUMP JUMPDEST DUP2 EQ PUSH2 0x636 JUMPI PUSH1 0x0 DUP1 REVERT JUMPDEST POP JUMP JUMPDEST PUSH1 0x0 DUP2 CALLDATALOAD SWAP1 POP PUSH2 0x648 DUP2 PUSH2 0x622 JUMP JUMPDEST SWAP3 SWAP2 POP POP JUMP JUMPDEST PUSH1 0x0 PUSH1 0x20 DUP3 DUP5 SUB SLT ISZERO PUSH2 0x664 JUMPI PUSH2 0x663 PUSH2 0x60B JUMP JUMPDEST JUMPDEST PUSH1 0x0 PUSH2 0x672 DUP5 DUP3 DUP6 ADD PUSH2 0x639 JUMP JUMPDEST SWAP2 POP POP SWAP3 SWAP2 POP POP JUMP JUMPDEST PUSH2 0x684 DUP2 PUSH2 0x5A8 JUMP JUMPDEST DUP2 EQ PUSH2 0x68F JUMPI PUSH1 0x0 DUP1 REVERT JUMPDEST POP JUMP JUMPDEST PUSH1 0x0 DUP2 CALLDATALOAD SWAP1 POP PUSH2 0x6A1 DUP2 PUSH2 0x67B JUMP JUMPDEST SWAP3 SWAP2 POP POP JUMP JUMPDEST PUSH2 0x6B0 DUP2 PUSH2 0x5C9 JUMP JUMPDEST DUP2 EQ PUSH2 0x6BB JUMPI PUSH1 0x0 DUP1 REVERT JUMPDEST POP JUMP JUMPDEST PUSH1 0x0 DUP2 CALLDATALOAD SWAP1 POP PUSH2 0x6CD DUP2 PUSH2 0x6A7 JUMP JUMPDEST SWAP3 SWAP2 POP POP JUMP JUMPDEST PUSH1 0x0 DUP1 PUSH1 0x0 PUSH1 0x60 DUP5 DUP7 SUB SLT ISZERO PUSH2 0x6EC JUMPI PUSH2 0x6EB PUSH2 0x60B JUMP JUMPDEST JUMPDEST PUSH1 0x0 PUSH2 0x6FA DUP7 DUP3 DUP8 ADD PUSH2 0x692 JUMP JUMPDEST SWAP4 POP POP PUSH1 0x20 PUSH2 0x70B DUP7 DUP3 DUP8 ADD PUSH2 0x6BE JUMP JUMPDEST SWAP3 POP POP PUSH1 0x40 PUSH2 0x71C DUP7 DUP3 DUP8 ADD PUSH2 0x6BE JUMP JUMPDEST SWAP2 POP POP SWAP3 POP SWAP3 POP SWAP3 JUMP JUMPDEST PUSH1 0x0 PUSH1 0x20 DUP3 ADD SWAP1 POP PUSH2 0x73B PUSH1 0x0 DUP4 ADD DUP5 PUSH2 0x5D3 JUMP JUMPDEST SWAP3 SWAP2 POP POP JUMP JUMPDEST PUSH1 0x0 PUSH1 0x20 DUP3 DUP5 SUB SLT ISZERO PUSH2 0x757 JUMPI PUSH2 0x756 PUSH2 0x60B JUMP JUMPDEST JUMPDEST PUSH1 0x0 PUSH2 0x765 DUP5 DUP3 DUP6 ADD PUSH2 0x6BE JUMP JUMPDEST SWAP2 POP POP SWAP3 SWAP2 POP POP JUMP JUMPDEST PUSH1 0x0 PUSH1 0x20 DUP3 ADD SWAP1 POP PUSH2 0x783 PUSH1 0x0 DUP4 ADD DUP5 PUSH2 0x5BA JUMP JUMPDEST SWAP3 SWAP2 POP POP JUMP JUMPDEST PUSH1 0x0 PUSH1 0x20 DUP3 DUP5 SUB SLT ISZERO PUSH2 0x79F JUMPI PUSH2 0x79E PUSH2 0x60B JUMP JUMPDEST JUMPDEST PUSH1 0x0 PUSH2 0x7AD DUP5 DUP3 DUP6 ADD PUSH2 0x692 JUMP JUMPDEST SWAP2 POP POP SWAP3 SWAP2 POP POP JUMP JUMPDEST PUSH1 0x0 DUP3 DUP3 MSTORE PUSH1 0x20 DUP3 ADD SWAP1 POP SWAP3 SWAP2 POP POP JUMP JUMPDEST PUSH32 0x5061796D656E7453706C69747465723A206163636F756E7420686173206E6F20 PUSH1 0x0 DUP3 ADD MSTORE PUSH32 0x7368617265730000000000000000000000000000000000000000000000000000 PUSH1 0x20 DUP3 ADD MSTORE POP JUMP JUMPDEST PUSH1 0x0 PUSH2 0x823 PUSH1 0x26 DUP4 PUSH2 0x7B6 JUMP JUMPDEST SWAP2 POP PUSH2 0x82E DUP3 PUSH2 0x7C7 JUMP JUMPDEST PUSH1 0x40 DUP3 ADD SWAP1 POP SWAP2 SWAP1 POP JUMP JUMPDEST PUSH1 0x0 PUSH1 0x20 DUP3 ADD SWAP1 POP DUP2 DUP2 SUB PUSH1 0x0 DUP4 ADD MSTORE PUSH2 0x852 DUP2 PUSH2 0x816 JUMP JUMPDEST SWAP1 POP SWAP2 SWAP1 POP JUMP JUMPDEST PUSH32 0x5061796D656E7453706C69747465723A206163636F756E74206973206E6F7420 PUSH1 0x0 DUP3 ADD MSTORE PUSH32 0x647565207061796D656E74000000000000000000000000000000000000000000 PUSH1 0x20 DUP3 ADD MSTORE POP JUMP JUMPDEST PUSH1 0x0 PUSH2 0x8B5 PUSH1 0x2B DUP4 PUSH2 0x7B6 JUMP JUMPDEST SWAP2 POP PUSH2 0x8C0 DUP3 PUSH2 0x859 JUMP JUMPDEST PUSH1 0x40 DUP3 ADD SWAP1 POP SWAP2 SWAP1 POP JUMP JUMPDEST PUSH1 0x0 PUSH1 0x20 DUP3 ADD SWAP1 POP DUP2 DUP2 SUB PUSH1 0x0 DUP4 ADD MSTORE PUSH2 0x8E4 DUP2 PUSH2 0x8A8 JUMP JUMPDEST SWAP1 POP SWAP2 SWAP1 POP JUMP JUMPDEST PUSH32 0x4E487B7100000000000000000000000000000000000000000000000000000000 PUSH1 0x0 MSTORE PUSH1 0x11 PUSH1 0x4 MSTORE PUSH1 0x24 PUSH1 0x0 REVERT JUMPDEST PUSH1 0x0 PUSH2 0x925 DUP3 PUSH2 0x5C9 JUMP JUMPDEST SWAP2 POP PUSH2 0x930 DUP4 PUSH2 0x5C9 JUMP JUMPDEST SWAP3 POP DUP3 PUSH32 0xFFFFFFFFFFFFFFFFFFFFFFFFFFFFFFFFFFFFFFFFFFFFFFFFFFFFFFFFFFFFFFFF SUB DUP3 GT ISZERO PUSH2 0x965 JUMPI PUSH2 0x964 PUSH2 0x8EB JUMP JUMPDEST JUMPDEST DUP3 DUP3 ADD SWAP1 POP SWAP3 SWAP2 POP POP JUMP JUMPDEST PUSH1 0x0 DUP2 SWAP1 POP SWAP2 SWAP1 POP JUMP JUMPDEST PUSH1 0x0 PUSH2 0x995 PUSH2 0x990 PUSH2 0x98B DUP5 PUSH2 0x588 JUMP JUMPDEST PUSH2 0x970 JUMP JUMPDEST PUSH2 0x588 JUMP JUMPDEST SWAP1 POP SWAP2 SWAP1 POP JUMP JUMPDEST PUSH1 0x0 PUSH2 0x9A7 DUP3 PUSH2 0x97A JUMP JUMPDEST SWAP1 POP SWAP2 SWAP1 POP JUMP JUMPDEST PUSH1 0x0 PUSH2 0x9B9 DUP3 PUSH2 0x99C JUMP JUMPDEST SWAP1 POP SWAP2 SWAP1 POP JUMP JUMPDEST PUSH2 0x9C9 DUP2 PUSH2 0x9AE JUMP JUMPDEST DUP3 MSTORE POP POP JUMP JUMPDEST PUSH1 0x0 PUSH1 0x40 DUP3 ADD SWAP1 POP PUSH2 0x9E4 PUSH1 0x0 DUP4 ADD DUP6 PUSH2 0x9C0 JUMP JUMPDEST PUSH2 0x9F1 PUSH1 0x20 DUP4 ADD DUP5 PUSH2 0x5D3 JUMP JUMPDEST SWAP4 SWAP3 POP POP POP JUMP JUMPDEST PUSH1 0x0 PUSH2 0xA03 DUP3 PUSH2 0x5C9 JUMP JUMPDEST SWAP2 POP PUSH2 0xA0E DUP4 PUSH2 0x5C9 JUMP JUMPDEST SWAP3 POP DUP2 PUSH32 0xFFFFFFFFFFFFFFFFFFFFFFFFFFFFFFFFFFFFFFFFFFFFFFFFFFFFFFFFFFFFFFFF DIV DUP4 GT DUP3 ISZERO ISZERO AND ISZERO PUSH2 0xA47 JUMPI PUSH2 0xA46 PUSH2 0x8EB JUMP JUMPDEST JUMPDEST DUP3 DUP3 MUL SWAP1 POP SWAP3 SWAP2 POP POP JUMP JUMPDEST PUSH32 0x4E487B7100000000000000000000000000000000000000000000000000000000 PUSH1 0x0 MSTORE PUSH1 0x12 PUSH1 0x4 MSTORE PUSH1 0x24 PUSH1 0x0 REVERT JUMPDEST PUSH1 0x0 PUSH2 0xA8C DUP3 PUSH2 0x5C9 JUMP JUMPDEST SWAP2 POP PUSH2 0xA97 DUP4 PUSH2 0x5C9 JUMP JUMPDEST SWAP3 POP DUP3 PUSH2 0xAA7 JUMPI PUSH2 0xAA6 PUSH2 0xA52 JUMP JUMPDEST JUMPDEST DUP3 DUP3 DIV SWAP1 POP SWAP3 SWAP2 POP POP JUMP JUMPDEST PUSH1 0x0 PUSH2 0xABD DUP3 PUSH2 0x5C9 JUMP JUMPDEST SWAP2 POP PUSH2 0xAC8 DUP4 PUSH2 0x5C9 JUMP JUMPDEST SWAP3 POP DUP3 DUP3 LT ISZERO PUSH2 0xADB JUMPI PUSH2 0xADA PUSH2 0x8EB JUMP JUMPDEST JUMPDEST DUP3 DUP3 SUB SWAP1 POP SWAP3 SWAP2 POP POP JUMP INVALID LOG2 PUSH5 0x6970667358 0x22 SLT KECCAK256 DUP7 CALLDATALOAD PUSH10 0xF933400AAA6ED6FE791D 0xE5 REVERT LOG3 0x5E 0xCF 0xD6 GT 0x4F CHAINID DELEGATECALL PUSH15 0xF032AF643C6FB44064736F6C634300 ADDMOD ADDMOD STOP CALLER "
				},
				"gasEstimates": {
					"creation": {
						"codeDepositCost": "568800",
						"executionCost": "infinite",
						"totalCost": "infinite"
					},
					"external": {
						"payees(uint256)": "5023",
						"pendingPayment(address,uint256,uint256)": "infinite",
						"releasable(address)": "infinite",
						"release(address)": "infinite",
						"released(address)": "2814",
						"shares(address)": "2858",
						"totalReleased()": "2495",
						"totalShares()": "2474"
					},
					"internal": {
						"_addPayee(address,uint256)": "infinite"
					}
				},
				"methodIdentifiers": {
					"payees(uint256)": "63037b0c",
					"pendingPayment(address,uint256,uint256)": "1b51003d",
					"releasable(address)": "a3f8eace",
					"release(address)": "19165587",
					"released(address)": "9852595c",
					"shares(address)": "ce7c2ac2",
					"totalReleased()": "e33b7de3",
					"totalShares()": "3a98ef39"
				}
			},
			"storageLayout": {
				"storage": [
					{
						"astId": 21,
						"contract": "contracts/fund.sol:PaymentSplit",
						"label": "totalShares",
						"offset": 0,
						"slot": "0",
						"type": "t_uint256"
					},
					{
						"astId": 23,
						"contract": "contracts/fund.sol:PaymentSplit",
						"label": "totalReleased",
						"offset": 0,
						"slot": "1",
						"type": "t_uint256"
					},
					{
						"astId": 27,
						"contract": "contracts/fund.sol:PaymentSplit",
						"label": "shares",
						"offset": 0,
						"slot": "2",
						"type": "t_mapping(t_address,t_uint256)"
					},
					{
						"astId": 31,
						"contract": "contracts/fund.sol:PaymentSplit",
						"label": "released",
						"offset": 0,
						"slot": "3",
						"type": "t_mapping(t_address,t_uint256)"
					},
					{
						"astId": 34,
						"contract": "contracts/fund.sol:PaymentSplit",
						"label": "payees",
						"offset": 0,
						"slot": "4",
						"type": "t_array(t_address)dyn_storage"
					}
				],
				"types": {
					"t_address": {
						"encoding": "inplace",
						"label": "address",
						"numberOfBytes": "20"
					},
					"t_array(t_address)dyn_storage": {
						"base": "t_address",
						"encoding": "dynamic_array",
						"label": "address[]",
						"numberOfBytes": "32"
					},
					"t_mapping(t_address,t_uint256)": {
						"encoding": "mapping",
						"key": "t_address",
						"label": "mapping(address => uint256)",
						"numberOfBytes": "32",
						"value": "t_uint256"
					},
					"t_uint256": {
						"encoding": "inplace",
						"label": "uint256",
						"numberOfBytes": "32"
					}
				}
			},
			"userdoc": {
				"kind": "user",
				"methods": {},
				"version": 1
			}
		}
	}
}