{
	"contracts/option.sol": {
		"Options": {
			"abi": [
				{
					"inputs": [
						{
							"internalType": "address payable",
							"name": "_buyer",
							"type": "address"
						},
						{
							"internalType": "uint256",
							"name": "_strikePrice",
							"type": "uint256"
						},
						{
							"internalType": "uint256",
							"name": "_premium",
							"type": "uint256"
						},
						{
							"internalType": "uint256",
							"name": "_duration",
							"type": "uint256"
						},
						{
							"internalType": "enum Options.OptionType",
							"name": "_type",
							"type": "uint8"
						}
					],
					"stateMutability": "payable",
					"type": "constructor"
				},
				{
					"inputs": [],
					"name": "buyer",
					"outputs": [
						{
							"internalType": "address payable",
							"name": "",
							"type": "address"
						}
					],
					"stateMutability": "view",
					"type": "function"
				},
				{
					"inputs": [
						{
							"internalType": "uint256",
							"name": "_price",
							"type": "uint256"
						}
					],
					"name": "exercise",
					"outputs": [],
					"stateMutability": "nonpayable",
					"type": "function"
				},
				{
					"inputs": [],
					"name": "exercised",
					"outputs": [
						{
							"internalType": "bool",
							"name": "",
							"type": "bool"
						}
					],
					"stateMutability": "view",
					"type": "function"
				},
				{
					"inputs": [],
					"name": "expiration",
					"outputs": [
						{
							"internalType": "uint256",
							"name": "",
							"type": "uint256"
						}
					],
					"stateMutability": "view",
					"type": "function"
				},
				{
					"inputs": [],
					"name": "expire",
					"outputs": [],
					"stateMutability": "nonpayable",
					"type": "function"
				},
				{
					"inputs": [],
					"name": "expired",
					"outputs": [
						{
							"internalType": "bool",
							"name": "",
							"type": "bool"
						}
					],
					"stateMutability": "view",
					"type": "function"
				},
				{
					"inputs": [],
					"name": "optionType",
					"outputs": [
						{
							"internalType": "enum Options.OptionType",
							"name": "",
							"type": "uint8"
						}
					],
					"stateMutability": "view",
					"type": "function"
				},
				{
					"inputs": [],
					"name": "premium",
					"outputs": [
						{
							"internalType": "uint256",
							"name": "",
							"type": "uint256"
						}
					],
					"stateMutability": "view",
					"type": "function"
				},
				{
					"inputs": [],
					"name": "refund",
					"outputs": [],
					"stateMutability": "nonpayable",
					"type": "function"
				},
				{
					"inputs": [],
					"name": "seller",
					"outputs": [
						{
							"internalType": "address payable",
							"name": "",
							"type": "address"
						}
					],
					"stateMutability": "view",
					"type": "function"
				},
				{
					"inputs": [],
					"name": "status",
					"outputs": [
						{
							"internalType": "bool",
							"name": "",
							"type": "bool"
						},
						{
							"internalType": "bool",
							"name": "",
							"type": "bool"
						}
					],
					"stateMutability": "view",
					"type": "function"
				},
				{
					"inputs": [],
					"name": "strikePrice",
					"outputs": [
						{
							"internalType": "uint256",
							"name": "",
							"type": "uint256"
						}
					],
					"stateMutability": "view",
					"type": "function"
				}
			],
			"devdoc": {
				"kind": "dev",
				"methods": {},
				"version": 1
			},
			"evm": {
				"assembly": "    /* \"contracts/option.sol\":58:2612  contract Options {... */\n  mstore(0x40, 0x80)\n    /* \"contracts/option.sol\":409:852  constructor(address payable _buyer, uint256 _strikePrice, uint256 _premium, uint256 _duration, OptionType _type) payable {... */\n  mload(0x40)\n  sub(codesize, bytecodeSize)\n  dup1\n  bytecodeSize\n  dup4\n  codecopy\n  dup2\n  dup2\n  add\n  0x40\n  mstore\n  dup2\n  add\n  swap1\n  tag_1\n  swap2\n  swap1\n  tag_2\n  jump\t// in\ntag_1:\n    /* \"contracts/option.sol\":557:567  msg.sender */\n  caller\n    /* \"contracts/option.sol\":540:546  seller */\n  0x00\n  dup1\n    /* \"contracts/option.sol\":540:568  seller = payable(msg.sender) */\n  0x0100\n  exp\n  dup2\n  sload\n  dup2\n  0xffffffffffffffffffffffffffffffffffffffff\n  mul\n  not\n  and\n  swap1\n  dup4\n  0xffffffffffffffffffffffffffffffffffffffff\n  and\n  mul\n  or\n  swap1\n  sstore\n  pop\n    /* \"contracts/option.sol\":586:592  _buyer */\n  dup5\n    /* \"contracts/option.sol\":578:583  buyer */\n  0x01\n  0x00\n    /* \"contracts/option.sol\":578:592  buyer = _buyer */\n  0x0100\n  exp\n  dup2\n  sload\n  dup2\n  0xffffffffffffffffffffffffffffffffffffffff\n  mul\n  not\n  and\n  swap1\n  dup4\n  0xffffffffffffffffffffffffffffffffffffffff\n  and\n  mul\n  or\n  swap1\n  sstore\n  pop\n    /* \"contracts/option.sol\":615:620  _type */\n  dup1\n    /* \"contracts/option.sol\":602:612  optionType */\n  0x01\n  0x14\n    /* \"contracts/option.sol\":602:620  optionType = _type */\n  0x0100\n  exp\n  dup2\n  sload\n  dup2\n  0xff\n  mul\n  not\n  and\n  swap1\n  dup4\n  0x03\n  dup2\n  gt\n  iszero\n  tag_5\n  jumpi\n  tag_6\n  tag_7\n  jump\t// in\ntag_6:\ntag_5:\n  mul\n  or\n  swap1\n  sstore\n  pop\n    /* \"contracts/option.sol\":644:656  _strikePrice */\n  dup4\n    /* \"contracts/option.sol\":630:641  strikePrice */\n  0x02\n    /* \"contracts/option.sol\":630:656  strikePrice = _strikePrice */\n  dup2\n  swap1\n  sstore\n  pop\n    /* \"contracts/option.sol\":676:684  _premium */\n  dup3\n    /* \"contracts/option.sol\":666:673  premium */\n  0x03\n    /* \"contracts/option.sol\":666:684  premium = _premium */\n  dup2\n  swap1\n  sstore\n  pop\n    /* \"contracts/option.sol\":725:734  _duration */\n  dup2\n    /* \"contracts/option.sol\":707:722  block.timestamp */\n  timestamp\n    /* \"contracts/option.sol\":707:734  block.timestamp + _duration */\n  tag_8\n  swap2\n  swap1\n  tag_9\n  jump\t// in\ntag_8:\n    /* \"contracts/option.sol\":694:704  expiration */\n  0x04\n    /* \"contracts/option.sol\":694:734  expiration = block.timestamp + _duration */\n  dup2\n  swap1\n  sstore\n  pop\n    /* \"contracts/option.sol\":756:761  false */\n  0x00\n    /* \"contracts/option.sol\":744:753  exercised */\n  0x05\n  0x00\n    /* \"contracts/option.sol\":744:761  exercised = false */\n  0x0100\n  exp\n  dup2\n  sload\n  dup2\n  0xff\n  mul\n  not\n  and\n  swap1\n  dup4\n  iszero\n  iszero\n  mul\n  or\n  swap1\n  sstore\n  pop\n    /* \"contracts/option.sol\":781:786  false */\n  0x00\n    /* \"contracts/option.sol\":771:778  expired */\n  0x05\n  0x01\n    /* \"contracts/option.sol\":771:786  expired = false */\n  0x0100\n  exp\n  dup2\n  sload\n  dup2\n  0xff\n  mul\n  not\n  and\n  swap1\n  dup4\n  iszero\n  iszero\n  mul\n  or\n  swap1\n  sstore\n  pop\n    /* \"contracts/option.sol\":817:825  _premium */\n  dup3\n    /* \"contracts/option.sol\":804:813  msg.value */\n  callvalue\n    /* \"contracts/option.sol\":804:825  msg.value == _premium */\n  eq\n    /* \"contracts/option.sol\":796:845  require(msg.value == _premium, \"Invalid premium\") */\n  tag_10\n  jumpi\n  mload(0x40)\n  0x08c379a000000000000000000000000000000000000000000000000000000000\n  dup2\n  mstore\n  0x04\n  add\n  tag_11\n  swap1\n  tag_12\n  jump\t// in\ntag_11:\n  mload(0x40)\n  dup1\n  swap2\n  sub\n  swap1\n  revert\ntag_10:\n    /* \"contracts/option.sol\":409:852  constructor(address payable _buyer, uint256 _strikePrice, uint256 _premium, uint256 _duration, OptionType _type) payable {... */\n  pop\n  pop\n  pop\n  pop\n  pop\n    /* \"contracts/option.sol\":58:2612  contract Options {... */\n  jump(tag_13)\n    /* \"#utility.yul\":88:205   */\ntag_15:\n    /* \"#utility.yul\":197:198   */\n  0x00\n    /* \"#utility.yul\":194:195   */\n  dup1\n    /* \"#utility.yul\":187:199   */\n  revert\n    /* \"#utility.yul\":334:460   */\ntag_17:\n    /* \"#utility.yul\":371:378   */\n  0x00\n    /* \"#utility.yul\":411:453   */\n  0xffffffffffffffffffffffffffffffffffffffff\n    /* \"#utility.yul\":404:409   */\n  dup3\n    /* \"#utility.yul\":400:454   */\n  and\n    /* \"#utility.yul\":389:454   */\n  swap1\n  pop\n    /* \"#utility.yul\":334:460   */\n  swap2\n  swap1\n  pop\n  jump\t// out\n    /* \"#utility.yul\":466:570   */\ntag_18:\n    /* \"#utility.yul\":511:518   */\n  0x00\n    /* \"#utility.yul\":540:564   */\n  tag_36\n    /* \"#utility.yul\":558:563   */\n  dup3\n    /* \"#utility.yul\":540:564   */\n  tag_17\n  jump\t// in\ntag_36:\n    /* \"#utility.yul\":529:564   */\n  swap1\n  pop\n    /* \"#utility.yul\":466:570   */\n  swap2\n  swap1\n  pop\n  jump\t// out\n    /* \"#utility.yul\":576:714   */\ntag_19:\n    /* \"#utility.yul\":657:689   */\n  tag_38\n    /* \"#utility.yul\":683:688   */\n  dup2\n    /* \"#utility.yul\":657:689   */\n  tag_18\n  jump\t// in\ntag_38:\n    /* \"#utility.yul\":650:655   */\n  dup2\n    /* \"#utility.yul\":647:690   */\n  eq\n    /* \"#utility.yul\":637:708   */\n  tag_39\n  jumpi\n    /* \"#utility.yul\":704:705   */\n  0x00\n    /* \"#utility.yul\":701:702   */\n  dup1\n    /* \"#utility.yul\":694:706   */\n  revert\n    /* \"#utility.yul\":637:708   */\ntag_39:\n    /* \"#utility.yul\":576:714   */\n  pop\n  jump\t// out\n    /* \"#utility.yul\":720:879   */\ntag_20:\n    /* \"#utility.yul\":785:790   */\n  0x00\n    /* \"#utility.yul\":816:822   */\n  dup2\n    /* \"#utility.yul\":810:823   */\n  mload\n    /* \"#utility.yul\":801:823   */\n  swap1\n  pop\n    /* \"#utility.yul\":832:873   */\n  tag_41\n    /* \"#utility.yul\":867:872   */\n  dup2\n    /* \"#utility.yul\":832:873   */\n  tag_19\n  jump\t// in\ntag_41:\n    /* \"#utility.yul\":720:879   */\n  swap3\n  swap2\n  pop\n  pop\n  jump\t// out\n    /* \"#utility.yul\":885:962   */\ntag_21:\n    /* \"#utility.yul\":922:929   */\n  0x00\n    /* \"#utility.yul\":951:956   */\n  dup2\n    /* \"#utility.yul\":940:956   */\n  swap1\n  pop\n    /* \"#utility.yul\":885:962   */\n  swap2\n  swap1\n  pop\n  jump\t// out\n    /* \"#utility.yul\":968:1090   */\ntag_22:\n    /* \"#utility.yul\":1041:1065   */\n  tag_44\n    /* \"#utility.yul\":1059:1064   */\n  dup2\n    /* \"#utility.yul\":1041:1065   */\n  tag_21\n  jump\t// in\ntag_44:\n    /* \"#utility.yul\":1034:1039   */\n  dup2\n    /* \"#utility.yul\":1031:1066   */\n  eq\n    /* \"#utility.yul\":1021:1084   */\n  tag_45\n  jumpi\n    /* \"#utility.yul\":1080:1081   */\n  0x00\n    /* \"#utility.yul\":1077:1078   */\n  dup1\n    /* \"#utility.yul\":1070:1082   */\n  revert\n    /* \"#utility.yul\":1021:1084   */\ntag_45:\n    /* \"#utility.yul\":968:1090   */\n  pop\n  jump\t// out\n    /* \"#utility.yul\":1096:1239   */\ntag_23:\n    /* \"#utility.yul\":1153:1158   */\n  0x00\n    /* \"#utility.yul\":1184:1190   */\n  dup2\n    /* \"#utility.yul\":1178:1191   */\n  mload\n    /* \"#utility.yul\":1169:1191   */\n  swap1\n  pop\n    /* \"#utility.yul\":1200:1233   */\n  tag_47\n    /* \"#utility.yul\":1227:1232   */\n  dup2\n    /* \"#utility.yul\":1200:1233   */\n  tag_22\n  jump\t// in\ntag_47:\n    /* \"#utility.yul\":1096:1239   */\n  swap3\n  swap2\n  pop\n  pop\n  jump\t// out\n    /* \"#utility.yul\":1245:1356   */\ntag_24:\n    /* \"#utility.yul\":1330:1331   */\n  0x04\n    /* \"#utility.yul\":1323:1328   */\n  dup2\n    /* \"#utility.yul\":1320:1332   */\n  lt\n    /* \"#utility.yul\":1310:1350   */\n  tag_49\n  jumpi\n    /* \"#utility.yul\":1346:1347   */\n  0x00\n    /* \"#utility.yul\":1343:1344   */\n  dup1\n    /* \"#utility.yul\":1336:1348   */\n  revert\n    /* \"#utility.yul\":1310:1350   */\ntag_49:\n    /* \"#utility.yul\":1245:1356   */\n  pop\n  jump\t// out\n    /* \"#utility.yul\":1362:1529   */\ntag_25:\n    /* \"#utility.yul\":1431:1436   */\n  0x00\n    /* \"#utility.yul\":1462:1468   */\n  dup2\n    /* \"#utility.yul\":1456:1469   */\n  mload\n    /* \"#utility.yul\":1447:1469   */\n  swap1\n  pop\n    /* \"#utility.yul\":1478:1523   */\n  tag_51\n    /* \"#utility.yul\":1517:1522   */\n  dup2\n    /* \"#utility.yul\":1478:1523   */\n  tag_24\n  jump\t// in\ntag_51:\n    /* \"#utility.yul\":1362:1529   */\n  swap3\n  swap2\n  pop\n  pop\n  jump\t// out\n    /* \"#utility.yul\":1535:2552   */\ntag_2:\n    /* \"#utility.yul\":1661:1667   */\n  0x00\n    /* \"#utility.yul\":1669:1675   */\n  dup1\n    /* \"#utility.yul\":1677:1683   */\n  0x00\n    /* \"#utility.yul\":1685:1691   */\n  dup1\n    /* \"#utility.yul\":1693:1699   */\n  0x00\n    /* \"#utility.yul\":1742:1745   */\n  0xa0\n    /* \"#utility.yul\":1730:1739   */\n  dup7\n    /* \"#utility.yul\":1721:1728   */\n  dup9\n    /* \"#utility.yul\":1717:1740   */\n  sub\n    /* \"#utility.yul\":1713:1746   */\n  slt\n    /* \"#utility.yul\":1710:1830   */\n  iszero\n  tag_53\n  jumpi\n    /* \"#utility.yul\":1749:1828   */\n  tag_54\n  tag_15\n  jump\t// in\ntag_54:\n    /* \"#utility.yul\":1710:1830   */\ntag_53:\n    /* \"#utility.yul\":1869:1870   */\n  0x00\n    /* \"#utility.yul\":1894:1966   */\n  tag_55\n    /* \"#utility.yul\":1958:1965   */\n  dup9\n    /* \"#utility.yul\":1949:1955   */\n  dup3\n    /* \"#utility.yul\":1938:1947   */\n  dup10\n    /* \"#utility.yul\":1934:1956   */\n  add\n    /* \"#utility.yul\":1894:1966   */\n  tag_20\n  jump\t// in\ntag_55:\n    /* \"#utility.yul\":1884:1966   */\n  swap6\n  pop\n    /* \"#utility.yul\":1840:1976   */\n  pop\n    /* \"#utility.yul\":2015:2017   */\n  0x20\n    /* \"#utility.yul\":2041:2105   */\n  tag_56\n    /* \"#utility.yul\":2097:2104   */\n  dup9\n    /* \"#utility.yul\":2088:2094   */\n  dup3\n    /* \"#utility.yul\":2077:2086   */\n  dup10\n    /* \"#utility.yul\":2073:2095   */\n  add\n    /* \"#utility.yul\":2041:2105   */\n  tag_23\n  jump\t// in\ntag_56:\n    /* \"#utility.yul\":2031:2105   */\n  swap5\n  pop\n    /* \"#utility.yul\":1986:2115   */\n  pop\n    /* \"#utility.yul\":2154:2156   */\n  0x40\n    /* \"#utility.yul\":2180:2244   */\n  tag_57\n    /* \"#utility.yul\":2236:2243   */\n  dup9\n    /* \"#utility.yul\":2227:2233   */\n  dup3\n    /* \"#utility.yul\":2216:2225   */\n  dup10\n    /* \"#utility.yul\":2212:2234   */\n  add\n    /* \"#utility.yul\":2180:2244   */\n  tag_23\n  jump\t// in\ntag_57:\n    /* \"#utility.yul\":2170:2244   */\n  swap4\n  pop\n    /* \"#utility.yul\":2125:2254   */\n  pop\n    /* \"#utility.yul\":2293:2295   */\n  0x60\n    /* \"#utility.yul\":2319:2383   */\n  tag_58\n    /* \"#utility.yul\":2375:2382   */\n  dup9\n    /* \"#utility.yul\":2366:2372   */\n  dup3\n    /* \"#utility.yul\":2355:2364   */\n  dup10\n    /* \"#utility.yul\":2351:2373   */\n  add\n    /* \"#utility.yul\":2319:2383   */\n  tag_23\n  jump\t// in\ntag_58:\n    /* \"#utility.yul\":2309:2383   */\n  swap3\n  pop\n    /* \"#utility.yul\":2264:2393   */\n  pop\n    /* \"#utility.yul\":2432:2435   */\n  0x80\n    /* \"#utility.yul\":2459:2535   */\n  tag_59\n    /* \"#utility.yul\":2527:2534   */\n  dup9\n    /* \"#utility.yul\":2518:2524   */\n  dup3\n    /* \"#utility.yul\":2507:2516   */\n  dup10\n    /* \"#utility.yul\":2503:2525   */\n  add\n    /* \"#utility.yul\":2459:2535   */\n  tag_25\n  jump\t// in\ntag_59:\n    /* \"#utility.yul\":2449:2535   */\n  swap2\n  pop\n    /* \"#utility.yul\":2403:2545   */\n  pop\n    /* \"#utility.yul\":1535:2552   */\n  swap3\n  swap6\n  pop\n  swap3\n  swap6\n  swap1\n  swap4\n  pop\n  jump\t// out\n    /* \"#utility.yul\":2558:2738   */\ntag_7:\n    /* \"#utility.yul\":2606:2683   */\n  0x4e487b7100000000000000000000000000000000000000000000000000000000\n    /* \"#utility.yul\":2603:2604   */\n  0x00\n    /* \"#utility.yul\":2596:2684   */\n  mstore\n    /* \"#utility.yul\":2703:2707   */\n  0x21\n    /* \"#utility.yul\":2700:2701   */\n  0x04\n    /* \"#utility.yul\":2693:2708   */\n  mstore\n    /* \"#utility.yul\":2727:2731   */\n  0x24\n    /* \"#utility.yul\":2724:2725   */\n  0x00\n    /* \"#utility.yul\":2717:2732   */\n  revert\n    /* \"#utility.yul\":2744:2924   */\ntag_26:\n    /* \"#utility.yul\":2792:2869   */\n  0x4e487b7100000000000000000000000000000000000000000000000000000000\n    /* \"#utility.yul\":2789:2790   */\n  0x00\n    /* \"#utility.yul\":2782:2870   */\n  mstore\n    /* \"#utility.yul\":2889:2893   */\n  0x11\n    /* \"#utility.yul\":2886:2887   */\n  0x04\n    /* \"#utility.yul\":2879:2894   */\n  mstore\n    /* \"#utility.yul\":2913:2917   */\n  0x24\n    /* \"#utility.yul\":2910:2911   */\n  0x00\n    /* \"#utility.yul\":2903:2918   */\n  revert\n    /* \"#utility.yul\":2930:3235   */\ntag_9:\n    /* \"#utility.yul\":2970:2973   */\n  0x00\n    /* \"#utility.yul\":2989:3009   */\n  tag_63\n    /* \"#utility.yul\":3007:3008   */\n  dup3\n    /* \"#utility.yul\":2989:3009   */\n  tag_21\n  jump\t// in\ntag_63:\n    /* \"#utility.yul\":2984:3009   */\n  swap2\n  pop\n    /* \"#utility.yul\":3023:3043   */\n  tag_64\n    /* \"#utility.yul\":3041:3042   */\n  dup4\n    /* \"#utility.yul\":3023:3043   */\n  tag_21\n  jump\t// in\ntag_64:\n    /* \"#utility.yul\":3018:3043   */\n  swap3\n  pop\n    /* \"#utility.yul\":3177:3178   */\n  dup3\n    /* \"#utility.yul\":3109:3175   */\n  0xffffffffffffffffffffffffffffffffffffffffffffffffffffffffffffffff\n    /* \"#utility.yul\":3105:3179   */\n  sub\n    /* \"#utility.yul\":3102:3103   */\n  dup3\n    /* \"#utility.yul\":3099:3180   */\n  gt\n    /* \"#utility.yul\":3096:3203   */\n  iszero\n  tag_65\n  jumpi\n    /* \"#utility.yul\":3183:3201   */\n  tag_66\n  tag_26\n  jump\t// in\ntag_66:\n    /* \"#utility.yul\":3096:3203   */\ntag_65:\n    /* \"#utility.yul\":3227:3228   */\n  dup3\n    /* \"#utility.yul\":3224:3225   */\n  dup3\n    /* \"#utility.yul\":3220:3229   */\n  add\n    /* \"#utility.yul\":3213:3229   */\n  swap1\n  pop\n    /* \"#utility.yul\":2930:3235   */\n  swap3\n  swap2\n  pop\n  pop\n  jump\t// out\n    /* \"#utility.yul\":3241:3410   */\ntag_27:\n    /* \"#utility.yul\":3325:3336   */\n  0x00\n    /* \"#utility.yul\":3359:3365   */\n  dup3\n    /* \"#utility.yul\":3354:3357   */\n  dup3\n    /* \"#utility.yul\":3347:3366   */\n  mstore\n    /* \"#utility.yul\":3399:3403   */\n  0x20\n    /* \"#utility.yul\":3394:3397   */\n  dup3\n    /* \"#utility.yul\":3390:3404   */\n  add\n    /* \"#utility.yul\":3375:3404   */\n  swap1\n  pop\n    /* \"#utility.yul\":3241:3410   */\n  swap3\n  swap2\n  pop\n  pop\n  jump\t// out\n    /* \"#utility.yul\":3416:3581   */\ntag_28:\n    /* \"#utility.yul\":3556:3573   */\n  0x496e76616c6964207072656d69756d0000000000000000000000000000000000\n    /* \"#utility.yul\":3552:3553   */\n  0x00\n    /* \"#utility.yul\":3544:3550   */\n  dup3\n    /* \"#utility.yul\":3540:3554   */\n  add\n    /* \"#utility.yul\":3533:3574   */\n  mstore\n    /* \"#utility.yul\":3416:3581   */\n  pop\n  jump\t// out\n    /* \"#utility.yul\":3587:3953   */\ntag_29:\n    /* \"#utility.yul\":3729:3732   */\n  0x00\n    /* \"#utility.yul\":3750:3817   */\n  tag_70\n    /* \"#utility.yul\":3814:3816   */\n  0x0f\n    /* \"#utility.yul\":3809:3812   */\n  dup4\n    /* \"#utility.yul\":3750:3817   */\n  tag_27\n  jump\t// in\ntag_70:\n    /* \"#utility.yul\":3743:3817   */\n  swap2\n  pop\n    /* \"#utility.yul\":3826:3919   */\n  tag_71\n    /* \"#utility.yul\":3915:3918   */\n  dup3\n    /* \"#utility.yul\":3826:3919   */\n  tag_28\n  jump\t// in\ntag_71:\n    /* \"#utility.yul\":3944:3946   */\n  0x20\n    /* \"#utility.yul\":3939:3942   */\n  dup3\n    /* \"#utility.yul\":3935:3947   */\n  add\n    /* \"#utility.yul\":3928:3947   */\n  swap1\n  pop\n    /* \"#utility.yul\":3587:3953   */\n  swap2\n  swap1\n  pop\n  jump\t// out\n    /* \"#utility.yul\":3959:4378   */\ntag_12:\n    /* \"#utility.yul\":4125:4129   */\n  0x00\n    /* \"#utility.yul\":4163:4165   */\n  0x20\n    /* \"#utility.yul\":4152:4161   */\n  dup3\n    /* \"#utility.yul\":4148:4166   */\n  add\n    /* \"#utility.yul\":4140:4166   */\n  swap1\n  pop\n    /* \"#utility.yul\":4212:4221   */\n  dup2\n    /* \"#utility.yul\":4206:4210   */\n  dup2\n    /* \"#utility.yul\":4202:4222   */\n  sub\n    /* \"#utility.yul\":4198:4199   */\n  0x00\n    /* \"#utility.yul\":4187:4196   */\n  dup4\n    /* \"#utility.yul\":4183:4200   */\n  add\n    /* \"#utility.yul\":4176:4223   */\n  mstore\n    /* \"#utility.yul\":4240:4371   */\n  tag_73\n    /* \"#utility.yul\":4366:4370   */\n  dup2\n    /* \"#utility.yul\":4240:4371   */\n  tag_29\n  jump\t// in\ntag_73:\n    /* \"#utility.yul\":4232:4371   */\n  swap1\n  pop\n    /* \"#utility.yul\":3959:4378   */\n  swap2\n  swap1\n  pop\n  jump\t// out\n    /* \"contracts/option.sol\":58:2612  contract Options {... */\ntag_13:\n  dataSize(sub_0)\n  dup1\n  dataOffset(sub_0)\n  0x00\n  codecopy\n  0x00\n  return\nstop\n\nsub_0: assembly {\n        /* \"contracts/option.sol\":58:2612  contract Options {... */\n      mstore(0x40, 0x80)\n      callvalue\n      dup1\n      iszero\n      tag_1\n      jumpi\n      0x00\n      dup1\n      revert\n    tag_1:\n      pop\n      jumpi(tag_2, lt(calldatasize, 0x04))\n      shr(0xe0, calldataload(0x00))\n      dup1\n      0x7150d8ae\n      gt\n      tag_15\n      jumpi\n      dup1\n      0x7150d8ae\n      eq\n      tag_9\n      jumpi\n      dup1\n      0x79599f96\n      eq\n      tag_10\n      jumpi\n      dup1\n      0xb07f0a41\n      eq\n      tag_11\n      jumpi\n      dup1\n      0xc52987cf\n      eq\n      tag_12\n      jumpi\n      dup1\n      0xe0a73a93\n      eq\n      tag_13\n      jumpi\n      dup1\n      0xffd9eedb\n      eq\n      tag_14\n      jumpi\n      jump(tag_2)\n    tag_15:\n      dup1\n      0x08551a53\n      eq\n      tag_3\n      jumpi\n      dup1\n      0x14c68b1b\n      eq\n      tag_4\n      jumpi\n      dup1\n      0x200d2ed2\n      eq\n      tag_5\n      jumpi\n      dup1\n      0x4665096d\n      eq\n      tag_6\n      jumpi\n      dup1\n      0x4c2067c7\n      eq\n      tag_7\n      jumpi\n      dup1\n      0x590e1ae3\n      eq\n      tag_8\n      jumpi\n    tag_2:\n      0x00\n      dup1\n      revert\n        /* \"contracts/option.sol\":155:184  address payable public seller */\n    tag_3:\n      tag_16\n      tag_17\n      jump\t// in\n    tag_16:\n      mload(0x40)\n      tag_18\n      swap2\n      swap1\n      tag_19\n      jump\t// in\n    tag_18:\n      mload(0x40)\n      dup1\n      swap2\n      sub\n      swap1\n      return\n        /* \"contracts/option.sol\":349:370  bool public exercised */\n    tag_4:\n      tag_20\n      tag_21\n      jump\t// in\n    tag_20:\n      mload(0x40)\n      tag_22\n      swap2\n      swap1\n      tag_23\n      jump\t// in\n    tag_22:\n      mload(0x40)\n      dup1\n      swap2\n      sub\n      swap1\n      return\n        /* \"contracts/option.sol\":2516:2610  function status() public view returns(bool, bool) {... */\n    tag_5:\n      tag_24\n      tag_25\n      jump\t// in\n    tag_24:\n      mload(0x40)\n      tag_26\n      swap3\n      swap2\n      swap1\n      tag_27\n      jump\t// in\n    tag_26:\n      mload(0x40)\n      dup1\n      swap2\n      sub\n      swap1\n      return\n        /* \"contracts/option.sol\":318:343  uint256 public expiration */\n    tag_6:\n      tag_28\n      tag_29\n      jump\t// in\n    tag_28:\n      mload(0x40)\n      tag_30\n      swap2\n      swap1\n      tag_31\n      jump\t// in\n    tag_30:\n      mload(0x40)\n      dup1\n      swap2\n      sub\n      swap1\n      return\n        /* \"contracts/option.sol\":376:395  bool public expired */\n    tag_7:\n      tag_32\n      tag_33\n      jump\t// in\n    tag_32:\n      mload(0x40)\n      tag_34\n      swap2\n      swap1\n      tag_23\n      jump\t// in\n    tag_34:\n      mload(0x40)\n      dup1\n      swap2\n      sub\n      swap1\n      return\n        /* \"contracts/option.sol\":2115:2506  function refund() public {... */\n    tag_8:\n      tag_35\n      tag_36\n      jump\t// in\n    tag_35:\n      stop\n        /* \"contracts/option.sol\":190:218  address payable public buyer */\n    tag_9:\n      tag_37\n      tag_38\n      jump\t// in\n    tag_37:\n      mload(0x40)\n      tag_39\n      swap2\n      swap1\n      tag_19\n      jump\t// in\n    tag_39:\n      mload(0x40)\n      dup1\n      swap2\n      sub\n      swap1\n      return\n        /* \"contracts/option.sol\":2038:2105  function expire() public onlySeller {... */\n    tag_10:\n      tag_40\n      tag_41\n      jump\t// in\n    tag_40:\n      stop\n        /* \"contracts/option.sol\":1121:2028  function exercise(uint256 _price) public onlyBuyer {... */\n    tag_11:\n      tag_42\n      0x04\n      dup1\n      calldatasize\n      sub\n      dup2\n      add\n      swap1\n      tag_43\n      swap2\n      swap1\n      tag_44\n      jump\t// in\n    tag_43:\n      tag_45\n      jump\t// in\n    tag_42:\n      stop\n        /* \"contracts/option.sol\":258:284  uint256 public strikePrice */\n    tag_12:\n      tag_46\n      tag_47\n      jump\t// in\n    tag_46:\n      mload(0x40)\n      tag_48\n      swap2\n      swap1\n      tag_31\n      jump\t// in\n    tag_48:\n      mload(0x40)\n      dup1\n      swap2\n      sub\n      swap1\n      return\n        /* \"contracts/option.sol\":290:312  uint256 public premium */\n    tag_13:\n      tag_49\n      tag_50\n      jump\t// in\n    tag_49:\n      mload(0x40)\n      tag_51\n      swap2\n      swap1\n      tag_31\n      jump\t// in\n    tag_51:\n      mload(0x40)\n      dup1\n      swap2\n      sub\n      swap1\n      return\n        /* \"contracts/option.sol\":224:252  OptionType public optionType */\n    tag_14:\n      tag_52\n      tag_53\n      jump\t// in\n    tag_52:\n      mload(0x40)\n      tag_54\n      swap2\n      swap1\n      tag_55\n      jump\t// in\n    tag_54:\n      mload(0x40)\n      dup1\n      swap2\n      sub\n      swap1\n      return\n        /* \"contracts/option.sol\":155:184  address payable public seller */\n    tag_17:\n      0x00\n      dup1\n      sload\n      swap1\n      0x0100\n      exp\n      swap1\n      div\n      0xffffffffffffffffffffffffffffffffffffffff\n      and\n      dup2\n      jump\t// out\n        /* \"contracts/option.sol\":349:370  bool public exercised */\n    tag_21:\n      0x05\n      0x00\n      swap1\n      sload\n      swap1\n      0x0100\n      exp\n      swap1\n      div\n      0xff\n      and\n      dup2\n      jump\t// out\n        /* \"contracts/option.sol\":2516:2610  function status() public view returns(bool, bool) {... */\n    tag_25:\n        /* \"contracts/option.sol\":2554:2558  bool */\n      0x00\n        /* \"contracts/option.sol\":2560:2564  bool */\n      dup1\n        /* \"contracts/option.sol\":2584:2591  expired */\n      0x05\n      0x01\n      swap1\n      sload\n      swap1\n      0x0100\n      exp\n      swap1\n      div\n      0xff\n      and\n        /* \"contracts/option.sol\":2593:2602  exercised */\n      0x05\n      0x00\n      swap1\n      sload\n      swap1\n      0x0100\n      exp\n      swap1\n      div\n      0xff\n      and\n        /* \"contracts/option.sol\":2576:2603  return (expired, exercised) */\n      swap2\n      pop\n      swap2\n      pop\n        /* \"contracts/option.sol\":2516:2610  function status() public view returns(bool, bool) {... */\n      swap1\n      swap2\n      jump\t// out\n        /* \"contracts/option.sol\":318:343  uint256 public expiration */\n    tag_29:\n      sload(0x04)\n      dup2\n      jump\t// out\n        /* \"contracts/option.sol\":376:395  bool public expired */\n    tag_33:\n      0x05\n      0x01\n      swap1\n      sload\n      swap1\n      0x0100\n      exp\n      swap1\n      div\n      0xff\n      and\n      dup2\n      jump\t// out\n        /* \"contracts/option.sol\":2115:2506  function refund() public {... */\n    tag_36:\n        /* \"contracts/option.sol\":2158:2165  expired */\n      0x05\n      0x01\n      swap1\n      sload\n      swap1\n      0x0100\n      exp\n      swap1\n      div\n      0xff\n      and\n        /* \"contracts/option.sol\":2158:2179  expired && !exercised */\n      dup1\n      iszero\n      tag_58\n      jumpi\n      pop\n        /* \"contracts/option.sol\":2170:2179  exercised */\n      0x05\n      0x00\n      swap1\n      sload\n      swap1\n      0x0100\n      exp\n      swap1\n      div\n      0xff\n      and\n        /* \"contracts/option.sol\":2169:2179  !exercised */\n      iszero\n        /* \"contracts/option.sol\":2158:2179  expired && !exercised */\n    tag_58:\n        /* \"contracts/option.sol\":2150:2228  require(expired && !exercised, \"Option has not expired or has been exercised\") */\n      tag_59\n      jumpi\n      mload(0x40)\n      0x08c379a000000000000000000000000000000000000000000000000000000000\n      dup2\n      mstore\n      0x04\n      add\n      tag_60\n      swap1\n      tag_61\n      jump\t// in\n    tag_60:\n      mload(0x40)\n      dup1\n      swap2\n      sub\n      swap1\n      revert\n    tag_59:\n        /* \"contracts/option.sol\":2256:2276  OptionType.LONG_CALL */\n      0x00\n        /* \"contracts/option.sol\":2242:2276  optionType == OptionType.LONG_CALL */\n      0x03\n      dup2\n      gt\n      iszero\n      tag_62\n      jumpi\n      tag_63\n      tag_64\n      jump\t// in\n    tag_63:\n    tag_62:\n        /* \"contracts/option.sol\":2242:2252  optionType */\n      0x01\n      0x14\n      swap1\n      sload\n      swap1\n      0x0100\n      exp\n      swap1\n      div\n      0xff\n      and\n        /* \"contracts/option.sol\":2242:2276  optionType == OptionType.LONG_CALL */\n      0x03\n      dup2\n      gt\n      iszero\n      tag_65\n      jumpi\n      tag_66\n      tag_64\n      jump\t// in\n    tag_66:\n    tag_65:\n      eq\n        /* \"contracts/option.sol\":2242:2313  optionType == OptionType.LONG_CALL || optionType == OptionType.LONG_PUT */\n      dup1\n      tag_67\n      jumpi\n      pop\n        /* \"contracts/option.sol\":2294:2313  OptionType.LONG_PUT */\n      0x01\n        /* \"contracts/option.sol\":2280:2313  optionType == OptionType.LONG_PUT */\n      0x03\n      dup2\n      gt\n      iszero\n      tag_68\n      jumpi\n      tag_69\n      tag_64\n      jump\t// in\n    tag_69:\n    tag_68:\n        /* \"contracts/option.sol\":2280:2290  optionType */\n      0x01\n      0x14\n      swap1\n      sload\n      swap1\n      0x0100\n      exp\n      swap1\n      div\n      0xff\n      and\n        /* \"contracts/option.sol\":2280:2313  optionType == OptionType.LONG_PUT */\n      0x03\n      dup2\n      gt\n      iszero\n      tag_70\n      jumpi\n      tag_71\n      tag_64\n      jump\t// in\n    tag_71:\n    tag_70:\n      eq\n        /* \"contracts/option.sol\":2242:2313  optionType == OptionType.LONG_CALL || optionType == OptionType.LONG_PUT */\n    tag_67:\n        /* \"contracts/option.sol\":2238:2363  if (optionType == OptionType.LONG_CALL || optionType == OptionType.LONG_PUT) {... */\n      iszero\n      tag_72\n      jumpi\n        /* \"contracts/option.sol\":2329:2334  buyer */\n      0x01\n      0x00\n      swap1\n      sload\n      swap1\n      0x0100\n      exp\n      swap1\n      div\n      0xffffffffffffffffffffffffffffffffffffffff\n      and\n        /* \"contracts/option.sol\":2329:2343  buyer.transfer */\n      0xffffffffffffffffffffffffffffffffffffffff\n      and\n        /* \"contracts/option.sol\":2329:2352  buyer.transfer(premium) */\n      0x08fc\n        /* \"contracts/option.sol\":2344:2351  premium */\n      sload(0x03)\n        /* \"contracts/option.sol\":2329:2352  buyer.transfer(premium) */\n      swap1\n      dup2\n      iszero\n      mul\n      swap1\n      mload(0x40)\n      0x00\n      mload(0x40)\n      dup1\n      dup4\n      sub\n      dup2\n      dup6\n      dup9\n      dup9\n      call\n      swap4\n      pop\n      pop\n      pop\n      pop\n      iszero\n      dup1\n      iszero\n      tag_74\n      jumpi\n      returndatasize\n      0x00\n      dup1\n      returndatacopy\n      revert(0x00, returndatasize)\n    tag_74:\n      pop\n        /* \"contracts/option.sol\":2238:2363  if (optionType == OptionType.LONG_CALL || optionType == OptionType.LONG_PUT) {... */\n    tag_72:\n        /* \"contracts/option.sol\":2390:2411  OptionType.SHORT_CALL */\n      0x02\n        /* \"contracts/option.sol\":2376:2411  optionType == OptionType.SHORT_CALL */\n      0x03\n      dup2\n      gt\n      iszero\n      tag_75\n      jumpi\n      tag_76\n      tag_64\n      jump\t// in\n    tag_76:\n    tag_75:\n        /* \"contracts/option.sol\":2376:2386  optionType */\n      0x01\n      0x14\n      swap1\n      sload\n      swap1\n      0x0100\n      exp\n      swap1\n      div\n      0xff\n      and\n        /* \"contracts/option.sol\":2376:2411  optionType == OptionType.SHORT_CALL */\n      0x03\n      dup2\n      gt\n      iszero\n      tag_77\n      jumpi\n      tag_78\n      tag_64\n      jump\t// in\n    tag_78:\n    tag_77:\n      eq\n        /* \"contracts/option.sol\":2376:2449  optionType == OptionType.SHORT_CALL || optionType == OptionType.SHORT_PUT */\n      dup1\n      tag_79\n      jumpi\n      pop\n        /* \"contracts/option.sol\":2429:2449  OptionType.SHORT_PUT */\n      0x03\n        /* \"contracts/option.sol\":2415:2449  optionType == OptionType.SHORT_PUT */\n      dup1\n      dup2\n      gt\n      iszero\n      tag_80\n      jumpi\n      tag_81\n      tag_64\n      jump\t// in\n    tag_81:\n    tag_80:\n        /* \"contracts/option.sol\":2415:2425  optionType */\n      0x01\n      0x14\n      swap1\n      sload\n      swap1\n      0x0100\n      exp\n      swap1\n      div\n      0xff\n      and\n        /* \"contracts/option.sol\":2415:2449  optionType == OptionType.SHORT_PUT */\n      0x03\n      dup2\n      gt\n      iszero\n      tag_82\n      jumpi\n      tag_83\n      tag_64\n      jump\t// in\n    tag_83:\n    tag_82:\n      eq\n        /* \"contracts/option.sol\":2376:2449  optionType == OptionType.SHORT_CALL || optionType == OptionType.SHORT_PUT */\n    tag_79:\n        /* \"contracts/option.sol\":2372:2500  if (optionType == OptionType.SHORT_CALL || optionType == OptionType.SHORT_PUT) {... */\n      iszero\n      tag_84\n      jumpi\n        /* \"contracts/option.sol\":2465:2471  seller */\n      0x00\n      dup1\n      sload\n      swap1\n      0x0100\n      exp\n      swap1\n      div\n      0xffffffffffffffffffffffffffffffffffffffff\n      and\n        /* \"contracts/option.sol\":2465:2480  seller.transfer */\n      0xffffffffffffffffffffffffffffffffffffffff\n      and\n        /* \"contracts/option.sol\":2465:2489  seller.transfer(premium) */\n      0x08fc\n        /* \"contracts/option.sol\":2481:2488  premium */\n      sload(0x03)\n        /* \"contracts/option.sol\":2465:2489  seller.transfer(premium) */\n      swap1\n      dup2\n      iszero\n      mul\n      swap1\n      mload(0x40)\n      0x00\n      mload(0x40)\n      dup1\n      dup4\n      sub\n      dup2\n      dup6\n      dup9\n      dup9\n      call\n      swap4\n      pop\n      pop\n      pop\n      pop\n      iszero\n      dup1\n      iszero\n      tag_86\n      jumpi\n      returndatasize\n      0x00\n      dup1\n      returndatacopy\n      revert(0x00, returndatasize)\n    tag_86:\n      pop\n        /* \"contracts/option.sol\":2372:2500  if (optionType == OptionType.SHORT_CALL || optionType == OptionType.SHORT_PUT) {... */\n    tag_84:\n        /* \"contracts/option.sol\":2115:2506  function refund() public {... */\n      jump\t// out\n        /* \"contracts/option.sol\":190:218  address payable public buyer */\n    tag_38:\n      0x01\n      0x00\n      swap1\n      sload\n      swap1\n      0x0100\n      exp\n      swap1\n      div\n      0xffffffffffffffffffffffffffffffffffffffff\n      and\n      dup2\n      jump\t// out\n        /* \"contracts/option.sol\":2038:2105  function expire() public onlySeller {... */\n    tag_41:\n        /* \"contracts/option.sol\":916:922  seller */\n      0x00\n      dup1\n      sload\n      swap1\n      0x0100\n      exp\n      swap1\n      div\n      0xffffffffffffffffffffffffffffffffffffffff\n      and\n        /* \"contracts/option.sol\":902:922  msg.sender == seller */\n      0xffffffffffffffffffffffffffffffffffffffff\n      and\n        /* \"contracts/option.sol\":902:912  msg.sender */\n      caller\n        /* \"contracts/option.sol\":902:922  msg.sender == seller */\n      0xffffffffffffffffffffffffffffffffffffffff\n      and\n      eq\n        /* \"contracts/option.sol\":894:965  require(msg.sender == seller, \"Only seller can perform this operation\") */\n      tag_88\n      jumpi\n      mload(0x40)\n      0x08c379a000000000000000000000000000000000000000000000000000000000\n      dup2\n      mstore\n      0x04\n      add\n      tag_89\n      swap1\n      tag_90\n      jump\t// in\n    tag_89:\n      mload(0x40)\n      dup1\n      swap2\n      sub\n      swap1\n      revert\n    tag_88:\n        /* \"contracts/option.sol\":2094:2098  true */\n      0x01\n        /* \"contracts/option.sol\":2084:2091  expired */\n      0x05\n      0x01\n        /* \"contracts/option.sol\":2084:2098  expired = true */\n      0x0100\n      exp\n      dup2\n      sload\n      dup2\n      0xff\n      mul\n      not\n      and\n      swap1\n      dup4\n      iszero\n      iszero\n      mul\n      or\n      swap1\n      sstore\n      pop\n        /* \"contracts/option.sol\":2038:2105  function expire() public onlySeller {... */\n      jump\t// out\n        /* \"contracts/option.sol\":1121:2028  function exercise(uint256 _price) public onlyBuyer {... */\n    tag_45:\n        /* \"contracts/option.sol\":1046:1051  buyer */\n      0x01\n      0x00\n      swap1\n      sload\n      swap1\n      0x0100\n      exp\n      swap1\n      div\n      0xffffffffffffffffffffffffffffffffffffffff\n      and\n        /* \"contracts/option.sol\":1032:1051  msg.sender == buyer */\n      0xffffffffffffffffffffffffffffffffffffffff\n      and\n        /* \"contracts/option.sol\":1032:1042  msg.sender */\n      caller\n        /* \"contracts/option.sol\":1032:1051  msg.sender == buyer */\n      0xffffffffffffffffffffffffffffffffffffffff\n      and\n      eq\n        /* \"contracts/option.sol\":1024:1093  require(msg.sender == buyer, \"Only buyer can perform this operation\") */\n      tag_93\n      jumpi\n      mload(0x40)\n      0x08c379a000000000000000000000000000000000000000000000000000000000\n      dup2\n      mstore\n      0x04\n      add\n      tag_94\n      swap1\n      tag_95\n      jump\t// in\n    tag_94:\n      mload(0x40)\n      dup1\n      swap2\n      sub\n      swap1\n      revert\n    tag_93:\n        /* \"contracts/option.sol\":1191:1198  expired */\n      0x05\n      0x01\n      swap1\n      sload\n      swap1\n      0x0100\n      exp\n      swap1\n      div\n      0xff\n      and\n        /* \"contracts/option.sol\":1190:1198  !expired */\n      iszero\n        /* \"contracts/option.sol\":1190:1212  !expired && !exercised */\n      dup1\n      iszero\n      tag_97\n      jumpi\n      pop\n        /* \"contracts/option.sol\":1203:1212  exercised */\n      0x05\n      0x00\n      swap1\n      sload\n      swap1\n      0x0100\n      exp\n      swap1\n      div\n      0xff\n      and\n        /* \"contracts/option.sol\":1202:1212  !exercised */\n      iszero\n        /* \"contracts/option.sol\":1190:1212  !expired && !exercised */\n    tag_97:\n        /* \"contracts/option.sol\":1182:1252  require(!expired && !exercised, \"Option already expired or exercised\") */\n      tag_98\n      jumpi\n      mload(0x40)\n      0x08c379a000000000000000000000000000000000000000000000000000000000\n      dup2\n      mstore\n      0x04\n      add\n      tag_99\n      swap1\n      tag_100\n      jump\t// in\n    tag_99:\n      mload(0x40)\n      dup1\n      swap2\n      sub\n      swap1\n      revert\n    tag_98:\n        /* \"contracts/option.sol\":1280:1300  OptionType.LONG_CALL */\n      0x00\n        /* \"contracts/option.sol\":1266:1300  optionType == OptionType.LONG_CALL */\n      0x03\n      dup2\n      gt\n      iszero\n      tag_101\n      jumpi\n      tag_102\n      tag_64\n      jump\t// in\n    tag_102:\n    tag_101:\n        /* \"contracts/option.sol\":1266:1276  optionType */\n      0x01\n      0x14\n      swap1\n      sload\n      swap1\n      0x0100\n      exp\n      swap1\n      div\n      0xff\n      and\n        /* \"contracts/option.sol\":1266:1300  optionType == OptionType.LONG_CALL */\n      0x03\n      dup2\n      gt\n      iszero\n      tag_103\n      jumpi\n      tag_104\n      tag_64\n      jump\t// in\n    tag_104:\n    tag_103:\n      eq\n        /* \"contracts/option.sol\":1266:1324  optionType == OptionType.LONG_CALL && _price > strikePrice */\n      dup1\n      iszero\n      tag_105\n      jumpi\n      pop\n        /* \"contracts/option.sol\":1313:1324  strikePrice */\n      sload(0x02)\n        /* \"contracts/option.sol\":1304:1310  _price */\n      dup2\n        /* \"contracts/option.sol\":1304:1324  _price > strikePrice */\n      gt\n        /* \"contracts/option.sol\":1266:1324  optionType == OptionType.LONG_CALL && _price > strikePrice */\n    tag_105:\n        /* \"contracts/option.sol\":1262:1444  if (optionType == OptionType.LONG_CALL && _price > strikePrice) {... */\n      iszero\n      tag_106\n      jumpi\n        /* \"contracts/option.sol\":1340:1345  buyer */\n      0x01\n      0x00\n      swap1\n      sload\n      swap1\n      0x0100\n      exp\n      swap1\n      div\n      0xffffffffffffffffffffffffffffffffffffffff\n      and\n        /* \"contracts/option.sol\":1340:1354  buyer.transfer */\n      0xffffffffffffffffffffffffffffffffffffffff\n      and\n        /* \"contracts/option.sol\":1340:1402  buyer.transfer(address(this).balance + (_price - strikePrice)) */\n      0x08fc\n        /* \"contracts/option.sol\":1389:1400  strikePrice */\n      sload(0x02)\n        /* \"contracts/option.sol\":1380:1386  _price */\n      dup4\n        /* \"contracts/option.sol\":1380:1400  _price - strikePrice */\n      tag_107\n      swap2\n      swap1\n      tag_108\n      jump\t// in\n    tag_107:\n        /* \"contracts/option.sol\":1355:1376  address(this).balance */\n      selfbalance\n        /* \"contracts/option.sol\":1355:1401  address(this).balance + (_price - strikePrice) */\n      tag_109\n      swap2\n      swap1\n      tag_110\n      jump\t// in\n    tag_109:\n        /* \"contracts/option.sol\":1340:1402  buyer.transfer(address(this).balance + (_price - strikePrice)) */\n      swap1\n      dup2\n      iszero\n      mul\n      swap1\n      mload(0x40)\n      0x00\n      mload(0x40)\n      dup1\n      dup4\n      sub\n      dup2\n      dup6\n      dup9\n      dup9\n      call\n      swap4\n      pop\n      pop\n      pop\n      pop\n      iszero\n      dup1\n      iszero\n      tag_112\n      jumpi\n      returndatasize\n      0x00\n      dup1\n      returndatacopy\n      revert(0x00, returndatasize)\n    tag_112:\n      pop\n        /* \"contracts/option.sol\":1429:1433  true */\n      0x01\n        /* \"contracts/option.sol\":1417:1426  exercised */\n      0x05\n      0x00\n        /* \"contracts/option.sol\":1417:1433  exercised = true */\n      0x0100\n      exp\n      dup2\n      sload\n      dup2\n      0xff\n      mul\n      not\n      and\n      swap1\n      dup4\n      iszero\n      iszero\n      mul\n      or\n      swap1\n      sstore\n      pop\n        /* \"contracts/option.sol\":1262:1444  if (optionType == OptionType.LONG_CALL && _price > strikePrice) {... */\n    tag_106:\n        /* \"contracts/option.sol\":1471:1490  OptionType.LONG_PUT */\n      0x01\n        /* \"contracts/option.sol\":1457:1490  optionType == OptionType.LONG_PUT */\n      0x03\n      dup2\n      gt\n      iszero\n      tag_113\n      jumpi\n      tag_114\n      tag_64\n      jump\t// in\n    tag_114:\n    tag_113:\n        /* \"contracts/option.sol\":1457:1467  optionType */\n      0x01\n      0x14\n      swap1\n      sload\n      swap1\n      0x0100\n      exp\n      swap1\n      div\n      0xff\n      and\n        /* \"contracts/option.sol\":1457:1490  optionType == OptionType.LONG_PUT */\n      0x03\n      dup2\n      gt\n      iszero\n      tag_115\n      jumpi\n      tag_116\n      tag_64\n      jump\t// in\n    tag_116:\n    tag_115:\n      eq\n        /* \"contracts/option.sol\":1457:1514  optionType == OptionType.LONG_PUT && _price < strikePrice */\n      dup1\n      iszero\n      tag_117\n      jumpi\n      pop\n        /* \"contracts/option.sol\":1503:1514  strikePrice */\n      sload(0x02)\n        /* \"contracts/option.sol\":1494:1500  _price */\n      dup2\n        /* \"contracts/option.sol\":1494:1514  _price < strikePrice */\n      lt\n        /* \"contracts/option.sol\":1457:1514  optionType == OptionType.LONG_PUT && _price < strikePrice */\n    tag_117:\n        /* \"contracts/option.sol\":1453:1635  if (optionType == OptionType.LONG_PUT && _price < strikePrice) {... */\n      iszero\n      tag_118\n      jumpi\n        /* \"contracts/option.sol\":1530:1535  buyer */\n      0x01\n      0x00\n      swap1\n      sload\n      swap1\n      0x0100\n      exp\n      swap1\n      div\n      0xffffffffffffffffffffffffffffffffffffffff\n      and\n        /* \"contracts/option.sol\":1530:1544  buyer.transfer */\n      0xffffffffffffffffffffffffffffffffffffffff\n      and\n        /* \"contracts/option.sol\":1530:1593  buyer.transfer(address(this).balance  + (strikePrice - _price)) */\n      0x08fc\n        /* \"contracts/option.sol\":1585:1591  _price */\n      dup3\n        /* \"contracts/option.sol\":1571:1582  strikePrice */\n      sload(0x02)\n        /* \"contracts/option.sol\":1571:1591  strikePrice - _price */\n      tag_119\n      swap2\n      swap1\n      tag_108\n      jump\t// in\n    tag_119:\n        /* \"contracts/option.sol\":1545:1566  address(this).balance */\n      selfbalance\n        /* \"contracts/option.sol\":1545:1592  address(this).balance  + (strikePrice - _price) */\n      tag_120\n      swap2\n      swap1\n      tag_110\n      jump\t// in\n    tag_120:\n        /* \"contracts/option.sol\":1530:1593  buyer.transfer(address(this).balance  + (strikePrice - _price)) */\n      swap1\n      dup2\n      iszero\n      mul\n      swap1\n      mload(0x40)\n      0x00\n      mload(0x40)\n      dup1\n      dup4\n      sub\n      dup2\n      dup6\n      dup9\n      dup9\n      call\n      swap4\n      pop\n      pop\n      pop\n      pop\n      iszero\n      dup1\n      iszero\n      tag_122\n      jumpi\n      returndatasize\n      0x00\n      dup1\n      returndatacopy\n      revert(0x00, returndatasize)\n    tag_122:\n      pop\n        /* \"contracts/option.sol\":1620:1624  true */\n      0x01\n        /* \"contracts/option.sol\":1608:1617  exercised */\n      0x05\n      0x00\n        /* \"contracts/option.sol\":1608:1624  exercised = true */\n      0x0100\n      exp\n      dup2\n      sload\n      dup2\n      0xff\n      mul\n      not\n      and\n      swap1\n      dup4\n      iszero\n      iszero\n      mul\n      or\n      swap1\n      sstore\n      pop\n        /* \"contracts/option.sol\":1453:1635  if (optionType == OptionType.LONG_PUT && _price < strikePrice) {... */\n    tag_118:\n        /* \"contracts/option.sol\":1662:1683  OptionType.SHORT_CALL */\n      0x02\n        /* \"contracts/option.sol\":1648:1683  optionType == OptionType.SHORT_CALL */\n      0x03\n      dup2\n      gt\n      iszero\n      tag_123\n      jumpi\n      tag_124\n      tag_64\n      jump\t// in\n    tag_124:\n    tag_123:\n        /* \"contracts/option.sol\":1648:1658  optionType */\n      0x01\n      0x14\n      swap1\n      sload\n      swap1\n      0x0100\n      exp\n      swap1\n      div\n      0xff\n      and\n        /* \"contracts/option.sol\":1648:1683  optionType == OptionType.SHORT_CALL */\n      0x03\n      dup2\n      gt\n      iszero\n      tag_125\n      jumpi\n      tag_126\n      tag_64\n      jump\t// in\n    tag_126:\n    tag_125:\n      eq\n        /* \"contracts/option.sol\":1648:1707  optionType == OptionType.SHORT_CALL && _price > strikePrice */\n      dup1\n      iszero\n      tag_127\n      jumpi\n      pop\n        /* \"contracts/option.sol\":1696:1707  strikePrice */\n      sload(0x02)\n        /* \"contracts/option.sol\":1687:1693  _price */\n      dup2\n        /* \"contracts/option.sol\":1687:1707  _price > strikePrice */\n      gt\n        /* \"contracts/option.sol\":1648:1707  optionType == OptionType.SHORT_CALL && _price > strikePrice */\n    tag_127:\n        /* \"contracts/option.sol\":1644:1829  if (optionType == OptionType.SHORT_CALL && _price > strikePrice) {... */\n      iszero\n      tag_128\n      jumpi\n        /* \"contracts/option.sol\":1723:1729  seller */\n      0x00\n      dup1\n      sload\n      swap1\n      0x0100\n      exp\n      swap1\n      div\n      0xffffffffffffffffffffffffffffffffffffffff\n      and\n        /* \"contracts/option.sol\":1723:1738  seller.transfer */\n      0xffffffffffffffffffffffffffffffffffffffff\n      and\n        /* \"contracts/option.sol\":1723:1787  seller.transfer(address(this).balance  + (_price - strikePrice)) */\n      0x08fc\n        /* \"contracts/option.sol\":1774:1785  strikePrice */\n      sload(0x02)\n        /* \"contracts/option.sol\":1765:1771  _price */\n      dup4\n        /* \"contracts/option.sol\":1765:1785  _price - strikePrice */\n      tag_129\n      swap2\n      swap1\n      tag_108\n      jump\t// in\n    tag_129:\n        /* \"contracts/option.sol\":1739:1760  address(this).balance */\n      selfbalance\n        /* \"contracts/option.sol\":1739:1786  address(this).balance  + (_price - strikePrice) */\n      tag_130\n      swap2\n      swap1\n      tag_110\n      jump\t// in\n    tag_130:\n        /* \"contracts/option.sol\":1723:1787  seller.transfer(address(this).balance  + (_price - strikePrice)) */\n      swap1\n      dup2\n      iszero\n      mul\n      swap1\n      mload(0x40)\n      0x00\n      mload(0x40)\n      dup1\n      dup4\n      sub\n      dup2\n      dup6\n      dup9\n      dup9\n      call\n      swap4\n      pop\n      pop\n      pop\n      pop\n      iszero\n      dup1\n      iszero\n      tag_132\n      jumpi\n      returndatasize\n      0x00\n      dup1\n      returndatacopy\n      revert(0x00, returndatasize)\n    tag_132:\n      pop\n        /* \"contracts/option.sol\":1814:1818  true */\n      0x01\n        /* \"contracts/option.sol\":1802:1811  exercised */\n      0x05\n      0x00\n        /* \"contracts/option.sol\":1802:1818  exercised = true */\n      0x0100\n      exp\n      dup2\n      sload\n      dup2\n      0xff\n      mul\n      not\n      and\n      swap1\n      dup4\n      iszero\n      iszero\n      mul\n      or\n      swap1\n      sstore\n      pop\n        /* \"contracts/option.sol\":1644:1829  if (optionType == OptionType.SHORT_CALL && _price > strikePrice) {... */\n    tag_128:\n        /* \"contracts/option.sol\":1856:1876  OptionType.SHORT_PUT */\n      0x03\n        /* \"contracts/option.sol\":1842:1876  optionType == OptionType.SHORT_PUT */\n      dup1\n      dup2\n      gt\n      iszero\n      tag_133\n      jumpi\n      tag_134\n      tag_64\n      jump\t// in\n    tag_134:\n    tag_133:\n        /* \"contracts/option.sol\":1842:1852  optionType */\n      0x01\n      0x14\n      swap1\n      sload\n      swap1\n      0x0100\n      exp\n      swap1\n      div\n      0xff\n      and\n        /* \"contracts/option.sol\":1842:1876  optionType == OptionType.SHORT_PUT */\n      0x03\n      dup2\n      gt\n      iszero\n      tag_135\n      jumpi\n      tag_136\n      tag_64\n      jump\t// in\n    tag_136:\n    tag_135:\n      eq\n        /* \"contracts/option.sol\":1842:1900  optionType == OptionType.SHORT_PUT && _price < strikePrice */\n      dup1\n      iszero\n      tag_137\n      jumpi\n      pop\n        /* \"contracts/option.sol\":1889:1900  strikePrice */\n      sload(0x02)\n        /* \"contracts/option.sol\":1880:1886  _price */\n      dup2\n        /* \"contracts/option.sol\":1880:1900  _price < strikePrice */\n      lt\n        /* \"contracts/option.sol\":1842:1900  optionType == OptionType.SHORT_PUT && _price < strikePrice */\n    tag_137:\n        /* \"contracts/option.sol\":1838:2022  if (optionType == OptionType.SHORT_PUT && _price < strikePrice) {... */\n      iszero\n      tag_138\n      jumpi\n        /* \"contracts/option.sol\":1916:1922  seller */\n      0x00\n      dup1\n      sload\n      swap1\n      0x0100\n      exp\n      swap1\n      div\n      0xffffffffffffffffffffffffffffffffffffffff\n      and\n        /* \"contracts/option.sol\":1916:1931  seller.transfer */\n      0xffffffffffffffffffffffffffffffffffffffff\n      and\n        /* \"contracts/option.sol\":1916:1980  seller.transfer(address(this).balance  + (strikePrice - _price)) */\n      0x08fc\n        /* \"contracts/option.sol\":1972:1978  _price */\n      dup3\n        /* \"contracts/option.sol\":1958:1969  strikePrice */\n      sload(0x02)\n        /* \"contracts/option.sol\":1958:1978  strikePrice - _price */\n      tag_139\n      swap2\n      swap1\n      tag_108\n      jump\t// in\n    tag_139:\n        /* \"contracts/option.sol\":1932:1953  address(this).balance */\n      selfbalance\n        /* \"contracts/option.sol\":1932:1979  address(this).balance  + (strikePrice - _price) */\n      tag_140\n      swap2\n      swap1\n      tag_110\n      jump\t// in\n    tag_140:\n        /* \"contracts/option.sol\":1916:1980  seller.transfer(address(this).balance  + (strikePrice - _price)) */\n      swap1\n      dup2\n      iszero\n      mul\n      swap1\n      mload(0x40)\n      0x00\n      mload(0x40)\n      dup1\n      dup4\n      sub\n      dup2\n      dup6\n      dup9\n      dup9\n      call\n      swap4\n      pop\n      pop\n      pop\n      pop\n      iszero\n      dup1\n      iszero\n      tag_142\n      jumpi\n      returndatasize\n      0x00\n      dup1\n      returndatacopy\n      revert(0x00, returndatasize)\n    tag_142:\n      pop\n        /* \"contracts/option.sol\":2007:2011  true */\n      0x01\n        /* \"contracts/option.sol\":1995:2004  exercised */\n      0x05\n      0x00\n        /* \"contracts/option.sol\":1995:2011  exercised = true */\n      0x0100\n      exp\n      dup2\n      sload\n      dup2\n      0xff\n      mul\n      not\n      and\n      swap1\n      dup4\n      iszero\n      iszero\n      mul\n      or\n      swap1\n      sstore\n      pop\n        /* \"contracts/option.sol\":1838:2022  if (optionType == OptionType.SHORT_PUT && _price < strikePrice) {... */\n    tag_138:\n        /* \"contracts/option.sol\":1121:2028  function exercise(uint256 _price) public onlyBuyer {... */\n      pop\n      jump\t// out\n        /* \"contracts/option.sol\":258:284  uint256 public strikePrice */\n    tag_47:\n      sload(0x02)\n      dup2\n      jump\t// out\n        /* \"contracts/option.sol\":290:312  uint256 public premium */\n    tag_50:\n      sload(0x03)\n      dup2\n      jump\t// out\n        /* \"contracts/option.sol\":224:252  OptionType public optionType */\n    tag_53:\n      0x01\n      0x14\n      swap1\n      sload\n      swap1\n      0x0100\n      exp\n      swap1\n      div\n      0xff\n      and\n      dup2\n      jump\t// out\n        /* \"#utility.yul\":7:133   */\n    tag_143:\n        /* \"#utility.yul\":44:51   */\n      0x00\n        /* \"#utility.yul\":84:126   */\n      0xffffffffffffffffffffffffffffffffffffffff\n        /* \"#utility.yul\":77:82   */\n      dup3\n        /* \"#utility.yul\":73:127   */\n      and\n        /* \"#utility.yul\":62:127   */\n      swap1\n      pop\n        /* \"#utility.yul\":7:133   */\n      swap2\n      swap1\n      pop\n      jump\t// out\n        /* \"#utility.yul\":139:243   */\n    tag_144:\n        /* \"#utility.yul\":184:191   */\n      0x00\n        /* \"#utility.yul\":213:237   */\n      tag_172\n        /* \"#utility.yul\":231:236   */\n      dup3\n        /* \"#utility.yul\":213:237   */\n      tag_143\n      jump\t// in\n    tag_172:\n        /* \"#utility.yul\":202:237   */\n      swap1\n      pop\n        /* \"#utility.yul\":139:243   */\n      swap2\n      swap1\n      pop\n      jump\t// out\n        /* \"#utility.yul\":249:391   */\n    tag_145:\n        /* \"#utility.yul\":352:384   */\n      tag_174\n        /* \"#utility.yul\":378:383   */\n      dup2\n        /* \"#utility.yul\":352:384   */\n      tag_144\n      jump\t// in\n    tag_174:\n        /* \"#utility.yul\":347:350   */\n      dup3\n        /* \"#utility.yul\":340:385   */\n      mstore\n        /* \"#utility.yul\":249:391   */\n      pop\n      pop\n      jump\t// out\n        /* \"#utility.yul\":397:651   */\n    tag_19:\n        /* \"#utility.yul\":506:510   */\n      0x00\n        /* \"#utility.yul\":544:546   */\n      0x20\n        /* \"#utility.yul\":533:542   */\n      dup3\n        /* \"#utility.yul\":529:547   */\n      add\n        /* \"#utility.yul\":521:547   */\n      swap1\n      pop\n        /* \"#utility.yul\":557:644   */\n      tag_176\n        /* \"#utility.yul\":641:642   */\n      0x00\n        /* \"#utility.yul\":630:639   */\n      dup4\n        /* \"#utility.yul\":626:643   */\n      add\n        /* \"#utility.yul\":617:623   */\n      dup5\n        /* \"#utility.yul\":557:644   */\n      tag_145\n      jump\t// in\n    tag_176:\n        /* \"#utility.yul\":397:651   */\n      swap3\n      swap2\n      pop\n      pop\n      jump\t// out\n        /* \"#utility.yul\":657:747   */\n    tag_146:\n        /* \"#utility.yul\":691:698   */\n      0x00\n        /* \"#utility.yul\":734:739   */\n      dup2\n        /* \"#utility.yul\":727:740   */\n      iszero\n        /* \"#utility.yul\":720:741   */\n      iszero\n        /* \"#utility.yul\":709:741   */\n      swap1\n      pop\n        /* \"#utility.yul\":657:747   */\n      swap2\n      swap1\n      pop\n      jump\t// out\n        /* \"#utility.yul\":753:862   */\n    tag_147:\n        /* \"#utility.yul\":834:855   */\n      tag_179\n        /* \"#utility.yul\":849:854   */\n      dup2\n        /* \"#utility.yul\":834:855   */\n      tag_146\n      jump\t// in\n    tag_179:\n        /* \"#utility.yul\":829:832   */\n      dup3\n        /* \"#utility.yul\":822:856   */\n      mstore\n        /* \"#utility.yul\":753:862   */\n      pop\n      pop\n      jump\t// out\n        /* \"#utility.yul\":868:1078   */\n    tag_23:\n        /* \"#utility.yul\":955:959   */\n      0x00\n        /* \"#utility.yul\":993:995   */\n      0x20\n        /* \"#utility.yul\":982:991   */\n      dup3\n        /* \"#utility.yul\":978:996   */\n      add\n        /* \"#utility.yul\":970:996   */\n      swap1\n      pop\n        /* \"#utility.yul\":1006:1071   */\n      tag_181\n        /* \"#utility.yul\":1068:1069   */\n      0x00\n        /* \"#utility.yul\":1057:1066   */\n      dup4\n        /* \"#utility.yul\":1053:1070   */\n      add\n        /* \"#utility.yul\":1044:1050   */\n      dup5\n        /* \"#utility.yul\":1006:1071   */\n      tag_147\n      jump\t// in\n    tag_181:\n        /* \"#utility.yul\":868:1078   */\n      swap3\n      swap2\n      pop\n      pop\n      jump\t// out\n        /* \"#utility.yul\":1084:1392   */\n    tag_27:\n        /* \"#utility.yul\":1193:1197   */\n      0x00\n        /* \"#utility.yul\":1231:1233   */\n      0x40\n        /* \"#utility.yul\":1220:1229   */\n      dup3\n        /* \"#utility.yul\":1216:1234   */\n      add\n        /* \"#utility.yul\":1208:1234   */\n      swap1\n      pop\n        /* \"#utility.yul\":1244:1309   */\n      tag_183\n        /* \"#utility.yul\":1306:1307   */\n      0x00\n        /* \"#utility.yul\":1295:1304   */\n      dup4\n        /* \"#utility.yul\":1291:1308   */\n      add\n        /* \"#utility.yul\":1282:1288   */\n      dup6\n        /* \"#utility.yul\":1244:1309   */\n      tag_147\n      jump\t// in\n    tag_183:\n        /* \"#utility.yul\":1319:1385   */\n      tag_184\n        /* \"#utility.yul\":1381:1383   */\n      0x20\n        /* \"#utility.yul\":1370:1379   */\n      dup4\n        /* \"#utility.yul\":1366:1384   */\n      add\n        /* \"#utility.yul\":1357:1363   */\n      dup5\n        /* \"#utility.yul\":1319:1385   */\n      tag_147\n      jump\t// in\n    tag_184:\n        /* \"#utility.yul\":1084:1392   */\n      swap4\n      swap3\n      pop\n      pop\n      pop\n      jump\t// out\n        /* \"#utility.yul\":1398:1475   */\n    tag_148:\n        /* \"#utility.yul\":1435:1442   */\n      0x00\n        /* \"#utility.yul\":1464:1469   */\n      dup2\n        /* \"#utility.yul\":1453:1469   */\n      swap1\n      pop\n        /* \"#utility.yul\":1398:1475   */\n      swap2\n      swap1\n      pop\n      jump\t// out\n        /* \"#utility.yul\":1481:1599   */\n    tag_149:\n        /* \"#utility.yul\":1568:1592   */\n      tag_187\n        /* \"#utility.yul\":1586:1591   */\n      dup2\n        /* \"#utility.yul\":1568:1592   */\n      tag_148\n      jump\t// in\n    tag_187:\n        /* \"#utility.yul\":1563:1566   */\n      dup3\n        /* \"#utility.yul\":1556:1593   */\n      mstore\n        /* \"#utility.yul\":1481:1599   */\n      pop\n      pop\n      jump\t// out\n        /* \"#utility.yul\":1605:1827   */\n    tag_31:\n        /* \"#utility.yul\":1698:1702   */\n      0x00\n        /* \"#utility.yul\":1736:1738   */\n      0x20\n        /* \"#utility.yul\":1725:1734   */\n      dup3\n        /* \"#utility.yul\":1721:1739   */\n      add\n        /* \"#utility.yul\":1713:1739   */\n      swap1\n      pop\n        /* \"#utility.yul\":1749:1820   */\n      tag_189\n        /* \"#utility.yul\":1817:1818   */\n      0x00\n        /* \"#utility.yul\":1806:1815   */\n      dup4\n        /* \"#utility.yul\":1802:1819   */\n      add\n        /* \"#utility.yul\":1793:1799   */\n      dup5\n        /* \"#utility.yul\":1749:1820   */\n      tag_149\n      jump\t// in\n    tag_189:\n        /* \"#utility.yul\":1605:1827   */\n      swap3\n      swap2\n      pop\n      pop\n      jump\t// out\n        /* \"#utility.yul\":1914:2031   */\n    tag_151:\n        /* \"#utility.yul\":2023:2024   */\n      0x00\n        /* \"#utility.yul\":2020:2021   */\n      dup1\n        /* \"#utility.yul\":2013:2025   */\n      revert\n        /* \"#utility.yul\":2160:2282   */\n    tag_153:\n        /* \"#utility.yul\":2233:2257   */\n      tag_194\n        /* \"#utility.yul\":2251:2256   */\n      dup2\n        /* \"#utility.yul\":2233:2257   */\n      tag_148\n      jump\t// in\n    tag_194:\n        /* \"#utility.yul\":2226:2231   */\n      dup2\n        /* \"#utility.yul\":2223:2258   */\n      eq\n        /* \"#utility.yul\":2213:2276   */\n      tag_195\n      jumpi\n        /* \"#utility.yul\":2272:2273   */\n      0x00\n        /* \"#utility.yul\":2269:2270   */\n      dup1\n        /* \"#utility.yul\":2262:2274   */\n      revert\n        /* \"#utility.yul\":2213:2276   */\n    tag_195:\n        /* \"#utility.yul\":2160:2282   */\n      pop\n      jump\t// out\n        /* \"#utility.yul\":2288:2427   */\n    tag_154:\n        /* \"#utility.yul\":2334:2339   */\n      0x00\n        /* \"#utility.yul\":2372:2378   */\n      dup2\n        /* \"#utility.yul\":2359:2379   */\n      calldataload\n        /* \"#utility.yul\":2350:2379   */\n      swap1\n      pop\n        /* \"#utility.yul\":2388:2421   */\n      tag_197\n        /* \"#utility.yul\":2415:2420   */\n      dup2\n        /* \"#utility.yul\":2388:2421   */\n      tag_153\n      jump\t// in\n    tag_197:\n        /* \"#utility.yul\":2288:2427   */\n      swap3\n      swap2\n      pop\n      pop\n      jump\t// out\n        /* \"#utility.yul\":2433:2762   */\n    tag_44:\n        /* \"#utility.yul\":2492:2498   */\n      0x00\n        /* \"#utility.yul\":2541:2543   */\n      0x20\n        /* \"#utility.yul\":2529:2538   */\n      dup3\n        /* \"#utility.yul\":2520:2527   */\n      dup5\n        /* \"#utility.yul\":2516:2539   */\n      sub\n        /* \"#utility.yul\":2512:2544   */\n      slt\n        /* \"#utility.yul\":2509:2628   */\n      iszero\n      tag_199\n      jumpi\n        /* \"#utility.yul\":2547:2626   */\n      tag_200\n      tag_151\n      jump\t// in\n    tag_200:\n        /* \"#utility.yul\":2509:2628   */\n    tag_199:\n        /* \"#utility.yul\":2667:2668   */\n      0x00\n        /* \"#utility.yul\":2692:2745   */\n      tag_201\n        /* \"#utility.yul\":2737:2744   */\n      dup5\n        /* \"#utility.yul\":2728:2734   */\n      dup3\n        /* \"#utility.yul\":2717:2726   */\n      dup6\n        /* \"#utility.yul\":2713:2735   */\n      add\n        /* \"#utility.yul\":2692:2745   */\n      tag_154\n      jump\t// in\n    tag_201:\n        /* \"#utility.yul\":2682:2745   */\n      swap2\n      pop\n        /* \"#utility.yul\":2638:2755   */\n      pop\n        /* \"#utility.yul\":2433:2762   */\n      swap3\n      swap2\n      pop\n      pop\n      jump\t// out\n        /* \"#utility.yul\":2768:2948   */\n    tag_64:\n        /* \"#utility.yul\":2816:2893   */\n      0x4e487b7100000000000000000000000000000000000000000000000000000000\n        /* \"#utility.yul\":2813:2814   */\n      0x00\n        /* \"#utility.yul\":2806:2894   */\n      mstore\n        /* \"#utility.yul\":2913:2917   */\n      0x21\n        /* \"#utility.yul\":2910:2911   */\n      0x04\n        /* \"#utility.yul\":2903:2918   */\n      mstore\n        /* \"#utility.yul\":2937:2941   */\n      0x24\n        /* \"#utility.yul\":2934:2935   */\n      0x00\n        /* \"#utility.yul\":2927:2942   */\n      revert\n        /* \"#utility.yul\":2954:3071   */\n    tag_155:\n        /* \"#utility.yul\":3039:3040   */\n      0x04\n        /* \"#utility.yul\":3032:3037   */\n      dup2\n        /* \"#utility.yul\":3029:3041   */\n      lt\n        /* \"#utility.yul\":3019:3065   */\n      tag_204\n      jumpi\n        /* \"#utility.yul\":3045:3063   */\n      tag_205\n      tag_64\n      jump\t// in\n    tag_205:\n        /* \"#utility.yul\":3019:3065   */\n    tag_204:\n        /* \"#utility.yul\":2954:3071   */\n      pop\n      jump\t// out\n        /* \"#utility.yul\":3077:3212   */\n    tag_156:\n        /* \"#utility.yul\":3126:3133   */\n      0x00\n        /* \"#utility.yul\":3155:3160   */\n      dup2\n        /* \"#utility.yul\":3144:3160   */\n      swap1\n      pop\n        /* \"#utility.yul\":3161:3206   */\n      tag_207\n        /* \"#utility.yul\":3200:3205   */\n      dup3\n        /* \"#utility.yul\":3161:3206   */\n      tag_155\n      jump\t// in\n    tag_207:\n        /* \"#utility.yul\":3077:3212   */\n      swap2\n      swap1\n      pop\n      jump\t// out\n        /* \"#utility.yul\":3218:3353   */\n    tag_157:\n        /* \"#utility.yul\":3278:3287   */\n      0x00\n        /* \"#utility.yul\":3311:3347   */\n      tag_209\n        /* \"#utility.yul\":3341:3346   */\n      dup3\n        /* \"#utility.yul\":3311:3347   */\n      tag_156\n      jump\t// in\n    tag_209:\n        /* \"#utility.yul\":3298:3347   */\n      swap1\n      pop\n        /* \"#utility.yul\":3218:3353   */\n      swap2\n      swap1\n      pop\n      jump\t// out\n        /* \"#utility.yul\":3359:3510   */\n    tag_158:\n        /* \"#utility.yul\":3456:3503   */\n      tag_211\n        /* \"#utility.yul\":3497:3502   */\n      dup2\n        /* \"#utility.yul\":3456:3503   */\n      tag_157\n      jump\t// in\n    tag_211:\n        /* \"#utility.yul\":3451:3454   */\n      dup3\n        /* \"#utility.yul\":3444:3504   */\n      mstore\n        /* \"#utility.yul\":3359:3510   */\n      pop\n      pop\n      jump\t// out\n        /* \"#utility.yul\":3516:3758   */\n    tag_55:\n        /* \"#utility.yul\":3619:3623   */\n      0x00\n        /* \"#utility.yul\":3657:3659   */\n      0x20\n        /* \"#utility.yul\":3646:3655   */\n      dup3\n        /* \"#utility.yul\":3642:3660   */\n      add\n        /* \"#utility.yul\":3634:3660   */\n      swap1\n      pop\n        /* \"#utility.yul\":3670:3751   */\n      tag_213\n        /* \"#utility.yul\":3748:3749   */\n      0x00\n        /* \"#utility.yul\":3737:3746   */\n      dup4\n        /* \"#utility.yul\":3733:3750   */\n      add\n        /* \"#utility.yul\":3724:3730   */\n      dup5\n        /* \"#utility.yul\":3670:3751   */\n      tag_158\n      jump\t// in\n    tag_213:\n        /* \"#utility.yul\":3516:3758   */\n      swap3\n      swap2\n      pop\n      pop\n      jump\t// out\n        /* \"#utility.yul\":3764:3933   */\n    tag_159:\n        /* \"#utility.yul\":3848:3859   */\n      0x00\n        /* \"#utility.yul\":3882:3888   */\n      dup3\n        /* \"#utility.yul\":3877:3880   */\n      dup3\n        /* \"#utility.yul\":3870:3889   */\n      mstore\n        /* \"#utility.yul\":3922:3926   */\n      0x20\n        /* \"#utility.yul\":3917:3920   */\n      dup3\n        /* \"#utility.yul\":3913:3927   */\n      add\n        /* \"#utility.yul\":3898:3927   */\n      swap1\n      pop\n        /* \"#utility.yul\":3764:3933   */\n      swap3\n      swap2\n      pop\n      pop\n      jump\t// out\n        /* \"#utility.yul\":3939:4170   */\n    tag_160:\n        /* \"#utility.yul\":4079:4113   */\n      0x4f7074696f6e20686173206e6f742065787069726564206f7220686173206265\n        /* \"#utility.yul\":4075:4076   */\n      0x00\n        /* \"#utility.yul\":4067:4073   */\n      dup3\n        /* \"#utility.yul\":4063:4077   */\n      add\n        /* \"#utility.yul\":4056:4114   */\n      mstore\n        /* \"#utility.yul\":4148:4162   */\n      0x656e206578657263697365640000000000000000000000000000000000000000\n        /* \"#utility.yul\":4143:4145   */\n      0x20\n        /* \"#utility.yul\":4135:4141   */\n      dup3\n        /* \"#utility.yul\":4131:4146   */\n      add\n        /* \"#utility.yul\":4124:4163   */\n      mstore\n        /* \"#utility.yul\":3939:4170   */\n      pop\n      jump\t// out\n        /* \"#utility.yul\":4176:4542   */\n    tag_161:\n        /* \"#utility.yul\":4318:4321   */\n      0x00\n        /* \"#utility.yul\":4339:4406   */\n      tag_217\n        /* \"#utility.yul\":4403:4405   */\n      0x2c\n        /* \"#utility.yul\":4398:4401   */\n      dup4\n        /* \"#utility.yul\":4339:4406   */\n      tag_159\n      jump\t// in\n    tag_217:\n        /* \"#utility.yul\":4332:4406   */\n      swap2\n      pop\n        /* \"#utility.yul\":4415:4508   */\n      tag_218\n        /* \"#utility.yul\":4504:4507   */\n      dup3\n        /* \"#utility.yul\":4415:4508   */\n      tag_160\n      jump\t// in\n    tag_218:\n        /* \"#utility.yul\":4533:4535   */\n      0x40\n        /* \"#utility.yul\":4528:4531   */\n      dup3\n        /* \"#utility.yul\":4524:4536   */\n      add\n        /* \"#utility.yul\":4517:4536   */\n      swap1\n      pop\n        /* \"#utility.yul\":4176:4542   */\n      swap2\n      swap1\n      pop\n      jump\t// out\n        /* \"#utility.yul\":4548:4967   */\n    tag_61:\n        /* \"#utility.yul\":4714:4718   */\n      0x00\n        /* \"#utility.yul\":4752:4754   */\n      0x20\n        /* \"#utility.yul\":4741:4750   */\n      dup3\n        /* \"#utility.yul\":4737:4755   */\n      add\n        /* \"#utility.yul\":4729:4755   */\n      swap1\n      pop\n        /* \"#utility.yul\":4801:4810   */\n      dup2\n        /* \"#utility.yul\":4795:4799   */\n      dup2\n        /* \"#utility.yul\":4791:4811   */\n      sub\n        /* \"#utility.yul\":4787:4788   */\n      0x00\n        /* \"#utility.yul\":4776:4785   */\n      dup4\n        /* \"#utility.yul\":4772:4789   */\n      add\n        /* \"#utility.yul\":4765:4812   */\n      mstore\n        /* \"#utility.yul\":4829:4960   */\n      tag_220\n        /* \"#utility.yul\":4955:4959   */\n      dup2\n        /* \"#utility.yul\":4829:4960   */\n      tag_161\n      jump\t// in\n    tag_220:\n        /* \"#utility.yul\":4821:4960   */\n      swap1\n      pop\n        /* \"#utility.yul\":4548:4967   */\n      swap2\n      swap1\n      pop\n      jump\t// out\n        /* \"#utility.yul\":4973:5198   */\n    tag_162:\n        /* \"#utility.yul\":5113:5147   */\n      0x4f6e6c792073656c6c65722063616e20706572666f726d2074686973206f7065\n        /* \"#utility.yul\":5109:5110   */\n      0x00\n        /* \"#utility.yul\":5101:5107   */\n      dup3\n        /* \"#utility.yul\":5097:5111   */\n      add\n        /* \"#utility.yul\":5090:5148   */\n      mstore\n        /* \"#utility.yul\":5182:5190   */\n      0x726174696f6e0000000000000000000000000000000000000000000000000000\n        /* \"#utility.yul\":5177:5179   */\n      0x20\n        /* \"#utility.yul\":5169:5175   */\n      dup3\n        /* \"#utility.yul\":5165:5180   */\n      add\n        /* \"#utility.yul\":5158:5191   */\n      mstore\n        /* \"#utility.yul\":4973:5198   */\n      pop\n      jump\t// out\n        /* \"#utility.yul\":5204:5570   */\n    tag_163:\n        /* \"#utility.yul\":5346:5349   */\n      0x00\n        /* \"#utility.yul\":5367:5434   */\n      tag_223\n        /* \"#utility.yul\":5431:5433   */\n      0x26\n        /* \"#utility.yul\":5426:5429   */\n      dup4\n        /* \"#utility.yul\":5367:5434   */\n      tag_159\n      jump\t// in\n    tag_223:\n        /* \"#utility.yul\":5360:5434   */\n      swap2\n      pop\n        /* \"#utility.yul\":5443:5536   */\n      tag_224\n        /* \"#utility.yul\":5532:5535   */\n      dup3\n        /* \"#utility.yul\":5443:5536   */\n      tag_162\n      jump\t// in\n    tag_224:\n        /* \"#utility.yul\":5561:5563   */\n      0x40\n        /* \"#utility.yul\":5556:5559   */\n      dup3\n        /* \"#utility.yul\":5552:5564   */\n      add\n        /* \"#utility.yul\":5545:5564   */\n      swap1\n      pop\n        /* \"#utility.yul\":5204:5570   */\n      swap2\n      swap1\n      pop\n      jump\t// out\n        /* \"#utility.yul\":5576:5995   */\n    tag_90:\n        /* \"#utility.yul\":5742:5746   */\n      0x00\n        /* \"#utility.yul\":5780:5782   */\n      0x20\n        /* \"#utility.yul\":5769:5778   */\n      dup3\n        /* \"#utility.yul\":5765:5783   */\n      add\n        /* \"#utility.yul\":5757:5783   */\n      swap1\n      pop\n        /* \"#utility.yul\":5829:5838   */\n      dup2\n        /* \"#utility.yul\":5823:5827   */\n      dup2\n        /* \"#utility.yul\":5819:5839   */\n      sub\n        /* \"#utility.yul\":5815:5816   */\n      0x00\n        /* \"#utility.yul\":5804:5813   */\n      dup4\n        /* \"#utility.yul\":5800:5817   */\n      add\n        /* \"#utility.yul\":5793:5840   */\n      mstore\n        /* \"#utility.yul\":5857:5988   */\n      tag_226\n        /* \"#utility.yul\":5983:5987   */\n      dup2\n        /* \"#utility.yul\":5857:5988   */\n      tag_163\n      jump\t// in\n    tag_226:\n        /* \"#utility.yul\":5849:5988   */\n      swap1\n      pop\n        /* \"#utility.yul\":5576:5995   */\n      swap2\n      swap1\n      pop\n      jump\t// out\n        /* \"#utility.yul\":6001:6225   */\n    tag_164:\n        /* \"#utility.yul\":6141:6175   */\n      0x4f6e6c792062757965722063616e20706572666f726d2074686973206f706572\n        /* \"#utility.yul\":6137:6138   */\n      0x00\n        /* \"#utility.yul\":6129:6135   */\n      dup3\n        /* \"#utility.yul\":6125:6139   */\n      add\n        /* \"#utility.yul\":6118:6176   */\n      mstore\n        /* \"#utility.yul\":6210:6217   */\n      0x6174696f6e000000000000000000000000000000000000000000000000000000\n        /* \"#utility.yul\":6205:6207   */\n      0x20\n        /* \"#utility.yul\":6197:6203   */\n      dup3\n        /* \"#utility.yul\":6193:6208   */\n      add\n        /* \"#utility.yul\":6186:6218   */\n      mstore\n        /* \"#utility.yul\":6001:6225   */\n      pop\n      jump\t// out\n        /* \"#utility.yul\":6231:6597   */\n    tag_165:\n        /* \"#utility.yul\":6373:6376   */\n      0x00\n        /* \"#utility.yul\":6394:6461   */\n      tag_229\n        /* \"#utility.yul\":6458:6460   */\n      0x25\n        /* \"#utility.yul\":6453:6456   */\n      dup4\n        /* \"#utility.yul\":6394:6461   */\n      tag_159\n      jump\t// in\n    tag_229:\n        /* \"#utility.yul\":6387:6461   */\n      swap2\n      pop\n        /* \"#utility.yul\":6470:6563   */\n      tag_230\n        /* \"#utility.yul\":6559:6562   */\n      dup3\n        /* \"#utility.yul\":6470:6563   */\n      tag_164\n      jump\t// in\n    tag_230:\n        /* \"#utility.yul\":6588:6590   */\n      0x40\n        /* \"#utility.yul\":6583:6586   */\n      dup3\n        /* \"#utility.yul\":6579:6591   */\n      add\n        /* \"#utility.yul\":6572:6591   */\n      swap1\n      pop\n        /* \"#utility.yul\":6231:6597   */\n      swap2\n      swap1\n      pop\n      jump\t// out\n        /* \"#utility.yul\":6603:7022   */\n    tag_95:\n        /* \"#utility.yul\":6769:6773   */\n      0x00\n        /* \"#utility.yul\":6807:6809   */\n      0x20\n        /* \"#utility.yul\":6796:6805   */\n      dup3\n        /* \"#utility.yul\":6792:6810   */\n      add\n        /* \"#utility.yul\":6784:6810   */\n      swap1\n      pop\n        /* \"#utility.yul\":6856:6865   */\n      dup2\n        /* \"#utility.yul\":6850:6854   */\n      dup2\n        /* \"#utility.yul\":6846:6866   */\n      sub\n        /* \"#utility.yul\":6842:6843   */\n      0x00\n        /* \"#utility.yul\":6831:6840   */\n      dup4\n        /* \"#utility.yul\":6827:6844   */\n      add\n        /* \"#utility.yul\":6820:6867   */\n      mstore\n        /* \"#utility.yul\":6884:7015   */\n      tag_232\n        /* \"#utility.yul\":7010:7014   */\n      dup2\n        /* \"#utility.yul\":6884:7015   */\n      tag_165\n      jump\t// in\n    tag_232:\n        /* \"#utility.yul\":6876:7015   */\n      swap1\n      pop\n        /* \"#utility.yul\":6603:7022   */\n      swap2\n      swap1\n      pop\n      jump\t// out\n        /* \"#utility.yul\":7028:7250   */\n    tag_166:\n        /* \"#utility.yul\":7168:7202   */\n      0x4f7074696f6e20616c72656164792065787069726564206f7220657865726369\n        /* \"#utility.yul\":7164:7165   */\n      0x00\n        /* \"#utility.yul\":7156:7162   */\n      dup3\n        /* \"#utility.yul\":7152:7166   */\n      add\n        /* \"#utility.yul\":7145:7203   */\n      mstore\n        /* \"#utility.yul\":7237:7242   */\n      0x7365640000000000000000000000000000000000000000000000000000000000\n        /* \"#utility.yul\":7232:7234   */\n      0x20\n        /* \"#utility.yul\":7224:7230   */\n      dup3\n        /* \"#utility.yul\":7220:7235   */\n      add\n        /* \"#utility.yul\":7213:7243   */\n      mstore\n        /* \"#utility.yul\":7028:7250   */\n      pop\n      jump\t// out\n        /* \"#utility.yul\":7256:7622   */\n    tag_167:\n        /* \"#utility.yul\":7398:7401   */\n      0x00\n        /* \"#utility.yul\":7419:7486   */\n      tag_235\n        /* \"#utility.yul\":7483:7485   */\n      0x23\n        /* \"#utility.yul\":7478:7481   */\n      dup4\n        /* \"#utility.yul\":7419:7486   */\n      tag_159\n      jump\t// in\n    tag_235:\n        /* \"#utility.yul\":7412:7486   */\n      swap2\n      pop\n        /* \"#utility.yul\":7495:7588   */\n      tag_236\n        /* \"#utility.yul\":7584:7587   */\n      dup3\n        /* \"#utility.yul\":7495:7588   */\n      tag_166\n      jump\t// in\n    tag_236:\n        /* \"#utility.yul\":7613:7615   */\n      0x40\n        /* \"#utility.yul\":7608:7611   */\n      dup3\n        /* \"#utility.yul\":7604:7616   */\n      add\n        /* \"#utility.yul\":7597:7616   */\n      swap1\n      pop\n        /* \"#utility.yul\":7256:7622   */\n      swap2\n      swap1\n      pop\n      jump\t// out\n        /* \"#utility.yul\":7628:8047   */\n    tag_100:\n        /* \"#utility.yul\":7794:7798   */\n      0x00\n        /* \"#utility.yul\":7832:7834   */\n      0x20\n        /* \"#utility.yul\":7821:7830   */\n      dup3\n        /* \"#utility.yul\":7817:7835   */\n      add\n        /* \"#utility.yul\":7809:7835   */\n      swap1\n      pop\n        /* \"#utility.yul\":7881:7890   */\n      dup2\n        /* \"#utility.yul\":7875:7879   */\n      dup2\n        /* \"#utility.yul\":7871:7891   */\n      sub\n        /* \"#utility.yul\":7867:7868   */\n      0x00\n        /* \"#utility.yul\":7856:7865   */\n      dup4\n        /* \"#utility.yul\":7852:7869   */\n      add\n        /* \"#utility.yul\":7845:7892   */\n      mstore\n        /* \"#utility.yul\":7909:8040   */\n      tag_238\n        /* \"#utility.yul\":8035:8039   */\n      dup2\n        /* \"#utility.yul\":7909:8040   */\n      tag_167\n      jump\t// in\n    tag_238:\n        /* \"#utility.yul\":7901:8040   */\n      swap1\n      pop\n        /* \"#utility.yul\":7628:8047   */\n      swap2\n      swap1\n      pop\n      jump\t// out\n        /* \"#utility.yul\":8053:8233   */\n    tag_168:\n        /* \"#utility.yul\":8101:8178   */\n      0x4e487b7100000000000000000000000000000000000000000000000000000000\n        /* \"#utility.yul\":8098:8099   */\n      0x00\n        /* \"#utility.yul\":8091:8179   */\n      mstore\n        /* \"#utility.yul\":8198:8202   */\n      0x11\n        /* \"#utility.yul\":8195:8196   */\n      0x04\n        /* \"#utility.yul\":8188:8203   */\n      mstore\n        /* \"#utility.yul\":8222:8226   */\n      0x24\n        /* \"#utility.yul\":8219:8220   */\n      0x00\n        /* \"#utility.yul\":8212:8227   */\n      revert\n        /* \"#utility.yul\":8239:8430   */\n    tag_108:\n        /* \"#utility.yul\":8279:8283   */\n      0x00\n        /* \"#utility.yul\":8299:8319   */\n      tag_241\n        /* \"#utility.yul\":8317:8318   */\n      dup3\n        /* \"#utility.yul\":8299:8319   */\n      tag_148\n      jump\t// in\n    tag_241:\n        /* \"#utility.yul\":8294:8319   */\n      swap2\n      pop\n        /* \"#utility.yul\":8333:8353   */\n      tag_242\n        /* \"#utility.yul\":8351:8352   */\n      dup4\n        /* \"#utility.yul\":8333:8353   */\n      tag_148\n      jump\t// in\n    tag_242:\n        /* \"#utility.yul\":8328:8353   */\n      swap3\n      pop\n        /* \"#utility.yul\":8372:8373   */\n      dup3\n        /* \"#utility.yul\":8369:8370   */\n      dup3\n        /* \"#utility.yul\":8366:8374   */\n      lt\n        /* \"#utility.yul\":8363:8397   */\n      iszero\n      tag_243\n      jumpi\n        /* \"#utility.yul\":8377:8395   */\n      tag_244\n      tag_168\n      jump\t// in\n    tag_244:\n        /* \"#utility.yul\":8363:8397   */\n    tag_243:\n        /* \"#utility.yul\":8422:8423   */\n      dup3\n        /* \"#utility.yul\":8419:8420   */\n      dup3\n        /* \"#utility.yul\":8415:8424   */\n      sub\n        /* \"#utility.yul\":8407:8424   */\n      swap1\n      pop\n        /* \"#utility.yul\":8239:8430   */\n      swap3\n      swap2\n      pop\n      pop\n      jump\t// out\n        /* \"#utility.yul\":8436:8741   */\n    tag_110:\n        /* \"#utility.yul\":8476:8479   */\n      0x00\n        /* \"#utility.yul\":8495:8515   */\n      tag_246\n        /* \"#utility.yul\":8513:8514   */\n      dup3\n        /* \"#utility.yul\":8495:8515   */\n      tag_148\n      jump\t// in\n    tag_246:\n        /* \"#utility.yul\":8490:8515   */\n      swap2\n      pop\n        /* \"#utility.yul\":8529:8549   */\n      tag_247\n        /* \"#utility.yul\":8547:8548   */\n      dup4\n        /* \"#utility.yul\":8529:8549   */\n      tag_148\n      jump\t// in\n    tag_247:\n        /* \"#utility.yul\":8524:8549   */\n      swap3\n      pop\n        /* \"#utility.yul\":8683:8684   */\n      dup3\n        /* \"#utility.yul\":8615:8681   */\n      0xffffffffffffffffffffffffffffffffffffffffffffffffffffffffffffffff\n        /* \"#utility.yul\":8611:8685   */\n      sub\n        /* \"#utility.yul\":8608:8609   */\n      dup3\n        /* \"#utility.yul\":8605:8686   */\n      gt\n        /* \"#utility.yul\":8602:8709   */\n      iszero\n      tag_248\n      jumpi\n        /* \"#utility.yul\":8689:8707   */\n      tag_249\n      tag_168\n      jump\t// in\n    tag_249:\n        /* \"#utility.yul\":8602:8709   */\n    tag_248:\n        /* \"#utility.yul\":8733:8734   */\n      dup3\n        /* \"#utility.yul\":8730:8731   */\n      dup3\n        /* \"#utility.yul\":8726:8735   */\n      add\n        /* \"#utility.yul\":8719:8735   */\n      swap1\n      pop\n        /* \"#utility.yul\":8436:8741   */\n      swap3\n      swap2\n      pop\n      pop\n      jump\t// out\n\n    auxdata: 0xa26469706673582212208642ba902ae19be2476314c3adcb90bc995069e66596cc9c1635ea63f0058d7164736f6c63430008080033\n}\n",
				"bytecode": {
					"linkReferences": {},
					"object": "60806040526040516200136e3803806200136e83398181016040528101906200002991906200024c565b336000806101000a81548173ffffffffffffffffffffffffffffffffffffffff021916908373ffffffffffffffffffffffffffffffffffffffff16021790555084600160006101000a81548173ffffffffffffffffffffffffffffffffffffffff021916908373ffffffffffffffffffffffffffffffffffffffff16021790555080600160146101000a81548160ff02191690836003811115620000d257620000d1620002d4565b5b021790555083600281905550826003819055508142620000f3919062000332565b6004819055506000600560006101000a81548160ff0219169083151502179055506000600560016101000a81548160ff02191690831515021790555082341462000174576040517f08c379a00000000000000000000000000000000000000000000000000000000081526004016200016b90620003f0565b60405180910390fd5b505050505062000412565b600080fd5b600073ffffffffffffffffffffffffffffffffffffffff82169050919050565b6000620001b18262000184565b9050919050565b620001c381620001a4565b8114620001cf57600080fd5b50565b600081519050620001e381620001b8565b92915050565b6000819050919050565b620001fe81620001e9565b81146200020a57600080fd5b50565b6000815190506200021e81620001f3565b92915050565b600481106200023257600080fd5b50565b600081519050620002468162000224565b92915050565b600080600080600060a086880312156200026b576200026a6200017f565b5b60006200027b88828901620001d2565b95505060206200028e888289016200020d565b9450506040620002a1888289016200020d565b9350506060620002b4888289016200020d565b9250506080620002c78882890162000235565b9150509295509295909350565b7f4e487b7100000000000000000000000000000000000000000000000000000000600052602160045260246000fd5b7f4e487b7100000000000000000000000000000000000000000000000000000000600052601160045260246000fd5b60006200033f82620001e9565b91506200034c83620001e9565b9250827fffffffffffffffffffffffffffffffffffffffffffffffffffffffffffffffff0382111562000384576200038362000303565b5b828201905092915050565b600082825260208201905092915050565b7f496e76616c6964207072656d69756d0000000000000000000000000000000000600082015250565b6000620003d8600f836200038f565b9150620003e582620003a0565b602082019050919050565b600060208201905081810360008301526200040b81620003c9565b9050919050565b610f4c80620004226000396000f3fe608060405234801561001057600080fd5b50600436106100b45760003560e01c80637150d8ae116100715780637150d8ae1461015a57806379599f9614610178578063b07f0a4114610182578063c52987cf1461019e578063e0a73a93146101bc578063ffd9eedb146101da576100b4565b806308551a53146100b957806314c68b1b146100d7578063200d2ed2146100f55780634665096d146101145780634c2067c714610132578063590e1ae314610150575b600080fd5b6100c16101f8565b6040516100ce9190610a66565b60405180910390f35b6100df61021c565b6040516100ec9190610a9c565b60405180910390f35b6100fd61022f565b60405161010b929190610ab7565b60405180910390f35b61011c61025a565b6040516101299190610af9565b60405180910390f35b61013a610260565b6040516101479190610a9c565b60405180910390f35b610158610273565b005b6101626104a6565b60405161016f9190610a66565b60405180910390f35b6101806104cc565b005b61019c60048036038101906101979190610b45565b610577565b005b6101a6610a06565b6040516101b39190610af9565b60405180910390f35b6101c4610a0c565b6040516101d19190610af9565b60405180910390f35b6101e2610a12565b6040516101ef9190610be9565b60405180910390f35b60008054906101000a900473ffffffffffffffffffffffffffffffffffffffff1681565b600560009054906101000a900460ff1681565b600080600560019054906101000a900460ff16600560009054906101000a900460ff16915091509091565b60045481565b600560019054906101000a900460ff1681565b600560019054906101000a900460ff16801561029c5750600560009054906101000a900460ff16155b6102db576040517f08c379a00000000000000000000000000000000000000000000000000000000081526004016102d290610c87565b60405180910390fd5b600060038111156102ef576102ee610b72565b5b600160149054906101000a900460ff16600381111561031157610310610b72565b5b148061035057506001600381111561032c5761032b610b72565b5b600160149054906101000a900460ff16600381111561034e5761034d610b72565b5b145b156103c157600160009054906101000a900473ffffffffffffffffffffffffffffffffffffffff1673ffffffffffffffffffffffffffffffffffffffff166108fc6003549081150290604051600060405180830381858888f193505050501580156103bf573d6000803e3d6000fd5b505b600260038111156103d5576103d4610b72565b5b600160149054906101000a900460ff1660038111156103f7576103f6610b72565b5b1480610435575060038081111561041157610410610b72565b5b600160149054906101000a900460ff16600381111561043357610432610b72565b5b145b156104a45760008054906101000a900473ffffffffffffffffffffffffffffffffffffffff1673ffffffffffffffffffffffffffffffffffffffff166108fc6003549081150290604051600060405180830381858888f193505050501580156104a2573d6000803e3d6000fd5b505b565b600160009054906101000a900473ffffffffffffffffffffffffffffffffffffffff1681565b60008054906101000a900473ffffffffffffffffffffffffffffffffffffffff1673ffffffffffffffffffffffffffffffffffffffff163373ffffffffffffffffffffffffffffffffffffffff161461055a576040517f08c379a000000000000000000000000000000000000000000000000000000000815260040161055190610d19565b60405180910390fd5b6001600560016101000a81548160ff021916908315150217905550565b600160009054906101000a900473ffffffffffffffffffffffffffffffffffffffff1673ffffffffffffffffffffffffffffffffffffffff163373ffffffffffffffffffffffffffffffffffffffff1614610607576040517f08c379a00000000000000000000000000000000000000000000000000000000081526004016105fe90610dab565b60405180910390fd5b600560019054906101000a900460ff161580156106315750600560009054906101000a900460ff16155b610670576040517f08c379a000000000000000000000000000000000000000000000000000000000815260040161066790610e3d565b60405180910390fd5b6000600381111561068457610683610b72565b5b600160149054906101000a900460ff1660038111156106a6576106a5610b72565b5b1480156106b4575060025481115b1561075657600160009054906101000a900473ffffffffffffffffffffffffffffffffffffffff1673ffffffffffffffffffffffffffffffffffffffff166108fc600254836107039190610e8c565b4761070e9190610ec0565b9081150290604051600060405180830381858888f19350505050158015610739573d6000803e3d6000fd5b506001600560006101000a81548160ff0219169083151502179055505b6001600381111561076a57610769610b72565b5b600160149054906101000a900460ff16600381111561078c5761078b610b72565b5b14801561079a575060025481105b1561083c57600160009054906101000a900473ffffffffffffffffffffffffffffffffffffffff1673ffffffffffffffffffffffffffffffffffffffff166108fc826002546107e99190610e8c565b476107f49190610ec0565b9081150290604051600060405180830381858888f1935050505015801561081f573d6000803e3d6000fd5b506001600560006101000a81548160ff0219169083151502179055505b600260038111156108505761084f610b72565b5b600160149054906101000a900460ff16600381111561087257610871610b72565b5b148015610880575060025481115b156109205760008054906101000a900473ffffffffffffffffffffffffffffffffffffffff1673ffffffffffffffffffffffffffffffffffffffff166108fc600254836108cd9190610e8c565b476108d89190610ec0565b9081150290604051600060405180830381858888f19350505050158015610903573d6000803e3d6000fd5b506001600560006101000a81548160ff0219169083151502179055505b60038081111561093357610932610b72565b5b600160149054906101000a900460ff16600381111561095557610954610b72565b5b148015610963575060025481105b15610a035760008054906101000a900473ffffffffffffffffffffffffffffffffffffffff1673ffffffffffffffffffffffffffffffffffffffff166108fc826002546109b09190610e8c565b476109bb9190610ec0565b9081150290604051600060405180830381858888f193505050501580156109e6573d6000803e3d6000fd5b506001600560006101000a81548160ff0219169083151502179055505b50565b60025481565b60035481565b600160149054906101000a900460ff1681565b600073ffffffffffffffffffffffffffffffffffffffff82169050919050565b6000610a5082610a25565b9050919050565b610a6081610a45565b82525050565b6000602082019050610a7b6000830184610a57565b92915050565b60008115159050919050565b610a9681610a81565b82525050565b6000602082019050610ab16000830184610a8d565b92915050565b6000604082019050610acc6000830185610a8d565b610ad96020830184610a8d565b9392505050565b6000819050919050565b610af381610ae0565b82525050565b6000602082019050610b0e6000830184610aea565b92915050565b600080fd5b610b2281610ae0565b8114610b2d57600080fd5b50565b600081359050610b3f81610b19565b92915050565b600060208284031215610b5b57610b5a610b14565b5b6000610b6984828501610b30565b91505092915050565b7f4e487b7100000000000000000000000000000000000000000000000000000000600052602160045260246000fd5b60048110610bb257610bb1610b72565b5b50565b6000819050610bc382610ba1565b919050565b6000610bd382610bb5565b9050919050565b610be381610bc8565b82525050565b6000602082019050610bfe6000830184610bda565b92915050565b600082825260208201905092915050565b7f4f7074696f6e20686173206e6f742065787069726564206f722068617320626560008201527f656e206578657263697365640000000000000000000000000000000000000000602082015250565b6000610c71602c83610c04565b9150610c7c82610c15565b604082019050919050565b60006020820190508181036000830152610ca081610c64565b9050919050565b7f4f6e6c792073656c6c65722063616e20706572666f726d2074686973206f706560008201527f726174696f6e0000000000000000000000000000000000000000000000000000602082015250565b6000610d03602683610c04565b9150610d0e82610ca7565b604082019050919050565b60006020820190508181036000830152610d3281610cf6565b9050919050565b7f4f6e6c792062757965722063616e20706572666f726d2074686973206f70657260008201527f6174696f6e000000000000000000000000000000000000000000000000000000602082015250565b6000610d95602583610c04565b9150610da082610d39565b604082019050919050565b60006020820190508181036000830152610dc481610d88565b9050919050565b7f4f7074696f6e20616c72656164792065787069726564206f722065786572636960008201527f7365640000000000000000000000000000000000000000000000000000000000602082015250565b6000610e27602383610c04565b9150610e3282610dcb565b604082019050919050565b60006020820190508181036000830152610e5681610e1a565b9050919050565b7f4e487b7100000000000000000000000000000000000000000000000000000000600052601160045260246000fd5b6000610e9782610ae0565b9150610ea283610ae0565b925082821015610eb557610eb4610e5d565b5b828203905092915050565b6000610ecb82610ae0565b9150610ed683610ae0565b9250827fffffffffffffffffffffffffffffffffffffffffffffffffffffffffffffffff03821115610f0b57610f0a610e5d565b5b82820190509291505056fea26469706673582212208642ba902ae19be2476314c3adcb90bc995069e66596cc9c1635ea63f0058d7164736f6c63430008080033",
					"opcodes": "PUSH1 0x80 PUSH1 0x40 MSTORE PUSH1 0x40 MLOAD PUSH3 0x136E CODESIZE SUB DUP1 PUSH3 0x136E DUP4 CODECOPY DUP2 DUP2 ADD PUSH1 0x40 MSTORE DUP2 ADD SWAP1 PUSH3 0x29 SWAP2 SWAP1 PUSH3 0x24C JUMP JUMPDEST CALLER PUSH1 0x0 DUP1 PUSH2 0x100 EXP DUP2 SLOAD DUP2 PUSH20 0xFFFFFFFFFFFFFFFFFFFFFFFFFFFFFFFFFFFFFFFF MUL NOT AND SWAP1 DUP4 PUSH20 0xFFFFFFFFFFFFFFFFFFFFFFFFFFFFFFFFFFFFFFFF AND MUL OR SWAP1 SSTORE POP DUP5 PUSH1 0x1 PUSH1 0x0 PUSH2 0x100 EXP DUP2 SLOAD DUP2 PUSH20 0xFFFFFFFFFFFFFFFFFFFFFFFFFFFFFFFFFFFFFFFF MUL NOT AND SWAP1 DUP4 PUSH20 0xFFFFFFFFFFFFFFFFFFFFFFFFFFFFFFFFFFFFFFFF AND MUL OR SWAP1 SSTORE POP DUP1 PUSH1 0x1 PUSH1 0x14 PUSH2 0x100 EXP DUP2 SLOAD DUP2 PUSH1 0xFF MUL NOT AND SWAP1 DUP4 PUSH1 0x3 DUP2 GT ISZERO PUSH3 0xD2 JUMPI PUSH3 0xD1 PUSH3 0x2D4 JUMP JUMPDEST JUMPDEST MUL OR SWAP1 SSTORE POP DUP4 PUSH1 0x2 DUP2 SWAP1 SSTORE POP DUP3 PUSH1 0x3 DUP2 SWAP1 SSTORE POP DUP2 TIMESTAMP PUSH3 0xF3 SWAP2 SWAP1 PUSH3 0x332 JUMP JUMPDEST PUSH1 0x4 DUP2 SWAP1 SSTORE POP PUSH1 0x0 PUSH1 0x5 PUSH1 0x0 PUSH2 0x100 EXP DUP2 SLOAD DUP2 PUSH1 0xFF MUL NOT AND SWAP1 DUP4 ISZERO ISZERO MUL OR SWAP1 SSTORE POP PUSH1 0x0 PUSH1 0x5 PUSH1 0x1 PUSH2 0x100 EXP DUP2 SLOAD DUP2 PUSH1 0xFF MUL NOT AND SWAP1 DUP4 ISZERO ISZERO MUL OR SWAP1 SSTORE POP DUP3 CALLVALUE EQ PUSH3 0x174 JUMPI PUSH1 0x40 MLOAD PUSH32 0x8C379A000000000000000000000000000000000000000000000000000000000 DUP2 MSTORE PUSH1 0x4 ADD PUSH3 0x16B SWAP1 PUSH3 0x3F0 JUMP JUMPDEST PUSH1 0x40 MLOAD DUP1 SWAP2 SUB SWAP1 REVERT JUMPDEST POP POP POP POP POP PUSH3 0x412 JUMP JUMPDEST PUSH1 0x0 DUP1 REVERT JUMPDEST PUSH1 0x0 PUSH20 0xFFFFFFFFFFFFFFFFFFFFFFFFFFFFFFFFFFFFFFFF DUP3 AND SWAP1 POP SWAP2 SWAP1 POP JUMP JUMPDEST PUSH1 0x0 PUSH3 0x1B1 DUP3 PUSH3 0x184 JUMP JUMPDEST SWAP1 POP SWAP2 SWAP1 POP JUMP JUMPDEST PUSH3 0x1C3 DUP2 PUSH3 0x1A4 JUMP JUMPDEST DUP2 EQ PUSH3 0x1CF JUMPI PUSH1 0x0 DUP1 REVERT JUMPDEST POP JUMP JUMPDEST PUSH1 0x0 DUP2 MLOAD SWAP1 POP PUSH3 0x1E3 DUP2 PUSH3 0x1B8 JUMP JUMPDEST SWAP3 SWAP2 POP POP JUMP JUMPDEST PUSH1 0x0 DUP2 SWAP1 POP SWAP2 SWAP1 POP JUMP JUMPDEST PUSH3 0x1FE DUP2 PUSH3 0x1E9 JUMP JUMPDEST DUP2 EQ PUSH3 0x20A JUMPI PUSH1 0x0 DUP1 REVERT JUMPDEST POP JUMP JUMPDEST PUSH1 0x0 DUP2 MLOAD SWAP1 POP PUSH3 0x21E DUP2 PUSH3 0x1F3 JUMP JUMPDEST SWAP3 SWAP2 POP POP JUMP JUMPDEST PUSH1 0x4 DUP2 LT PUSH3 0x232 JUMPI PUSH1 0x0 DUP1 REVERT JUMPDEST POP JUMP JUMPDEST PUSH1 0x0 DUP2 MLOAD SWAP1 POP PUSH3 0x246 DUP2 PUSH3 0x224 JUMP JUMPDEST SWAP3 SWAP2 POP POP JUMP JUMPDEST PUSH1 0x0 DUP1 PUSH1 0x0 DUP1 PUSH1 0x0 PUSH1 0xA0 DUP7 DUP9 SUB SLT ISZERO PUSH3 0x26B JUMPI PUSH3 0x26A PUSH3 0x17F JUMP JUMPDEST JUMPDEST PUSH1 0x0 PUSH3 0x27B DUP9 DUP3 DUP10 ADD PUSH3 0x1D2 JUMP JUMPDEST SWAP6 POP POP PUSH1 0x20 PUSH3 0x28E DUP9 DUP3 DUP10 ADD PUSH3 0x20D JUMP JUMPDEST SWAP5 POP POP PUSH1 0x40 PUSH3 0x2A1 DUP9 DUP3 DUP10 ADD PUSH3 0x20D JUMP JUMPDEST SWAP4 POP POP PUSH1 0x60 PUSH3 0x2B4 DUP9 DUP3 DUP10 ADD PUSH3 0x20D JUMP JUMPDEST SWAP3 POP POP PUSH1 0x80 PUSH3 0x2C7 DUP9 DUP3 DUP10 ADD PUSH3 0x235 JUMP JUMPDEST SWAP2 POP POP SWAP3 SWAP6 POP SWAP3 SWAP6 SWAP1 SWAP4 POP JUMP JUMPDEST PUSH32 0x4E487B7100000000000000000000000000000000000000000000000000000000 PUSH1 0x0 MSTORE PUSH1 0x21 PUSH1 0x4 MSTORE PUSH1 0x24 PUSH1 0x0 REVERT JUMPDEST PUSH32 0x4E487B7100000000000000000000000000000000000000000000000000000000 PUSH1 0x0 MSTORE PUSH1 0x11 PUSH1 0x4 MSTORE PUSH1 0x24 PUSH1 0x0 REVERT JUMPDEST PUSH1 0x0 PUSH3 0x33F DUP3 PUSH3 0x1E9 JUMP JUMPDEST SWAP2 POP PUSH3 0x34C DUP4 PUSH3 0x1E9 JUMP JUMPDEST SWAP3 POP DUP3 PUSH32 0xFFFFFFFFFFFFFFFFFFFFFFFFFFFFFFFFFFFFFFFFFFFFFFFFFFFFFFFFFFFFFFFF SUB DUP3 GT ISZERO PUSH3 0x384 JUMPI PUSH3 0x383 PUSH3 0x303 JUMP JUMPDEST JUMPDEST DUP3 DUP3 ADD SWAP1 POP SWAP3 SWAP2 POP POP JUMP JUMPDEST PUSH1 0x0 DUP3 DUP3 MSTORE PUSH1 0x20 DUP3 ADD SWAP1 POP SWAP3 SWAP2 POP POP JUMP JUMPDEST PUSH32 0x496E76616C6964207072656D69756D0000000000000000000000000000000000 PUSH1 0x0 DUP3 ADD MSTORE POP JUMP JUMPDEST PUSH1 0x0 PUSH3 0x3D8 PUSH1 0xF DUP4 PUSH3 0x38F JUMP JUMPDEST SWAP2 POP PUSH3 0x3E5 DUP3 PUSH3 0x3A0 JUMP JUMPDEST PUSH1 0x20 DUP3 ADD SWAP1 POP SWAP2 SWAP1 POP JUMP JUMPDEST PUSH1 0x0 PUSH1 0x20 DUP3 ADD SWAP1 POP DUP2 DUP2 SUB PUSH1 0x0 DUP4 ADD MSTORE PUSH3 0x40B DUP2 PUSH3 0x3C9 JUMP JUMPDEST SWAP1 POP SWAP2 SWAP1 POP JUMP JUMPDEST PUSH2 0xF4C DUP1 PUSH3 0x422 PUSH1 0x0 CODECOPY PUSH1 0x0 RETURN INVALID PUSH1 0x80 PUSH1 0x40 MSTORE CALLVALUE DUP1 ISZERO PUSH2 0x10 JUMPI PUSH1 0x0 DUP1 REVERT JUMPDEST POP PUSH1 0x4 CALLDATASIZE LT PUSH2 0xB4 JUMPI PUSH1 0x0 CALLDATALOAD PUSH1 0xE0 SHR DUP1 PUSH4 0x7150D8AE GT PUSH2 0x71 JUMPI DUP1 PUSH4 0x7150D8AE EQ PUSH2 0x15A JUMPI DUP1 PUSH4 0x79599F96 EQ PUSH2 0x178 JUMPI DUP1 PUSH4 0xB07F0A41 EQ PUSH2 0x182 JUMPI DUP1 PUSH4 0xC52987CF EQ PUSH2 0x19E JUMPI DUP1 PUSH4 0xE0A73A93 EQ PUSH2 0x1BC JUMPI DUP1 PUSH4 0xFFD9EEDB EQ PUSH2 0x1DA JUMPI PUSH2 0xB4 JUMP JUMPDEST DUP1 PUSH4 0x8551A53 EQ PUSH2 0xB9 JUMPI DUP1 PUSH4 0x14C68B1B EQ PUSH2 0xD7 JUMPI DUP1 PUSH4 0x200D2ED2 EQ PUSH2 0xF5 JUMPI DUP1 PUSH4 0x4665096D EQ PUSH2 0x114 JUMPI DUP1 PUSH4 0x4C2067C7 EQ PUSH2 0x132 JUMPI DUP1 PUSH4 0x590E1AE3 EQ PUSH2 0x150 JUMPI JUMPDEST PUSH1 0x0 DUP1 REVERT JUMPDEST PUSH2 0xC1 PUSH2 0x1F8 JUMP JUMPDEST PUSH1 0x40 MLOAD PUSH2 0xCE SWAP2 SWAP1 PUSH2 0xA66 JUMP JUMPDEST PUSH1 0x40 MLOAD DUP1 SWAP2 SUB SWAP1 RETURN JUMPDEST PUSH2 0xDF PUSH2 0x21C JUMP JUMPDEST PUSH1 0x40 MLOAD PUSH2 0xEC SWAP2 SWAP1 PUSH2 0xA9C JUMP JUMPDEST PUSH1 0x40 MLOAD DUP1 SWAP2 SUB SWAP1 RETURN JUMPDEST PUSH2 0xFD PUSH2 0x22F JUMP JUMPDEST PUSH1 0x40 MLOAD PUSH2 0x10B SWAP3 SWAP2 SWAP1 PUSH2 0xAB7 JUMP JUMPDEST PUSH1 0x40 MLOAD DUP1 SWAP2 SUB SWAP1 RETURN JUMPDEST PUSH2 0x11C PUSH2 0x25A JUMP JUMPDEST PUSH1 0x40 MLOAD PUSH2 0x129 SWAP2 SWAP1 PUSH2 0xAF9 JUMP JUMPDEST PUSH1 0x40 MLOAD DUP1 SWAP2 SUB SWAP1 RETURN JUMPDEST PUSH2 0x13A PUSH2 0x260 JUMP JUMPDEST PUSH1 0x40 MLOAD PUSH2 0x147 SWAP2 SWAP1 PUSH2 0xA9C JUMP JUMPDEST PUSH1 0x40 MLOAD DUP1 SWAP2 SUB SWAP1 RETURN JUMPDEST PUSH2 0x158 PUSH2 0x273 JUMP JUMPDEST STOP JUMPDEST PUSH2 0x162 PUSH2 0x4A6 JUMP JUMPDEST PUSH1 0x40 MLOAD PUSH2 0x16F SWAP2 SWAP1 PUSH2 0xA66 JUMP JUMPDEST PUSH1 0x40 MLOAD DUP1 SWAP2 SUB SWAP1 RETURN JUMPDEST PUSH2 0x180 PUSH2 0x4CC JUMP JUMPDEST STOP JUMPDEST PUSH2 0x19C PUSH1 0x4 DUP1 CALLDATASIZE SUB DUP2 ADD SWAP1 PUSH2 0x197 SWAP2 SWAP1 PUSH2 0xB45 JUMP JUMPDEST PUSH2 0x577 JUMP JUMPDEST STOP JUMPDEST PUSH2 0x1A6 PUSH2 0xA06 JUMP JUMPDEST PUSH1 0x40 MLOAD PUSH2 0x1B3 SWAP2 SWAP1 PUSH2 0xAF9 JUMP JUMPDEST PUSH1 0x40 MLOAD DUP1 SWAP2 SUB SWAP1 RETURN JUMPDEST PUSH2 0x1C4 PUSH2 0xA0C JUMP JUMPDEST PUSH1 0x40 MLOAD PUSH2 0x1D1 SWAP2 SWAP1 PUSH2 0xAF9 JUMP JUMPDEST PUSH1 0x40 MLOAD DUP1 SWAP2 SUB SWAP1 RETURN JUMPDEST PUSH2 0x1E2 PUSH2 0xA12 JUMP JUMPDEST PUSH1 0x40 MLOAD PUSH2 0x1EF SWAP2 SWAP1 PUSH2 0xBE9 JUMP JUMPDEST PUSH1 0x40 MLOAD DUP1 SWAP2 SUB SWAP1 RETURN JUMPDEST PUSH1 0x0 DUP1 SLOAD SWAP1 PUSH2 0x100 EXP SWAP1 DIV PUSH20 0xFFFFFFFFFFFFFFFFFFFFFFFFFFFFFFFFFFFFFFFF AND DUP2 JUMP JUMPDEST PUSH1 0x5 PUSH1 0x0 SWAP1 SLOAD SWAP1 PUSH2 0x100 EXP SWAP1 DIV PUSH1 0xFF AND DUP2 JUMP JUMPDEST PUSH1 0x0 DUP1 PUSH1 0x5 PUSH1 0x1 SWAP1 SLOAD SWAP1 PUSH2 0x100 EXP SWAP1 DIV PUSH1 0xFF AND PUSH1 0x5 PUSH1 0x0 SWAP1 SLOAD SWAP1 PUSH2 0x100 EXP SWAP1 DIV PUSH1 0xFF AND SWAP2 POP SWAP2 POP SWAP1 SWAP2 JUMP JUMPDEST PUSH1 0x4 SLOAD DUP2 JUMP JUMPDEST PUSH1 0x5 PUSH1 0x1 SWAP1 SLOAD SWAP1 PUSH2 0x100 EXP SWAP1 DIV PUSH1 0xFF AND DUP2 JUMP JUMPDEST PUSH1 0x5 PUSH1 0x1 SWAP1 SLOAD SWAP1 PUSH2 0x100 EXP SWAP1 DIV PUSH1 0xFF AND DUP1 ISZERO PUSH2 0x29C JUMPI POP PUSH1 0x5 PUSH1 0x0 SWAP1 SLOAD SWAP1 PUSH2 0x100 EXP SWAP1 DIV PUSH1 0xFF AND ISZERO JUMPDEST PUSH2 0x2DB JUMPI PUSH1 0x40 MLOAD PUSH32 0x8C379A000000000000000000000000000000000000000000000000000000000 DUP2 MSTORE PUSH1 0x4 ADD PUSH2 0x2D2 SWAP1 PUSH2 0xC87 JUMP JUMPDEST PUSH1 0x40 MLOAD DUP1 SWAP2 SUB SWAP1 REVERT JUMPDEST PUSH1 0x0 PUSH1 0x3 DUP2 GT ISZERO PUSH2 0x2EF JUMPI PUSH2 0x2EE PUSH2 0xB72 JUMP JUMPDEST JUMPDEST PUSH1 0x1 PUSH1 0x14 SWAP1 SLOAD SWAP1 PUSH2 0x100 EXP SWAP1 DIV PUSH1 0xFF AND PUSH1 0x3 DUP2 GT ISZERO PUSH2 0x311 JUMPI PUSH2 0x310 PUSH2 0xB72 JUMP JUMPDEST JUMPDEST EQ DUP1 PUSH2 0x350 JUMPI POP PUSH1 0x1 PUSH1 0x3 DUP2 GT ISZERO PUSH2 0x32C JUMPI PUSH2 0x32B PUSH2 0xB72 JUMP JUMPDEST JUMPDEST PUSH1 0x1 PUSH1 0x14 SWAP1 SLOAD SWAP1 PUSH2 0x100 EXP SWAP1 DIV PUSH1 0xFF AND PUSH1 0x3 DUP2 GT ISZERO PUSH2 0x34E JUMPI PUSH2 0x34D PUSH2 0xB72 JUMP JUMPDEST JUMPDEST EQ JUMPDEST ISZERO PUSH2 0x3C1 JUMPI PUSH1 0x1 PUSH1 0x0 SWAP1 SLOAD SWAP1 PUSH2 0x100 EXP SWAP1 DIV PUSH20 0xFFFFFFFFFFFFFFFFFFFFFFFFFFFFFFFFFFFFFFFF AND PUSH20 0xFFFFFFFFFFFFFFFFFFFFFFFFFFFFFFFFFFFFFFFF AND PUSH2 0x8FC PUSH1 0x3 SLOAD SWAP1 DUP2 ISZERO MUL SWAP1 PUSH1 0x40 MLOAD PUSH1 0x0 PUSH1 0x40 MLOAD DUP1 DUP4 SUB DUP2 DUP6 DUP9 DUP9 CALL SWAP4 POP POP POP POP ISZERO DUP1 ISZERO PUSH2 0x3BF JUMPI RETURNDATASIZE PUSH1 0x0 DUP1 RETURNDATACOPY RETURNDATASIZE PUSH1 0x0 REVERT JUMPDEST POP JUMPDEST PUSH1 0x2 PUSH1 0x3 DUP2 GT ISZERO PUSH2 0x3D5 JUMPI PUSH2 0x3D4 PUSH2 0xB72 JUMP JUMPDEST JUMPDEST PUSH1 0x1 PUSH1 0x14 SWAP1 SLOAD SWAP1 PUSH2 0x100 EXP SWAP1 DIV PUSH1 0xFF AND PUSH1 0x3 DUP2 GT ISZERO PUSH2 0x3F7 JUMPI PUSH2 0x3F6 PUSH2 0xB72 JUMP JUMPDEST JUMPDEST EQ DUP1 PUSH2 0x435 JUMPI POP PUSH1 0x3 DUP1 DUP2 GT ISZERO PUSH2 0x411 JUMPI PUSH2 0x410 PUSH2 0xB72 JUMP JUMPDEST JUMPDEST PUSH1 0x1 PUSH1 0x14 SWAP1 SLOAD SWAP1 PUSH2 0x100 EXP SWAP1 DIV PUSH1 0xFF AND PUSH1 0x3 DUP2 GT ISZERO PUSH2 0x433 JUMPI PUSH2 0x432 PUSH2 0xB72 JUMP JUMPDEST JUMPDEST EQ JUMPDEST ISZERO PUSH2 0x4A4 JUMPI PUSH1 0x0 DUP1 SLOAD SWAP1 PUSH2 0x100 EXP SWAP1 DIV PUSH20 0xFFFFFFFFFFFFFFFFFFFFFFFFFFFFFFFFFFFFFFFF AND PUSH20 0xFFFFFFFFFFFFFFFFFFFFFFFFFFFFFFFFFFFFFFFF AND PUSH2 0x8FC PUSH1 0x3 SLOAD SWAP1 DUP2 ISZERO MUL SWAP1 PUSH1 0x40 MLOAD PUSH1 0x0 PUSH1 0x40 MLOAD DUP1 DUP4 SUB DUP2 DUP6 DUP9 DUP9 CALL SWAP4 POP POP POP POP ISZERO DUP1 ISZERO PUSH2 0x4A2 JUMPI RETURNDATASIZE PUSH1 0x0 DUP1 RETURNDATACOPY RETURNDATASIZE PUSH1 0x0 REVERT JUMPDEST POP JUMPDEST JUMP JUMPDEST PUSH1 0x1 PUSH1 0x0 SWAP1 SLOAD SWAP1 PUSH2 0x100 EXP SWAP1 DIV PUSH20 0xFFFFFFFFFFFFFFFFFFFFFFFFFFFFFFFFFFFFFFFF AND DUP2 JUMP JUMPDEST PUSH1 0x0 DUP1 SLOAD SWAP1 PUSH2 0x100 EXP SWAP1 DIV PUSH20 0xFFFFFFFFFFFFFFFFFFFFFFFFFFFFFFFFFFFFFFFF AND PUSH20 0xFFFFFFFFFFFFFFFFFFFFFFFFFFFFFFFFFFFFFFFF AND CALLER PUSH20 0xFFFFFFFFFFFFFFFFFFFFFFFFFFFFFFFFFFFFFFFF AND EQ PUSH2 0x55A JUMPI PUSH1 0x40 MLOAD PUSH32 0x8C379A000000000000000000000000000000000000000000000000000000000 DUP2 MSTORE PUSH1 0x4 ADD PUSH2 0x551 SWAP1 PUSH2 0xD19 JUMP JUMPDEST PUSH1 0x40 MLOAD DUP1 SWAP2 SUB SWAP1 REVERT JUMPDEST PUSH1 0x1 PUSH1 0x5 PUSH1 0x1 PUSH2 0x100 EXP DUP2 SLOAD DUP2 PUSH1 0xFF MUL NOT AND SWAP1 DUP4 ISZERO ISZERO MUL OR SWAP1 SSTORE POP JUMP JUMPDEST PUSH1 0x1 PUSH1 0x0 SWAP1 SLOAD SWAP1 PUSH2 0x100 EXP SWAP1 DIV PUSH20 0xFFFFFFFFFFFFFFFFFFFFFFFFFFFFFFFFFFFFFFFF AND PUSH20 0xFFFFFFFFFFFFFFFFFFFFFFFFFFFFFFFFFFFFFFFF AND CALLER PUSH20 0xFFFFFFFFFFFFFFFFFFFFFFFFFFFFFFFFFFFFFFFF AND EQ PUSH2 0x607 JUMPI PUSH1 0x40 MLOAD PUSH32 0x8C379A000000000000000000000000000000000000000000000000000000000 DUP2 MSTORE PUSH1 0x4 ADD PUSH2 0x5FE SWAP1 PUSH2 0xDAB JUMP JUMPDEST PUSH1 0x40 MLOAD DUP1 SWAP2 SUB SWAP1 REVERT JUMPDEST PUSH1 0x5 PUSH1 0x1 SWAP1 SLOAD SWAP1 PUSH2 0x100 EXP SWAP1 DIV PUSH1 0xFF AND ISZERO DUP1 ISZERO PUSH2 0x631 JUMPI POP PUSH1 0x5 PUSH1 0x0 SWAP1 SLOAD SWAP1 PUSH2 0x100 EXP SWAP1 DIV PUSH1 0xFF AND ISZERO JUMPDEST PUSH2 0x670 JUMPI PUSH1 0x40 MLOAD PUSH32 0x8C379A000000000000000000000000000000000000000000000000000000000 DUP2 MSTORE PUSH1 0x4 ADD PUSH2 0x667 SWAP1 PUSH2 0xE3D JUMP JUMPDEST PUSH1 0x40 MLOAD DUP1 SWAP2 SUB SWAP1 REVERT JUMPDEST PUSH1 0x0 PUSH1 0x3 DUP2 GT ISZERO PUSH2 0x684 JUMPI PUSH2 0x683 PUSH2 0xB72 JUMP JUMPDEST JUMPDEST PUSH1 0x1 PUSH1 0x14 SWAP1 SLOAD SWAP1 PUSH2 0x100 EXP SWAP1 DIV PUSH1 0xFF AND PUSH1 0x3 DUP2 GT ISZERO PUSH2 0x6A6 JUMPI PUSH2 0x6A5 PUSH2 0xB72 JUMP JUMPDEST JUMPDEST EQ DUP1 ISZERO PUSH2 0x6B4 JUMPI POP PUSH1 0x2 SLOAD DUP2 GT JUMPDEST ISZERO PUSH2 0x756 JUMPI PUSH1 0x1 PUSH1 0x0 SWAP1 SLOAD SWAP1 PUSH2 0x100 EXP SWAP1 DIV PUSH20 0xFFFFFFFFFFFFFFFFFFFFFFFFFFFFFFFFFFFFFFFF AND PUSH20 0xFFFFFFFFFFFFFFFFFFFFFFFFFFFFFFFFFFFFFFFF AND PUSH2 0x8FC PUSH1 0x2 SLOAD DUP4 PUSH2 0x703 SWAP2 SWAP1 PUSH2 0xE8C JUMP JUMPDEST SELFBALANCE PUSH2 0x70E SWAP2 SWAP1 PUSH2 0xEC0 JUMP JUMPDEST SWAP1 DUP2 ISZERO MUL SWAP1 PUSH1 0x40 MLOAD PUSH1 0x0 PUSH1 0x40 MLOAD DUP1 DUP4 SUB DUP2 DUP6 DUP9 DUP9 CALL SWAP4 POP POP POP POP ISZERO DUP1 ISZERO PUSH2 0x739 JUMPI RETURNDATASIZE PUSH1 0x0 DUP1 RETURNDATACOPY RETURNDATASIZE PUSH1 0x0 REVERT JUMPDEST POP PUSH1 0x1 PUSH1 0x5 PUSH1 0x0 PUSH2 0x100 EXP DUP2 SLOAD DUP2 PUSH1 0xFF MUL NOT AND SWAP1 DUP4 ISZERO ISZERO MUL OR SWAP1 SSTORE POP JUMPDEST PUSH1 0x1 PUSH1 0x3 DUP2 GT ISZERO PUSH2 0x76A JUMPI PUSH2 0x769 PUSH2 0xB72 JUMP JUMPDEST JUMPDEST PUSH1 0x1 PUSH1 0x14 SWAP1 SLOAD SWAP1 PUSH2 0x100 EXP SWAP1 DIV PUSH1 0xFF AND PUSH1 0x3 DUP2 GT ISZERO PUSH2 0x78C JUMPI PUSH2 0x78B PUSH2 0xB72 JUMP JUMPDEST JUMPDEST EQ DUP1 ISZERO PUSH2 0x79A JUMPI POP PUSH1 0x2 SLOAD DUP2 LT JUMPDEST ISZERO PUSH2 0x83C JUMPI PUSH1 0x1 PUSH1 0x0 SWAP1 SLOAD SWAP1 PUSH2 0x100 EXP SWAP1 DIV PUSH20 0xFFFFFFFFFFFFFFFFFFFFFFFFFFFFFFFFFFFFFFFF AND PUSH20 0xFFFFFFFFFFFFFFFFFFFFFFFFFFFFFFFFFFFFFFFF AND PUSH2 0x8FC DUP3 PUSH1 0x2 SLOAD PUSH2 0x7E9 SWAP2 SWAP1 PUSH2 0xE8C JUMP JUMPDEST SELFBALANCE PUSH2 0x7F4 SWAP2 SWAP1 PUSH2 0xEC0 JUMP JUMPDEST SWAP1 DUP2 ISZERO MUL SWAP1 PUSH1 0x40 MLOAD PUSH1 0x0 PUSH1 0x40 MLOAD DUP1 DUP4 SUB DUP2 DUP6 DUP9 DUP9 CALL SWAP4 POP POP POP POP ISZERO DUP1 ISZERO PUSH2 0x81F JUMPI RETURNDATASIZE PUSH1 0x0 DUP1 RETURNDATACOPY RETURNDATASIZE PUSH1 0x0 REVERT JUMPDEST POP PUSH1 0x1 PUSH1 0x5 PUSH1 0x0 PUSH2 0x100 EXP DUP2 SLOAD DUP2 PUSH1 0xFF MUL NOT AND SWAP1 DUP4 ISZERO ISZERO MUL OR SWAP1 SSTORE POP JUMPDEST PUSH1 0x2 PUSH1 0x3 DUP2 GT ISZERO PUSH2 0x850 JUMPI PUSH2 0x84F PUSH2 0xB72 JUMP JUMPDEST JUMPDEST PUSH1 0x1 PUSH1 0x14 SWAP1 SLOAD SWAP1 PUSH2 0x100 EXP SWAP1 DIV PUSH1 0xFF AND PUSH1 0x3 DUP2 GT ISZERO PUSH2 0x872 JUMPI PUSH2 0x871 PUSH2 0xB72 JUMP JUMPDEST JUMPDEST EQ DUP1 ISZERO PUSH2 0x880 JUMPI POP PUSH1 0x2 SLOAD DUP2 GT JUMPDEST ISZERO PUSH2 0x920 JUMPI PUSH1 0x0 DUP1 SLOAD SWAP1 PUSH2 0x100 EXP SWAP1 DIV PUSH20 0xFFFFFFFFFFFFFFFFFFFFFFFFFFFFFFFFFFFFFFFF AND PUSH20 0xFFFFFFFFFFFFFFFFFFFFFFFFFFFFFFFFFFFFFFFF AND PUSH2 0x8FC PUSH1 0x2 SLOAD DUP4 PUSH2 0x8CD SWAP2 SWAP1 PUSH2 0xE8C JUMP JUMPDEST SELFBALANCE PUSH2 0x8D8 SWAP2 SWAP1 PUSH2 0xEC0 JUMP JUMPDEST SWAP1 DUP2 ISZERO MUL SWAP1 PUSH1 0x40 MLOAD PUSH1 0x0 PUSH1 0x40 MLOAD DUP1 DUP4 SUB DUP2 DUP6 DUP9 DUP9 CALL SWAP4 POP POP POP POP ISZERO DUP1 ISZERO PUSH2 0x903 JUMPI RETURNDATASIZE PUSH1 0x0 DUP1 RETURNDATACOPY RETURNDATASIZE PUSH1 0x0 REVERT JUMPDEST POP PUSH1 0x1 PUSH1 0x5 PUSH1 0x0 PUSH2 0x100 EXP DUP2 SLOAD DUP2 PUSH1 0xFF MUL NOT AND SWAP1 DUP4 ISZERO ISZERO MUL OR SWAP1 SSTORE POP JUMPDEST PUSH1 0x3 DUP1 DUP2 GT ISZERO PUSH2 0x933 JUMPI PUSH2 0x932 PUSH2 0xB72 JUMP JUMPDEST JUMPDEST PUSH1 0x1 PUSH1 0x14 SWAP1 SLOAD SWAP1 PUSH2 0x100 EXP SWAP1 DIV PUSH1 0xFF AND PUSH1 0x3 DUP2 GT ISZERO PUSH2 0x955 JUMPI PUSH2 0x954 PUSH2 0xB72 JUMP JUMPDEST JUMPDEST EQ DUP1 ISZERO PUSH2 0x963 JUMPI POP PUSH1 0x2 SLOAD DUP2 LT JUMPDEST ISZERO PUSH2 0xA03 JUMPI PUSH1 0x0 DUP1 SLOAD SWAP1 PUSH2 0x100 EXP SWAP1 DIV PUSH20 0xFFFFFFFFFFFFFFFFFFFFFFFFFFFFFFFFFFFFFFFF AND PUSH20 0xFFFFFFFFFFFFFFFFFFFFFFFFFFFFFFFFFFFFFFFF AND PUSH2 0x8FC DUP3 PUSH1 0x2 SLOAD PUSH2 0x9B0 SWAP2 SWAP1 PUSH2 0xE8C JUMP JUMPDEST SELFBALANCE PUSH2 0x9BB SWAP2 SWAP1 PUSH2 0xEC0 JUMP JUMPDEST SWAP1 DUP2 ISZERO MUL SWAP1 PUSH1 0x40 MLOAD PUSH1 0x0 PUSH1 0x40 MLOAD DUP1 DUP4 SUB DUP2 DUP6 DUP9 DUP9 CALL SWAP4 POP POP POP POP ISZERO DUP1 ISZERO PUSH2 0x9E6 JUMPI RETURNDATASIZE PUSH1 0x0 DUP1 RETURNDATACOPY RETURNDATASIZE PUSH1 0x0 REVERT JUMPDEST POP PUSH1 0x1 PUSH1 0x5 PUSH1 0x0 PUSH2 0x100 EXP DUP2 SLOAD DUP2 PUSH1 0xFF MUL NOT AND SWAP1 DUP4 ISZERO ISZERO MUL OR SWAP1 SSTORE POP JUMPDEST POP JUMP JUMPDEST PUSH1 0x2 SLOAD DUP2 JUMP JUMPDEST PUSH1 0x3 SLOAD DUP2 JUMP JUMPDEST PUSH1 0x1 PUSH1 0x14 SWAP1 SLOAD SWAP1 PUSH2 0x100 EXP SWAP1 DIV PUSH1 0xFF AND DUP2 JUMP JUMPDEST PUSH1 0x0 PUSH20 0xFFFFFFFFFFFFFFFFFFFFFFFFFFFFFFFFFFFFFFFF DUP3 AND SWAP1 POP SWAP2 SWAP1 POP JUMP JUMPDEST PUSH1 0x0 PUSH2 0xA50 DUP3 PUSH2 0xA25 JUMP JUMPDEST SWAP1 POP SWAP2 SWAP1 POP JUMP JUMPDEST PUSH2 0xA60 DUP2 PUSH2 0xA45 JUMP JUMPDEST DUP3 MSTORE POP POP JUMP JUMPDEST PUSH1 0x0 PUSH1 0x20 DUP3 ADD SWAP1 POP PUSH2 0xA7B PUSH1 0x0 DUP4 ADD DUP5 PUSH2 0xA57 JUMP JUMPDEST SWAP3 SWAP2 POP POP JUMP JUMPDEST PUSH1 0x0 DUP2 ISZERO ISZERO SWAP1 POP SWAP2 SWAP1 POP JUMP JUMPDEST PUSH2 0xA96 DUP2 PUSH2 0xA81 JUMP JUMPDEST DUP3 MSTORE POP POP JUMP JUMPDEST PUSH1 0x0 PUSH1 0x20 DUP3 ADD SWAP1 POP PUSH2 0xAB1 PUSH1 0x0 DUP4 ADD DUP5 PUSH2 0xA8D JUMP JUMPDEST SWAP3 SWAP2 POP POP JUMP JUMPDEST PUSH1 0x0 PUSH1 0x40 DUP3 ADD SWAP1 POP PUSH2 0xACC PUSH1 0x0 DUP4 ADD DUP6 PUSH2 0xA8D JUMP JUMPDEST PUSH2 0xAD9 PUSH1 0x20 DUP4 ADD DUP5 PUSH2 0xA8D JUMP JUMPDEST SWAP4 SWAP3 POP POP POP JUMP JUMPDEST PUSH1 0x0 DUP2 SWAP1 POP SWAP2 SWAP1 POP JUMP JUMPDEST PUSH2 0xAF3 DUP2 PUSH2 0xAE0 JUMP JUMPDEST DUP3 MSTORE POP POP JUMP JUMPDEST PUSH1 0x0 PUSH1 0x20 DUP3 ADD SWAP1 POP PUSH2 0xB0E PUSH1 0x0 DUP4 ADD DUP5 PUSH2 0xAEA JUMP JUMPDEST SWAP3 SWAP2 POP POP JUMP JUMPDEST PUSH1 0x0 DUP1 REVERT JUMPDEST PUSH2 0xB22 DUP2 PUSH2 0xAE0 JUMP JUMPDEST DUP2 EQ PUSH2 0xB2D JUMPI PUSH1 0x0 DUP1 REVERT JUMPDEST POP JUMP JUMPDEST PUSH1 0x0 DUP2 CALLDATALOAD SWAP1 POP PUSH2 0xB3F DUP2 PUSH2 0xB19 JUMP JUMPDEST SWAP3 SWAP2 POP POP JUMP JUMPDEST PUSH1 0x0 PUSH1 0x20 DUP3 DUP5 SUB SLT ISZERO PUSH2 0xB5B JUMPI PUSH2 0xB5A PUSH2 0xB14 JUMP JUMPDEST JUMPDEST PUSH1 0x0 PUSH2 0xB69 DUP5 DUP3 DUP6 ADD PUSH2 0xB30 JUMP JUMPDEST SWAP2 POP POP SWAP3 SWAP2 POP POP JUMP JUMPDEST PUSH32 0x4E487B7100000000000000000000000000000000000000000000000000000000 PUSH1 0x0 MSTORE PUSH1 0x21 PUSH1 0x4 MSTORE PUSH1 0x24 PUSH1 0x0 REVERT JUMPDEST PUSH1 0x4 DUP2 LT PUSH2 0xBB2 JUMPI PUSH2 0xBB1 PUSH2 0xB72 JUMP JUMPDEST JUMPDEST POP JUMP JUMPDEST PUSH1 0x0 DUP2 SWAP1 POP PUSH2 0xBC3 DUP3 PUSH2 0xBA1 JUMP JUMPDEST SWAP2 SWAP1 POP JUMP JUMPDEST PUSH1 0x0 PUSH2 0xBD3 DUP3 PUSH2 0xBB5 JUMP JUMPDEST SWAP1 POP SWAP2 SWAP1 POP JUMP JUMPDEST PUSH2 0xBE3 DUP2 PUSH2 0xBC8 JUMP JUMPDEST DUP3 MSTORE POP POP JUMP JUMPDEST PUSH1 0x0 PUSH1 0x20 DUP3 ADD SWAP1 POP PUSH2 0xBFE PUSH1 0x0 DUP4 ADD DUP5 PUSH2 0xBDA JUMP JUMPDEST SWAP3 SWAP2 POP POP JUMP JUMPDEST PUSH1 0x0 DUP3 DUP3 MSTORE PUSH1 0x20 DUP3 ADD SWAP1 POP SWAP3 SWAP2 POP POP JUMP JUMPDEST PUSH32 0x4F7074696F6E20686173206E6F742065787069726564206F7220686173206265 PUSH1 0x0 DUP3 ADD MSTORE PUSH32 0x656E206578657263697365640000000000000000000000000000000000000000 PUSH1 0x20 DUP3 ADD MSTORE POP JUMP JUMPDEST PUSH1 0x0 PUSH2 0xC71 PUSH1 0x2C DUP4 PUSH2 0xC04 JUMP JUMPDEST SWAP2 POP PUSH2 0xC7C DUP3 PUSH2 0xC15 JUMP JUMPDEST PUSH1 0x40 DUP3 ADD SWAP1 POP SWAP2 SWAP1 POP JUMP JUMPDEST PUSH1 0x0 PUSH1 0x20 DUP3 ADD SWAP1 POP DUP2 DUP2 SUB PUSH1 0x0 DUP4 ADD MSTORE PUSH2 0xCA0 DUP2 PUSH2 0xC64 JUMP JUMPDEST SWAP1 POP SWAP2 SWAP1 POP JUMP JUMPDEST PUSH32 0x4F6E6C792073656C6C65722063616E20706572666F726D2074686973206F7065 PUSH1 0x0 DUP3 ADD MSTORE PUSH32 0x726174696F6E0000000000000000000000000000000000000000000000000000 PUSH1 0x20 DUP3 ADD MSTORE POP JUMP JUMPDEST PUSH1 0x0 PUSH2 0xD03 PUSH1 0x26 DUP4 PUSH2 0xC04 JUMP JUMPDEST SWAP2 POP PUSH2 0xD0E DUP3 PUSH2 0xCA7 JUMP JUMPDEST PUSH1 0x40 DUP3 ADD SWAP1 POP SWAP2 SWAP1 POP JUMP JUMPDEST PUSH1 0x0 PUSH1 0x20 DUP3 ADD SWAP1 POP DUP2 DUP2 SUB PUSH1 0x0 DUP4 ADD MSTORE PUSH2 0xD32 DUP2 PUSH2 0xCF6 JUMP JUMPDEST SWAP1 POP SWAP2 SWAP1 POP JUMP JUMPDEST PUSH32 0x4F6E6C792062757965722063616E20706572666F726D2074686973206F706572 PUSH1 0x0 DUP3 ADD MSTORE PUSH32 0x6174696F6E000000000000000000000000000000000000000000000000000000 PUSH1 0x20 DUP3 ADD MSTORE POP JUMP JUMPDEST PUSH1 0x0 PUSH2 0xD95 PUSH1 0x25 DUP4 PUSH2 0xC04 JUMP JUMPDEST SWAP2 POP PUSH2 0xDA0 DUP3 PUSH2 0xD39 JUMP JUMPDEST PUSH1 0x40 DUP3 ADD SWAP1 POP SWAP2 SWAP1 POP JUMP JUMPDEST PUSH1 0x0 PUSH1 0x20 DUP3 ADD SWAP1 POP DUP2 DUP2 SUB PUSH1 0x0 DUP4 ADD MSTORE PUSH2 0xDC4 DUP2 PUSH2 0xD88 JUMP JUMPDEST SWAP1 POP SWAP2 SWAP1 POP JUMP JUMPDEST PUSH32 0x4F7074696F6E20616C72656164792065787069726564206F7220657865726369 PUSH1 0x0 DUP3 ADD MSTORE PUSH32 0x7365640000000000000000000000000000000000000000000000000000000000 PUSH1 0x20 DUP3 ADD MSTORE POP JUMP JUMPDEST PUSH1 0x0 PUSH2 0xE27 PUSH1 0x23 DUP4 PUSH2 0xC04 JUMP JUMPDEST SWAP2 POP PUSH2 0xE32 DUP3 PUSH2 0xDCB JUMP JUMPDEST PUSH1 0x40 DUP3 ADD SWAP1 POP SWAP2 SWAP1 POP JUMP JUMPDEST PUSH1 0x0 PUSH1 0x20 DUP3 ADD SWAP1 POP DUP2 DUP2 SUB PUSH1 0x0 DUP4 ADD MSTORE PUSH2 0xE56 DUP2 PUSH2 0xE1A JUMP JUMPDEST SWAP1 POP SWAP2 SWAP1 POP JUMP JUMPDEST PUSH32 0x4E487B7100000000000000000000000000000000000000000000000000000000 PUSH1 0x0 MSTORE PUSH1 0x11 PUSH1 0x4 MSTORE PUSH1 0x24 PUSH1 0x0 REVERT JUMPDEST PUSH1 0x0 PUSH2 0xE97 DUP3 PUSH2 0xAE0 JUMP JUMPDEST SWAP2 POP PUSH2 0xEA2 DUP4 PUSH2 0xAE0 JUMP JUMPDEST SWAP3 POP DUP3 DUP3 LT ISZERO PUSH2 0xEB5 JUMPI PUSH2 0xEB4 PUSH2 0xE5D JUMP JUMPDEST JUMPDEST DUP3 DUP3 SUB SWAP1 POP SWAP3 SWAP2 POP POP JUMP JUMPDEST PUSH1 0x0 PUSH2 0xECB DUP3 PUSH2 0xAE0 JUMP JUMPDEST SWAP2 POP PUSH2 0xED6 DUP4 PUSH2 0xAE0 JUMP JUMPDEST SWAP3 POP DUP3 PUSH32 0xFFFFFFFFFFFFFFFFFFFFFFFFFFFFFFFFFFFFFFFFFFFFFFFFFFFFFFFFFFFFFFFF SUB DUP3 GT ISZERO PUSH2 0xF0B JUMPI PUSH2 0xF0A PUSH2 0xE5D JUMP JUMPDEST JUMPDEST DUP3 DUP3 ADD SWAP1 POP SWAP3 SWAP2 POP POP JUMP INVALID LOG2 PUSH5 0x6970667358 0x22 SLT KECCAK256 DUP7 TIMESTAMP 0xBA SWAP1 0x2A 0xE1 SWAP12 0xE2 SELFBALANCE PUSH4 0x14C3ADCB SWAP1 0xBC SWAP10 POP PUSH10 0xE66596CC9C1635EA63F0 SDIV DUP14 PUSH18 0x64736F6C6343000808003300000000000000 "
				},
				"gasEstimates": {
					"creation": {
						"codeDepositCost": "783200",
						"executionCost": "infinite",
						"totalCost": "infinite"
					},
					"external": {
						"buyer()": "2514",
						"exercise(uint256)": "infinite",
						"exercised()": "2494",
						"expiration()": "2496",
						"expire()": "26650",
						"expired()": "2610",
						"optionType()": "2720",
						"premium()": "2517",
						"refund()": "infinite",
						"seller()": "2512",
						"status()": "infinite",
						"strikePrice()": "2495"
					}
				},
				"methodIdentifiers": {
					"buyer()": "7150d8ae",
					"exercise(uint256)": "b07f0a41",
					"exercised()": "14c68b1b",
					"expiration()": "4665096d",
					"expire()": "79599f96",
					"expired()": "4c2067c7",
					"optionType()": "ffd9eedb",
					"premium()": "e0a73a93",
					"refund()": "590e1ae3",
					"seller()": "08551a53",
					"status()": "200d2ed2",
					"strikePrice()": "c52987cf"
				}
			},
			"storageLayout": {
				"storage": [
					{
						"astId": 8,
						"contract": "contracts/option.sol:Options",
						"label": "seller",
						"offset": 0,
						"slot": "0",
						"type": "t_address_payable"
					},
					{
						"astId": 10,
						"contract": "contracts/option.sol:Options",
						"label": "buyer",
						"offset": 0,
						"slot": "1",
						"type": "t_address_payable"
					},
					{
						"astId": 13,
						"contract": "contracts/option.sol:Options",
						"label": "optionType",
						"offset": 20,
						"slot": "1",
						"type": "t_enum(OptionType)6"
					},
					{
						"astId": 15,
						"contract": "contracts/option.sol:Options",
						"label": "strikePrice",
						"offset": 0,
						"slot": "2",
						"type": "t_uint256"
					},
					{
						"astId": 17,
						"contract": "contracts/option.sol:Options",
						"label": "premium",
						"offset": 0,
						"slot": "3",
						"type": "t_uint256"
					},
					{
						"astId": 19,
						"contract": "contracts/option.sol:Options",
						"label": "expiration",
						"offset": 0,
						"slot": "4",
						"type": "t_uint256"
					},
					{
						"astId": 21,
						"contract": "contracts/option.sol:Options",
						"label": "exercised",
						"offset": 0,
						"slot": "5",
						"type": "t_bool"
					},
					{
						"astId": 23,
						"contract": "contracts/option.sol:Options",
						"label": "expired",
						"offset": 1,
						"slot": "5",
						"type": "t_bool"
					}
				],
				"types": {
					"t_address_payable": {
						"encoding": "inplace",
						"label": "address payable",
						"numberOfBytes": "20"
					},
					"t_bool": {
						"encoding": "inplace",
						"label": "bool",
						"numberOfBytes": "1"
					},
					"t_enum(OptionType)6": {
						"encoding": "inplace",
						"label": "enum Options.OptionType",
						"numberOfBytes": "1"
					},
					"t_uint256": {
						"encoding": "inplace",
						"label": "uint256",
						"numberOfBytes": "32"
					}
				}
			},
			"userdoc": {
				"kind": "user",
				"methods": {},
				"version": 1
			}
		}
	}
}